:400000000040002011000000990E0000990E000080B500AF00F06EFF80B500AF274B12221A6002F021FF264B181C02F08DFC012002F02AFF302002F0B9FC224B224A1A6004
:40004000224B8022D2051A60214B214A126802210A431A601F4B204A1A60204B1F4A126808218A431A60FA23DB00181C02F0EAFC1B4B181C02F0D8FD1A4BE82252011A6038
:40008000194B1A4A1A601A4BC82252011A60164B184A1A60184B822212061A60174B802212031A60164B41221A60164B40221A60064B8022D2051A60BD4680BD30001040FA
:4000C000001BB70004010B40060000800C020B4078002E407C002E406A2D00006CF02E40DC050000040301400000014041FF00800003014040FF008008010B4000010B4001
:40010000180101400401014080B582B000AF72B6454B00221A60FB1D00221A7023E0FB1D1A78131C5B009B185B00404A9B183B603B681A78597809020A43997809040A430B
:40014000DB781B061343191C3B681A795B791B0213439BB2081C191C00F050FFFB1D1A78FB1D01321A70FB1D1B78012BD7D9304BEE2212061A602F4B992212041A602E4BBD
:40018000992212041A602D4B992212041A602C4B992212041A602B4B992212041A602A4A294B1B78DBB202210B43DBB21370274A264B1B78DBB23C218B43DBB214210B43E8
:4001C000DBB21370204A204B1B78DBB216210B43DBB213701E4BD82212041A601D4B20221A601D4BC42292021A601C4B20221A601B4BC0221A601B4BB022D2031A601A4B21
:40020000802212021A60194BC1221A60184BD82212041A60174B01221A60FFF7FDFE00F0FDFEBD4602B080BD6CF02E40E44B0100000002400001024000500F4010500F4046
:4002400020500F4030500F4000700F4001700F400800044000010440080104401801044000020440080204400C02044000030440080304401803044010B5064C2378002B7E
:4002800007D1054B002B02D0044800E000BF0123237010BDB0040020000000005C45010008B5084B002B03D00748084900E000BF07480368002B00D108BD064B002BFBD025
:4002C0009847F9E7000000005C450100B4040020C800002000000000B0B588B002AF786039607B68272B00D11EE123D8212B00D1A7E00DD8022B00D18CE002D8012B45D010
:400300008CE1032B00D18EE0042B00D190E085E1242B00D1B6E006D8222B00D1A5E0232B00D1A7E07AE1252B00D1C1E0262B00D1C7E073E1422B00D141E111D82A2B00D187
:4003400024E106D8282B00D1FAE0292B00D114E164E12C2B00D122E1412B00D124E15DE1FA2B00D155E106D84C2B00D12CE1572B00D145E152E182225200934200D135E1D5
:400380000622FF32934200D135E147E11423FC18002001F087F8031C23801423FB181B88002B07D01423FB181B88A14A101C191C03F030FA9F4B181C03F02CFA0823FB18A9
:4003C00000229A710823FB18181C04F0BFF91723FB1806221A7013E01723FB181B78013B0822BA18D35C1A1C934B181C111C03F011FA1723FB181A781723FB18013A1A7015
:400400001723FB181B78002BE6D18C4B181C03F07DFA0AE13B681B781A1C894B181C111C03F0F8F901E1874B181C03F06FFAFCE03B681B781A1C844B181C111C03F0EAF983
:40044000F3E03B681B78191C3B685B781D1C3B689B781C1C3B68DB781A1C7C4B0092181C2A1C231C03F0D6F9DFE0794B181C03F04DFADAE03B681B68764A101C191C03F0BC
:40048000C9F9D2E03B683B613B691B78191C3B695B781D1C3B699B781C1C3B69DB781A1C6D4B0092181C2A1C231C03F0B3F9BCE03B681B781A1C694B181C111C03F0AAF9FC
:4004C000B3E0674B1B781A1C664B181C111C03F0A1F9634B1B78042B25D1634B181C03F015FA012001F0F2FF002001F0C9FF012002F012F8C04602F095F8011C5B4B1A6842
:4005000080231B02134001D0012300E00023CB18002BF0D102F024F802F0B2F902F052F902F022FC81E080E03B681B781A1C504B181C111C03F06EF9012001F0C7FF74E03A
:400540004C4B181C03F0E2F9012001F0E5FF1423FC18002000F0A6FF031C23801423FB181B88002B08D01423FB181B88424A101C191C03F04FF958E057E03B681B781A1C4A
:400580003E4B181C111C03F045F94EE03B681B781A1C3B4B181C111C03F03CF945E0394B181C03F0B3F940E0374B5B78191C364B1B781A1C354B181C03F02CF935E0344BA7
:4005C000181C03F0A3F930E03B689B891A1C314B181C111C03F01EF93B680433181C00F0BDFA3B6818680EF05DFE1EE02A4B181C03F08CF919E0294B181C03F087F914E0EC
:400600003B685B881A1C264B181C111C03F002F90BE0244B181C03F079F906E0224A7B68101C191C03F0F6F8C046BD4606B0B0BD80450100A4450100D4450100DC450100BC
:40064000E0450100FC450100104601002C4601007046010094460100C046010004470100A61E0020244701005C470100080224406847010090470100B4470100D84701005D
:40068000F04701001C480100AC1E0020444801006C4801008C480100AC480100D4480100FC480100344901005449010080B500AF02F04CFD021C8023DB00134019D00E4BD9
:4006C0001B78032B0BD10D4B1B7801225340DAB20A4B1A70094B1B78181C01F0F7FE084B1B685A1C064B1A608023DB00181C02F03BFDBD4680BDC046A61E0020CC00002047
:40070000D004002080B500AF02F008FC0E4B181C02F0C0F80120012102F03EFC0120012102F066FC094B0120191C02F0C7FC012002F052FD80235B00181C02F08FFC02F04C
:40074000C3FBBD4680BDC046AD060000FF7F000090B583B000AF224B1B78032B03D0204B1B78022B39D1FC1D032003F0E7FF031C2370BC1D02F0F1F8031C2370FB1D1B780F
:40078000032B1ED105F08BFC031E042B04D005F086FC031E062B1BD101F044FF011C114B1A6880231B02134001D0012300E00023CB18002B02D102F0A1FA09E002F084FAC6
:4007C00006E005F06CFC031E022B01D002F07CFABB1D1B78181C02F0C4F8BD4603B090BDA61E00200802244080B500AF62B601F0E7FE1C4B181C03F089F8012001F040FE5C
:40080000012001F063FE012001F086FE164B181C00F0DEFD154B181C00F04CFC144B181C01F07EF901F040FCFFF76CFF03F092FFFFF78EFF0F4B1B78022B12D10E4B1B681A
:40084000002B0ED00C4B00221A6000F03FFA03F081FF0A4B1B88012B03D100F0AFF803F079FFE3E768490100D9020000010C000081080000A61E0020D0040020D404002029
:4008800090B585B000AF786039600F23FB183A6892781A703C4A7B68101C191C02F0BAFF7B689D3BFF3B0B2B63D89A00374BD3181B689F460F23FB181B78354A101C191C21
:4008C00002F0A8FF0F23FB181B78002B09D1314B01221A80304B01221A70304B00221A704EE04DE00F23FB181B782D4A101C191C02F090FF0F23FB181B78002B03D1254B27
:4009000000221A803CE03BE0264B181C02F0FEFF36E00F23FB181B78234A101C191C02F079FF3B685B68181C00F018F90F23FB181B78032B1CD13B685B681B680C22BC1891
:40094000181C00F049FE031C2380184B0C22BA1812881A800C23FB181B88002B08D0144B01221A60134B1B685A1C124B1A6007E006E0114B181C02F0C9FFC04600E0C0469E
:40098000BD4605B090BDC046984901006C4A0100AC490100D4040020D6000020D8040020DC4901000C4A0100344A0100D4000020D0000020D0040020544A0100B0B584B0A7
:4009C00000AF4E4B1B88002B00D194E04C4B1B685A1E4B4B1A604A4B1B68002B00D08AE0464B1B881A1C464B1A60464B1B78002B18D0444B00221A7001F026FD01F0B4FCE1
:400A0000082001F0BBFC012001F0F6FC031C9B029B0ABB60BB68181C01F07EFE021C3A4B1A600BE0384B1B685A1C374B1A60364B1B68282B02DD344B0F221A60334B1B78B1
:400A40001A1C012313400CD02F4B1A68131CDB009B18181C052102F09FFD031C2033FB6002E0294B1B68FB60FB681B021B0AFB60FB68274A101C191C00F0A4F8BC1D254B41
:400A8000224D1A785B781B021A4300231204120C1B0C1B041343181C002105222B1C01F01BFA031C2380BB1D1B88002B0AD0BB1D1B88194A101C191C02F0ACFE174B00228B
:400AC0001A8011E0FB689BB21AB2104B1B78191C01230B4001D0462300E043231049081C111C1A1C02F096FE084B1B7801225340DAB2064B1A70BD4604B0B0BDD40000205C
:400B0000D0000020D6000020E0040020D8040020D9040020AC1E00209C4A0100D4040020C84A010080B586B000AFF860B9607A6000237B6109E0BB685A1CBA601B78181C2F
:400B400001F05AFD7B6901337B617A697B689A42F1DB7B68181CBD4606B080BD80B584B000AF78600E23FB1800221A8016E07B681A680E23FB1800215B5ED3181B781A1CA1
:400B80000E4B181C111C02F045FE0E23FB181B889BB201339AB20E23FB181A800E23FB1800229B5E7A6892889342E0DB044B181C02F0ACFEBD4604B080BDC046E44A010081
:400BC000EC4A010080B582B000AF786039603B68DAB27B681A707B6801333A68120AD2B21A707B6802333A68120CD2B21A707B6803333A68120ED2B21A70BD4602B080BDF7
:400C000080B584B000AF786039600F23FB183A6892781A70264A7B68101C191C02F0FAFD7B68243BFF3B052B38D89A00214BD3181B689F460F23FB181B781F4A101C191C5C
:400C400002F0E8FD0F23FB181B78002B02D11B4B01221A800F23FB181B78002B03D1184B01221A8021E020E00F23FB181B78154A101C191C02F0CEFD0F23FB181B78002B54
:400C800002D10E4B00221A800F23FB181B78002B03D10B4B00221A8007E006E00A4B181C02F034FEC04600E0C046BD4604B080BDF04A0100744B0100044B0100E4040020B6
:400CC000E6040020304B01005C4B010090B589B002AF664B1B685A1E644B1A60634B1B68002B00D0BFE0614B03221A60604B1B68F02293433B615E4B3A69C0210A431A6006
:400D0000192001F06DFF5A4B1B68F02293433B61574B3A6970210A431A60012001F060FF01F022FB022001F029FB514B1B68F02293433B614E4B3A69C0210A431A600E2366
:400D4000FC18002001F058FB031C23800E23FB1800229A5E80239803111C02F01DFC031CBB60BB68434A934203DCFB1D00221A702FE0BB68404A934211DCBB683F4A9A1827
:400D8000131CDB009B1A9B009B18181CC823990002F002FC031CDAB2FB1D1A7019E0BB68374A934212DCBB68364A9A18131CDB009B18DB009B1A181CC82102F0EDFB031C19
:400DC000DBB21D33DAB2FB1D1A7002E0FB1D64221A70FB1D1B78092B03D8002001F09CFB02E0012001F098FB274B1B88012B17D11623FC18254BFA1D00921A785B781B02E4
:400E00001A4300231204120C1B0C1B041343181C00210022012300F045FA031C238009E01623FC18FB1D00200021012200F04EF9031C23801623FB181B88002B0BD01623FD
:400E4000FB181B88124A101C191C02F0E3FC0E4B00221A8007E0FB1D1B781A1C0D4B181C111C02F0D7FCBD4607B090BDD800002000003A40CF070000EF0A000030F8FFFF65
:400E8000B70B000010F5FFFFE6040020AC1E00208C4B0100A04B010080B500AFFEE7C04680B584B000AF7860104B1A687B68D3181A1C0F4BD21A8023DB009A4209DC0B4B3A
:400EC0001B68FB60094B1A687B68D218074B1A6007E002F053FC031C0C221A6001235B42FB60FB68181CBD4604B080BDE4000020C01E002080B586B000AF224B7B61224B3D
:400F00003B61204B7B6135E03B691B68FB603B695B68BB603B699B683B6000237B600CE0FB681A68BB681A60BB680433BB60FB680433FB607B6804337B607A683B689A4247
:400F4000EED13B69DB683B6000237B6008E0BB6800221A60BB680433BB607B6804337B607A683B689A42F2D13B6910333B617B69013B7B617B69002BC6D102F005FCFFF7EF
:400F800033FCFEE7010000006853010080B582B000AF154B144A126801218A431A6000237B600FE07B68032B04D8104B7A689200D35800E00E4B0F4A796889008B507B681B
:400FC00001337B607B682F2BECD9FFF79DF80A4B00221A60044B044A126801210A431A60BD4602B080BDC0460000104000000000990E000000000020C000002080B582B00E
:4010000000AF786039607A683B68101C00211A1C02F0F8FBBD4602B080BDC04680B500AF0B4B03221A600B4B03221A600A4B802212061A60094B0A4A1A600A4B084A1A6011
:40104000094B00221A60012000F010F8BD4680BD300030403000314000003A4000033A400100030040033A40000E3F4080B584B000AF021CFB1D1A700B4B1B68FB60FB1D7D
:401080001B78002B05D0FB68802212061343FB6003E0FB685B005B08FB60034BFA681A60BD4604B080BDC04680033A4080B500AFBD4680BD80B582B000AF7860024B7A680E
:4010C0001A60BD4602B080BDE804002090B587B000AF041C081C111C3B60FB1D221C1A70BB1D021C1A707B1D0A1C1A701623FB1800221A80FB1D1B78002B0BD1BB1D1B7874
:40110000002B07D17B1D1B78012B03D13B681B78642B04D91623FB1801221A8020E0FB1D1B78134ADB00D3185A880823FB181A817B1D1B789AB20823FB189A800823FB1840
:401140003A681A600823FB18181C0021002200230EF010FE031E03D01623FB1801221A801623FB181B88181CBD4607B090BDC046F04B010090B587B000AF78601723FB18B6
:4011800000221A701623FB1800221A70414B1B68002B00D176E07B689B892022934265D11723FB181B783C4ADB00D3185B885A1E3A49131C9B009B189B00CB185A6880236C
:4011C0005B01134045D07B681A1D7B6816217C18101C00211A1C40230EF0CCFD031C23701623FB181B78002B37D10C23FB187A6812881A800C23FB181722BA1812789A70B9
:401200000C23FB180022DA700C23FB1800225A607B685B68181C00F0DFF9031C1A1C012313409BB2002B0AD01A4B1B682422FF32111C0C22BA18081C111C98470DE0154B19
:401240001B68922251000C22BA18081C111C984703E01623FB1806221A70114B1B78DBB201229343DAB20E4B1A700BE01723FB181A781723FB1801321A701723FB181B783D
:40128000002B88D01623FB181B78181CBD4607B090BDC046E8040020F04B0100084E0100AF1E002090B587B000AF3C1D20800C1C101C191CFB1C221C1A70BB1C021C1A70F4
:4012C0007B1C0A1C1A701623FC18FB1C1878BB1C19787B1C1A78BB6AFFF7F8FE031C23801623FB181B88002B45D1264B1B78022B05D01623FB180422FF321A803BE020237E
:40130000002B14D020235A1E1F49131C9B009B189B00CB1808339B685B68181C00F05CF9031C1A1C012313409BB2002B05D11623FB18802252001A801DE0FB1C1B78134A0E
:40134000DB00D3185A880823FB181A810823FB18BA6A1A607B1C1B789AB20823FB189A801623FC183B1D0822BA181868111C0DF03BFF031C23801623FB181B88181CBD46D5
:4013800007B090BDA61E0020084E0100F04B010080B500AF064B00221A70064B00221A70054B00221A7000F009F8BD4680BDC046AF1E0020A81E0020AE1E002080B500AFFE
:4013C000FFF774FE00F09EFB00F0A0FBBD4680BDB0B58EB004AF78602623FB1800221A800C23FA18274B111C1A1C1823081C111C1A1C02F0FEF9244B1B78002B04D1FFF732
:40140000C7FF214B01221A707B68002B2ED02623FB181B88002B2DD11C4B7A681A602623FC181B481B49AD231A010C23FD1806230093194B01936E23FF3302932B1C03F03D
:401440009FF9031C23802623FB181B88002B11D1124B01221A702623FC18114B181C202115220EF039FC031C238003E02623FB1801221A802623FB181B88181CBD460AB0B6
:40148000B0BDC046704D0100EC040020C813002045180000D0130020005A0100A61E0020084E010090B585B000AF021CFB1D1A70FB1D1B78022B04D90E23FB1801221A805B
:4014C0004BE0294B1B78042B42D1284B1B78DBB21A1C042313403BD1FB1D1B78002B0BD1234B1E221A82224B5B6820221A80204B5B6830225A8010E0FB1D1B78012B0CD123
:401500001B4B1E221A821A4B5B68C822D2001A80174B5B68FA2212015A80164BFA1D12781A700E23FC18124B181C0CF00FFD031C23800E23FB181B88002B08D10B4B1B78BD
:40154000DBB204221343DAB2084B1A7005E004E00E23FB180422FF321A800E23FB181B88181CBD4605B090BDA61E0020AF1E002018010020AE1E002080B584B000AF7860F5
:401580000A1CFB1C1A700023BB60BB68002B20D07B689A79BB681A700F23FB1800221A7012E00F23FB181B780133BA68D3180F22BA18127879688A5C1A700F23FB181A7894
:4015C0000F23FB1801321A700F23FB181B78052BE7D9BD4604B080BD80B582B000AF78607B681B789AB27B6801331B789BB21B029BB213439BB2181CBD4602B080BDC0464D
:4016000090B585B000AF78600F23FB1800221A707B689B890B22934237D17B681A1D7B680F217C18101C00211A1C40230EF0A2FB031C23700F23FB181B78002B1DD17B68DF
:401640005B68181CFFF7C8FF031C1A1C022313409BB2002B08D0104B1B68822251007A68081C111C984708E00B4B1B680622FF32111C7A68081C111C9847084B1B78DBB2E8
:4016800001229343DAB2054B1A700F23FB181B78181CBD4605B090BDC8130020AF1E002090B585B000AF78600F23FC187B68181CFFF7A6FF031C2370284B1B78DBB21A1C5E
:4016C000012313400CD00F23FB181B78002B07D10F23FC187B68181CFFF74CFD031C23701E4B1B78DBB21A1C012313400CD00F23FB181B78002B07D10F23FC187B68181C24
:4017000000F074FA031C2370144B1B78DBB21A1C012313401FD10F23FB181B78002B16D00823FB1812229A707B689A890823FB181A800823FB180F22BA181278DA707B6842
:401740000822BA181868111C0DF026FD03E07B6818680DF0A7FDBD4605B090BDAF1E002080B582B000AF78607B68002B0AD0074B1B78DBB21A1C0123134003D07B68181CE8
:4017800000F026FCBD4602B080BDC046AF1E002080B500AF034B00225A70024B00221A70BD4680BDAC1E002080B582B000AF7860BD4602B080BDC04680B500AFBD4680BDE7
:4017C00080B584B000AF78600E23FB1800221A707B689B79002B1CD10F23FB1800221A7012E00F23FB181B787A68D35C002B04D00E23FB1801221A700BE00F23FB181A787C
:401800000F23FB1801321A700F23FB181B78052BE7D90E23FB181B78181CBD4604B080BD80B582B000AF021CBB1D1A80BD4602B080BDC04680B582B000AF7860BD4602B09E
:4018400080BDC04680B584B000AF021C3960FB1D1A70A04B1B78DBB201221343DAB29D4B1A70FB1D1B78712B00D917E19A009A4BD3181B689F460C23FB1807221A700C2324
:40188000FB1800225A700C23FB18181C04F036FC0C23FB1807221A700C23FB1801225A700C23FB18181C04F029FC8C4B1B68181CFFF786FF031E11D0884B1B68181C02F053
:4018C0004DFF864B1B68181C0021FFF755FE834B1B68181C0121FFF74FFE0DE0804B181C02F03CFF7E4B181C0021FFF745FE7C4B181C0121FFF740FE03200CF0E9F9794B3A
:4019000004221A70CBE03B68181CFFF74DFFC6E03B681A78744B1A70C1E06E4B1B78DBB21A1C202313400ED1704B1B78102B02D16E4B0522DA706E4B1A786C4B101C191C01
:401940000CF0CEFAABE0AAE03B68181CFFF772FFA5E03B68181CFFF76DFF624B02221A709DE0604B04221A7099E05E4B1B78022B40D0584B1B78DBB21A1C0123134039D0F4
:40198000544B1B78DBB21A1C042313400BD0554B03221A704F4B1B78DBB204229343DAB24C4B1A7026E04B4B1B78DBB21A1C082313400BD04B4B04221A70464B1B78DBB2E9
:4019C00008229343DAB2434B1A7013E0454B1B78032B0FD1434B04221A70464B1B78002B08D10120FFF75EFD031E03D13D4B03221A7054E053E03B681B88181CFFF710FF35
:401A00004DE03B4A3B68111C1A1C0223081C111C1A1C01F0EEFE364B1B781A1C131C5B009B185B006933FF331A1C334BD3180533324A111C1A1C0623081C111C1A1C01F05E
:401A4000D8FEFFF7B9FE2AE0FFF7A2FE27E03B685B88162B05D80E23FB183A6852881A8003E00E23FB1817221A803B680E22BA1811881A8800231204120C1B0C1B04134371
:401A8000181C0DF095FB0AE03B68181CFFF708FE05E03B68181CFFF763FE00E0C0460D4B1B78DBB21A1C112313400FD0094B1B78DBB201229343DAB2064B1A70104B1B68E9
:401AC000FA1D11783A68081C111C9847BD4604B080BDC046AF1E002088500100340100202C010020A61E0020A81E002010020020AC1E0020AE1E0020005A0100A01E002007
:401B0000C813002080B500AFBD4680BD80B500AF024B00221A80BD4680BDC0461405002080B582B000AF7860024B7A681A60BD4602B080BD1005002090B587B000AF041C11
:401B4000081C111C3B60FB1D221C1A70BB1D021C1A707B1D0A1C1A701623FB1800221A80FB1D1B78032B03D8BB1D1B78012B04D91623FB1801221A802FE0FB1D1A78BB1D07
:401B800018781949131C5B009B181B185B00CB189A880823FB181A810823FB181B89002B17D07B1D1B789AB20823FB189A800823FB183A681A600823FB18181C00210022B8
:401BC0000EF0A2F8031E08D01623FB1801221A8003E01623FB1801221A801623FB181B88181CBD4607B090BD5052010090B589B000AF78601E23FB1800221A701D23FB183A
:401C000000221A70B04B1B68002B00D154E11F23FB1800221A7044E17B6899891F23FB181A78AA48131C5B009B185B00C3189B8899420ED07B6899891F23FB181A78A3481F
:401C4000131C5B009B185B00C3185B88994200D020E10C23FB187A6812881A800C23FB181F22BA1812789A707B681A1D0C23FB185A607B6899891F23FB181A789348131C15
:401C80005B009B185B00C3185B88994200D077E01F23FB181B78032B4ED17B685B681A22BC18181CFFF798FC031C23801A23FB181B88002B40D01F23FB181A780823FB183D
:401CC000101C01210422FFF737FF031E34D11823FC180823FB18181CFFF77EFC031C23801623FC180823FB180233181CFFF774FC031C23807B685B681A22BC18181CFFF72F
:401D00006BFC031C23801A23FB181B88002B13D01A23FA181823FB1812881B889A4207D31A23FA181623FB1812881B889A4203D91E23FB1880221A701E23FB181B78002BC7
:401D400000D09BE07B681A1D7B681E217C18101C00211A1C40230EF00DF8031C23701E23FB181B78002B00D088E0574B1B68A222FF32111C0C22BA18081C111C98477DE08F
:401D80007B681A1D7B681E217C18101C00211A1C40230DF0EFFF031C23701E23FB181B78002B6BD11F23FB181A784849131C5B009B185B00CB185B885A1E4549131C9B00DC
:401DC0009B189B00CB185A6880235B0113401FD07B685B68181CFFF7FFFB031C1A1C012313409BB2002B09D0374B1B68CE2251000C22BA18081C111C984709E0324B1B6869
:401E00009E22FF32111C0C22BA18081C111C98471F23FB181A782D49131C5B009B185B00CB185B885A1E2A49131C9B009B189B00CB185A6880239B0113401FD07B685B68CA
:401E4000181CFFF7C9FB031C1A1C022313409BB2002B09D01C4B1B68CF2251000C22BA18081C111C984709E0174B1B68A022FF32111C0C22BA18081C111C9847154B1B78E9
:401E8000DBB201229343DAB2124B1A701D23FB1801221A701F23FB181A781F23FB1801321A701F23FB181B78032B05D81D23FB181B78002B00D1AFE61E23FB181B78181CAB
:401EC000BD4609B090BDC0461005002050520100084E0100AF1E002090B589B000AF0C243C192080081C111C7B600B23FB18021C1A700A23FB180A1C1A70314B1B78022B24
:401F000005D01E23FB180422FF321A8051E00B23FB181A782B49131C5B009B185B00CB189B885A1E2849131C9B009B189B00CB1808339B685B68181CFFF74EFB031C1A1CC4
:401F4000022313409BB2002B05D11E23FB180222FF321A802DE00B23FB181A781949131C5B009B185B00CB185A881023FB181A811023FB187A681A600A23FB181B789AB217
:401F80001023FB189A801E23FC180C23FB181022BA181868111C0DF01BF9031C23801E23FB181B88002B04D11023FB181A89074B1A801E23FB181B88181CBD4609B090BDA6
:401FC000A61E002050520100084E01001405002080B586B000AF78601623FB1800221A702D4B1B68002B54D02C4B1B88002B50D01723FB1800221A7041E01723FB181A7838
:402000002749131C5B009B185B00CB185A88234B1B889A422CD10C23FA187B68111C1A1C0223081C111C1A1C01F0E3FB0C23FB181722BA1812789A700C23FB1800225A60E8
:40204000184B1B78DBB201229343DAB2154B1A70124B00221A80104B1B68D02251000C22BA18081C111C98471623FB1801221A701723FB181A781723FB1801321A701723E8
:40208000FB181B78032B04D81623FB181B78002BB3D0BD4606B080BD100500201405002050520100AF1E002080B500AF064B1B78002B04D100F00AF8034B01221A7000F04A
:4020C00037F9BD4680BDC0461805002080B584B000AF0F20032100F025FD784B0F20191C00F0FAFC764B01221A60764B1B68002B01DA754900E07549754B754A12680A4359
:402100001A60744B744A1A60744B754A1A60754B00221A60744B754A1A60754B734A1A60744B744A1268802149020A431A60724B714A1268802149020A431A606F4B0022C0
:402140001A606F4B00221A606E4B11221A606E4B1B687B607B686D4A13407B607B688022920513437B607B68012293437B60664B7A681A600023FB6099E0654BFA6892009E
:40218000D258DC239B0113407B60624AFB68D3181B781A1C7B6813437B60FB68002B29D1FB689B005C4A944663447A681A60584BFA689200D3580122134009D04F4B4F4A08
:4021C0001268F96801208840011C89B20A431A604F4BFA689200D358022213402AD0484B474A1268F96801208840011C89B20A431A601FE0494B7A688021C9050A431A6020
:40220000434BFA689200D3580122134005D03D4B3C4A126820210A431A603D4BFA689200D3580222134005D0364B364A126840210A431A60364BFA689200D25880239B00A3
:40224000134003D080235B00BB6002E080235B01BB602F4BFA689200D25880235B00134005D12F4BFA6852000021D15209E0BB68002B00DA01335B1099B2294BFA685200CF
:40228000D152BB68274A53438022D20094466344002B02DA244A94466344DB129BB219B2224BFA689200D150FB680133FB60FB68012B00D861E7BD4604B080BD6524000041
:4022C00020003A4080033A40C0201013C020001300003A4004003A40C4000A8018003A400000FF071C003A4010003A400200020014003A4000033A4040033A4028023A40E3
:4023000038023A4018023A4030003A40FFFFFFDF6C5201007452010080003A4080023A40B81E002010270000FF070000B01E002080B500AF0A4B1B68002B0EDBC046094B08
:402340001B68002BFBDB064B054A1268802109060A431A600A2000F067FCBD4680BDC04600003A4008023A4080B500AF024B01221A60BD4680BDC04624003A4080B584B06C
:4023800000AF78600023FB607B680322134011D0184B1B6801221340FB60FB68002B03D17B6802221340F3D1FB68002B02D0114B01221A607B680C22134015D00D4B1B6828
:4023C00010221340FA681343FB60FB681022134003D17B6808221340F0D1FB681022134002D0044B10221A60FB68181CBD4604B080BDC04610023A4080B584B000AF7860A6
:402400007B68012B02D9002000F0E0FB7B68002B09D17B689B000A4A944663441B681B041B0CFB6004E0074B1B681B041B0CFB60FB689BB21BB2181CBD4604B080BDC04663
:4024400080013A4090023A4080B500AF044B044A1268802109060A431A60BD4680BDC04680023A4080B582B000AF044B1B687B60024B7A681A60BD4602B080BD10023A40B7
:4024800080B584B000AF021CFB1D1A700E4B1B68DAB20F23FB1840218A431A70FB1D1B789B01DBB240221340D9B20F23FB180F22BA1812780A431A70034B0F22BA18127847
:4024C0001A60BD4604B080BD0002044080B584B000AF021CFB1D1A700E4B1B68DAB20F23FB1840218A431A70FB1D1B789B01DBB240221340D9B20F23FB180F22BA18127805
:402500000A431A70034B0F22BA1812781A60BD4604B080BD0003044080B584B000AF021CFB1D1A700D4B1B68DAB20F23FB187F210A401A70FB1D1B78DB01D9B20F23FB18E5
:402540000F22BA1812780A431A70044B0F22BA1812781A60BD4604B080BDC0460003044080B582B000AF094B1B68DAB2FB1D7F218A431A70054BFA1D12781A60FB1D1B78C2
:40258000DB09DBB2181CBD4602B080BD1002044080B500AF00F056F8BD4680BD80B500AF064B064A1268802109060A431A6000F019F800F01BF8BD4680BDC04600002440A8
:4025C00080B500AF064B1B78002B04D1FFF7E0FF034B01221A70FFF7E1FFBD4680BDC0461905002080B500AFBD4680BD80B500AF00F080F8BD4680BD80B582B000AF78604B
:40260000C046064B1B681F221340082BF9D0044B7A681A60BD4602B080BDC046080224404002244080B582B000AF054B1B681F2213407B607B68181CBD4602B080BDC04612
:402640000802244080B500AF184B194A1A60194B00221A60184B01221A60184B184A1A60184B07221A60184B00221A60174B01221A60174B124A1A60164B00221A60164BEF
:4026800004221A60154B00221A60154B00221A60144B00221A60144B00221A60134B00221A60134B00221A60BD4680BD000024400F0000024000244048002440000324402C
:4026C00007000080040324401003244044002440000224400402244050002440880E2440C80E2440480F2440080F2440C80F2440880F244080B500AF054B054A126805495A
:402700000A40902109040A431A60BD4680BDC04600010240FFFF0FFF80B588B000AF7860244B1B889BB29BB21BB2BB61224B1B889BB29BB21BB27B617B687A695A43BB69D2
:402740009B02D3183B613B691C4A93420EDD3B69C822D203D31A00D50F331B11DB00181C552100F019FF031CFB610FE03B69A022920394466344002B00DA0F331B11DB0017
:40278000181C372100F008FF031CFB613A69FB69D3188022120294466344FB60FB68002B02DA074A944663441B14181CBD4608B080BDC04666F1FF0F64F1FF0FFFFF0E0026
:4027C000FFFF000080B500AF00F050F8054B181C00F00EF8032000F017F800F03DF8BD4680BDC046E927000080B500AFBD4680BD80B582B000AF7860024B7A689A64BD4666
:4028000002B080BD0000002090B585B000AF021CFB1D1A701623FB600B23FC1800F09DF8031C23700A4B0A4A12680A491140FA1D1078FA689040021C0A431A600B23FB18D5
:402840001B78181C00F08DF8BD4605B090BDC04600E400E0FFFF3FFF80B500AF024B04221A60BD4680BDC04600E100E080B500AF024B04221A60BD4680BDC04680E100E0E1
:4028800080B500AF024B04221A60BD4680BDC04680E200E080B582B000AF786000F048F87B68181C00F008F8032000F011F800F035F8BD4602B080BD80B582B000AF786081
:4028C000024B7A681A66BD4602B080BD0000002090B585B000AF021CFB1D1A700623FB600B23FC1800F039F8031C23700A4B0A4A1268C0218A43111CFA1D1078FA689040C6
:40290000021C0A431A600B23FB181B78181C00F028F8BD4605B090BD08E400E080B500AF024B802252001A60BD4680BD00E100E080B500AF024B802252001A60BD4680BD4A
:4029400080E100E0000000000230800803D00138FDD1C046C046C0467047EFF3108072B6704780F31088704790B585B000AF78600F23FC18FFF7F1FF031C2370094B7A6891
:4029800007210A40D104074A1268074802400A431A600F23FB181B78181CFFF7E2FFBD4605B090BD00010B40FFFFC7FF90B58BB000AF78602723FC18FFF7CFFF031C2370DA
:4029C000184B1A680C23FB181A60174B1A680C23FB185A607B68033B144AD35C1A1C0C23FB189A60124B1A680C23FB18DA601C23FB18104A1A600C23FA181C23FB185A6068
:402A00000D4B1C22BA181A600C4B0D4A1A600A4B1B682723FB181B78181CFFF7A2FFBD460BB090BD08010B4000010B407852010030001040B6EA00000800104004001040B7
:402A40001700008080B584B000AF78600023FB60154B154A126801210A431A60134B144A1A60144B134A1268802109020A431A607B68002B12D01023FB600CE0012000F0D5
:402A8000D3F800F019F8031E02D00023FB6005E07B68013B7B607B68002BEFD1FB68181CBD4604B080BDC04660F02E4078002E400220000010002E4080B582B000AF054BF1
:402AC0001B68012213407B607B68181CBD4602B080BDC0460C002E4080B584B000AF021C3960FB1D1A7080239B05FB60FB1D1B781F2B02D9002000F069F8FB1D1B7810333B
:402B00009B00FA68D3181B68BB60FB1D1B7810339B00FA68D3183A681A60BB68181CBD4604B080BD90B587B000AF021CFB1D1A70BB1D0A1C1A70BB1D1B78032B02D90020CB
:402B400000F044F8FB1D1B781F2B02D9002000F03DF8FB1D1B7803221340DB0006337B611323FC18FFF7F9FE031C2370FB1D1B789B08DBB29B00144A944663441B68FB60E5
:402B80007B6903229A40131CDA43FB681340FB60BB1D1A787B699A40131CFA681343FB60FB1D1B789B08DBB29B00074A94466344FA681A601323FB181B78181CFFF7D1FE72
:402BC000BD4607B090BDC04600E400E080B582B000AF021CFB1D1A7001BEBD4602B080BD80B582B000AF786009E00C4B1B68181CFFF7AAFE7B680A4A944663447B607A6885
:402C000080231B029A42F0D8064B1B687A685343181CFFF799FEBD4602B080BD200200200080FFFF1802002080B582B000AF021CBB1D1A80BB1D1B88044A12785343181C74
:402C4000FFF782FEBD4602B080BDC0461C02002080B500AF154B154A1268920092081A60134B134A1268920092081A60114B114A1268920092081A600F4B0F4A1268920074
:402C800092081A600D4B0D4A1268920092081A600B4B0B4A1268920092081A60094B094A1268920092081A60BD4680BD0800044008010440080204400803044008040440D9
:402CC000080504400806044090B583B000AFFC1DFFF743FE031C2370074B074A126804218A431A6030BFFB1D1B78181CFFF739FEBD4603B090BDC04610ED00E090B583B026
:402D000000AFFC1DFFF729FE031C2370114B114A1268520052081A600F4B104A128892B21A600F4B0E4A126804210A431A600D4B1B683B600220FFF717FE30BF094B3A68F9
:402D40001A60FB1D1B78181CFFF70BFEBD4603B090BDC04600000B400C000B4052F1FF0F10ED00E000010B4090B583B000AFFC1DFFF7F3FD031C2370FFF76AFF114B114AE8
:402D80001268802109060A431A600F4B0F4A128892B21A600E4B0E4A126804210A431A600C4B0C4A1268FF218A43F1210A431A6030BFFB1D1B78181CFFF7D3FDBD4603B0C9
:402DC00090BDC04600000B400C000B4050F1FF0F10ED00E02C000B4080B500AF0E4B0E4A126801218A431A600B4B0B4A126802218A431A60094B094A126830218A431021C4
:402E00000A431A60054B054A126807218A4301210A431A60BD4680BD00F02E4000FF2E4080B500AF0E4B0E4A126802218A431A600C4B0C4A126807218A4302210A431A604A
:402E4000084B084A126830218A4320210A431A60034B034A126801210A431A60BD4680BD00F02E4000FF2E4080B500AFFFF7B4FF044B044A1268802109060A431A60BD46E6
:402E800080BDC04600F02E4080B584B000AF78600C4B1B6801221340FB607B68002B02D0012B03D005E0FFF797FF06E0FFF7B8FF03E00020FFF78AFEC046FB68181CBD46D2
:402EC00004B080BD00F02E4090B583B000AFFC1DFFF743FD031C2370074B074A1268C02109020A431A60FB1D1B78181CFFF739FDBD4603B090BDC04600010B4080B500AF47
:402F0000054B1A68C0231B02134001D0012300E00023181CBD4680BD00010B4090B583B000AFFC1DFFF719FD031C23700C4B0C4A12680C490A408021C9010A431A60084B6B
:402F4000074A126807490A40802109020A431A60FB1D1B78181CFFF704FDBD4603B090BD00010B40FF3FFFFF80B582B000AF78607B68022B02D90020FFF728FE054B1B6830
:402F80007A68D2000132D34001221340181CBD4602B080BD10020B4080B584B000AF786039607B68022B02D90020FFF70FFE7B68181CFFF7D9FF031E15D10C4B1B687A68DF
:402FC000D200111C03228A40D2431340FB603B68032213407A68D2009340FA681343FB60024BFA681A60BD4604B080BD0C020B4080B584B000AF786039607B68002B02D08C
:403000007B68012B01D1012300E00023002B02D10020FFF7DBFD7B68181CFFF7A5FF031E16D10D4B1B687A68D2000232111C01228A40D2431340FB607B68DB0002331A1C1A
:403040003B689340FA681343FB60034BFA681A60BD4604B080BDC0460C020B4080B582B000AF7860144B144A11687A680A431A607B680122134005D0C0460020FFF774FFC0
:40308000031EFAD07A6880235B00134005D0C0460120FFF769FF031EFAD07A6880235B02134005D0C0460220FFF75EFF031EFAD0BD4602B080BDC04610020B4080B584B07F
:4030C00000AF786039607B68002B02D07B68012B01D1012300E00023002B02D10020FFF775FD174B1B689B0F9B0701D1C92300E05D23181CFFF798FD124B1B68FB607B6816
:403100001B011A1C104B9340DA43FB681340FB600C4B7A681201111C3A688A40111CFA680A431A60064B1B689B0F9B0701D1432300E01F23181CFFF777FDBD4604B080BD9A
:403140000C020B4008020B40FFFF000080B500AF034B1B68034A1340181CBD4680BDC04610020B400404040090B585B000AF78600B23FC18FFF7F1FB031C2370FFF7BEFEE2
:40318000031E04D00123FB60FFF7C8FE01E00023FB607B680D4A13407B600D4B0C4A12680C4911407A680A431A60094B1B68FB68012B01D1FFF788FE0B23FB181B78181CE5
:4031C000FFF7CFFBBD4605B090BDC0460404040010020B40FBFBFBFF80B582B000AF7860084B084A11687A68074802400A431A60C046044B1B68044A1340FAD1BD4602B06C
:4032000080BDC04610020B400808080080B582B000AF78600A1CBB1C1A80BB1C1A887B681A60BD4602B080BD80B582B000AF78600A1CBB1C1A80BB1C1A887B681A60BD462B
:4032400002B080BD80B582B000AF304B1B78DBB21B022F4A1278D2B213437B602D4B1B78DBB21B022C4A1278D2B213433B603B682A4A934207D17B68072B04D1284B3B60F3
:4032800004237B6009E03A68D4231B019A4204D17B68042B01D1224B3B60224B3A681A60214B7A681A60214B1B78DBB21B02204A1278D2B213437B607A6880239B019A4231
:4032C00002D07B68002B01D11A4B7B601A4B7A681A601A4B1B78DBB21B02194A1278D2B213437B607B68174A934206D07B68164A934202D07B68052B01D1144B7B60144B80
:403300007A681A60BD4602B080BDC046D9F0FF0FD8F0FF0FDFF0FF0FDEF0FF0F580B0000580D00006C002E4074002E40DBF0FF0FDAF0FF0F0220000078002E40DDF0FF0FBB
:40334000DCF0FF0F0F0F000005050000050F000080002E4080B582B000AF021CBB1D1A80BB1D1B88181CFFF75FFCBD4602B080BD80B500AF00F066F8BD4680BD80B500AF5B
:4033800000F06AF8BD4680BD80B500AF00F064F8044B181C00F024F8032000F02DF8BD4680BDC0466D34000080B500AF024B181C00F004F8BD4680BD6D34000080B582B004
:4033C00000AF786000F048F87B68181C00F008F8032000F011F800F035F8BD4602B080BD80B582B000AF7860024B7A681A67BD4602B080BD0000002090B585B000AF021CED
:40340000FB1D1A700623FB600B23FC18FFF7A5FA031C23700A4B0A4A1268C0218A43111CFA1D1078FA689040021C0A431A600B23FB181B78181CFFF794FABD4605B090BD98
:403440000CE400E080B500AF024B802252011A60BD4680BD00E100E080B500AF024B802252011A60BD4680BD80E100E080B500AF11F060F8BD4680BD002243088B4274D3BC
:4034800003098B425FD3030A8B4244D3030B8B4228D3030C8B420DD3FF22090212BA030C8B4202D31212090265D0030B8B4219D300E0090AC30B8B4201D3CB03C01A52410D
:4034C000830B8B4201D38B03C01A5241430B8B4201D34B03C01A5241030B8B4201D30B03C01A5241C30A8B4201D3CB02C01A5241830A8B4201D38B02C01A5241430A8B42E4
:4035000001D34B02C01A5241030A8B4201D30B02C01A5241CDD2C3098B4201D3CB01C01A524183098B4201D38B01C01A524143098B4201D34B01C01A524103098B4201D317
:403540000B01C01A5241C3088B4201D3CB00C01A524183088B4201D38B00C01A524143088B4201D34B00C01A5241411A00D20146524110467047FFE701B5002000F0FCF8B2
:4035800002BDC0460029F7D003B5FFF775FF0EBC4243891A1847C04603460B437FD4002243088B4274D303098B425FD3030A8B4244D3030B8B4228D3030C8B420DD3FF22C3
:4035C000090212BA030C8B4202D31212090265D0030B8B4219D300E0090AC30B8B4201D3CB03C01A5241830B8B4201D38B03C01A5241430B8B4201D34B03C01A5241030B99
:403600008B4201D30B03C01A5241C30A8B4201D3CB02C01A5241830A8B4201D38B02C01A5241430A8B4201D34B02C01A5241030A8B4201D30B02C01A5241CDD2C3098B4296
:4036400001D3CB01C01A524183098B4201D38B01C01A524143098B4201D34B01C01A524103098B4201D30B01C01A5241C3088B4201D3CB00C01A524183088B4201D38B00F0
:40368000C01A524143088B4201D34B00C01A5241411A00D201465241104670475DE0CA0F00D04942031000D34042534000229C4603098B422DD3030A8B4212D3FC22890135
:4036C00012BA030A8B420CD3890192118B4208D3890192118B4204D389013AD0921100E08909C3098B4201D3CB01C01A524183098B4201D38B01C01A524143098B4201D33D
:403700004B01C01A524103098B4201D30B01C01A5241C3088B4201D3CB00C01A524183088B4201D38B00C01A5241D9D243088B4201D34B00C01A5241411A00D20146634676
:4037400052415B10104601D34042002B00D54942704763465B1000D3404201B5002000F00BF802BD0029F8D003B5FFF715FF0EBC4243891A1847C0467047C046014B1868D9
:403780007047C046A80400200E4B70B500251E1C0D4CE41AA410A54204D0AB00F35898470135F8E711F0CEFD084B00251E1C084CE41AA410A54204D0AB00F35898470135A9
:4037C000F8E770BD5053010050530100505301005853010030B50024944208D0035D651C0C5DA34201D0181B02E02C1CF4E7002030BD002310B5934203D0CC5CC454013325
:40380000F9E710BD031C8218934202D019700133FAE770470FB40B4B13B51C68002C05D0A369002B02D1201C00F03EFA05AB201CA168049A019300F0E7FB16BC08BC04B00F
:403840001847C046A804002070B5051C0E1C002804D08369002B01D100F026FAAC68A3891B0702D52369002B19D1281C211C00F0AFF8002813D00120404245E03178002B19
:403880001BDAA269934211DA221C281C00F048F8013042424241D0B20028ECD10136A3683278013BA360002AE8D10CE023681970236819780A2903D1E6E72368197023685A
:4038C00001332360EAE7002B17DAA269934208DB0A2322681370236819780A2911D1281C01E0281C0A21221C00F01AF8013042424241D0B2002806D0BDE70A23226813708C
:403900002368013323600A2070BD000008B5034B011C1868FFF798FF08BDC046A804002070B5051C0E1C141C002804D08369002B01D100F0B9F9234B9C4201D16C6808E021
:40394000214B9C4201D1AC6803E0204B9C4200D1EC68A369A360A3891B070AD52369002B07D023682269F6B2981A636998420FDB08E0281C211C00F02BF80028F1D0012076
:4039800040421DE0281C211C00F020F90028F6D1A3680130013BA36023685A1C22601E706369984205D0A389301CDB0708D50A2E06D1281C211C00F009F90028DFD1301C2B
:4039C00070BDC046B0520100D0520100F0520100354B70B51D68061C0C1C002D05D0AB69002B02D1281C00F05FF9304B9C4201D16C6808E02E4B9C4201D1AC6803E02D4B98
:403A00009C4200D1EC68A3899AB2110723D4D10607D409220120326037321343A381404240E0530713D5616B002908D0231C4433994202D0301C00F021FA002363632422EF
:403A4000A3899343A38100236360236923600822A3891343A3812369002B0BD1A023A2899B00134080229200934203D0301C211C00F0ACF90123A289134005D00023A36055
:403A800063695B42A36103E0910700D46369A36000202369834205D1130603D540231A43A281013870BDC046A8040020B0520100D0520100F0520100F7B58A89051C0C1CB7
:403AC00013075ED44B68002B02DC0B6C002B1ADDE76A002F17D000232E682B6080235B011A4001D0626D15E0281C216A0123B847021C431C0ED12B68002B0BD01D2B01D08C
:403B0000162B02D12E6000205EE04021A3890B43A38159E0A3895B0706D56368D21A636B002B01D0236CD21A0023281C216AE76AB847A389421C06D12A68002A03D01D2A6F
:403B400001D0162A19D10022626022692260DB0405D5431C02D12B68002B00D16065616B2E600029CFD0231C4433994202D0281C00F084F90020606326E040221343A3811F
:403B800022E00F69002FBED00B680F60DB1B01930023920700D14B69A360019B002BB2DD281C216A3A1C019BA66AB047002806DC40220120A38940421343A38104E0019BCB
:403BC0003F181B1A0193E8E7FEBD000038B50B69051C0C1C002B01D100201CE0002804D08369002B01D100F05FF80B4B9C4201D16C6808E0094B9C4201D1AC6803E0084B1C
:403C00009C4200D1EC680C22A35E002BE4D0281C211CFFF751FF38BDB0520100D0520100F052010008B5024900F0AEF808BDC046CD3B0000002310B5041C036043608360EC
:403C400081814366C281036143618361191C08225C30FFF7D7FD054B24626362044BA362044BE362044B236310BDC0465945000081450000B9450000E545000070B568254C
:403C80004B1E5D430E1C291C743100F03DF9041E08D000212A1C016046600C30A0606832FFF7B0FD201C70BD836913B5002B28D18364C3640365134B134A1B688262019373
:403CC000984201D101238361041C00F01FF86060201C00F01BF8A060201C00F017F80421E06000226068FFF7A5FFA06809210122FFF7A0FFE06812210222FFF79BFF012389
:403D0000A36113BDAC520100253C0000F8B51D4B061C1D68AB69002B02D1281CFFF7C4FF4835AC686B68013B05D40C22A75E002F10D06834F7E72B68002B06D1301C042149
:403D4000FFF79CFF2860002801D02D68E9E70C23336016E00123201C5B42E3810233A38167662760A760676027616761A7615C30391C0822FFF746FD201C6763A763A76481
:403D8000E764F8BDAC520100F7B5041C071C002601914834002C16D06368A5680093009B013B00930DD4AB89012B08D90E22AB5E013304D0381C291C019B9847064368359D
:403DC000EDE72468E6E7301CFEBD0000F0B58B8991B09B0706D50B1C47330B600B6101234B6145E00C1C0E23C95E061C002904DA8023A5891D4010D10CE001AA00F01EFC52
:403E00000028F5DBF023029D1B021D40194BED186B425D418027FF0001E000254027301C391C00F071F800280CD1A3899A051FD402221343A381231C473323602361012358
:403E4000636115E080220C4BB362A38920601343A38120616761002D0AD00E23E15E301C00F0FEFB002803D00122A3891343A38111B0F0BD00E0FFFF253C000030B50029E1
:403E80003ED004390B68002B00DAC9181D4A1368141C002B02D14B60116031E099420DD208680A189A4203D11368C3180B6053684B60216024E08A4203D8131C5A68002AB7
:403EC000F9D11D685C198C420BD10968691858181960904214D110685268091819605A600EE08C4202D90C23036009E008680C18944203D114685268001908604A605960D2
:403F000030BDC046C4130020032370B5CC1C9C430834051C0C2C01D20C2405E0002C03DA0C2300202B6042E08C42F9D3204A1368101C191C002913D00A68121B0DD40B2A62
:403F400002D90A608B181FE08B4202D15A6802601BE04A685A600B1C17E00B1C4968E9E7144E3368002B03D1281C00F0E3FA3060281C211C00F0DEFA031C421CD0D0032241
:403F8000C61C964386420AD11C60181C07210B301A1D8843821A0AD05142995007E0311A281C00F0C7FA431CBAD0331CECE770BDC4130020C0130020936810B5013B936064
:403FC000002B05DA9469A34208DBCBB20A2B05D01368581C10601970C8B201E0FFF7A0FC10BDF8B5061C0F1C141CD518AC4208D02178301C3A1CFFF7DFFF0134431CF5D183
:4040000000E00020F8BD0000F0B59FB0061C0F1C02920593002804D08369002B01D1FFF743FE794B9F4201D1776808E0774B9F4201D1B76803E0764B9F4200D1F768BB8977
:404040001B070AD53B69002B07D0002306AD6B6120336B761033AB763DE0301C391CFFF7B7FC0028F1D001204042CAE0059A111D12680591002A7EDB0992013423782E2B9E
:4040800000D189E021786348032200F00FFB002808D0604B0134C01A40238340181C2B68184328602178631C5B4806220293297600F0FCFA002800D191E0584B002B00D0D4
:4040C00084E00722059B07339343083305936B69039A9B186B61029C2378002B04D1029BE31A049311D003E0252BF8D00134F3E7049B301C391C029AFFF773FF431C7BD07D
:404100006A69049B944663446B612378002B73D00122002352426A6002A95432521801342B60EB60AB601370AB6521783C48052200F0BCFA002809D0394B0134C01A01232D
:404140008340181C2B6818432860EEE72B68DA0604D55322202102A8121811701A0704D553222B2102A81218117022782A2A00D17CE7099B05E05242EA60022213432B6008
:404180007BE72278303A092A04D80A214B4301349B18F6E7099371E763782A2B09D1059B02341A1D1B680592002B0DDA01235B420AE0002301342278303A092A04D80A2194
:4041C0004B4301349B18F6E707935BE705AB0093301C291C3A1C134B00E000BF07E005AB0093301C291C3A1C0E4B00F08BF80390039B013300D06AE7BB895B0600D532E773
:404200000B981FB0F0BDC046B0520100D0520100F0520100165301001A5301000000000010530100E33F0000F7B5171C01930A698B6800900C1C934200DA131C221C3B604A
:4042400043321278002A01D001333B6023689B0602D53B6802333B60062523681D401ED0231C43331B785A1E9341226892061CD53020E1184031C870211C5A1C45310978BB
:40428000A21840320233D1700FE0221C0123009801991932089EB047431C0ED00135E3683A689B1A9D42F0DBDAE7221C009801994332089DA847431C02D10120404220E023
:4042C00006232068E1683A6803400025042B03D18D1AEB43DB171D40A3682269934201DD9B1AED180027AF420ADA221C0123009801991A32089EB047431CDED00137F2E7F9
:404300000020FEBDF0B58BB006920A1C43320793059004920A7E0C1C109B6E2A00D1A8E011D8632A22D009D8002A00D1B2E0582A00D0C2E045310A707C4A4FE0642A1DD054
:40434000692A1BD0B9E0732A00D1A7E009D86F2A29D0702A00D0B0E0202209680A43226037E0752A1FD0782A33D0A6E00E1C1A684236111D196013683370A1E021681A68FD
:40438000080606D4490604D5111D19600023D55E02E0111D19601568002D3BDA2D23049A6D42137036E021681A68080606D4490604D51568111D1960ADB202E0111D19604B
:4043C00015685A4B227E03930A276F2A1DD108271BE0221C782145321170554A19680392081D226818600D68100602D4500600D5ADB2D30702D520231A4322601027002DB6
:4044000003D1202322689A432260231C002243331A7002E00A27454B03936368A360002B03DB0422216891432160002D02D1049E002B0ED0049E281C391CFFF7A3F8039BF2
:40444000013E5B5C281C3370391CFFF715F8051EF1D1082F09D12368DB0706D563682269934202DC3023013E3370049B9B1B23612BE009681A68080607D4490605D5111D74
:4044800019601368A28A1A8004E0111D1960136862691A600023049E236116E01A68111D196016680021301C626800F0FFF8002801D0801B6060636803E0261C4236327095
:4044C000012323610023049A1370079B05980093211C069B09AAFFF7A7FE431C02D10120404221E0236905980699321C079DA847431CF4D023689B0705D4099BE068984264
:4045000012DA181C10E00025E368099A9B1A9D42F3DA221C0123059806991932079EB047431CDCD00135EFE70BB0F0BD215301003253010038B50023064C051C081C2360CE
:40454000FCF7AEFC431C03D12368002B00D02B6038BDC046BC1E002038B50C1C0E25495F00F0B0F8002803DB636D1B18636503E0A289024B1340A38138BDC046FFEFFFFF53
:40458000F8B51E1C8B89051C0C1C171CDB0505D50E23C95E0022022300F074F8A289054B281C1340A3813A1C0E23E15E331C00F01FF8F8BDFFEFFFFF38B50C1C0E25495FEC
:4045C00000F060F8A389421C03D1054A1340A38104E0802252011343A381606538BDC046FFEFFFFF08B50E23C95E00F015F808BD38B5051C0020074C2060081C111C1A1CF1
:40460000FCF790FA431C03D12368002B00D02B6038BDC046BC1E002038B50023064C051C081C236000F062F8431C03D12368002B00D02B6038BDC046BC1E002038B5002307
:40464000064C051C081C111C236000F057F8431C03D12368002B00D02B6038BDBC1E002038B50023064C051C081C236000F04EF8431C03D12368002B00D02B6038BDC046E2
:40468000BC1E002038B5051C0020074C2060081C111C1A1C00F042F8431C03D12368002B00D02B6038BDC046BC1E0020C9B28218904204D003788B4202D00130F8E7002010
:4046C0007047000038B5051C0020074C2060081C111C1A1C00F02AF8431C03D12368002B00D02B6038BDC046BC1E002058220120014B40421A607047BC1E00205822012001
:40470000014B40421A607047BC1E00205822024B00201A607047C046BC1E002058220120014B40421A607047BC1E002058220120014B40421A607047BC1E002010B501F08A
:404740004FFC10BD10B501F061FC10BD10B501F065FC10BD10B500F067F910BD10B50749044609780220002907D1204601F080FC002802D1204609F095FB10BD2E0300209D
:40478000FFB585B0002568460E9F057339481C460078002802D0082009B0F0BD10990F9801900097029105A807C800F067F80028F2D10120694603AA0D73002C1BD000213F
:4047C00013E08B00E55A082D09D91E19B678002E05D0083DE55213785B1C137003E0042901D2012003E0491CC9B2B942E9D31178042900D300200028CED110990F9800F04E
:40480000A1FF002801D00120C6E701F0FFFB1A480599016021888180A188C180A27A0272A17B4172A089012540084843A0810220A073208950432081A5726846037B224652
:404840000799069800F0A2F80028A5D16846094C007B607001F0F3FB00289DD1064806F0F7FC002898D106F013FD002894D1257092E70000240200201C050020FFB53A4FE2
:404880001C4603463F780020364A0A9E0B9D002F12D100290FD0029991420CD3002B0AD0002C08D00999042905D3002E03D0FF216E318D4202D2012004B0F0BD00210A4639
:4048C0000D463FE08B001E19B678002E36D0E35A002B33D073435B199DB20B0000F048F806040E15191D253F2388FF27A678233BEB37BB42DFD2032EDDD31FE0A3880C2BDD
:40490000D9D91A4EB342D6D818E02389302BD2D114E0A389482BCED110E0228A134E1346233B223EB342C6D208E0A38A0F4F1E46233E223FBE42BED29342BCD80028BBD1FF
:40494000491CC9B2099B9942BCD319461C2251434A190449521802998A42ACD8ACE70020EEE70000D808000024020020DCFF000030B47446641E2578641CAB4200D21D462B
:40498000635D5B00E31830BC18470000FFB50F4606460024384381B01D46800701D0012438E0FEF701FDFEF7E9FC00F097FA00282ED100F0D3FB00282AD11849084600F084
:4049C000F5FE0004000C23D13000154E04D03060B7800020F0803581AD1DEFB23946039800F046F804000ED1B088F2880837801AF9B280B201F0CAF9002801D0012407E095
:404A0000E8B200F019F900F031F906490120087000F076FA204605B0F0BD00005D4B0000280500202602002010B503480078012801D101F04DF810BD2602002070B5084B2D
:404A40000446DA889E8800205518B54206D81D68AA182260DA885118D98070BD032070BD28050020014800897047000028050020F0B587B007460D46002089000090069129
:404A80006846FFF7DBFF844600285DD1304800990160002117E02E4B88001A680629115406D22C4C0419667882185670628805E0C419203CA67A8218567022891B68C0187E
:404AC000491C4280C9B2A942E5D300242DE0601CC2B2059025E01E4FA30039689600581840887118039604904E88B04217D938466F46FE80B6464F786E4677710297049F7D
:404B00004F800168039F5E18767879184E700168764659184E800068029F18184770521CD2B2AA42D7D30598C4B2AC42CFD36046002809D168460699FFF780FF844600280D
:404B400002D1054900980860604607B0F0BD000028020020785301002C0200207047000010B5002809D005494A68002A05D0011F08788000105801F0B7F810BD28020020EB
:404B800010B50446FFF76EFFC0B2801DA0420CD307484068002808D0A100405801F016F8002801D00470001D10BD002010BD000028020020F8B516460D460446FFF752FF09
:404BC000C0B2801DA04203D20020C0430090F8BDB2B2E9B2684601F01FF80099481C03D0024AA000526811500098F8BD28020020F8B50746FFF736FF801DC6B20A490020B7
:404C000005460C680DE06178002907D06188B94202D32078FFF7B4FF002804D1241D6D1CEDB2B542EFD3F8BD2802002010B5002801D0FFF795FF10BD70B5064609480025DB
:404C400004680BE06178002905D062882078121D0023FFF7AFFF241D6D1CEDB2B542F1D370BD000028020020002070471CB5002469460C70142001902346054A05480DF035
:404C80002DF804480068401C00D1FF2420461CBDE94C0000300200203EB5124A0146FF2000230124126800290DD0012914D0042908D104206946009308814B8110460DF066
:404CC00008F880B23EBD6846009304814381694610460CF0F9FFF4E768460093048143816946EBE73002002070B545890468416800890300FFF73CFE06240408081D212468
:404D0000002005F07BFA1BE0022908D0C8B22A4621460BF08DFA2046FFF788FF10E002202A4621460BF084FA2946204600F00AF806E000200CF0C6FC02E020460DF06EF89D
:404D4000002070BD014B0022DB6818473402002070B5448905680089022803D0032809D0FF2070BD2246094C0023A46829460120A04708E0FFF7E6FC241DA2B20023294601
:404D8000022006F048F9002070BD000034020020704700000248002141600180418070473402002070B50C46002186B016460391012802D0022859D116E003A9012006F01F
:404DC00082F901281BD1039D324621462846FEF710FD0095287801900220694608814E816846FFF7B5FF41E0214D002B686809D0049004A9022006F066F901281DD002209A
:404E000006B070BD002812D0298840182146FEF7F0FC28880024801980B228806988091D884206D12C801348FFF792FF03E00320E6E788421AD96C6018E004986860E27895
:404E4000A378110219430B4A698000231060E3565360032313815181A1788170E178C1706178417021780170042028800020C7E734020020340500203EB515460C46022824
:404E800003D004280CD000203EBD0091019002206946088107484A8100680CF01AFF07E00BF0C6F9044B0022DB6829462046984701203EBD3002002034020020014AD160A0
:404EC0009060704734020020034801688068081A0A214843000970474005002010B5FEF753FA542204490548FEF783FC03490120C870002010BD00009453010020080020CF
:404F000010B5FEF735FA10BD70B5134C2368002B08D0207B1149C20705D04008400020738868A08070BD88680B4AA18880B29268814203D90A4D691A091802E0814202D211
:404F4000411A5118A160A080A0689842EAD300F015F80CF0DBFE70BD40050020C0102E40FFFF000010B508461946FFF7A7FF10BD704710B5FFF780FF10BD00000348002108
:404F8000016041608160C160704700004005002010B502000DD0FFF7F1FF074C0321207B0843207310010A21FEF7ECFA2060002010BDFF2010BD00004005002000B5044881
:404FC0000A21806848430209FFF7D8FF104600BD400500200248007B8007C00F704700004005002010B537490868002802DA364B01221A70022290430860344800693149E7
:40500000C00B4031096A08425AD0012000F074FA2E482F497C30FEF707F92A480E216C30FEF702F9294820218430FEF7FDF8274814219C30FEF7F8F82448FF21C131A4301B
:40504000FEF7F2F82148FF212F31B030FEF7ECF81E482049BC30FEF7E7F81C481E49AC30FEF7E2F81C491948491CB430FEF7DCF816481A49B830FEF7D7F814481849CC30AC
:40508000FEF7D2F8114817490830FEF7CDF80F481549A830FEF7C8F80C4814498830FEF7C3F80A4812498C30FEF7BEF807481921C9029030FEF7B8F8FEF7C4F8002010BDC0
:4050C000FF2010BD00F02E404402002000002E4055650000320300002F3F00003102000010520000EC160000FA12000031D000003AE3000070B50646581C80B245086D00A3
:40510000002408E0304600F07FF81055000A1119A41C4870A4B2AC42F4D3D80705D0D0182038D15CC47FD454C17770BD30B50A4C002100195B1E07E0541864782502545C85
:405140002C430480891C89B29942F5DB994201D1515C018030BD000000102E4010B5FF2000F0CAF90F49FF2048700E481021801D41800121417001700A490020C91C48706C
:40518000FFF730FF04000AD100F0DEF807210648FEF73CF8044807211830FEF737F8204610BD000044020020CC112E4030B504465B1C1804450C002308E0204600F024F832
:4051C000241D59005B1CA4B250529BB2AB42F4D330BD000070B500210A4D5B1E0AE0541864782602545C344346193480001D891C80B289B29942F2DB994202D1515C401983
:40520000018070BD00102E40014940180088704700102E40014A80180180704700102E4010B50B490020487000F08EF8002000F089F9002000F076F907210648FDF7E6FF83
:40524000044807211830FDF7E1FF002010BD000047020020CC112E4010B506480078012803D102210448FDF7DFFF02490020C91E087010BD4702002070F02E4010B50B4650
:40528000062812D006DC01280CD0032801D1FFF7C7FF10BD0A28FCD00B28FAD105480078107010BDFFF75AFF10BD1146184600F065F910BD4A020020F8B5204DAC6A0127B3
:4052C000A0071F4E002816DA307806280ED1286A384328621B480069F903084381B219481030FDF7A1FF042000F006F9134802212830FDF78BFFE00711D0062000F0FCF882
:405300000F49FF20C91E48707078002802D1686B38436863094801212830FDF777FFE0050BD53078042802D1052000F0E5F80348FF2101312830FDF769FFF8BD40F02E4024
:405340004702002000002E4010B503212348FDF76BFF0120FDF7FEFF20483038406A204C80076178800F890001431C480C38FDF75BFF6078002808D0401E022181401820A8
:40538000FEF7F0F9C000083800E0B82081B21548FDF74AFF1348032109021438FDF744FF10481149B830FDF73FFF612189010F48FDF73AFF0D480321001FFDF735FF0C490C
:4053C0000C48FDF731FF0B480B496038FDF72CFF084801218838FDF727FF10BD70F02E404A020020D8102E4090890000041E2E40FF0F000058122E4020900000044800683B
:405400004007400F022801D0002070470120704700010B4000B5FFF7F1FF002805D009480168C908C900016000BD0748016A490849000162054801690122D203914301613A
:4054400000BD000000010B4040F02E4000002E400849087806280BD148780749002803D1486B400840004863C86A01221043C862704700004702002040F02E4001480078F9
:40548000704700004702002002484078022800D0012070474402002000B50300FFF768FA080D050D0B070507090D012000BD032000BD042000BD022000BDFF2000BD0000CD
:4054C000074A9168D26889B2064B92B2994204D105498A4201D1012100E000210170704780002E4033D000003FE3000001494870704700004702002010B50446FDF73EFFFC
:40550000072C01D9FF2C01D102480470FDF730FF10BD00004702002001494870704700004402002010B5064A012805D01921C9021046FDF779FE10BD1D21C902F8E700009D
:4055400090002E4010B50A4A141D012808D009491046FDF769FE08492046FDF765FE10BD04491046891CFDF75FFE0349491DF3E788002E4031D000003AE300000078074A02
:40558000FF2803D04C2804D9553803E01078087070474F38087010707047000046020020F0B50122002830D000292ED00224420600D003246D2342065B06D21800D0641CEC
:4055C000034600221EE00C2516466E43104D00277519AF720E4F002ABB51696007D0661EB24209D106466D367606760E05E05E06760E8027BE1B00E080269B198919521CC6
:405600002E81D2B2A242DED300221046F0BD0000C0060020074900200C2242435218927A012A05D0401CC0B20428F5D30020704701207047C0060020F8B5044616460F0045
:405640000BD0184D6868A04203D9FF306E30A04203D3FF206E30864201D90120F8BD2046FEF7B8F800281BD0324639462046FEF7C0F8F0B200210C224A4352191389566837
:40568000F718A74208D90127A41B1B1B9772834206DAC01A1469C0B2491CC9B20429EAD30020F8BDC006002010B500F05BF80648FF22C1686E320C460448FEF79AF8034947
:4056C0002046FFF76DFF10BD5002002050050020002070470020054A002902D0012902D002E0506000E09060002070475002002070B5084C154608460549A26889182A46BB
:40570000FEF777F8A0684019A06028B270BD000050050020500200203EB50A226946FFF7E7FF044606480A2200686946FEF752F8002802D00020C0433EBD20463EBD000079
:4057400050020020002803D0FF226E32914201D2FF20704702490A61C860002070470000500200200248002141608160704700005002002070B5074C1546054862688018C0
:405780002A46FFF759FF60684019606028B270BD500500205002002010B503490A220968FFF7E8FF10BD00005002002010B50F4A002313600E4A13600E4B18600E4801608B
:4057C0000E49012008600E490860000290600E490C4808600D4914300860FF381538506000F0BCF800F0CAF9002010BD7C020020640200209002002094020020800200205D
:4058000070020020F00700207402002088020020014610B50020002910D0094B1A689C685118A14209D25868196080188A0704D08A07920F891A091D196010BD002010BDE5
:4058400064020020F8B50024164E671E321F3D463168136806E01422624310328A58521C1BD0641C9C42F6D36A1C14D02C461422544322460C3288500C214843FFF7C8FFFF
:405880003168002808510AD031680020103408517068401C70602846F8BD2546E4E73846F8BD000074020020F3B50026F64381B000281BDB1E490968884217D802990029CD
:4058C00014D01B4F142204463F1D54432546396810354859401C09D0FDF750FD38682F1F4159C359994203DBFDF742FD3046FEBD214608310091465801590C207043081896
:405900000C220299FDF775FF0948761C001D0068C159B14200D100260549009A091D865008684159491C4151FDF722FD0020FEBD70020020002803DB07490968884202D9F9
:405940000020C043704704491422091D09685043103008587047000070020020F0B500200D4A451E0346171F50600FE014260146714314680E1DA3510C46166808343351BA
:405980001668083435511468401C635039688842ECD30020F0BD000074020020F3B50026F64381B0002841DB2349096888423DD8029900293AD0204F142204463F1D5443A7
:4059C0002546396810354859401C2FD0FDF7D6FC3868415900292BD0211D009146580C21005971430F46C1190C220298FDF701FF11480021001D0068761C00590C34C019A1
:405A00000160416081600C48001D00680159B14200D100260849009A091D865008684159491E4151FDF7A4FC0020FEBD3046FEBDFDF79EFCFAE7000070020020FEB50446DE
:405A40000D4600201E49089E0860471E009001900290002C11D0486885420ED2002A0CD0002E0AD0642E08D808460C3001681C2068430C18207A002801D03846FEBD012057
:405A8000226020721846FFF7DDFE6060401C13D06681A6810A4827610C3067610179A94200D205710021684601810A462846029B00F040F82846FEBD00202072DDE7000098
:405AC0007C02002038B50124009400F039F838BDFEB50027164EFF433D4600240EE01C20316860430818017A002906D04068FFF721FF002801D0254603E0641C3079A04215
:405B0000EDDA681C12D01C2130684D434419FDF735FC69466068FFF741FF0546FDF728FC002DD9D1216868468847D5E7FEBD00008802002038B50024009400F001F838BDC0
:405B40001FB500220C49541E0A60002811DB496888420ED808491C220C31096850430818406801A9FFF7A0FE401C02D0002004B010BD2046FBE700007C020020F0B5002138
:405B8000114A4D1E174611710C3F0B46BD6016E008461C2460431668041D355114680646235014680836A3551468361DA353044616680A34335318301468491C255078687F
:405BC0008142E5D30020F0BD8802002038B500210091002811DB0F49097888420DDA0D4D04010C3529680859002807D0201D0818694600F071F9002801D0002038BDFDF77D
:405C0000BDFB28680F34015D491E0155FDF7B0FB009838BD98020020F7B582B0002502986E1E06602E48D21C024017462D4A2C4610460C380178106805E02301C358002B83
:405C40000FD0641CE4B28C42F7D3711C28D03401211D40180191039900F02CF900281FD101E02646F1E71F48016820460C300F521C480399026820460E3011541948039984
:405C8000026820460F3011540398784300F0A0F8144900280968085102D00024009011E001251AE00F48016801980818009900F02EF9002801D0012502E00098C019009081
:405CC000641CE4B203988442ECD3002D05D10298066004480179491C0171284605B0F0BDFCFF0000A4020020F8B50D4600216A468C461180002839DB23490978884235DA07
:405D0000214B04010C3319680A59002A2ED020460C300B5A801C0E5C184670438018954224D3854222D2002006E007465F43BF18AF4206D0401CC0B2B042F6D3604600287E
:405D400014D0114E271DC8190C366A46294600F008F900280AD168460088012808D030682946C01900F0D3F8002803D00120F8BD0020F8BDFDF702FB30680F34015D491C5F
:405D80000155FDF7F5FAF3E798020020F8B50F46002400F033F8002817D10C4900220B460C334A600EE021011D680E466A501D680C36AA53B61C1D680F31AA551D68641C12
:405DC0006A54E4B2BC42EED31A71F8BD98020020014610B5002000290CD0C91C064B8A08596892005C888A18A24202D898685A60401810BD002010BD98020020F8B5064687
:405E000000200F4D009029700C0121466846FEF715FE00280CD129460C3100980860301B001F84B221466846FEF708FE002801D0FF20F8BD6C800098A8600020F8BD000004
:405E400098020020F8B5002827DB19490978884223DA174C05010C342168485900281CD028460C30085A009028460E300E5C401C0E5420682F1DC01900F064F800280CD192
:405E80002068002445590EE0094829460C300068C01900F03CF8002801D00120F8BD00982D18641CE4B2B442EED30020F8BD00009802002030B50D4604000BD0A800FFF78C
:405EC00087FF6060002805D000202570C0436080002030BD012030BD70B50D46040005D0002D03D00220205E002801DA012070BDFDF744FA0221615E6068890040582860E5
:405F00006088401E6080FDF733FA002070BD70B50D46040007D0002D05D002212078615E401E814201DB012070BDFDF727FA6088401C00B26080616880000D50FDF718FA1C
:405F4000002070BD10B5040009D0227800216068FDF758FC0020C0436080002010BD012010BDF0B500231D46002802D00224045F0AE00120F0BD46689F00F6598E4201D1E5
:405F8000012503E05B1CDBB29C42F4DA15700020F0BD00000148007870470000AC0200207CB505460024FEF7CDFBA8796946087000A8062229460130FDF71BFC00216846A1
:405FC00004F07AFB0C2804D0072804D01F2804D004E0022402E0042400E0272420467CBD10B502280BD0032802D0042809D102E000F0E0F805E000F0AFF9FF2801D100F057
:40600000BFF9FFF73BFAFFF747FA10BD10B500F0E7F9FFF733FAFFF73FFA10BD70B504460025FEF78FFB002C06D0A079012803D8214602F06EFB00E00125284670BD10B56B
:4060400003240CF0B5FA002810D10CF059FA00280CD105F087F8002808D100F09DFB002804D104F083FD002800D10024204610BD70B50025044600280ED0A07901280BD874
:40608000FEF760FBA0790028204602D002F09AFF03E002F04FFF00E00125284670BD10B5FFF7ECF9012801D1FFF7EEF910BD38B504460120002C20D0617801291DD80029EE
:4060C0000BD0FF25E535FEF73DFB2846FFF79CF8C0B22070072803D00EE0FF25CD35F2E70020694608706846FFF7EAF969460878012801D108202070002038BD70B504463D
:406100000120002C1FD06178012902D92278092A19D8002905D0FF25E5352078092803D004E0FF25CD35F8E708202070FEF70AFB2078082808D00020FFF704FA2178284659
:40614000FFF768F8002070BD0120FFF7FBF90721F5E7000070B50D46040001D0002000E00548002802D0012102F0DCF82946204602F03EFC70BD00009408002038B50546CF
:4061800000200446009022466946284600F0A0FF0098002801D00CF0EDF9A878214602F0E6F9A878214602F0D5F9641CE4B2052CE9D338BDF8B5624CFFF760F9012846D1DD
:4061C00060480078002842D002F096FB0028FAD003F07CFF0028F6D05B4E7078C00703D000F047FC0128EED0B07E0028E7D170780025002878D0000707D5AC20FFF704F803
:40620000070B00F061F9384321D14F484178684603F034FE4D4F06462079B9784018C1B2B14271D802F068FB002810D0464C203402F08FF96846008802F0BBF902F064FAD0
:4062400043490988884203D10120FFF755F974E04049012008703C48807B00282BD04034608A002827D0E07E002824D1A1200001FEF7CAFF208A4000B04218D97878002889
:4062800015D1A12424012046FEF7BEFF0221884301462046FEF7BEFFFF24F1342046FEF7B3FF0321090201432046FEF7B3FF3878002800D03D7002F0BFF90120FFF716F9AF
:4062C000244C08E0FCF700FDFFF7D8F806282CD02078002829D0FFF7D1F8062825D020780128EFD021E0FFE702F006FB002824D0142002F05EF9174C0120207002F09CF93D
:406300000020FFF7F3F809E015E0FCF7DDFCFFF7B5F8062809D02078002806D0FFF7AEF8062802D020780128EFD0207801288BD1FFF770F825700020F8BDFF20F8BD00009D
:40634000600800204402002074080020B2020020C4020020AD02002010B50848FF244078002809D102F0C8FA012805D1FEF774FF0720FFF7C1F80024204610BD7408002034
:4063800038B5FFF77BF8012801D0002038BD02F0B3FA00280AD0114C6078C00703D000F068FB012802D0A07E002801D0FF2038BD617800290FD0684603F060FD022806D9A7
:4063C0006846008802F0F5F8012002F03BF90320FFF792F8D9E70020F7E700007408002038B5FFF74BF8042819D0052817D006281AD0032842D007280AD10020694608704F
:4064000002460120FEF73AFFFFF738F80128FBD138BDFCF759FCFFF731F80128F8D0FFF72DF80128F5D138BD02F02AF905E0FCF74BFCFFF723F8012803D0FFF71FF80128E7
:40644000F5D1A12424012046FEF7DEFE01220E4983079B0F0A70022BE5D149880029E2D0104301462046FEF7D5FE2046FEF7CCFE410849002046FEF7CDFE38BD02F004F9F5
:406480000120FFF739F838BDB2020020F8B50646002402F0A9FE0546304602F0BDFE00210346012632468A40174610462F401840002F03D0002801D1224394B2491CC9B2D3
:4064C0000529EFD32046F8BD70B500252C460A4E03E0002C01D0002000E030460079002803D02046FFF7D2FF0543641C2406240EEFD0284670BD0000940800201CB500205B
:40650000694648706846FFF7D2FD01AA69460A20FEF7B4FE6946042008561CBD10B50C4601F07CF9002809D00179002906D0C1788078224602F00AFB002010BD022010BDE9
:406540000148007870470000600800204030C07E002800D00120704700B500F001F800BD88214843064940186030417F491CC9B24177052901D300214177C8B27047000073
:406580007408002013B501F049F904000BD001F09CFC002807D0214601AA0A310620FEF76DFE00201CBD02201CBD000010B50C4601F034F900280AD001F087FC002806D06D
:4065C000224604490A20FEF759FE002010BD022010BD000049080020F3B581B0074601460026029802F0F8FD0446002F01D0002500E0154D002D21D0284601F045F9032C74
:4066000004D13946029802F011FE06463846029901F0A0FF032C06D0002C10D00121384601F020FA03E03146384602F0B3FF284601F05EFE0221284601F074FEFEBD384656
:40664000029901F087FFFEBD9408002070B50446002503F0A9FB002801D00C2070BD2078611C02F06DFBFF2802D01F25284670BD02F0BAFBFF2804D02178621C01F0DCFE49
:40668000F4E70725F2E710B503F08EFB002801D00C2010BD02F02CFB002010BD70B50D46044610210BF0A6FE1021601806460BF0A1FE334610221946204603F0A1FB102170
:4066C00030460BF097FE02202870204604F0A6F970BD70B504464078217802028006850FE0781143A67809050002090D0643084601F094F8002812D0022D10D0032D0ED0AB
:40670000002E08D00179092909D0002907D0214600F0A1F870BD0089002104F0B4F820460BF028FF70BD0020704770B50446002503F03AFB002801D00C2070BD2078611CB8
:4067400002F0FEFAFF2802D002F040FA00E01F25284670BD10B504F009FA00F0F6F8002010BD10B5044600786178E2780843A17811430843217908436179084305D003F035
:4067800005FB002803D00C2010BD122010BD204602F018FC002010BD10B5044803F026FC02F01EFA00F004F8002010BD30080020F8B5114D00266E706E736E716E76AE7655
:4067C000EE766E75AE70EE70AE712F46EE730120B03778723F207871FF20B87100F00EFA0024204601F038FB641C2406240EF8D03E72FE71AE73F8BD7408002070B5054614
:406800000E46084602F0F0FC0446304602F004FD0121A9400A46224001400A4301D0012070BD002070BD10B50446084602F0F4FC0121A140014201D0012010BD002010BD3D
:4068400010B5FEF71BFE032804D101F01DFF0120FEF752FE10BD70B5044600790D4609281CD000281AD020464030817E491C8176204601F03DFDA078FFF76EFE06460246CB
:406880002946204600F00CF8002806D1A0783146FFF760FC28460BF06DFE70BD0846FAE7F7B5054648780C468006870FC8788978000282B0014368468180284601F010FB08
:4068C000060007D021462846049A00F095FB304605B0F0BD384600F03DFC0746034601AA2946204600F0CEFA68468088231DC0B20090A878FF22049902F034F868468088D1
:406900003B46C2B2A878049902F0D8FBDFE770B5002500242846FFF7B9FD060010D03046E040C007C00F07D02146284601F005FE21462846FFF750FE641CE4B2052CEED3BF
:406940006D1C2D062D0EE4D070BD10B502F048F9FFF72EFF0BF076FE002010BDF8B5002400F081F80123012800D10124104F00203E4620360425082203E0002801D00021A2
:4069800000E031460979002907D001290BD002290BD0114681402143CCB2401C0006000EEBD07C70F8BD1C43F7E72C43F5E700007408002010B5FFF7D1FF10BD10B50B469B
:4069C00081791943817103D08078114602F03AFB10BD10B582798A43827102D1807802F049FB10BD70B5FF25D53502242846FEF70BFC0C4A9178002901D0022906D1137822
:406A000052789A18282A01D9032402E0032900D101244105490DE00201432846FEF7FAFB70BD0000AE02002010B500F022F8002807D0012805D0032801D0042801D0002087
:406A400010BD012010BD014610B50020C90701D000F009F810BD014610B50020C90701D000F001F810BD10B52020FEF7CDFB000A10BD10B51820FEF7C7FB410501D50420C0
:406A800010BD4007800F10BD38B5044640060CD5684601F009FE0220FFF78CFF072002F0BBF96846007801F045F9200613D5FFF7E0FF01280FD1684601F0F6FD68460078F9
:406AC00000F09EFA072002F0A7F9012001F078FC0220FFF76FFF38BD10B5034A0178117002F0A9F9002010BDAE02002010B50446FFF7B9FF002801D00C2010BDA27B012109
:406B00001848002A827801D00A4301E05208520082706279012A0FD0C17849084900C170207901280CD06188208802F0A1FF2080207904280BD00DE0C2780A43C270EFE7CE
:406B4000E01D02F027FA0848808C208002E0E01D02F020FA054920798870204602F07AF9002010BD7408002020080020AE02002038B50478FFF777FF844201D10C2038BD45
:406B8000002C18D0072069460870FFF74DFF012807D10121684600F091F8012801D0092038BD6846007802F037F9FFF71BFF02F07EF9012014E0FFF737FF012806D168461F
:406BC00001F072FD6846007800F04EFA072002F023F902F063F9FFF746FF0028FBD10220FFF7E8FE002038BD10B5034A0178517002F000FA002010BDAE02002038B5684682
:406C00000BF04EFC002801D01F2038BD01210098C90201804180002505714571857107214173857302F016F9009C202200212046FCF7E8FD25702A460021601CFCF7E2FD4E
:406C4000204602F0F8F8204602F0D4F900980BF091FC042200210248FCF7D4FD002038BDAE0200200346084800B5834209D8184600F0D4FD002804D00089984201D10120E8
:406C800000BD002000BD0000FF0E0000074A9179491C8906890E917138220A4092014907090E1143084302490840704774080020FF0E0000C006C00E70470000F8B50746D0
:406CC0000E4600240D4803E0002C01D0002500E005462979002905D0641C2406240EF3D00020F8BD204601F0B7F82E712046FFF7CDFF28813C700120F8BD000094080020CF
:406D000010B503F0B1F80222002100F003F801F00FFF10BD10B5094B40074907000F090F185A595A40185043C0086421FCF72AFC002800D1012080B210BD0000E853010054
:406D4000F7B53D20405C88B016460C46002829D030786946087200252046FFF7F7FB012800D00125204603A938300191009023460327A17E34332A46206A03F051F902A86E
:406D8000089900900B46019120463A4603A9243003F018F802466846007A3070204601F047F810460BB0F0BDFFB587B00C4605461078694608723D20005D1746002826D004
:406DC00000262046FFF7C2FB012800D00126204603A93830019100902346A17E34333246206A03F01DF902A80090291D019120462B1D03A924300A9A02F0E4FF02006846B5
:406E0000007A388002D1204601F012F810460BB0F0BDF7B53C20405C88B015460C4600280CD0287869460872002806D000262046FFF78CFB012803D003E01F200BB0F0BD4B
:406E40000126204603A938300191009023460327E17E34333246E06903F0E2F802A8089900900B46019120463A4603A9243002F0DBFF02466846007A2870204600F0E2FFB9
:406E80001046DBE7FFB505463C20405C87B016460C46002810D0084601F022F801280BD0308869460883002809D000272046FFF74DFB012805D005E000200BB0F0BD02202E
:406EC000FBE70127204602A93830019100902346E17E34333A46E06903F0A2F806A80090291D019120462B1D02A924300A9A02F09BFF02466846008B30806846008BA870F3
:406F0000000AE870204600F09DFF1046D5E770B50D460446FFF71AFB01280AD0E87AA97A00020143A07801F0C1FC012808D0002070BD00222421204602F0E4FC242070BD2C
:406F400028214C200155204600F09AFB282070BD002801D0002000E003484030C07F012800D0002070470000940800200146002049070ED50021084B03E0002901D000221A
:406F800000E01A461279022A04D0491C0906090EF3D0704701207047940800200146002049070ED50021084B03E0002901D0002200E01A461279022A04D0491C0906090E0A
:406FC000F3D07047012070479408002010B5044680346068002803D00BF0E0FA0020606010BD4030417070474030817070474030017070470171704792001018C166704732
:4070000070B53C2501F0F6F8040004D020460021433001F0EBFB2946204600F0C3FB002C02D0A07801F078F870BD000010B5002801D0002000E00348002802D0008903F09C
:4070400069FC10BD9408002010B5002801D0002000E00448002804D00179072901D100F041F810BD9408002010B501F0C3F8002802D0807801F050F810BD002070470000AE
:4070800070B50546008A00281ED010491122897A1140C90618D5294640314A8A098A521C4A4392B2D10800D10121540801E0621A94B2A042FBD9FEF76DFF012804D1298A0B
:4070C000A878224601F0E2FC70BD00002008002000230B60052A04D292001018C26E0A60C366704738B5044600200090A079002814D14020015D052901D00E290ED168466F
:407100000BF0DEF9002809D12046009902F0E2FB03481021C28A2046FFF750FC38BD00002008002010B50B4604460146184602F0B1F8002802D020460BF026FA10BD13B550
:40714000044601AA11460620FEF798F86846818861811CBD002800D10220704770470000F8B504462346401D543300909A1EA078911E01F0A8FA25464035A88A298A8000F2
:40718000FCF700FA401E81B2688A884203D96982A07801F0E2FF20460021433001F026FB8020FEF731F8E88102F05EFEE989891C8AB26179FFF7AEFD01F0BAFC02F054FEAA
:4071C0002A8A6179FFF7A6FD074601F0A3FC688A00280BD0FF26F1363046FEF715F80321090201433046FEF715F802E0002001F0A2FFFF206130FEF707F86E8A002E0BD0AE
:4072000070431049FCF7AEFA0004000C01D0401C80B20D49488002E00B4800214180288A704381B2A07801F0F3FE2837B9B2204602F022FCE98AA07801F042FEA07801F06C
