:400000000040002011000000D9060000D906000008B500F07DFBC04638B51222254B1A6000F0C8FC244800F0D7FB012000F0E2FC302000F0E1FB214A214B1A60214C80250B
:40004000ED052560204A116802230B4313601F4A1F4B1A601F4A136808218B431360FA20C00000F073FC1C4800F066FCE82252011A4B1A601A4B1B4A1A60D02149021A4A96
:4000800011601A4A1A6080221206194B1A608022D202184B1A604022174B1A600132174B1A600820164900F0F7FB082000F0DEFB256038BD30001040001BB700060000800D
:4000C00004010B400C020B4078002E402D3E00007C002E406CF02E40DC050000000301400000014040FF00800403014041FF008008010B4000010B400801014004010140F5
:400100000D0B000010B572B600222D4B1A60002410E02C4863001A195200821891881B195B001A5AC31858880004104300F04EFB0134E4B2012CECD9EE221206224B1A6069
:4001400099231B04214A1360EE210904204A1160204A1360204A1360204A1360204A1360204B197802220A431A701F4802783C218A4328390A430270197816220A431A7099
:40018000D8221204194B1A602023194A1360C4218902184A1160184A13604022174B1A60C0225203164B1A60F022164B1A60164A164B1A60FFF730FF00F0F8FA10BDC046CE
:4001C0006CF02E404C74010000000240000102400003024000500F4010500F4020500F4030500F4000700F4001700F400800044000010440080104401801044000020440CE
:4002000008020440000304400040DA000803044010B5064C2378002B07D1054B002B02D0044800E000BF0123237010BD48100020000000004871010008B5084B002B03D00F
:400240000748084900E000BF07480368002B00D108BD064B002BFBD09847F9E700000000487101004C100020A80B00200000000008B562B6012000F09BFC012000F0B0FC7B
:40028000012000F0A1FC0D4800F0D4FC00F044FF00F0DEFF0A4802F0CBFE00F0DBF906F0D7F900F0B1F9074B1B68002BF7D0064B1B68002BF3D000F095F8F0E7CD0200009E
:4002C00050710100CC210020C421002010B50C1C262816D004D8012808D005280DD06CE0282823D015D34C2830D066E0002000F0F9FC002000F074FC5FE00A782F4B1A70A7
:400300005BE02F4B1B78042B57D1002000F068FC53E02C4802F010FE01222B4B1A60012000F05EFC002000F04FFC46E0274802F003FE0022244B1A60012000F045FC002025
:4003400000F04EFC002000F0CDFC36E08B89112B0CD11F4802F0F0FD201D00211D4A002312F07EF863681A781B4B1A60A389142B0CD11A4802F0E0FD201D0021154A0023EB
:4003800012F06EF863681A78134B1A60A389172B0CD1134802F0D0FD201D00210D4A002312F05EF863681A780B4B1A60094A137850780002184311F01BFB10BD6410002063
:4003C000F421002064710100CC2100207C71010098710100FC210020C4210020CC7101000072010010B58AB007A8102303810C3B8380374B07930021364A002312F030F841
:4004000001E006F025F9344B1B78002BF9D1314A137850780002184307A911F093FA011E02D02E4802F088FD2B4B5C68092C0DDC274B186801F0D8FF021C0B1C2848211C75
:4004400002F07AFD244A53680133536004A8132303810F3B8380234B049300211D4A002311F0FEFF01E006F0F3F81B4B1B78002BF9D1184A137850780002184304A911F032
:4004800061FA011E02D0184802F056FD01A816230381123B8380154B019300210D4A002311F0DEFF01E006F0D3F80B4B1B78002BF9D1084A137850780002184301A911F0FB
:4004C00041FA011E02D00A4802F036FD0AB010BDC8210020FC21002064100020347201005C720100D021002074720100C02100209C72010008B5124B188801F039FF114A3C
:40050000114B01F09BFC01F0C3FF104B1860104B188801F02DFF0B4A0B4B01F08FFC01F0B7FF0C4B18600C4B188801F021FF054A054B01F083FC01F0ABFF084B186008BD5A
:40054000DC210020FCA9F1D24D62703FC8210020D4210020D0210020DE210020C021002000B583B06B46D91D087053200122002300F014FFC0B2002802D0114802F0DCFCF7
:4005800000F0D4FE8307FBD500F0E8FE53200D4904310222002300F077FFC0B2002802D0094802F0C9FC00F0C1FEC307FBD500F0D5FE044B187900025B79184303B000BD9D
:4005C0002C7301006C1000206473010008B53220FFF7C6FF014B188008BDC046DC21002008B53420FFF7BCFF014B188008BDC046D421002008B53620FFF7B2FF014B18802D
:4006000008BDC046DE21002008B5FFF7DFFFFFF7E7FFFFF7EFFFFFF76DFF08BD10B582B001AB187059705320191C0222002300F0B5FEC4B200F07AFE8307FBD5002C02D09C
:40064000034802F079FC00F089FE02B010BDC0469C73010008B5322000F056F92D200821FFF7DCFF0C4802F067FC0C48E02212060B4B02F061FC0B4A0B4B1A600B48A02231
:4006800012060B4B02F058FC0A4802F0D1FC0A4802F0CEFC08BDC046C0730100DC7301007A142840CDCC4441D8210020F873010099992840187401003074010070B5161C5C
:4006C000002405E04D1C087800F036FD0134291CB442F7DB301C70BDFEE7C04608B5031C094A1068C318094A9A1A8021C9008A4202DC054A136005E001F078FF0C23036001
:400700000120404208BDC046AC0B00203022002070B50F4E0F4D13E029686B68AC68002202E001C901C30432A242FAD1E868002202E0002102C304328242FAD11035013EBF
:40074000002EE9D101F058FFFFF792FDFEE7C046010000001C79010008B50F4A136801218B43136000230AE0032B03D89A000B49505800E00A4899000A4A885001332F2B1D
:40078000F2D9FFF7BFFC0022074B1A60024A116801230B43136008BD0000104000000000D906000000000020C00000200323044A1360044A13600022034B1A607047C046E2
:4007C0003000304030003140000E3F4008B50A1C002101F04FFF08BD0230800803D00138FDD1C046C046C0467047EFF3108072B6704780F31088704710B586B0041CFFF7A2
:40080000F4FF0E4B1B6800930D4B1B680193033C0C4B1B5D02930C4B1B68039304AA0B4B04936B4605930A4B1A600A490A4A11601B68FFF7DEFF06B010BDC04608010B40D6
:4008400000010B405874010030001040B6EA0000080010401700008004001040024B1B68012018407047C0460C002E401F2318401E3B8340181C014B1860704700E100E056
:400880001F2318401E3B8340181C014B1860704780E100E001BE704738B5041C0D1C1F2802D90020FFF7F6FFA400034B9C4664442068256038BDC0464000002070B5041C90
:4008C0000E1E032E02D90020FFF7E4FF1F2C02D90020FFF7DFFF03252540ED000635FFF784FFA408A400074B9C46644423680322AA409343AE40351C1D432560FFF779FF51
:4009000070BDC04600E400E010B5041C06E0084B1868FFF761FF074B9C46644480231B029C42F4D8024B58686043FFF755FF10BDB00B00200080FFFF08B5034B1B7A58432B
:40094000FFF74AFF08BDC046B00B002010B5041C0F4A116801230B4313600E4A0E4B1A600E4A1368802109020B431360002809D100200CE00120FFF7DFFFFFF76FFF0028FC
:4009800004D1013C002CF5D1102000E0002010BD60F02E400220000078002E4010002E40034B1868C0231B02184000D00120704700010B4010B50D4B1A6801218A431A60D0
:4009C0001A68022082431A60094A10683024A043203C204310601068093CA043014311601A68802109060A431A6010BD00F02E4000FF2E4038B51D4B1B6801241C4000287C
:400A000002D0012816D02BE0184B19680122914319601968022081431960154B19682E3081432038014319601968093881430A431A6018E00D4B1A6802218A431A600C4A9F
:400A400010680725A84301431160116830208143103801431160196801220A431A6002E00020FFF717FF201C38BDC04600F02E4000FF2E4008B5FFF7B8FE044A1368C0211A
:400A800009020B431360FFF7B4FE08BD00010B4010B5FFF7AAFE08490A68084B1A408024E40122430A600A6813408022120213430B60FFF79EFE10BD00010B40FF3FFFFF63
:400AC00070B5061CFFF791FE041CFFF769FF002803D0FFF7DDFF012500E000250848331C0340084A106808490840184310601368012D01D1FFF7BEFF201CFFF77AFE70BD9F
:400B00000404040010020B40FBFBFBFF10B5244B1B685B0715D5234B1B685B070ED5224B9969042001401F4C22688A4322609A6982439A61DB68002B00D098470420FFF711
:400B4000BFFF174B1B685B0518D5164B1B685B0510D5154B99698022D2001140114802688A4302609969114A0A409A611B69002B00D098478020C000FFF7A2FF084B1B6876
:400B80005B030CD5074B1B685B0304D5064B5B69002B00D098478020C002FFF791FF10BD10020B40C00B002074100020FFFBFFFF044A11687F230B40C001C0B218431060B0
:400BC0007047C0460003044004490A68BF231A4080017F3B18401043086070470003044004490A68BF231A4080017F3B18401043086070470002044008B500F077FA08BD81
:400C000010B50024064B1C70064B1C70064B1C70FFF7F2FF054B1C70054B1C7010BDC046FF210020F8210020FE210020E0210020E821002010B590B0041C0BA82049142249
:400C400001F00FFD20231F4AD35C002B05D1FFF7D7FF012120231B4AD154002C2DD01A4B1C6008A805AA426006AB0893002101811B31198059801739197100231370123165
:400C8000694405F0BBFD002818D1052300930F4B01930F4B02930F480F49AE2212010BAB05F008FD002809D101220C4B1A700C481721073211F0BCFB00E0012010B010BDDE
:400CC0008874010090100020E421002080810100790200003D0E0000C8000020F42100209C74010008B502282ED81B4B1B78042B2CD11A4B1B785B072BD4002809D1184B4C
:400D00001E221A860232596A0A805B6A10325A800CE001280AD1124B96221A86C822D200596A0A805B6A8022D2015A800D4B18700B4820300FF0A6FC00280CD1074A1178AC
:400D400004230B43137006E0012004E00420FF3001E00420FF3008BDF4210020FF210020C40B0020FE2100207047C04603784078000218437047C04638B583890D2B20D175
:400D8000041C04300021221C333311F069FB051E11D16068FFF7EAFF830706D50A4B1B6882204000211C984705E0074B1B680620FF30211C9847054A137801218B43137056
:400DC00000E00025281C38BDE4210020FF210020024B00225A701A707047C046FC21002010B582B0041CFFF7C7FF0A4B1B78DB070ED4002809D001A912238B70A3890B8082
:400E0000C870206810F060FD02E0206810F0F0FD02B010BDFF2100208379002B07D000200BE0C25C002A07D10133DBB200E00023052BF6D9002000E001207047F0B583B0E3
:400E4000041C0D1C964A117801230B431370272800D1B0E012D8062800D17EE004D8012821D0052875D00AE1242800D19FE0262800D1A8E0212800D001E182E0422800D1A6
:400E8000E9E006D8282800D199E0412800D1CEE0F5E04C2800D1E9E0FA2800D1EAE0432800D0ECE0DAE001AE0727377000237370301C07F023FB377001237370301C07F0CC
:400EC0001DFB784B1E68301CFFF7A6FF00280CD0301C05F0C1FB734E30680021FFF744FF30680121FFF740FF25E06F4B1B786F4A12783F210A4092010B4013436C4A127854
:400F000020390A40120313436A4A127860310A4052041343684E33701A0A72701B0CB370301C05F099FB301C0021FFF71DFF301C0121FFF719FF00200FF054FA01A83F23ED
:400F40000370002343700FF06BFA04225B4B1A7095E02A785A4B1A7091E02B78002B00D08DE06B78002B06D1564B0022DA809A80554A1A606B604A4A137801218B4313701A
:400F80007DE0474B1B789B0679D4504B1B78102B02D105224D4BDA704D4B18784B490FF031FB3F4A117801230B43137067E06A78484B1A7063E00222404B1A705FE0042267
:400FC0003E4B1A705BE03D4B1B78022B57D0344A1278D20753D5324A1278520708D50322364B1A702E4A137804218B43137046E02B4A1278120708D50422304B1A70284A8E
:40100000137808218B43137039E0032B37D104222A4B1A70304B1B78002B30D10120FFF761FE00282BD10322244B1A7027E0284E301C291C022201F014FB0022204B1A70FC
:4010400031784F31C900254B591801312448083201F007FB13E0FFF7BBFE10E06988162900D91721288810F039FC08E0281CFFF7B7FE04E01B4A117801230B431370084B29
:401080001A7811231A4209D0054A137801218B431370154B1B68201C291C984703B0F0BDFF210020F80B00207CF1FF0F7DF1FF0F7BF1FF0F78F1FF0FFC0B0020F42100209E
:4010C000F8210020B4100020A80B0020B80C0020FC210020E8210020FE21002080810100EC210020E0210020E42100207047C04608B500F081F808BD08B500F02BF808BDC5
:4011000008B5044A1368802109060B431360FFF7EFFF08BD0000244008B5064B1B78002B04D1FFF7E9FF0122024B1A70FFF7E8FF08BDC046BC100020044B1B681F22134038
:40114000082BF9D0024B18607047C046080224404002244010B5154A154B1A600023154A13600121144A1160144A15480260072414480460144803601448016014490A60AE
:40118000144A13600421144A1160144A1360144A1360144A1360144A1360144A1360144A13601268134B1A8010BDC0460B00000200002440400024404800244007000080F7
:4011C00000032440040324401003244044002440000224400402244050002440880E2440C80E2440480F2440080F2440C80F2440880F2440BE100020064A1168064B0B4087
:40120000902109040B431360044B1A88044B1A607047C04600010240FFFF0FFFBE100020880F244008B50A20FFF720FB08BDC04608B500F01DF808BD08B5044A136880210F
:4012400009060B431360FFF7EDFF08BD0000254008B5064B1B78002B04D1FFF7E9FF0122024B1A70FFF7E8FF08BDC046C010002010B50024194B1C60194A1A4B1A601A4B11
:401280001A4A13601A4A14601A4A14601A4A13601A4B1C600A20FFF7F3FA0A200321FFF70DFB0A201649FFF7F7FA164B1C60164B1C60164B1C601422FF32154B1A60154BEE
:4012C0001C60154B1C60043AFF3A144B1A70144B1C80144B1C60144B1C6010BD000025407708008060002540070100800003254004032540100325400002254004022540E9
:4013000085150000C80E2540880E2540480F2540080F2540C80F2540880F25400022002010220020202200200822002010B50A20FFF7A6FA074B1B889BB21C1C064A127854
:40134000920601D504241C430A20FFF78FFA201C10BDC046102200200022002010B50A20FFF78EFA044B1C88A4B200221A800A20FFF77CFA201C10BD10220020054B1B68F6
:401380002022134000D0082301221343024A13607047C0466400254068002540F0B583B001900C1C171C1D1C002919D0284B1B78102B0AD10A20FFF763FA264B1B68DB0794
:4013C00001D508260FE000260DE0214B1B78602B08D1214A138808218B431380002602E0042600E00426002E2BD12822184B1A7000231A4A13601A4A13601A4B1F601A4B3D
:401400001C60EAB2194B1A70019B5C00FF231C40114A138802218B431380154A154B1A604023154A1360154A1360EB0704D5FFF7A5FF134B1C6004E0114B1C600222114BFB
:401440001A600A20FFF712FA301C03B0F0BDC04600220020640025401022002004220020082200200C220020242200201822002017030000000F2540800F2540880F25409B
:401480004002254068002540F0B583B001900C1C171C1D1C002919D02D4B1B78102B0AD10A20FFF7EDF92B4B1B68DB0701D508260FE000260DE0264B1B78602B08D1264AC9
:4014C000138808218B431380002602E0042600E00426002E35D129221D4B1A7000221F4B1A601F4A17601F4B1C60EBB21E490B70019B5C00FF231C400120044316490B88FF
:4015000083430B8019491A4B19601368072B03D80422184B1A6008E0174A1368802149000B4313600822134B1A60EB0704D5FFF725FF124B1C6004E0104B1C600222104B26
:401540001A600A20FFF792F9301C03B0F0BDC046002200206400254010220020202200201C220020142200201822002017030000000F2540C80F2540600025404002254091
:401580006800254010B5B94B1B68002B00D09847B74B1B68DB0702D50022B64B1A60B64B1B789B0628D5B54B1B68DB0507D5B44A1188C0239B000B431380012300E00023CF
:4015C000AE4A1268D20706D5AD4A118890239B000B4313800123002B0FD0A74A1278D20701D5012200E00222A549088802430A800021A14A117000E000239F4A127892069F
:4016000000D417E19D4A1268D20611D510229D4B1A60994B1B78DB0701D5012300E00223974A11880B4313801022934B1A701BE1914A1278120720D5904A126892070AD5A3
:401640000222904B1A608E4A118888239B000B431380012311E0884A1278D20703D52521854A117009E02421834A1170864A1268002A02D01439854A11607F4A12785207A6
:4016800000D4AEE07C4A1278D20749D5804A1268120727D57F4A12687F4909681F240C407E4909686418141B082C09D8002C16D17B4A11687B4B0B401360012308340EE002
:4016C00008240CE0754A116877480068411877480068C0B20870116801311160013C002CF0D119E06A4A1268520715D56B4A11686D48006841186D480068C0B20870116835
:40170000013111601168634A1268914203D20421674A116000E001236649674A116060E0564A1268920726D50222564B1A60634A13681F211940136880221202134000D060
:401740000123CB185E4A1168CB1A136012685D4B1A604B4A118884239B000B4313805A4B1A68802149020A431A601968574A0A401A60012335E0564A1268D2061ED427E018
:401780004F4A1168404A126891421DD23E4A1268013A4B4909688A4204D140224D490A603A490A60464A11684B48006841180978C9B24A4801601168013111603F4A1268B4
:4017C0001F210A40082ADBD11021424A116008E03F4A1268520604D5394B1A68394B1A600123002B40D02E4A11682E4B0B40136000233B4A1360254A13603A4B1B789B07F5
:401800000ED51D4B1B78DB0701D5092300E00A231B4A11880B4313806022174B1A7023E0314B1B689B0601D5182200E01022204B1A6019E0104B1B78DB0615D42B4A136841
:401840005B005B08136010210B4B1970144B186827490140196018682649014019601368802109060B43136010BDC046C41000208C0E2540880E2540002200200C0F254006
:4018800010220020000F25400C220020880F2540CC0F25401C220020080325402022002060002540FFFEFFFF142200204003254068002540ED0F0000C00F2540080225407E
:4018C000042200200822002004022540FFFFFEFF8C0F2540800F25402422002040022540C80F2540182200206400254000002540FF5FFFFFFFFCFFFF08B5FEF776FF044A63
:40190000136804218B43136030BFFEF772FF08BD10ED00E00160704701607047324B1A781202324B1B781A43314B1B781B02314909780B4330498B4201D1072A06D0D42186
:4019400009018B4206D1042A04D102E02B4B042200E02A4B2A490B602A4B1A602A4B1B781B022A4A1278134380229201934202D0002B02D002E0264B00E0254B254A13603F
:40198000254B1B781B02254A12781343244A934205D0244A934204D0052B05D103E0224B02E0214B00E0204B204A1360204B1B681B09204A1268AA2A15D1012B13D9164B94
:4019C0001B780E2B0FD11C4B1B781B021B4A127813431B4A13601B4B1B781B021A4A127813431A4A13607047D9F0FF0FD8F0FF0FDFF0FF0FDEF0FF0F580B0000580D0000F1
:401A00006C002E4074002E40DBF0FF0FDAF0FF0F0220000078002E40DDF0FF0FDCF0FF0F0F0F000005050000050F000080002E40EC0F00F0E00F00F06DF2FF0F6CF2FF0FAF
:401A400084002E406FF2FF0F6EF2FF0F94002E4008B5FEF771FF08BD08B500F04BF808BD08B500F04FF808BD08B500F04BF8034800F02AF8032000F02DF808BD311B0000AA
:401A800008B5024800F046F808BDC046311B00000220FF307047C0462B2070472B2070472B2070472B2070472B2070472B2070472B2070472B2070472B2070472B207047B8
:401AC0002B2070477047C046014B18677047C0460000002010B5041CFEF787FE044A1368C0218B43A4011C431460FEF782FE10BD0CE400E080225201014B1A607047C046A6
:401B000000E100E080225201014B1A607047C04680E100E010B5041CFFF7F4FF201CFFF7D3FF0320FFF7D6FFFFF7E4FF10BDC04608B515F0F5FA08BD002243088B4274D3C8
:401B400003098B425FD3030A8B4244D3030B8B4228D3030C8B420DD3FF22090212BA030C8B4202D31212090265D0030B8B4219D300E0090AC30B8B4201D3CB03C01A524166
:401B8000830B8B4201D38B03C01A5241430B8B4201D34B03C01A5241030B8B4201D30B03C01A5241C30A8B4201D3CB02C01A5241830A8B4201D38B02C01A5241430A8B423D
:401BC00001D34B02C01A5241030A8B4201D30B02C01A5241CDD2C3098B4201D3CB01C01A524183098B4201D38B01C01A524143098B4201D34B01C01A524103098B4201D371
:401C00000B01C01A5241C3088B4201D3CB00C01A524183088B4201D38B00C01A524143088B4201D34B00C01A5241411A00D20146524110467047FFE701B5002000F0FCF80B
:401C400002BDC0460029F7D003B5FFF775FF0EBC4243891A1847C04603460B437FD4002243088B4274D303098B425FD3030A8B4244D3030B8B4228D3030C8B420DD3FF221C
:401C8000090212BA030C8B4202D31212090265D0030B8B4219D300E0090AC30B8B4201D3CB03C01A5241830B8B4201D38B03C01A5241430B8B4201D34B03C01A5241030BF2
:401CC0008B4201D30B03C01A5241C30A8B4201D3CB02C01A5241830A8B4201D38B02C01A5241430A8B4201D34B02C01A5241030A8B4201D30B02C01A5241CDD2C3098B42F0
:401D000001D3CB01C01A524183098B4201D38B01C01A524143098B4201D34B01C01A524103098B4201D30B01C01A5241C3088B4201D3CB00C01A524183088B4201D38B0049
:401D4000C01A524143088B4201D34B00C01A5241411A00D201465241104670475DE0CA0F00D04942031000D34042534000229C4603098B422DD3030A8B4212D3FC2289018E
:401D800012BA030A8B420CD3890192118B4208D3890192118B4204D389013AD0921100E08909C3098B4201D3CB01C01A524183098B4201D38B01C01A524143098B4201D396
:401DC0004B01C01A524103098B4201D30B01C01A5241C3088B4201D3CB00C01A524183088B4201D38B00C01A5241D9D243088B4201D34B00C01A5241411A00D201466346D0
:401E000052415B10104601D34042002B00D54942704763465B1000D3404201B5002000F00BF802BD0029F8D003B5FFF715FF0EBC4243891A1847C0467047C046F0B55F46B4
:401E400056464D464446F0B4051C061C080387B099464F00030BCC0F92469B467F0D019467D06C4B9F4236D080205B4640031843C0006B0F1843684B83469C4600239846E7
:401E8000EE00674400934B4649461D03C90F5B0052462D0B5B0D894600D16EE05D498B4264D080205C4940038C4600210543ED00500F0543D20063444846FF187B1C9A46CA
:401EC000009B604002900B430F2B00D9ACE053489B00C3589F465B461D4300D082E00823009300239B46023300269846CBE7029B01934346022B59D1012400250026019BF5
:401F00001C40444B00212D030A0D12052D0B1543434A1B0515401D436D00E4076D082543301C291C07B03CBC90469946A246AB46F0BD2B434ED05B46002B00D185E1584668
:401F400000F036FB021C2823291C9B1A161C5846D940083EB0400B1CB54003439B462E1C0023304F0093BF1A98468CE7514629432ED10025002202219EE75146294323D0EB
:401F8000002D00D154E1281C00F012FB031C28215046C91A1A1CC8405146083A914095400A1C05431F480021C31A85E7032B00D1C2E1012B00D06DE14446019B00251C403D
:401FC000E4B2002300269DE700250022012173E7032171E70423009300239B4601330026984650E70C230093093B98464BE7802500242D030026074B84E74B46AB46161C6C
:402000000193884675E7029BAB46161C019388466FE7C046FF07000001FCFFFFB0760100FFFF0F800DFCFFFF330C3604360C9C46331C140C1204120C5343984663465343B5
:402040009946634663430193331C41466343090C4B445B18994505D9802040028146019949440191190C039141460904090C1B045B1804932B0C9846331C2D04290C4B430A
:40208000604600934346654658435E43009B4D431B0C9946AE194E448446B54203D980235B029946CC44350C2B1C0398634484460593009B36041B041B0CF3189C44604689
:4020C000039058460504060C280C84465043351C81466046654344434846000C8346724314195C44A24203D98022520293465D44220CAD184A461204120C24044046A418E0
:4021000062464A437143464360460096464670438046100C84468844E044414505D9802149028C46009961440091019803998446614499429B415B4299460598434684465E
:402140001204120C1B049B1863449C46AB4683429B4140460A19CC44A2428941E344CC45B6415C46000C8046494276425B426418334398448C428941AB459B4149425B42FA
:4021800019430D1C009B4544EE187602E50D2E43B346049B56021E43731E9E415B46D20D324366021643DB010AD50123334076081E435B46DB071E435B465B089B46574687
:4021C000634BFB18002B5ADD720709D00F223240042A05D0321DB242B6417642B344161C5A46D20106D55A465A4B1A4080239346DB00FB18584A934234DD0124029B0025E3
:402200001C400026554B7DE680205B460003034208D0054206D105432D032D0B4C46161C4E4B6FE65D4605432D032D0B4B4B69E6504600F0BDF9031C2033272B00DCA6E698
:402240005546083885400022ACE6281C00F0B0F9021C2032272A00DC75E6083885400026AB467DE65A46F608520716435A4601245502029A5B052D0B5B0D144042E6384DAD
:40228000ED1B382D0ADD0124029B00251C400026002337E6019B5746029391E71F2D25DC304B321C9C466744BE405B46BB40371CEA407E1EB74113433B431E1C5B46EB40B3
:4022C0001D1C730709D00F233340042B05D0331DB342B6417642AD191E1C2B0220D50124029B00251C40002601230BE65A461E4BDB1BDA40131C202D1CD01C4A94465A46B4
:402300006744BA40171C3E43721E96411E4307230025334007D00F2300253340042BD6D16B076D022D0B0124F6081E43029B1C400023E7E50027E6E780255B4601242D032F
:402340001D43019B2D0323401C1C2D0B034BD9E5FF030000FFFFFFFEFE070000FF07000002FCFFFF1E040000E2FBFFFF3E04000038B5041E16D0C50F00D04442201C00F0C4
:4023800017F9174B1B1A0A2821DC021C211C153291400A1C0B21081AC4405B052403240B5B0D03E000250023002400220021101C24030A0D1205240B14430A4A1B051440DD
:4023C0001C436400ED0764082C43211C38BD0B3884405B052403240B5B0D0022E6E7C0461E040000FFFF0F804200120E511C38B5C9B243025D0AC40F012915DDE0218900F4
:402400008C466D071B0B62440021281C0D0D2D052B431C4D52052B40520813435B00E4075B082343191C38BD002A15D1002D1FD0281C00F0BDF80A281DDC0B232A1C1B1A6E
:40244000DA40131C021C153295400F4A1B03121A52051B0B520DD7E7002D06D080221B0B120313436D07094ACEE7084A0023CBE700220023C8E7031C0B3B9D402B1C002521
:40248000E3E7C046FFFF0F8089030000FF07000070B50B034D00440F6D0D5B0A23436C1C6405C90FC200640D012C2ADD3B4C2C19FE2C1ADC002C35DD8001451EA841DB0013
:4024C0000343520F13435A0704D00F221A40042A00D004338022D2041A4027D00134FF2C03D09B015B0AE4B201E0FF2400235B02E4055B0A23435B00C9075B080B43181C0F
:4025000070BD002D06D113430ED100245B025B0AE4B2ECE71A43E8D08020DB0080040343FF24D0E717340CDA05230024DB08FF2CECD1002B2DD08022D20313435B025B0AB3
:40254000D5E78024164824042343401B1F280DDC144CA4466544AB401C1C131CAB405D1EAB41C240234313430024ACE71E1C0E4C641BE640341C20280DD00C488446654403
:40258000AB401D1C2A43531E9A41131C2343002499E70023ABE70025F4E7C04680FCFFFF9E03000082FCFFFF7E030000A2FCFFFF1C2101231B04984201D3000C10391B0AEE
:4025C000984201D3000A08391B09984201D30009043902A2105C40187047C04604030202010101010000000000000000014B18687047C0460C1000200E4B70B500251E1CF4
:402600000D4CE41AA410A54204D0AB00F35898470135F8E715F070F9084B00251E1C084CE41AA410A54204D0AB00F35898470135F8E770BD04790100047901000479010078
:402640000C79010030B50024944208D0035D651C0C5DA34201D0181B02E02C1CF4E7002030BD002310B5934203D0CC5CC4540133F9E710BD031C8218934202D0197001330A
:40268000FAE77047F0B58BB0141C1D1E129906DA802424062B191D1C141C2D2300E000230B702023149E03229E43462E07D0331C453B59424B411099013ACB181093109B12
:4026C00000920193139B221C029308AB039309AB04932B1C00F03AFE071C472E02D1119BDB072CD5109BFB180793462E14D13B78302B0CD1201C291C0022002302F0DAFB0D
:40270000002804D10123109A9B1A139A1360139B079A1B68D3180793201C291C0022002302F0C8FB002801D0079B0993099B079A934204D25A1C099230221A70F6E7381CE2
:40274000099B159ADB1B13600BB0F0BDF7B52B23071C0C1C0270861C002901DA2D234C427B70092C1CDD6B46DD1D201C0A21FFF759FB013D30312970201C0A21FFF76CFA8A
:40278000041E092CF1DC013D30342C706B460733301CAB4209D92B78013533700136F5E73023E4183370B01C7470C01BFEBD0000F0B593B00C1C08920993189E051C01F0DC
:4027C0004FFD0368181C0B9300F064FC0023216810930C90277E33680722C90501D59B1800E0073393431A1C083232601A685B68A264E364A06CE16C00F024FC012818D156
:40280000A06CE16C0022002302F05AFB002803D0231C2D2243331A70B64B0A93472F01D9B54B0A9303232268236101339A43226012E0A06CE16C00F005FC266800280DD108
:40284000AE4B0A93472F01D9AD4B0A930323311C2361013399432160002680E080216068C900431C01D1062309E0A26CE36C672F01D0472F04D1002800D0C0E101236360CB
:40288000636831430093232321600191002106AA9B1802930FAB039310AB05930497A26CE36C0691281CFFF7EDFE20233A1C0A909A43472A07D10F9BDA1C02DB6268934208
:4028C0002DDD023FFFB20F99652F12D8201C01393A1C50300F91FFF739FF109A061C83182361012A02DC2268D2072ED5013323612BE0662F14D16368002908DD2161002B7F
:4029000002D12268D2071DD50133CB1811E0002B03D101222168114213D09A1C11E067270F9B1098834206DB22682361D20709D50133236106E00122002B01DC0221CA1AC4
:402940008218226100260F9BA365232306AA9B181B78002B03D0231C2D2243331A70099B281C0093211C089B11AA00F05FF9431C02D10120404256E12268530504D4281C32
:4029800008990A9A236916E1652F00D8D4E0A06CE16C0022002302F08DFA00282BD00123281C0899574A099EB047431CE1D00F9B109A934207DB2368DB0704D423689B0720
:4029C00000D51AE113E1099E281C08990B9A0C9BB0470026431CCCD0109B013B9E42EDDA221C0123281C08991A32099FB847431CBFD00136F0E70F9B002B2BDC0123281C1B
:402A00000899404A099EB047431CB2D00F9B002B05D1109B002B02D12368DB07CED5099E281C08990B9A0C9BB0470026431CA0D00F9B281C5B4208999E4208DA221C012374
:402A40001A32099FB847431C93D00136F0E70A9A109BB0E0109BA66D9E4200DD1E1C002E01DC002314E0331C281C08990A9A099FB847431CF5D17CE7221C0123281C08998F
:402A80001A32099FB847431C00D172E70D9B01330D93F343A26DDB170D993340D31A9942EADB0A9B9E180F9B109A93420EDB2368DB070BD4109B0A9AD7180F9ABF1B9B1A12
:402AC0009F4200DD1F1C002F09DC11E00C9B281C08990B9A099FB847431CEBD149E7321C3B1C281C0899099EB047431C00D140E7002315E0F8760100FC76010000770100C4
:402B00000477010008770100221C0123281C08991A32099EB047431C00D12AE70A9B01330A930F9A109B9A1AFB43DB173B40D31A0A9A9A42E8DB41E7109B281C0899012BEA
:402B400002DC01231A423CD001230A9A099FB847431C00D10DE70C9B281C08990B9A099FB847431C00D104E7A06CE16C0023002202F0A0F90023002812D10A9A109B01328C
:402B8000013B281C08991DE0221C0123281C08991A32099FB847431C00D1EAE60A9B01330A93109B0A9A013B9A42EDDB221C281C331C08995032099EB047431C00D0FDE674
:402BC000D7E60A9A099FB847431CEFD1D1E6221C0123281C08991932099FB847431C00D1C7E60136E368119A9B1A9E42EFDB119BE068984217DA181C15E00026F2E73143FA
:402C0000216001912321009006A8091802910FA9039110A90591002104970691281CFFF731FD0A9047E613B0F0BDC046F7B5171C01930A698B6800900C1C934200DA131C49
:402C4000221C3B6043321278002A01D001333B6023689B0602D53B6802333B60062523681D401ED0231C43331B785A1E9341226892061CD53020E1184031C870211C5A1CEF
:402C800045310978A21840320233D1700FE0221C0123009801991932089EB047431C0ED00135E3683A689B1A9D42F0DBDAE7221C009801994332089DA847431C02D10120C4
:402CC000404220E006232068E1683A6803400025042B03D18D1AEB43DB171D40A3682269934201DD9B1AED180027AF420ADA221C0123009801991A32089EB047431CDED09E
:402D00000137F2E70020FEBDF0B58BB006920A1C43320793059004920A7E0C1C109B6E2A00D1A8E011D8632A22D009D8002A00D1B2E0582A00D0C2E045310A707C4A4FE0D4
:402D4000642A1DD0692A1BD0B9E0732A00D1A7E009D86F2A29D0702A00D0B0E0202209680A43226037E0752A1FD0782A33D0A6E00E1C1A684236111D196013683370A1E0A3
:402D800021681A68080606D4490604D5111D19600023D55E02E0111D19601568002D3BDA2D23049A6D42137036E021681A68080606D4490604D51568111D1960ADB202E0FD
:402DC000111D196015685A4B227E03930A276F2A1DD108271BE0221C782145321170554A19680392081D226818600D68100602D4500600D5ADB2D30702D520231A43226089
:402E00001027002D03D1202322689A432260231C002243331A7002E00A27454B03936368A360002B03DB0422216891432160002D02D1049E002B0ED0049E281C391CFEF7DE
:402E400001FF039B013E5B5C281C3370391CFEF773FE051EF1D1082F09D12368DB0706D563682269934202DC3023013E3370049B9B1B23612BE009681A68080607D4490691
:402E800005D5111D19601368A28A1A8004E0111D1960136862691A600023049E236116E01A68111D196016680021301C626801F03DFA002801D0801B6060636803E0261C7C
:402EC00042363270012323610023049A1370079B05980093211C069B09AAFFF7A7FE431C02D10120404221E0236905980699321C079DA847431CF4D023689B0705D4099B82
:402F0000E068984212DA181C10E00025E368099A9B1A9D42F3DA221C0123059806991932079EB047431CDCD00135EFE70BB0F0BD0A7701001B7701000FB40B4B13B51C686D
:402F4000002C05D0A369002B02D1201C01F0F6F805AB201CA168049A019301F0B1FD16BC08BC04B01847C0460C10002070B5051C0E1C002804D08369002B01D101F0DEF85E
:402F8000AC68A3891B0702D52369002B19D1281C211C00F0DFF8002813D00120404245E03178002B1BDAA269934211DA221C281C00F078F8013042424241D0B20028ECD107
:402FC0000136A3683278013BA360002AE8D10CE023681970236819780A2903D1E6E723681970236801332360EAE7002B17DAA269934208DB0A2322681370236819780A2944
:4030000011D1281C01E0281C0A21221C00F04AF8013042424241D0B2002806D0BDE70A23226813702368013323600A2070BD000008B5034B011C1868FFF798FF08BDC0467B
:403040000C10002030B50C1C0223044317D080242406A14201D1002811D00A4B49004908094ACC180423944209D9084A013B914205D9074A0023914201D143424341181C8E
:4030800030BDC0460000F0FFFFFFDF7FFFFF0F000000F07F0023C25C0133002AFBD1581E7047000070B5051C0E1C141C002804D08369002B01D101F041F8234B9C4201D1F1
:4030C0006C6808E0214B9C4201D1AC6803E0204B9C4200D1EC68A369A360A3891B070AD52369002B07D023682269F6B2981A636998420FDB08E0281C211C00F02BF8002825
:40310000F1D0012040421DE0281C211C00F0A8FF0028F6D1A3680130013BA36023685A1C22601E706369984205D0A389301CDB0708D50A2E06D1281C211C00F091FF0028B1
:40314000DFD1301C70BDC0463C7701005C7701007C770100354B70B51D68061C0C1C002D05D0AB69002B02D1281C00F0E7FF304B9C4201D16C6808E02E4B9C4201D1AC68DE
:4031800003E02D4B9C4200D1EC68A3899AB2110723D4D10607D409220120326037321343A381404240E0530713D5616B002908D0231C4433994202D0301C01F0BBFB00238D
:4031C00063632422A3899343A38100236360236923600822A3891343A3812369002B0BD1A023A2899B00134080229200934203D0301C211C01F038F80123A289134005D06C
:403200000023A36063695B42A36103E0910700D46369A36000202369834205D1130603D540231A43A281013870BDC0460C1000203C7701005C7701007C770100F0B503698D
:403240000C6989B00026A3427CDB0B1C013C1433A50003935B190493031C143301935D19049B07911B680290591C28680593FEF763FC071EB74235D0039B01989C460596C9
:40328000634604CB91B27943120C7A4371180E0C9C46B318069302881E0C059B89B2D2180368521A190C6B461B8BCB1A11145B18191492B21B041A43049B059104C06345FC
:4032C000DED22B68002B0DD1231C019A043D954203D8029A1C1C136104E02A68002AF8D1013BF2E70298079901F03CFA002828DB00200199039A013720CA0B881818ABB2CA
:40330000C31A08682D0C000C451B1E14AD1928149BB22D042B4308C1049B9342ECD2019AA300D3181A68002A0BD1019A043B934202D8029B1C6104E01A68002AF9D1013C95
:40334000F3E73E1C301C09B0F0BD0000F0B5161C1F1C446A9BB00890239D06960797002C08D1102000F0D8FF089B5862446084600460C460089B5B6A196800290BD05A68B2
:40338000012393404A608B60089801F012F80022089B5B6A1A60079B002B05DA01232B607B005B08079301E000232B60079CC64B221C17931A409A4219D1C44B229A136086
:4033C000069AC34B002A02D1240300D1C14B249A181C002A01D100F0B6FDD978DA1C002900D005322499181C0A6000F0ACFD069E079F0022301C391C002301F05BFD051E86
:403400000ED00123229A1360B34B249A181C002A01D100F098FDB14A24990A6000F093FD19AB009318AB01930898321C3B1C01F01FFA61000A90490D09D03803A84C000BE7
:403440000443A848321C231C0E1816951CE0189B199A9E18A44B9E4209DBA44BF018069BC340181CA24B9B1B9C40204304E0A148069B801B8340181C03F060F89E4C021CE8
:403480000B190121013E1691101C191C00229B4B02F0A4FC9A4A9B4BFEF7D0FC9A4A9B4B01F036FD041C301C0D1CFEF761FF984A984BFEF7C3FC021C0B1C201C291C01F052
:4034C00027FD041C0D1C03F003F8291C03900022201C002301F0F4FC00280DD00398FEF747FF021C0B1C201C291C01F0E3FC43424341039AD31A039301231393039B162BF4
:4035000011D8854ADB00D31818685968069A079B01F0EAFC002805D0039B013B03930023139300E01390189B9E1B00230D93013E0E9604D50E9B5B420D9300230E93039BC7
:40354000002B08DB039A0E9B944663440E93002312920F9307E00D9B039A9B1A0D9353420F9300231293209B0125092B27D8052B02DD0025043B2093209B981E032823D81B
:4035800001F07EFC020E0410002300E001231093219B002B21DC01230B9309931A1C1AE0002300E00123039A10939446219B63440B9301330993002B12DC012310E00023DE
:4035C00010952093013B02E001231093023B00220B9309931333219202E0219B0B930993089A546A002262600432111C1431994204D86168520001316160F6E7089861682D
:4036000000F09FFE089B20605B6A1B680C93099B0E2B00D988E1002D00D185E1069B079C14931594039B002B30DD0F223A491340DB00CB185C681B6804930594039B022703
:403640001D11EB060AD514981599344B15401A6A5B6A01F085FF0690079101372F4C002D0DD0EB0708D50498059922686368FEF7E5FB0490059101376D100834EFE70698B3
:403680000799049A059B01F06BFF49E0039B02275D42002D46D0149815990F231E4A2B40DB00D3181A685B68FEF7C8FB1B4C2D11002D35D0EB0704D5226863680137FEF7B9
:4036C000BDFB6D100834F3E70000F07F0F270000357701002C77010008770100097701000000F03F01FCFFFFEFFBFFFF120400000EFCFFFFEEFBFFFF000010FE0000F83F2C
:4037000061436F63A787D23FB3C8608B288AC63FFB799F501344D33FA87701007078010006900791139B002B1ED0069C079D0022201C291CCE4B01F0C3FB002814D0099B8C
:40374000002B11D00B9B002B00DCE9E0039B291C013B1193201C0022C64BFEF76FFB0137069007910B9D02E0039B099D1193381C069B079C04930594FEF7FAFD049A059B6C
:40378000FEF75CFB0022BC4B01F0C2FB06900791069E079F079BB94A9C18002D1CD1049805990022B64B02F019FB321C231C0490059101F099FB002800D063E204980599E5
:4037C000321CB04E079CB4466444231C01F078FB002800D04CE2A3E0AB4A6B1E1099DB00D31800294ED01A685B680020A74901F0B7FE321C231C02F0F1FA049E059F0C9B66
:40380000069007910493391C301C02F061FE041CFEF7AEFD021C0B1C301C391C02F0DEFA049B303401330493013B1C70069A079B061C0F1C01F044FB002800D061E3321C82
:403840003B1C00208A4902F0C9FA069A079B01F037FB002800D0CDE0049B0C9A9B1AAB425EDA069807990022824BFEF7E7FA0022069007917F4B301C391CFEF7DFFA061C72
:403880000F1CC0E718685968321C231CFEF7D6FA049E059F0C9C0690079163190493391C301C02F015FE051CFEF762FD0B1C021C391C301C02F092FA3035049B2570013427
:4038C000061C0F1CA34224D10022069807996F4B01F01EFB021C0B1C301C391C01F004FB002800D086E0069A079B0020674902F075FA021C0B1C301C391C01F0E1FA0028FC
:403900000ED0049B013B1A78302A00D0F9E20493F7E70022574BFEF791FA061C0F1CBEE7149B159C06930794199B002B00DA86E0039A0E2A00DD82E0D300534AD3181E68E4
:403940005F68219B002B14DA099B002B11DC00D090E1301C391C0022494BFEF76FFA069A079B01F0CBFA099F3E1C002800D083E18CE10C9B069C079D0493321C3B1C201CD1
:40398000291C01F0EDFD02F0A3FD0690FEF7F0FC321C3B1CFEF752FA021C0B1C201C291C02F01CFA0B1C0499021C0698013104913030013908700C980499091A0998814209
:4039C0002ED1101C191C01F0A3FA321C3B1C041C0D1C01F089FA002810D1201C291C321C3B1C01F067FA002800D18CE2069BDB0704D488E2119B039300E00493049B013B36
:403A00001A78392A08D10C9A9342F6D1039B0133039330231370131C1A7801321A7072E2101C191C0022134BFEF708FA00220023041C0D1C01F03EFA00289ED063E2109A52
:403A4000002A44D0209A012A0BDC169A002A02D00F4A9B1802E03623189A9B1A0F9D0D9C29E0099B5D1E0F9BAB4213DB5D1B18E00000F03F0000244000001C400000C0FCC5
:403A8000000014400000C07CA87701000000E03F330400000F9B0F95EA1A0025129B9B181293099B002B04DA0D9B099A9C1A002301E00D9C099B0D9A0898D2180D920E9A0D
:403AC0000121D3180E9300F013FD061C02E00F9D0D9C109E002C0CD00E9B002B09DDA34200DD231C0D9AE41AD21A0D920E9AD31A0E930F9B002B21DD109B002B18D0002D2A
:403B000010DD311C2A1C089800F088FD061C0A9A311C089800F0F5FC071C0A99089800F048FC0A970F9B5A1B08D008980A9902E008980A990F9A00F071FD0A90089801215F
:403B400000F0D6FC129B071C002B0ADD391C1A1C089800F063FD209B071C0025012B1BDC03E0209B0025012B12DC0025069BAB420ED1079B1B03AB420AD1179B079A134261
:403B800006D00D9B013501330D930E9B01330E93129B0120002B08D03B6903339B00FB18586800F05BFC2023181A0E9BC0181F23184009D001331B1A042B02DD1C23181A4E
:403BC00003E0042B08D0181C1C300D9B24181B180D930E9B1B180E930D9B002B05DD08980A991A1C00F06CFD0A900E9B002B05DD391C08981A1C00F063FD071C139B002BD9
:403C00001ED00A98391C00F0ADFD002818DA039B0898013B03930A9900230A2200F0E2FB109B0A90002B00D17FE1311C002308980A2200F0D7FB0B9B061C002B3CDC7DE114
:403C4000099B002B2EDC209B022B2BDD099B0B930B9B002B10D1391C0898052200F0C2FB071C0A98391C00F07DFD00280EDC03E02F1C00E000273E1C219BDB4303930C9B82
:403C800004930CE02F1C2E1C119B03930C9B0C9A0133049331231370039B01330393099600261AE1109B002B04D1099B0B930C9D0A9CD0E0099B0B93002C05DD311C08986A
:403CC000221C00F0FDFC061C0996002D12D07168089800F036FB311C041C33690C319A1C92000C30FEF7BDFC0898211C012200F0E7FC09900C9B0C9A0E930B9B0A9C013BD9
:403D0000D3181093391C201CFFF798FA031C0F903033311C201C0D9300F024FD391C0B90099A089800F039FD01230493C368051C002B04D1201C291C00F014FD049008986B
:403D4000291C00F036FB049B209A134310D1069A013313420CD10D980A9439283DD00B9B002B01DD0F9831300E9B013304933EE00B9B002B05DA049B0D9D0A94002B09DCA6
:403D80001CE00B9D209B1D431ED10123069A13421AD1F0E7211C0898012200F091FC391C0A9000F0DFFC002803DC07D10D9BDB0704D50D9B392B10D01D1C01350E9B0133C9
:403DC00004930E9B1D7088E00E9B5D1C049B002B10DD0D9B0A94392B06D10E9B0E9A013304933923137060E00D98049501300E9B187072E06A463421521812780E9B0495CC
:403E00001A70109A93423FD0211C0A220023089800F0E8FA099B041C311C08980A229E4205D1002300F0DEFA061C09900AE0002300F0D8FA0999061C0A220898002300F0C1
:403E4000D1FA09900E955DE7211C08980A22002300F0C8FA041C201C391CFFF7EFF934226B4630309B180D901B780B9A2B700C9B0135EB1A9342E7DB131E00DC01230996B7
:403E800000260C9AD3180493211C0898012200F017FC391C0A9000F065FC002805DC15D10D9BDB0701D411E00493049B013B1A78392A08D10C9A9342F6D1039B0133039348
:403EC0003123137009E001321A7006E0049B013B1A78302A01D10493F8E70898391C00F068FA099B002B0ED0002E05D09E4203D00898311C00F05DFA0898099900F059FAED
:403F000001E0119B039308980A9900F052FA0023049A0C981370039B229A01331360249B002B10D0049A1A600DE00B9B002B00DDBDE6209B022B00DD8AE6B8E6209B022B1B
:403F400000DD85E6B8E61BB0F0BDC046F7B58A89051C0C1C13075ED44B68002B02DC0B6C002B1ADDE76A002F17D000232E682B6080235B011A4001D0626D15E0281C216ACC
:403F80000123B847021C431C0ED12B68002B0BD01D2B01D0162B02D12E6000205EE04021A3890B43A38159E0A3895B0706D56368D21A636B002B01D0236CD21A0023281CCC
:403FC000216AE76AB847A389421C06D12A68002A03D01D2A01D0162A19D10022626022692260DB0405D5431C02D12B68002B00D16065616B2E600029CFD0231C44339942D1
:4040000002D0281C00F096FC0020606326E040221343A38122E00F69002FBED00B680F60DB1B01930023920700D14B69A360019B002BB2DD281C216A3A1C019BA66AB0471E
:40404000002806DC40220120A38940421343A38104E0019B3F181B1A0193E8E7FEBD000038B50B69051C0C1C002B01D100201CE0002804D08369002B01D100F05FF80B4B1C
:404080009C4201D16C6808E0094B9C4201D1AC6803E0084B9C4200D1EC680C22A35E002BE4D0281C211CFFF751FF38BD3C7701005C7701007C77010008B5024900F0AEF85F
:4040C00008BDC04661400000002310B5041C03604360836081814366C281036143618361191C08225C30FEF7C5FA054B24626362044BA362044BE362044B236310BDC046BF
:40410000054D00002D4D0000654D0000914D000070B568254B1E5D430E1C291C743100F04FFC041E08D000212A1C016046600C30A0606832FEF79EFA201C70BD836913B531
:40414000002B28D18364C3640365134B134A1B6882620193984201D101238361041C00F01FF86060201C00F01BF8A060201C00F017F80421E06000226068FFF7A5FFA068E9
:4041800009210122FFF7A0FFE06812210222FFF79BFF0123A36113BDF4760100B9400000F8B51D4B061C1D68AB69002B02D1281CFFF7C4FF4835AC686B68013B05D40C2220
:4041C000A75E002F10D06834F7E72B68002B06D1301C0421FFF79CFF2860002801D02D68E9E70C23336016E00123201C5B42E3810233A38167662760A760676027616761D0
:40420000A7615C30391C0822FEF734FA201C6763A763A764E764F8BDF4760100F7B5041C071C002601914834002C16D06368A5680093009B013B00930DD4AB89012B08D996
:404240000E22AB5E013304D0381C291C019B984706436835EDE72468E6E7301CFEBD00000048704710100020F0B58B8991B09B0706D50B1C47330B600B6101234B6145E0AC
:404280000C1C0E23C95E061C002904DA8023A5891D4010D10CE001AA00F0A6FD0028F5DBF023029D1B021D40194BED186B425D418027FF0001E000254027301C391C00F0A0
:4042C0007FFB00280CD1A3899A051FD402221343A381231C4733236023610123636115E080220C4BB362A38920601343A38120616761002D0AD00E23E15E301C00F086FD93
:40430000002803D00122A3891343A38111B0F0BD00E0FFFFB940000008B5034B011C186800F04EFB08BDC0460C100020C9B28218904204D003788B4202D00130F8E7002087
:40434000704770B5466A041C0D1C002E07D11020FFF7E2FF6062466086600660C660666AF368002B09D0626AAB00D268D318186800280ED002681A6017E0201C04212122B1
:4043800000F0CAFA636AF060DB68002BEBD100200EE001210E1CAE40721D9200201C00F0BBFA0028F3D04560866000230361C36070BD70B5456A061C0C1C002D07D1102018
:4043C000FFF7AAFF7062456085600560C560002C07D0726A6368D2689B00D3181A6822601C6070BDF7B51E1C14239C46071C0C1C00200D698C44634619881B6851431B0CE9
:40440000534389190E0CF31889B21E0C1B045B186146013008C18C46A842ECDB002E1BD0A3689D4212DB6368381C591CFFF789FF211C236901909A1C0C3192000C30FEF7F2
:4044400010F9211C381CFFF7B4FF019C2B1D9B00E31801355E602561201CFEBD0022031C010C914201D103041032190E01D108321B02190F01D104321B01990F01D1023287
:404480009B00101C002B03DB20205B0000D5501C70470722036810B5011C1A400CD001240020234223D10222134203D0E340201C0B601CE09B0818E098B2002801D110222C
:4044C0001B0CD8B2002801D108321B0A180701D104321B09980701D102329B08D80704D45B082020002B02D00132101C0B6010BD10B50C1C0121FFF724FF012344610361DC
:4045000010BDF0B50B69141C126989B00D1C934201DA251C0C1C2F692669AA68BB1969680093934200DD0131FFF70BFF011C009B1431844698000B1C0818834202D20022B9
:4045400004C3FAE71435BF00EB191434B6000493A31902950693069B9C4256D223880393002B22D00E1C0027029B0193019B039D04CB059601933388079393B26B43079D59
:40458000120CEB183568DB192F0C039D6A43BA181F0CD219170C9BB21204134308C6019A049B9A42E2D3059B5F6023681B0C019321D000220D1C0B68029F03923E88019A79
:4045C0009BB256432A680595120CB218039E9219160433432B6008CF019E1B0C7343AE88120C9B199B181A0C0392049A0435BA42E4D8059A536004340431ACE70438036809
:40460000002B05D1009B013B0093009B002BF5DC63466046009A1A6109B0F0BD0323F7B51340051C0E1C141C002B07D0224A013B9B009A580023FFF7D5FE061CA310019382
:4046400037D06C6A002C07D11020FFF765FE6862446084600460C4606F6ABC68002C10D1281C1649FFF744FF0023B860041C036007E0019B5B1001931BD0206800280FD056
:40468000041C019BDB07F4D5311C221C281CFFF738FF071C311C281CFFF78BFE3E1CE8E7281C211C221CFFF72CFF002320600360E6E7301CFEBDC0469878010071020000F7
:4046C000F0B50C1C171C2369551185B0EB180193013300934968A3680290009A9A4202DD01315B00F9E70298FFF72BFE021C061C00231432AB4204DA00209900505001336B
:40470000F8E7EB43DB171D40231CAD0055192269143392009A1894461F22174014D00132D21B039200221968281CB9400A4304C504CB0399CA409C45F5D84260002A07D0E6
:40474000019B0233009303E004CB04C59C45FBD8009B0298013B3361211CFFF72AFE301C05B0F0BD03690A6910B59B1A041C181E12D1930014341431E218C918043A043990
:4047800013680868834204D083429B410120184302E0A242F2D8002010BDF0B5071C85B0081C0C1C111C151CFFF7DCFF061E07D1381C311CFFF7C5FD01234661036155E0AA
:4047C00000230193984204DA231C2C1C1D1C01230193381C6168FFF7B4FD019B26692F1CC3601434B300E318021C02932B69002514379B00FB180393143208CC69469C46D9
:4048000008CF0432009363468B808B885D19009B9BB2EB1A65460193009B2D0C190C019B691A1D14131F9C466B4649199B880D1409040B4361460B60039B9F42DDD3029984
:40484000131C8C420BD208CC99B249190D141B0CEB181D1489B21B040B4308C2EFE7043B1A68002A01D1013EF9E7066105B0F0BDF7B51D1C0121089F141CFFF762FD2B0313
:404880006D00061C1B0B6D0D02D08022520313430193002C18D068460094FFF7FAFD009C002809D02023019A191A131C8B40C24023437361019200E07461019CB461631E74
:4048C0009C410134346107E001A8FFF7E2FD0124019B346173612030002D06D00B4BED1835232D183D60181A0BE0094BC018094B3860E3189B00F3185869FFF7AFFD6401FC
:40490000201A099B1860301CFEBDC046CDFBFFFFCEFBFFFFFFFFFF3F4A4338B5111C141C00F04EF8051E03D00021221CFDF7A2FE281C38BD30B500293ED004390B68002B25
:4049400000DAC9181D4A1368141C002B02D14B60116031E099420DD208680A189A4203D11368C3180B6053684B60216024E08A4203D8131C5A68002AF9D11D685C198C4243
:404980000BD10968691858181960904214D110685268091819605A600EE08C4202D90C23036009E008680C18944203D114685268001908604A60596030BDC046BC210020A9
:4049C000032370B5CC1C9C430834051C0C2C01D20C2405E0002C03DA0C2300202B6042E08C42F9D3204A1368101C191C002913D00A68121B0DD40B2A02D90A608B181FE09B
:404A00008B4202D15A6802601BE04A685A600B1C17E00B1C4968E9E7144E3368002B03D1281C00F05DF93060281C211C00F058F9031C421CD0D00322C61C964386420AD10D
:404A40001C60181C07210B301A1D8843821A0AD05142995007E0311A281C00F041F9431CBAD0331CECE770BDBC210020B8210020936810B5013B9360002B05DA9469A34286
:404A800008DBCBB20A2B05D01368581C10601970C8B201E0FEF706FB10BDF8B5061C0F1C141CD518AC4208D02178301C3A1CFFF7DFFF0134431CF5D100E00020F8BD00008B
:404AC000F0B59FB0061C0F1C02920593002804D08369002B01D1FFF731FB794B9F4201D1776808E0774B9F4201D1B76803E0764B9F4200D1F768BB891B070AD53B69002BA7
:404B000007D0002306AD6B6120336B761033AB763DE0301C391CFEF71DFB0028F1D001204042CAE0059A111D12680591002A7EDB0992013423782E2B00D189E021786348C1
:404B40000322FFF7F3FB002808D0604B0134C01A40238340181C2B68184328602178631C5B48062202932976FFF7E0FB002800D191E0584B002B00D084E00722059B07334B
:404B80009343083305936B69039A9B186B61029C2378002B04D1029BE31A049311D003E0252BF8D00134F3E7049B301C391C029AFFF773FF431C7BD06A69049B9446634426
:404BC0006B612378002B73D00122002352426A6002A95432521801342B60EB60AB601370AB6521783C480522FFF7A0FB002809D0394B0134C01A01238340181C2B68184386
:404C00002860EEE72B68DA0604D55322202102A8121811701A0704D553222B2102A81218117022782A2A00D17CE7099B05E05242EA60022213432B607BE72278303A092A89
:404C400004D80A214B4301349B18F6E7099371E763782A2B09D1059B02341A1D1B680592002B0DDA01235B420AE0002301342278303A092A04D80A214B4301349B18F6E70F
:404C800007935BE705AB0093301C291C3A1C134BFDF78EFD07E005AB0093301C291C3A1C0E4BFEF731F80390039B013300D06AE7BB895B0600D532E70B981FB0F0BDC0464B
:404CC0003C7701005C7701007C770100AA780100AE780100B1270000A47801009B4A000038B50023064C051C081C2360FBF7F6FC431C03D12368002B00D02B6038BDC046C7
:404D00002822002038B50C1C0E25495F00F0A4F8002803DB636D1B18636503E0A289024B1340A38138BDC046FFEFFFFFF8B51E1C8B89051C0C1C171CDB0505D50E23C95E7A
:404D40000022022300F074F8A289054B281C1340A3813A1C0E23E15E331C00F01FF8F8BDFFEFFFFF38B50C1C0E25495F00F060F8A389421C03D1054A1340A38104E08022BB
:404D800052011343A381606538BDC046FFEFFFFF08B50E23C95E00F015F808BD38B5051C0020074C2060081C111C1A1CFBF786FC431C03D12368002B00D02B6038BDC04668
:404DC0002822002038B50023064C051C081C236001F0E6FB431C03D12368002B00D02B6038BDC0462822002038B50023064C051C081C111C236001F0DBFB431C03D12368C8
:404E0000002B00D02B6038BD2822002038B50023064C051C081C236001F0D2FB431C03D12368002B00D02B6038BDC0462822002038B5051C0020074C2060081C111C1A1C74
:404E400001F0C6FB431C03D12368002B00D02B6038BDC0462822002038B5051C0020074C2060081C111C1A1C01F0BAFB431C03D12368002B00D02B6038BDC0462822002000
:404E800002B4714649084900095C49008E4402BC7047C0468446101C62468C46191C634600E0C0461FB500F033FF002801D40021C8421FBD10B500F077FE4042013010BD18
:404EC00010B500F025FF002801DB002010BD012010BDC04610B500F01BFF002801DD002010BD012010BDC04610B500F0A1FE002801DC002010BD012010BDC04610B500F04F
:404F000097FE002801DA002010BD012010BDC046F0B5454657464E4694464C000A03C90FE0B488460E1C1903470FC500480A6146490F01436046520A1743C0005A00640D4D
:404F4000520DDB0F8446984500D1A7E0A01A002800DC01E1002A3DD163460B4300D0D4E06B0700D188E00F232B40042B00D183E02A1DAA42AD4180236D427F191B043B4046
:404F80004646151C002B00D17CE0CC4B01349C4200D1FDE03A1CCA4BED081A405007640552020543120B640D002112030B0D1B056405120B1A436308C24CF60714401C43E6
:404FC000640064083443281C211C1CBC90469946A246F0BDB94B9C42C2D080231B041943382800DDECE01F2800DD21E120220E1C6346121A9640C340334366469640321CA6
:40500000561EB24113430A1CC240EB1A9D42B6411D1CBA1A7642971B3B0200D497E07A02560A002E00D1B6E0301CFDF7C1FA031C083B1F2B00DDB7E09E40371C28262A1C60
:40504000361AF240161C9D403E439C4200DDB2E01C1B621C1F2A00DDD8E01F23291C1C1B331CA540A340D1406C1EA541D64019430D43371C002473E780231B043B4046468C
:4050800000D082E78D4BED0878070543FA089C4232D012036405120B640D85E7A31A002B00DC94E0002A3CD0844A944200D157E7802212041143382B00DC05E16346194372
:4050C000481E81410022C8B24019A8429B41051CD2195B42D7183B0239D5784B01349C4200D14CE10120764A6B083A4028401843D5070543570833E72B1C134348D0802390
:405100001B031A431203120B4EE70138002878D16346EE1AB5429B417A1A5B42D71A351C7AE7021C0A4300D11AE7013B002B00D0F2E04019A8429B41CA195B42D718051C96
:40514000C9E7131C334300D118E1171C351C46466B0700D007E795E700287AD1621C5205520D012A00DCFBE06246AA1A9542B6419146781A7242861A320200D493E06246B1
:40518000551BAC458041CF1B40423E1A984648E70022002508E7281CFDF70AFA2030031C083B1F2B00DC47E7283885402E1C00259C4200DC4CE7424AE41A1640371CCFE61B
:4051C000634619434B1E99410022CBB21DE7002B00D0F2E0601C43055B0D012B00DCA4E0364B984200D121E163465C19AC429B41CF195B42FA186408D50725435708041C63
:40520000AEE62E4B9C4200D0EAE6A9E6211C331C1F39CB40191C202A00D182E03F231C1BA64035436E1EB54100270D4300248EE7031C0E1C203BDE40202874D040231B1A44
:4052400099400B1C62461343591E8B4100223343DBE6002C50D0194CA24200D1A8E08024240440422743382800DDD9E01F2800DD39E120243E1C241AA640B0462E1CA146D1
:40528000C640444626434C46A5406C1EA541C74035436046451BCF1BAC45894149427F1A141C9846B8E64B464D46334300D0B8E60026002700240025E4E6C046FF070000A0
:4052C000FFFF7FFFFFFF0F801F2B5BDC2022081CD21A9040814660469246D8404A4610438146524660469040021C501E8241484610430A1CDA40E7E63C1C2C4358D0C043BE
:40530000002851D16046451BAC458041CF1B40423F1A141C98467FE68F4A944200D0CAE61EE600267DE700238CE73B1C2B43002C00D0BDE0002B00D1F5E063460B4300D1E9
:405340000EE663465B19AB428041CA19404217183A0200D4FCE0814A1D1C17400134FFE53A1C2A43002C51D1002A00D085E062460A4303D00F1C65469846F1E5002600276B
:4053800000257FE6181C0A1C2038C240202B00D1A7E04020C01A8140081C63461843411E8841104300228FE66B4CA24200D05AE70F1C6546141C9846D2E5002C3AD1381C05
:4053C000284371D0DB43002B18D0634882426BD0382B00DD9DE01F2B00DDA7E020203C1CC01A8440A1462C1C8246DC404846044350468540681E8541DF402543654465451C
:405400009B417F185B42FF18141C64E6002A19D162460A4377D00F1C654698464E4C9FE53D436F1EBD410027EDB232E7041C0027002527E64848824236D0802000045B42AB
:405440000743C5E762460A4349D08024ED087807FA0824032843224209D0CE08264206D162464F07381CD20810439846321CD200470F1743C500384C72E562460A4300D197
:405480006EE56246AE1AB5429241781A5242821A100200D455E66246551BAC458041CA1B4042171A98465BE50F1C6546141C57E5002B34D063460B4311D08024ED0878079B
:4054C000FA08240328432242D1D0CB082342CED162464F07381CD20810431A1CC7E71E4C3EE5002059E7041C3E1C203CE640341C20282BD04026301A87403D436F1EBD41DB
:4055000000272543C5E680270026FF03124C0025B8E53D436F1EBD410027EDB26EE70F1C65460D4C1CE50F1C654619E51C1C381C203CE040041C202B0CD04020C31A9F40AD
:405540003D436F1EBD410027254357E70027D4E71D1CFCE50027F3E7FF070000FFFF7FFFF0B55F4656464D464446F0B40F0387B098464D003B0BCC0F061C924681469B46F6
:405580006D0D01946BD0664B9D4235D080275B467F031F43F3009946624BFF00400F9C4607430023BB46002665440093424617035000D20F53463F0B400D904600D172E065
:4055C000574A904267D080235B031F435346554A5B0FFF001F43944653460021DB0060444246624092462D1A0E430F2E00D9A1E04D48B600805987465B461E4300D076E03E
:4056000000239B469946023308260093CEE799464346BB4601930091009B022B6BD1019B9A46002153460122002789461A403C4B00213F030C0D24053F0B27433B4C1B051A
:4056400027401F437F00D2077F0817434846391C07B03CBC90469946A246AB46F0BD03433ED05B46002B00D19CE15846FCF7A0FF2823311C1B1A021C5F46D940083A9740FB
:405680000B1C96403B439B46B1460023284D00262D1A00938AE7524603213A43A0D10027002302219CE752463A4315D0002F00D185E1381CFCF77CFF021C28215046891A32
:4056C000131CC8405146083B99409F400B1C074317480021801A83E70027002301217FE700239B4699460133042600935EE703230C2600935AE7032B00D13CE2012B00D0BC
:40570000BFE11A1C019B1A4000210023002789468EE700238027994600223F03004B87E7FF07000001FCFFFFB8780100FFFF0F800DFCFFFFBB4500D951E100D14CE14A46C9
:40574000039200225C469046013D180E3F0238431B020193030C994603041B0C4946061C201C1F1C0093FCF7E7F9021C7A4302904946201C171CFCF765FA039B09041B0CF0
:4057800019438F420CD9029B8919013B8E4200D952E18F4200D84FE1029B8919023B0293CC1B201C4946FCF7C7F9009F834647434946201CFCF746FA039A0B041404240C4D
:4057C00023439F420DD95A469B19013A9E4200D930E19F4200D82DE10222524294469B19E344029ADB1B17045A463A439346019C170C220C101C04925A4611042204120CA3
:40580000141C090C7C4305924A43414347436118100C09188C4203D980204002844667440C0C12040804120C3C198118A34200D2E5E000D1DFE01F1B43465C1AA045924138
:405840005242BF1AB74200D10EE1381C4946FCF773F9009B029043434946381C9846FCF7F1F9230C0F041F43B8450CD9029BBF19013BBE4200D9FBE0B84500D8F8E0029B3A
:40588000BF19023B02934346FF1A4946381CFCF753F9009B039043434946381C9846FCF7D1F924040904240C214388450CD9039B8919013B8E4200D9DCE0884500D8D9E08E
:4058C000039B8919023B03934346C91A029B039A1B04059C1A43100C13049146221C049F1B0C5A4344437B437843E318170CDB199C4203D980246402A44660441C0C120481
:405900001B04120C00199B18814200D296E000D1FCE04A4601231A4391469B4BEB18002B00DC99E04A4652070AD00F2249460A40042A05D0043149459241894652429344B5
:405940005A46D20106D55A46904B1A4080239346DB00EB188E4A934200DD62E64A465946D208490711435A4689465702514601225B053F0B5B0D0A405AE680205A460003CA
:40598000024208D0074206D107433F0399463F0B4246804B4CE65F4607433F033F0B221C7C4B45E6FCF704FE031C2030272800DC5EE6083B9E400023B346994665E65046F6
:4059C000FCF7F6FD021C2032272A00DC75E657460838874000237BE6994500D2AFE65A46594654084A46C8075208024303924A46D2079046A9E60027884500D31CE7019FF6
:405A00005A46BC46E044B845BF417F42BF19FF18013ABE4206D2BC425FD800D19FE03F1B934609E7B742FAD1019B4345F3D9371B934601E79346D4E60293B1E64A46891980
:405A4000013A8E4218D99146814200D061E7019A9A4200D05DE760E74F4F7F1B382F13DD012253461A404FE601235B42994654E7029308E7039327E788423CD874D09146D0
:405A800047E7019B9A4648E71F2F44DC434B4A469C465B466544FA40AB4013434A46AA40151C6A1E95415A46FA402B43171C5A0709D00F221A40042A05D01A1D9A429B419F
:405AC0005B42FF18131C3A023ED55346012200211A40002701238946AAE502235B429C46019AE3449446E04490459B415B429B19DF193F1BA0E6019F4A467C00BC42BF41AC
:405B00007F42BF19023AC91901949CE7002B95D1002201929BE75A46214B5B1BDA40202F27D0204B9C465B466544AB4049460B43591E8B411343072200271A4007D00F2242
:405B400000271A40042AB8D17A077F023F0BDB0813439946012253461A40002368E54145BBD89346002767E6019C9C42C3D391466DE70023DAE780275B463F031F433F034F
:405B80003F0B019A034B53E5FF030000FFFFFFFEFE070000FF07000002FCFFFF1E040000E2FBFFFF3E040000F0B55F464D4644465646F0B41F035C00DB0F99461B4B0E03D2
:405BC0004D00C90F8446360B6D0D8B4690463F0B640D9D420CD0154B9C4210D00123A54214D0181C3CBC90469946A246AB46F0BD311C01230143F4D10C4B9C42EED13A437F
:405C00000123002AEDD10123A542EAD1BE42E8D1C445E6D1CB4506D0002DE2D13043031C581E8341DDE70023DBE7C046FF070000F0B5574645464E46E0B40F034E00C90FA5
:405C40008A4632491D035C0084463F0B760D90462D0B640DDB0F8E420FD08C4239D0002E10D13843414241418946002C27D12A4325D1002000290ED108E0391C01432ED14A
:405C8000B44226D0002C0BD09A450DD05346594201231943081C1CBC90469946A246F0BD2A43F3D09A45F1D1A642EFDC1ADA504641424841012341421943081CEBE74A4698
:405CC000002AE1D058425841012241421143081CE1E7291C114302D1002EC2D0D4E702204042D8E7AF42D1D809D00020AF42D2D2504641424841012340421843CBE7C445E0
:405D0000C4D80020C445F3D3C5E7C046FF070000F0B55F464D46444656468046F0B4061C0803000B84462C484C001F035D00C90F640D8B4691463F0B6D0DDB0F844212D02B
:405D4000854225D0002C14D161460E4370424641002D35D0002E21D058425841012143420B43181C0EE06146022031430AD1A5420ED0002D12D13A4310D15B4659420123DF
:405D80001943081C3CBC90469946A246AB46F0BD391C02201143F5D1002CD5D09B45ECD1AC42EADC05DBBC45E7D80FD00020BC45E8D2584641424841414201200843E1E7C2
:405DC0003A43C7D10020002EDCD1D6E7C845D4D80020C845EDD3D5E7FF070000F0B54D4644465F465646F0B40E1C111C3203520A470F1743C5001A035800DB0F9946520AD0
:405E00004B0F83B01A43CB000193CF4B7400F60F640DB046400D984200D1E8E00123494659400B1C9E4200D1B1E0261A002E00DC1CE1002842D1131C01990B4300D0E6E07B
:405E40006B0700D18EE00F232B40042B00D189E02A1DAA42AD418023012641466D427F191B043B400E40151C002B00D183E0B64B01349C4200D116E13A1CB44BED081A40BA
:405E80005007640552020543120B640D002112030B0D1B056405120B1A436308AC4CF60714401C43640064083443281C211C03B03CBC90469946A246AB46F0BDA24B9C421B
:405EC000BED080231B041A43382E00DD03E11F2E00DD3FE12020831B9946131C49468B409C46019B6046F34003430198F2408840011C481E81410B43EB1A9D4280411D1C9D
:405F0000BA1A4042171A3B0200D4A8E07A02560A002E00D1CAE0301CFCF74AFB031C083B1F2B00DDCBE02822291C121AD1409E400A1C9D4032439C4200DDC8E01C1B671CC5
:405F40001F2F00DDEDE01F23291C1C1B131CA540A340F9406C1EA541FA4019430D43171C00246DE78023012642461B043B401640002B00D07BE7744BED0878070543FA081E
:405F80009C423BD012036405120B640D7EE7231A9A46002B00DCA5E0002844D06A48844200D14DE78020000402435346382B00DC1CE1019B1A43511E8A41D1B2002249192D
:405FC000A94280410D1CD219404217183B0246D55D4B01349C4200D169E101205B4A6B083A4028401843D5070543570828E7131C01990B4300D111E74B4613E72B1C1343F2
:4060000051D080231B031A431203120B3EE7013E002E00D080E0691A8D429B41BA1A5B42D71A0D1C6FE7101C019B184300D107E701235B429C46E2445346002B00D002E1FC
:40604000019BD2195919A9429B415B42D7180D1CBCE76346034300D128E1071C65466B0700D0F0E6012643461E4084E7002E00D081E0601C4005400D012800DC07E10199EC
:40608000681A84466545B641B81A7642861B300200D4A1E08C464D1BAC458941D21B4942561A984634E700220025EFE6281CFCF77FFA2030031C083B1F2B00DC33E7021C8F
:4060C000283A95402A1C00259C4200DC36E71F4FE41A1740B4E6019B1A43511E8A41D3B2002209E7002B00D001E1601C43055B0D012B00DCB0E0144B984200D11EE1019BBA
:40610000D2195919A9429B415B42D2184908D5070D435708041C93E60B4B9C4200D0D3E68EE6211C131C1F39CB40191C202F00D18EE03F231C1BA24015436A1E9541002724
:406140000D4300248BE7C046FF070000FFFF7FFFFFFF0F80331C101C203BD840202E79D040239B1B9A40131C019A1343591E8B4100220343C0E6002C53D0C74CA04200D126
:40618000B0E0802471428946240427434946382900DDCDE01F2900DD59E120243E1C611A8E408A46B04649462E1CCE405146B4468D4064464646494626436C1EA541CF401F
:4061C00035430199D71B8C464D1BAC4592415242BF1A041C984696E663466546334300D096E60026002700240025C4E61F2B61DC2020C31A9B46131C59468B4051469946CC
:40620000019BCB409C464B46604603439C465B46019999406346481E814119435346DA40CDE63C1C2C435DD0F1438946002955D10199D21B8C464D1BAC4589414942571A11
:40624000041C98465FE69448844200D0ADE6F7E5002271E7002387E73B1C2B43002C00D0DAE0002B00D113E1131C01990B4300D1E6E54919A9429B41D2195B42D7183B02F4
:4062800000D421E1854B0D1C1F40041CD8E5381C2843002C40D1002800D083E0101C0199084303D0171C0D1C9846C9E500260027002560E65046131C2038C340181C53460B
:4062C000202B00D1C1E0402351465B1A9A40019911434A1E91410022014370E66E4CA04200D053E7171C019D041C9846A8E5002C28D13C1C2C4300D18AE0DB439A46002B62
:4063000000D082E0019BD2199C4665449D42894149425718041C59E600285BD1101C0199084300D1A4E0171C0D1C98465A4C87E53D436F1EBD410027EDB242E7041C0027D0
:40634000002518E6544CA04262D0534680245B429A46240427435346382B00DD8EE01F2B00DD9DE02024E31A9B463B1C59468B40514699462B1CCB409C464B4664462343E1
:406380009C465B469D4063466C1EA541CF401D43019BBF189C4665449D4292415242BF18041C13E6101C0199084300D148E5681A844685428041BE1A4042301A060200D45E
:4063C00047E68C464D1BAC458941D21B4942571A984635E5101C0199084334D080247807ED08FF0824032843274208D0D608264205D1C90852070A43101C371C9846FF00A4
:40640000420F1743C500244C1AE5234CA042A2D1171C019D041C13E5002B35D0131C01990B4310D080247807ED08FF08240328432742E4D0D3082342E1D1C90852070A4372
:40644000101C1F1CDBE7144CFAE400223FE74C463E1C203CE6404946341C202932D04026761AB7403D436F1EBD4100272543A8E680270026FF03084C00257CE53D436F1E0A
:40648000BD410027EDB283E7171C019D024CD7E4171C019DD4E4C046FF070000FFFF7FFF54463B1C203CE3401C1C5346202B0DD0402351465B1A9F403D436F1EBD410027DA
:4064C000254365E70027CDE70D1CC8E50027F3E70B0330B5134C1A0B4B00051C5B0DC90F0020A34210DD104883420EDC80200F4C40030243E41A1F2C0ADD0D48C31ADA401B
:40650000131C48424340581830BD0A4BC818FBE7281CE040084CA44663449A40131C0343EFE7C046FE0300001D0400003304000013040000FFFFFF7FEDFBFFFF10B5041E7E
:4065400010D0FCF735F8144A121A0A281ADC0B23211C1B1AD94015300B03520584401B0B520D01E00022002300211B03201C1C0B0B0D1B052343094C1205234013435B00D7
:40658000590810BD031C0B3B9C40520523031B0B520D0024E8E7C0461E040000FFFF0F8058220120014B40421A6070472822002058220120014B40421A60704728220020BA
:4065C0005822024B00201A607047C0462822002058220120014B40421A6070472822002058220120014B40421A60704728220020134A1088810703D08107890F401A001D24
:4066000011791030484381B25088820703D08207920F801A001D800040180A494030098980B2CA0701D0503080B2890706D504495422091F09785143081880B27047000096
:40664000C60C0020C810002010B501F0ABFE10BD10B500F04FFA10BD10B50749044609780220002907D1204601F0ECFE002802D1204609F0ADFF10BD300E002070B5044655
:406680000120002C12D02368002B0FD0616800290CD0074D06222889208118462968FBF7E0FF6968606809780170002070BD0000C8100020FFB585B0002768460E9D077307
:4066C0004C481C460078002802D0082009B0F0BD10990F9801900095029105A807C800F0FBF80028F2D16946264603AB84460873002C19D0002115E08A00B75A082F09D964
:4067000090198078002805D0083FB7521878401C187005E0002915D00027B75290198770491CC9B2A942E7D360460028CED10F9800280AD0109901F0E9F90006000E04D035
:406740000120C3E701208446EEE701F02BFE2948002101610C300599016021888180022D03D3A1798171A17AC17100211EE0481C19E082008B00A75AE65ABE46BE4211D28C
:406780006F463E80B4461E190296B678BE7001967646E6521719029EBB78B3706646A652019EBE70401CA842E3D3491CA942DED3114800906846037B22460799069800F077
:4067C00013F9002882D168460A4C007B60700A4801F018FE0028B4D1204607490C3006F021FF0028ADD106F03BFF0028A9D1012121706BE7C00C0020C8100020F8B505465C
:4068000033480E460078002802D002242046F8BD002E5BD000242F49002D16D02A89D0070DD02868002808D003881B3BE12B04D24088FB2801D81B2801D2012409E0900795
:4068400007D56868002804D1F7E70020088108604860002CDAD11F482F8907811C481B21801D018041800421017119490020891C0870F80705D016480622801D2968FBF72B
:40688000F0FE1449B80703D56A681148127882700F480D46801D0860001F486001F0F8FD0B48801D01F0E6FD28890CF087FE28890CF0EEFF03461033FFF79AFE1F21C01831
:4068C000890140180249308088809FE701249DE7C00C0020C8100020FFB58446384F1C460020BB883F78054602460646002F11D100290ED0029999420BD36146002908D02C
:40690000002C06D00A99002906D02E4B0B99994202D2012004B0F0BD002144E0AB001F19BF78002F3BD0E35A002B38D07B43591889B22B0000F04AF8050410161C253100F4
:40694000A7782388BC46FF27233BEB37BB4222D26346032B1FD322E0A388002B1FD0302B19D31CE02389002B19D0282B13D316E0A289002A13D01346134F233BBB420AD248
:406980000DE0268A002A0AD033460F4F233BBB4201D2964203D901200EE0002001E000280AD16D1CEDB2099B9D42B7D31C2463435B1802998B42ACD89642AAD8AAE7000005
:4069C000C00C002079020000BAFF000030B47446641E2578641CAB4200D21D46635D5B00E31830BC18470000FFB583B0002469460C801F4606468C80002806D005980028F1
:406A000003D004983043800701D0012467E0002FFBD03449049809888842F6D3FBF730F8FBF71EF800F010FC002856D100F06CFD002852D12C49084601F09CF805042D0CDE
:406A40004BD12A480499066081800021C18007810C98007AC00704D0684601F0BCFC040007D10C98007A800703D501A801F0BCFC0446BF1DFEB2002C21D13146059800F0E7
:406A80005DF804001BD10CF011FF0406240E16D16A461088928808368518144AF1B29088D288AEB29319984207D3401B801A80B201F050FB050007D000E0FF25012400F09A
:406AC0005BFA002D04D008E0F8B200F01BF9F6E700F07EFA06490120087000F0C7FB204607B0F0BDC40C0020296C0000D4100020D40C002010B503480078012801D101F004
:406B0000CBF910BDD40C002070B5084B0446DA889E8800205518B54206D81D68AA182260DA885118D98070BD032070BDD41000200148008970470000D4100020F0B587B041
:406B400007460D4600208900009006916846FFF7DBFF844600285DD1304800990160002117E02E4B88001A680629115406D22C4C0419667882185670628805E0C419203CB3
:406B8000A67A8218567022891B68C018491C4280C9B2A942E5D300242DE0601CC2B2059025E01E4FA30039689600581840887118039604904E88B04217D938466F46FE80B1
:406BC000B6464F786E4677710297049F4F800168039F5E18767879184E700168764659184E800068029F18184770521CD2B2AA42D7D30598C4B2AC42CFD36046002809D146
:406C000068460699FFF780FF8446002802D1054900980860604607B0F0BD0000D80C002030790100DC0C00207047000010B5002809D005494A68002A05D0011F0878800023
:406C4000105801F035FA10BDD80C002010B50446FFF76EFFC0B2801DA0420CD307484068002808D0A100405801F094F9002801D00470001D10BD002010BD0000D80C002083
:406C8000F8B516460D460446FFF752FFC0B2801DA04203D20020C0430090F8BDB2B2E9B2684601F09DF90099481C03D0024AA000526811500098F8BDD80C0020F8B5074663
:406CC000FFF736FF801DC6B20A49002005460C680DE06178002907D06188B94202D32078FFF7B4FF002804D1241D6D1CEDB2B542EFD3F8BDD80C002010B5002801D0FFF7D6
:406D000095FF10BD70B506460948002504680BE06178002905D062882078121D0023FFF7AFFF241D6D1CEDB2B542F1D370BD0000D80C0020FFB581B00A9C16002BD000F084
:406D4000F1F80546042826D0214F002C0BD02046FFF7B4FF2901C919486000281BD022460499FBF77EFC1A4928010E5046187481019805707D20029CC000444300F0C0F88A
:406D8000009004280AD000F055FAA0420ED800F051FA201A06E0FF2005B0F0BD204600F0ADFA0020B08135720020F5E700F042FA074600F0B9FA381B87B23846012100F031
:406DC000EFF800980101024808188781E6E70000E0100020F8B5060117483418217A042903D0A089002802D018E00020F8BD00F021FA054600F098FA00F0A2F804280DD06E
:406E000001010D480F18B88941198DB2002100F0C7F80020B881284600F070FA6068064D002801D0FFF768FF042020720020A8516081A081D9E70000E0100020FEB500261E
:406E40006A46304601232549050169180D7A042D02D0898900291BD000211154401CC0B20428F0D300246846005D002830D01B4821010818418947680568029100210160E9
:406E800041600422418102728181002E02D015E01354E3E700F054F804280ED001010F480818019086890021304600F079F8019800218181304600F021FA0126002D07D0EE
:406EC00038460299A847002F02D03846FFF714FF641CE4B2042CC6D3FEBD0000E01000200EB5002005216A460090118150810348694600680DF04FFB0EBD0000E00C00202C
:406F0000074A0020010189180B7A042B02D08989002903D0401CC0B20428F3D370470000E01000200549002002015218127A042A03D0401CC0B20428F6D37047E010002030
:406F400030B50A4B04200A4C00210A011219157A042D06D09289002A03D09A4201D808461346491CC9B20429EFD330BDFFFF0000E01000207047000030B50020074C0546D8
:406F80000423020111190B72A5504D60401C4D81C0B28D810428F4D330BD0000E010002030B5094C00231A011219157A042D04D09589002906D02D1895815B1CDBB2042BE2
:406FC000F1D330BD2D1AF7E7E0100020002070471CB5002469460C70142001902346054A05480DF0DDFA04480068401C00D1FF2420461CBD4D700000E00C00203EB5124ABB
:407000000146FF2000230124126800290DD0012914D0042908D104206946009308814B8110460DF0B8FA80B23EBD6846009304814381694610460DF0A9FAF4E768460093D6
:40704000048143816946EBE7E00C002070B545890468416800890300FFF7B8FC08280509091E22282628002005F0EEF91EE0022908D0C8B22A4621460BF050FC2046FFF70E
:407080003BFE13E002202A4621460BF047FC2946204600F00DF809E000200CF06BFF05E02046FFF7CBFE01E0FAF70CFD002070BD014B0022DB681847E40C002070B54489F0
:4070C00005680089022803D0032809D0FF2070BD2246094C0023A46829460120A04708E0FFF7B2FA241DA2B200232946022006F04AF9002070BD0000E40C002070470000CA
:40710000024800214160018041807047E40C002070B50C46002186B016460391012802D0022859D116E003A9012006F08CF901281BD1039D324621462846FBF792FA0095DA
:40714000287801900220694608814E816846FFF7B5FF41E0214D002B686809D0049004A9022006F070F901281DD0022006B070BD002812D0298840182146FBF772FA288895
:407180000024801980B228806988091D884206D12C801348FFF792FF03E00320E6E788421AD96C6018E004986860E278A378110219430B4A698000231060E3565360032373
:4071C00013815181A1788170E178C1706178417021780170042028800020C7E7E40C0020201100203EB515460C46022803D004280CD000203EBD00910190022069460881CA
:4072000007484A8100680DF0C6F907E00BF086FB044B0022DB6829462046984701203EBDE00C0020E40C0020014AD16090607047E40C0020034801688068081A0A21484366
