:400000000040002011000000490600004906000008B500F033FBC04638B51222254B1A6000F080FC244800F08FFB012000F09AFC302000F099FB214A214B1A60214C802595
:40004000ED052560204A116802230B4313601F4A1F4B1A601F4A136808218B431360FA20C00000F02BFC1C4800F01EFCE82252011A4B1A601A4B1B4A1A60D02149021A4A26
:4000800011601A4A1A6080221206194B1A608022D202184B1A604022174B1A600132174B1A600820164900F0AFFB082000F096FB256038BD30001040001BB700060000809D
:4000C00004010B400C020B4078002E402D3E00007C002E406CF02E40DC050000000301400000014040FF00800403014041FF008008010B4000010B400801014004010140F5
:400100007D0A000010B572B600222D4B1A60002410E02C4863001A195200821891881B195B001A5AC31858880004104300F004FB0134E4B2012CECD9EE221206224B1A6044
:4001400099231B04214A1360EE210904204A1160204A1360204A1360204A1360204A1360204B197802220A431A701F4802783C218A4328390A430270197816220A431A7099
:40018000D8221204194B1A602023194A1360C4218902184A1160184A13604022174B1A60C0225203164B1A60F022164B1A60164A164B1A60FFF730FF00F0AEFA10BDC04618
:4001C0006CF02E40283A010000000240000102400003024000500F4010500F4020500F4030500F4000700F4001700F4008000440000104400801044018010440000204402C
:4002000008020440000304400040DA000803044010B5064C2378002B07D1054B002B02D0044800E000BF0123237010BD1010002000000000BC38010008B5084B002B03D00C
:400240000748084900E000BF07480368002B00D108BD064B002BFBD09847F9E700000000BC38010014100020A80B00200000000008B562B6012000F053FC012000F068FC08
:40028000012000F059FC0D4800F08CFC00F0FCFE00F094FF0A4800F0BFF900F0ADF902F091FD00F083F9074B1B68002BF7D0064B1B68002BF3D000F087F8F0E7CD02000084
:4002C000C0380100902100208821002010B50C1C262816D004D8012808D005280DD063E0282823D015D34C2830D05DE0002000F0B1FC002000F02CFC56E00A782B4B1A7097
:4003000052E02B4B1B78042B4ED1002000F020FC4AE0284800F080F90122274B1A60012000F016FC002000F007FC3DE0234800F073F90022204B1A60012000F0FDFB0020AC
:4003400000F006FC002000F085FC2DE08B89112B09D1081D00211A4A00230EF03BFC63681A78184B1A60A389142B09D1201D0021134A00230EF02EFC63681A78114B1A6009
:40038000A389172B09D1201D00210D4A00230EF021FC63681A780B4B1A60094A13785078000218430DF0DEFE10BDC0462C100020B4210020D038010090210020E4380100DE
:4003C000BC2100208821002010B58AB007A8102303810C3B8380274B07930021264A00230EF0F8FB01E002F0EDFC244B1B78002BF9D1214C237860780002184307A90DF03A
:400400005BFE04A8132303810F3B83801C4B04930021221C00230EF0DDFB01E002F0D2FC164B1B78002BF9D1134C237860780002184304A90DF040FE01A816230381123B06
:400440008380104B01930021221C00230EF0C2FB01E002F0B7FC094B1B78002BF9D1064A137850780002184301A90DF025FE0AB010BDC0468C210020BC2100202C1000206E
:40048000942100208421002008B5124B188801F033FF114A114B01F095FC01F069FF104B1860104B188801F027FF0B4A0B4B01F089FC01F05DFF0C4B18600C4B188801F029
:4004C0001BFF054A054B01F07DFC01F051FF084B186008BD9A210020FCA9F1D24D62703F8C21002098210020942100209C2100208421002000B583B06B46D91D08705320D0
:400500000122002300F000FFC0B2002802D0114800F082F800F0C0FE8307FBD500F0D4FE53200D4904310222002300F063FFC0B2002802D0094800F06FF800F0ADFEC3077D
:40054000FBD500F0C1FE044B187900025B79184303B000BD68390100301000209C39010010B53220FFF7C6FF044C2080044800F053F8208800F05AF810BDC0469A210020C2
:40058000D039010008B53420FFF7B4FF014B188008BDC0469821002008B53620FFF7AAFF014B188008BDC0469C21002008B5FFF7D7FFFFF7E7FFFFF7EFFFFFF765FF08BD49
:4005C00010B582B001AB187059705320191C0222002300F099FEC4B200F05EFE8307FBD5002C02D0034800F017F800F06DFE02B010BDC046D839010008B5322000F03CF907
:400600002D200821FFF7DCFF024800F005F8012008BDC046FC39010008B500F0ADFD024800F0AAFD08BDC046183A010000B585B0021C6846034901F095FF6846FFF7ECFFAE
:4006400005B000BD1C3A0100FEE7C04608B5031C084A1068C318084A9A1A802A02DC054A136005E001F032FF0C2303600120404208BDC046AC0B0020F021002070B50F4E64
:400680000F4D13E029686B68AC68002202E001C901C30432A242FAD1E868002202E0002102C304328242FAD11035013E002EE9D101F012FFFFF7DCFDFEE7C04601000000D4
:4006C000283D010008B50F4A136801218B43136000230AE0032B03D89A000B49505800E00A4899000A4A885001332F2BF2D9FFF709FD0022074B1A60024A116801230B4383
:40070000136008BD00001040000000004906000000000020C00000200323044A1360044A13600022034B1A607047C0463000304030003140000E3F4008B50A1C002101F0D0
:4007400009FF08BD000000000230800803D00138FDD1C046C046C0467047EFF3108072B6704780F31088704710B586B0041CFFF7F4FF0E4B1B6800930D4B1B680193033C1B
:400780000C4B1B5D02930C4B1B68039304AA0B4B04936B4605930A4B1A600A490A4A11601B68FFF7DEFF06B010BDC04608010B4000010B40343A010030001040B6EA00008C
:4007C000080010401700008004001040024B1B68012018407047C0460C002E401F2318401E3B8340181C014B1860704700E100E01F2318401E3B8340181C014B18607047AB
:4008000080E100E001BE704738B5041C0D1C1F2802D90020FFF7F6FFA400034B9C4664442068256038BDC0464000002070B5041C0E1E032E02D90020FFF7E4FF1F2C02D91E
:400840000020FFF7DFFF03252540ED000635FFF784FFA408A400074B9C46644423680322AA409343AE40351C1D432560FFF779FF70BDC04600E400E010B5041C06E0084B13
:400880001868FFF761FF074B9C46644480231B029C42F4D8024B58686043FFF755FF10BDB00B00200080FFFF08B5034B1B7A5843FFF74AFF08BDC046B00B002010B5041CF7
:4008C0000F4A116801230B4313600E4A0E4B1A600E4A1368802109020B431360002809D100200CE00120FFF7DFFFFFF76FFF002804D1013C002CF5D1102000E0002010BD46
:4009000060F02E400220000078002E4010002E40034B1868C0231B02184000D00120704700010B4010B50D4B1A6801218A431A601A68022082431A60094A10683024A0436C
:40094000203C204310601068093CA043014311601A68802109060A431A6010BD00F02E4000FF2E4038B51D4B1B6801241C40002802D0012816D02BE0184B1968012291431A
:4009800019601968022081431960154B19682E3081432038014319601968093881430A431A6018E00D4B1A6802218A431A600C4A10680725A8430143116011683020814316
:4009C000103801431160196801220A431A6002E00020FFF717FF201C38BDC04600F02E4000FF2E4008B5FFF7B8FE044A1368C02109020B431360FFF7B4FE08BD00010B40E7
:400A000010B5FFF7AAFE08490A68084B1A408024E40122430A600A6813408022120213430B60FFF79EFE10BD00010B40FF3FFFFF70B5061CFFF791FE041CFFF769FF0028F6
:400A400003D0FFF7DDFF012500E000250848331C0340084A106808490840184310601368012D01D1FFF7BEFF201CFFF77AFE70BD0404040010020B40FBFBFBFF10B5244B04
:400A80001B685B0715D5234B1B685B070ED5224B9969042001401F4C22688A4322609A6982439A61DB68002B00D098470420FFF7BFFF174B1B685B0518D5164B1B685B05EB
:400AC00010D5154B99698022D2001140114802688A4302609969114A0A409A611B69002B00D098478020C000FFF7A2FF084B1B685B030CD5074B1B685B0304D5064B5B69CB
:400B0000002B00D098478020C002FFF791FF10BD10020B40C00B002038100020FFFBFFFF044A11687F230B40C001C0B2184310607047C0460003044004490A68BF231A40CD
:400B400080017F3B18401043086070470003044004490A68BF231A4080017F3B18401043086070470002044008B500F077FA08BD10B50024064B1C70064B1C70064B1C7080
:400B8000FFF7F2FF054B1C70054B1C7010BDC046BF210020B8210020BE210020A0210020A821002010B590B0041C0BA82049142201F0C7FC20231F4AD35C002B05D1FFF704
:400BC000D7FF012120231B4AD154002C2DD01A4B1C6008A805AA426006AB0893002101811B311980598017391971002313701231694402F0BDF9002818D1052300930F4B3A
:400C000001930F4B02930F480F49AE2212010BAB02F00AF9002809D101220C4B1A700C48172107320DF0BEFF00E0012010B010BD643A010054100020A42100208045010013
:400C400079020000AD0D0000C8000020B4210020783A010008B502282ED81B4B1B78042B2CD11A4B1B785B072BD4002809D1184B1E221A860232596A0A805B6A10325A809D
:400C80000CE001280AD1124B96221A86C822D200596A0A805B6A8022D2015A800D4B18700B4820300CF0A8F800280CD1074A117804230B43137006E0012004E00420FF303E
:400CC00001E00420FF3008BDB4210020BF210020C40B0020BE2100207047C04603784078000218437047C04638B583890D2B20D1041C04300021221C33330DF06BFF051E49
:400D000011D16068FFF7EAFF830706D50A4B1B6882204000211C984705E0074B1B680620FF30211C9847054A137801218B43137000E00025281C38BDA4210020BF21002054
:400D4000024B00225A701A707047C046BC21002010B582B0041CFFF7C7FF0A4B1B78DB070ED4002809D001A912238B70A3890B80C87020680DF062F902E020680DF0F2F97B
:400D800002B010BDBF2100208379002B07D000200BE0C25C002A07D10133DBB200E00023052BF6D9002000E001207047F0B583B0041C0D1C964A117801230B431370272822
:400DC00000D1B0E012D8062800D17EE004D8012821D0052875D00AE1242800D19FE0262800D1A8E0212800D001E182E0422800D1E9E006D8282800D199E0412800D1CEE0F4
:400E0000F5E04C2800D1E9E0FA2800D1EAE0432800D0ECE0DAE001AE0727377000237370301C03F025FF377001237370301C03F01FFF784B1E68301CFFF7A6FF00280CD025
:400E4000301C01F0C3FF734E30680021FFF744FF30680121FFF740FF25E06F4B1B786F4A12783F210A4092010B4013436C4A127820390A40120313436A4A127860310A40F7
:400E800052041343684E33701A0A72701B0CB370301C01F09BFF301C0021FFF71DFF301C0121FFF719FF00200BF056FE01A83F230370002343700BF06DFE04225B4B1A708C
:400EC00095E02A785A4B1A7091E02B78002B00D08DE06B78002B06D1564B0022DA809A80554A1A606B604A4A137801218B4313707DE0474B1B789B0679D4504B1B78102BC5
:400F000002D105224D4BDA704D4B18784B490BF033FF3F4A117801230B43137067E06A78484B1A7063E00222404B1A705FE004223E4B1A705BE03D4B1B78022B57D0344A83
:400F40001278D20753D5324A1278520708D50322364B1A702E4A137804218B43137046E02B4A1278120708D50422304B1A70284A137808218B43137039E0032B37D10422CF
:400F80002A4B1A70304B1B78002B30D10120FFF761FE00282BD10322244B1A7027E0284E301C291C022201F0CCFA0022204B1A7031784F31C900254B591801312448083295
:400FC00001F0BFFA13E0FFF7BBFE10E06988162900D9172128880DF03BF808E0281CFFF7B7FE04E01B4A117801230B431370084B1A7811231A4209D0054A137801218B43DE
:401000001370154B1B68201C291C984703B0F0BDBF210020F80B00207CF1FF0F7DF1FF0F7BF1FF0F78F1FF0FFC0B0020B4210020B821002078100020A80B0020B80C00200B
:40104000BC210020A8210020BE21002080450100AC210020A0210020A42100207047C04608B500F073F808BD08B500F01DF808BD08B5044A1368802109060B431360FFF704
:40108000EFFF08BD0000244008B5064B1B78002B04D1FFF7E9FF0122024B1A70FFF7E8FF08BDC0468010002010B5154A154B1A600023154A13600121144A1160144A1548A9
:4010C0000260072414480460144803601448016014490A60144A13600421144A1160144A1360144A1360144A1360144A1360144A1360144A13601268134B1A8010BDC04670
:401100000B0000020000244040002440480024400700008000032440040324401003244044002440000224400402244050002440880E2440C80E2440480F2440080F244088
:40114000C80F2440880F244082100020064A1168064B0B40902109040B431360044B1A88044B1A607047C04600010240FFFF0FFF82100020880F244038B5051C002402E01C
:4011800000F0B6F90134285D0028F9D138BDC04608B50A20FFF722FB08BDC04608B500F01DF808BD08B5044A1368802109060B431360FFF7EDFF08BD0000254008B5064B8C
:4011C0001B78002B04D1FFF7E9FF0122024B1A70FFF7E8FF08BDC0468410002010B50024194B1C60194A1A4B1A601A4B1A4A13601A4A14601A4A14601A4A13601A4B1C6079
:401200000A20FFF7F5FA0A200321FFF70FFB0A201649FFF7F9FA164B1C60164B1C60164B1C601422FF32154B1A60154B1C60154B1C60043AFF3A144B1A70144B1C80144B95
:401240001C60144B1C6010BD0000254077080080600025400701008000032540040325401003254000022540040225400D150000C80E2540880E2540480F2540080F2540EB
:40128000C80F2540880F2540C0210020D0210020E0210020C821002010B50A20FFF7A8FA074B1B889BB21C1C064A1278920601D504241C430A20FFF791FA201C10BDC04630
:4012C000D0210020C021002010B50A20FFF790FA044B1C88A4B200221A800A20FFF77EFA201C10BDD0210020054B1B682022134000D0082301221343024A13607047C0465E
:401300006400254068002540F0B583B001900C1C171C1D1C002919D0284B1B78102B0AD10A20FFF765FA264B1B68DB0701D508260FE000260DE0214B1B78602B08D1214AC3
:40134000138808218B431380002602E0042600E00426002E2BD12822184B1A7000231A4A13601A4A13601A4B1F601A4B1C60EAB2194B1A70019B5C00FF231C40114A13881F
:4013800002218B431380154A154B1A604023154A1360154A1360EB0704D5FFF7A5FF134B1C6004E0114B1C600222114B1A600A20FFF714FA301C03B0F0BDC046C021002093
:4013C00064002540D0210020C4210020C8210020CC210020E4210020D821002017030000000F2540800F2540880F25404002254068002540F0B583B001900C1C171C1D1CCB
:40140000002919D02D4B1B78102B0AD10A20FFF7EFF92B4B1B68DB0701D508260FE000260DE0264B1B78602B08D1264A138808218B431380002602E0042600E00426002E29
:4014400035D129221D4B1A7000221F4B1A601F4A17601F4B1C60EBB21E490B70019B5C00FF231C400120044316490B8883430B8019491A4B19601368072B03D80422184B6C
:401480001A6008E0174A1368802149000B4313600822134B1A60EB0704D5FFF725FF124B1C6004E0104B1C600222104B1A600A20FFF794F9301C03B0F0BDC046C02100206F
:4014C00064002540D0210020E0210020DC210020D4210020D821002017030000000F2540C80F2540600025404002254068002540044B1B681F221340082BF9D0024B18607C
:401500007047C046080224404002244010B5B94B1B68002B00D09847B74B1B68DB0702D50022B64B1A60B64B1B789B0628D5B54B1B68DB0507D5B44A1188C0239B000B4305
:401540001380012300E00023AE4A1268D20706D5AD4A118890239B000B4313800123002B0FD0A74A1278D20701D5012200E00222A549088802430A800021A14A117000E093
:4015800000239F4A1278920600D417E19D4A1268D20611D510229D4B1A60994B1B78DB0701D5012300E00223974A11880B4313801022934B1A701BE1914A1278120720D5C2
:4015C000904A126892070AD50222904B1A608E4A118888239B000B431380012311E0884A1278D20703D52521854A117009E02421834A1170864A1268002A02D01439854A78
:4016000011607F4A1278520700D4AEE07C4A1278D20749D5804A1268120727D57F4A12687F4909681F240C407E4909686418141B082C09D8002C16D17B4A11687B4B0B4026
:401640001360012308340EE008240CE0754A116877480068411877480068C0B20870116801311160013C002CF0D119E06A4A1268520715D56B4A11686D48006841186D48BF
:401680000068C0B208701168013111601168634A1268914203D20421674A116000E001236649674A116060E0564A1268920726D50222564B1A60634A13681F2119401368EF
:4016C00080221202134000D00123CB185E4A1168CB1A136012685D4B1A604B4A118884239B000B4313805A4B1A68802149020A431A601968574A0A401A60012335E0564A0B
:401700001268D2061ED427E04F4A1168404A126891421DD23E4A1268013A4B4909688A4204D140224D490A603A490A60464A11684B48006841180978C9B24A48016011688F
:40174000013111603F4A12681F210A40082ADBD11021424A116008E03F4A1268520604D5394B1A68394B1A600123002B40D02E4A11682E4B0B40136000233B4A1360254AFC
:4017800013603A4B1B789B070ED51D4B1B78DB0701D5092300E00A231B4A11880B4313806022174B1A7023E0314B1B689B0601D5182200E01022204B1A6019E0104B1B784F
:4017C000DB0615D42B4A13685B005B08136010210B4B1970144B186827490140196018682649014019601368802109060B43136010BDC046881000208C0E2540880E2540CB
:40180000C02100200C0F2540D0210020000F2540CC210020880F2540CC0F2540DC21002008032540E021002060002540FFFEFFFFD42100204003254068002540ED0F000065
:40184000C00F254008022540C4210020C821002004022540FFFFFEFF8C0F2540800F2540E421002040022540C80F2540D82100206400254000002540FF5FFFFFFFFCFFFFB9
:4018800008B5FEF76AFF044A136804218B43136030BFFEF766FF08BD10ED00E00160704701607047324B1A781202324B1B781A43314B1B781B02314909780B4330498B4278
:4018C00001D1072A06D0D42109018B4206D1042A04D102E02B4B042200E02A4B2A490B602A4B1A602A4B1B781B022A4A1278134380229201934202D0002B02D002E0264B24
:4019000000E0254B254A1360254B1B781B02254A12781343244A934205D0244A934204D0052B05D103E0224B02E0214B00E0204B204A1360204B1B681B09204A1268AA2A41
:4019400015D1012B13D9164B1B780E2B0FD11C4B1B781B021B4A127813431B4A13601B4B1B781B021A4A127813431A4A13607047D9F0FF0FD8F0FF0FDFF0FF0FDEF0FF0FDA
:40198000580B0000580D00006C002E4074002E40DBF0FF0FDAF0FF0F0220000078002E40DDF0FF0FDCF0FF0F0F0F000005050000050F000080002E40EC0F00F0E00F00F041
:4019C0006DF2FF0F6CF2FF0F84002E406FF2FF0F6EF2FF0F94002E4008B5FEF765FF08BD08B500F04BF808BD08B500F04FF808BD08B500F04BF8034800F02AF8032000F094
:401A00002DF808BDB91A000008B5024800F046F808BDC046B91A00000220FF307047C0462B2070472B2070472B2070472B2070472B2070472B2070472B2070472B207047F8
:401A40002B2070472B2070472B2070477047C046014B18677047C0460000002010B5041CFEF77BFE044A1368C0218B43A4011C431460FEF776FE10BD0CE400E080225201BD
:401A8000014B1A607047C04600E100E080225201014B1A607047C04680E100E010B5041CFFF7F4FF201CFFF7D3FF0320FFF7D6FFFFF7E4FF10BDC04608B511F0EBFE08BD51
:401AC000002243088B4274D303098B425FD3030A8B4244D3030B8B4228D3030C8B420DD3FF22090212BA030C8B4202D31212090265D0030B8B4219D300E0090AC30B8B4275
:401B000001D3CB03C01A5241830B8B4201D38B03C01A5241430B8B4201D34B03C01A5241030B8B4201D30B03C01A5241C30A8B4201D3CB02C01A5241830A8B4201D38B0235
:401B4000C01A5241430A8B4201D34B02C01A5241030A8B4201D30B02C01A5241CDD2C3098B4201D3CB01C01A524183098B4201D38B01C01A524143098B4201D34B01C01AAA
:401B8000524103098B4201D30B01C01A5241C3088B4201D3CB00C01A524183088B4201D38B00C01A524143088B4201D34B00C01A5241411A00D20146524110467047FFE706
:401BC00001B5002000F0FCF802BDC0460029F7D003B5FFF775FF0EBC4243891A1847C04603460B437FD4002243088B4274D303098B425FD3030A8B4244D3030B8B4228D3C0
:401C0000030C8B420DD3FF22090212BA030C8B4202D31212090265D0030B8B4219D300E0090AC30B8B4201D3CB03C01A5241830B8B4201D38B03C01A5241430B8B4201D35E
:401C40004B03C01A5241030B8B4201D30B03C01A5241C30A8B4201D3CB02C01A5241830A8B4201D38B02C01A5241430A8B4201D34B02C01A5241030A8B4201D30B02C01A72
:401C80005241CDD2C3098B4201D3CB01C01A524183098B4201D38B01C01A524143098B4201D34B01C01A524103098B4201D30B01C01A5241C3088B4201D3CB00C01A5241B6
:401CC00083088B4201D38B00C01A524143088B4201D34B00C01A5241411A00D201465241104670475DE0CA0F00D04942031000D34042534000229C4603098B422DD3030AB2
:401D00008B4212D3FC22890112BA030A8B420CD3890192118B4208D3890192118B4204D389013AD0921100E08909C3098B4201D3CB01C01A524183098B4201D38B01C01A3C
:401D4000524143098B4201D34B01C01A524103098B4201D30B01C01A5241C3088B4201D3CB00C01A524183088B4201D38B00C01A5241D9D243088B4201D34B00C01A5241ED
:401D8000411A00D20146634652415B10104601D34042002B00D54942704763465B1000D3404201B5002000F00BF802BD0029F8D003B5FFF715FF0EBC4243891A1847C0461F
:401DC0007047C046F0B55F4656464D464446F0B4051C061C080387B099464F00030BCC0F92469B467F0D019467D06C4B9F4236D080205B4640031843C0006B0F1843684B0D
:401E000083469C4600239846EE00674400934B4649461D03C90F5B0052462D0B5B0D894600D16EE05D498B4264D080205C4940038C4600210543ED00500F0543D2006344BA
:401E40004846FF187B1C9A46009B604002900B430F2B00D9ACE053489B00C3589F465B461D4300D082E00823009300239B46023300269846CBE7029B01934346022B59D165
:401E8000012400250026019B1C40444B00212D030A0D12052D0B1543434A1B0515401D436D00E4076D082543301C291C07B03CBC90469946A246AB46F0BD2B434ED05B46DD
:401EC000002B00D185E1584600F0E2FA021C2823291C9B1A161C5846D940083EB0400B1CB54003439B462E1C0023304F0093BF1A98468CE7514629432ED10025002202213C
:401F00009EE75146294323D0002D00D154E1281C00F0BEFA031C28215046C91A1A1CC8405146083A914095400A1C05431F480021C31A85E7032B00D1C2E1012B00D06DE13E
:401F40004446019B00251C40E4B2002300269DE700250022012173E7032171E70423009300239B4601330026984650E70C230093093B98464BE7802500242D030026074B64
:401F800084E74B46AB46161C0193884675E7029BAB46161C019388466FE7C046FF07000001FCFFFF8C3C0100FFFF0F800DFCFFFF330C3604360C9C46331C140C1204120C28
:401FC00053439846634653439946634663430193331C41466343090C4B445B18994505D9802040028146019949440191190C039141460904090C1B045B1804932B0C98461B
:40200000331C2D04290C4B43604600934346654658435E43009B4D431B0C9946AE194E448446B54203D980235B029946CC44350C2B1C0398634484460593009B36041B047E
:402040001B0CF3189C446046039058460504060C280C84465043351C81466046654344434846000C8346724314195C44A24203D98022520293465D44220CAD184A46120430
:40208000120C24044046A41862464A437143464360460096464670438046100C84468844E044414505D9802149028C46009961440091019803998446614499429B415B4226
:4020C00099460598434684461204120C1B049B1863449C46AB4683429B4140460A19CC44A2428941E344CC45B6415C46000C8046494276425B426418334398448C428941A0
:40210000AB459B4149425B4219430D1C009B4544EE187602E50D2E43B346049B56021E43731E9E415B46D20D324366021643DB010AD50123334076081E435B46DB071E4395
:402140005B465B089B465746634BFB18002B5ADD720709D00F223240042A05D0321DB242B6417642B344161C5A46D20106D55A465A4B1A4080239346DB00FB18584A9342D9
:4021800034DD0124029B00251C400026554B7DE680205B460003034208D0054206D105432D032D0B4C46161C4E4B6FE65D4605432D032D0B4B4B69E6504600F069F9031C82
:4021C0002033272B00DCA6E65546083885400022ACE6281C00F05CF9021C2032272A00DC75E6083885400026AB467DE65A46F608520716435A4601245502029A5B052D0BDE
:402200005B0D144042E6384DED1B382D0ADD0124029B00251C400026002337E6019B5746029391E71F2D25DC304B321C9C466744BE405B46BB40371CEA407E1EB74113434E
:402240003B431E1C5B46EB401D1C730709D00F233340042B05D0331DB342B6417642AD191E1C2B0220D50124029B00251C40002601230BE65A461E4BDB1BDA40131C202D7C
:402280001CD01C4A94465A466744BA40171C3E43721E96411E4307230025334007D00F2300253340042BD6D16B076D022D0B0124F6081E43029B1C400023E7E50027E6E77F
:4022C00080255B4601242D031D43019B2D0323401C1C2D0B034BD9E5FF030000FFFFFFFEFE070000FF07000002FCFFFF1E040000E2FBFFFF3E04000038B5041E16D0C50F2C
:4023000000D04442201C00F0C3F8174B1B1A0A2821DC021C211C153291400A1C0B21081AC4405B052403240B5B0D03E000250023002400220021101C24030A0D1205240B4F
:4023400014430A4A1B0514401C436400ED0764082C43211C38BD0B3884405B052403240B5B0D0022E6E7C0461E040000FFFF0F8070B50B034D00440F6D0D5B0A23436C1C11
:402380006405C90FC200640D012C2ADD3B4C2C19FE2C1ADC002C35DD8001451EA841DB000343520F13435A0704D00F221A40042A00D004338022D2041A4027D00134FF2C88
:4023C00003D09B015B0AE4B201E0FF2400235B02E4055B0A23435B00C9075B080B43181C70BD002D06D113430ED100245B025B0AE4B2ECE71A43E8D08020DB00800403431C
:40240000FF24D0E717340CDA05230024DB08FF2CECD1002B2DD08022D20313435B025B0AD5E78024164824042343401B1F280DDC144CA4466544AB401C1C131CAB405D1E41
:40244000AB41C240234313430024ACE71E1C0E4C641BE640341C20280DD00C4884466544AB401D1C2A43531E9A41131C2343002499E70023ABE70025F4E7C04680FCFFFF3B
:402480009E03000082FCFFFF7E030000A2FCFFFF1C2101231B04984201D3000C10391B0A984201D3000A08391B09984201D30009043902A2105C40187047C04604030202F9
:4024C000010101010000000000000000014B18687047C0460C1000200E4B70B500251E1C0D4CE41AA410A54204D0AB00F35898470135F8E711F006FC084B00251E1C084C7D
:40250000E41AA410A54204D0AB00F35898470135F8E770BD103D0100103D0100103D0100183D010030B50024944208D0035D651C0C5DA34201D0181B02E02C1CF4E70020C8
:4025400030BD002310B5934203D0CC5CC4540133F9E710BD031C8218934202D019700133FAE770470EB410B59DB002A9029008610B48822488604861012040421FABC8814E
:40258000084804CBA400006801938C8100F06CF80023029A13701DB010BC08BC03B01847FFFFFF7F0C100020F0B58E6885B0071C0C1C03920193B34245D390238A89DB00A0
:4025C0001A423DD003250969236801985B1A029363695D43EB0F5D19029B6D1001331B189D4200D21D1C381C53050FD5291C00F01DFB061E13D0029A2169FFF7A2FFA28997
:40260000184B134080221343A38111E02A1C00F065FB061E0CD1381C216900F0C1FA0C23402201203B60A38940421343A38117E0029B2661F61826606561019EED1AA56022
:40264000019BB34200D2019E321C2068039900F092FA0020A3689B1BA36023689E19266005B0F0BD7FFBFFFFF0B59FB0029005938B890E1C171C1B0610D50B69002B0DD1D2
:40268000402100F0D3FA30603061002804D10C23029A01381360D0E040237361002306AD6B6120336B761033AB763C1C2378002B03D1E31B049312D003E0252BF9D00134AC
:4026C000F4E7049B0298311C3A1CFFF76DFF431C00D1ACE06A69049B944663446B612378002B00D1A3E00122002352426A6002A95432521801342B60EB60AB601370AB6544
:402700004F4F2178381C052200F02AFA002808D0C01B01278740381C2B68013418432860EEE72B68DA0604D55322202102A8121811701A0704D553222B2102A812181170CE
:4027400022782A2A01D0099B0EE0059A111D12680591002A01DB099204E05242EA60022213432B60013409E02278303A092A04D80A214B4301349B18F6E7099323782E2B84
:4027800018D163782A2B09D1059B02341A1D1B680592002B0DDA01235B420AE0002301342278303A092A04D80A214B4301349B18F6E70793234F2178381C032200F0D0F982
:4027C000002807D0C01B40278740381C2B6801341843286021781C480622671C297600F0BFF9002812D0194B002B06D10722059B073393430833059314E005AB00930298F6
:40280000291C321C124B00E000BF07E005AB00930298291C321C0E4B00F08AF80390039B013304D06B69039A9B186B613DE7B3890B985B0601D5012040421FB0F0BDC0465F
:40284000CE3C0100D43C0100D83C010000000000A9250000F7B5171C01930A698B6800900C1C934200DA131C221C3B6043321278002A01D001333B6023689B0602D53B68A2
:4028800002333B60062523681D401ED0231C43331B785A1E9341226892061CD53020E1184031C870211C5A1C45310978A21840320233D1700FE0221C012300980199193294
:4028C000089EB047431C0ED00135E3683A689B1A9D42F0DBDAE7221C009801994332089DA847431C02D10120404220E006232068E1683A6803400025042B03D18D1AEB4391
:40290000DB171D40A3682269934201DD9B1AED180027AF420ADA221C0123009801991A32089EB047431CDED00137F2E70020FEBDF0B58BB006920A1C4332079305900492FB
:402940000A7E0C1C109B6E2A00D1A8E011D8632A22D009D8002A00D1B2E0582A00D0C2E045310A707C4A4FE0642A1DD0692A1BD0B9E0732A00D1A7E009D86F2A29D0702AC8
:4029800000D0B0E0202209680A43226037E0752A1FD0782A33D0A6E00E1C1A684236111D196013683370A1E021681A68080606D4490604D5111D19600023D55E02E0111DD3
:4029C00019601568002D3BDA2D23049A6D42137036E021681A68080606D4490604D51568111D1960ADB202E0111D196015685A4B227E03930A276F2A1DD108271BE0221CCA
:402A0000782145321170554A19680392081D226818600D68100602D4500600D5ADB2D30702D520231A4322601027002D03D1202322689A432260231C002243331A7002E0C4
:402A40000A27454B03936368A360002B03DB0422216891432160002D02D1049E002B0ED0049E281C391CFFF7B1F8039B013E5B5C281C3370391CFFF723F8051EF1D1082FA2
:402A800009D12368DB0706D563682269934202DC3023013E3370049B9B1B23612BE009681A68080607D4490605D5111D19601368A28A1A8004E0111D1960136862691A609A
:402AC0000023049E236116E01A68111D196016680021301C626800F043F8002801D0801B6060636803E0261C42363270012323610023049A1370079B05980093211C069B94
:402B000009AAFFF7A7FE431C02D10120404221E0236905980699321C079DA847431CF4D023689B0705D4099BE068984212DA181C10E00025E368099A9B1A9D42F3DA221C17
:402B40000123059806991932079EB047431CDCD00135EFE70BB0F0BDDF3C0100F03C0100C9B28218904204D003788B4202D00130F8E70020704710B5814208D28B189842AB
:402B800005D29B1A013A09D3995C8154FAE70023934203D0CC5CC4540133F9E710BD000030B500293ED004390B68002B00DAC9181D4A1368141C002B02D14B60116031E0EC
:402BC00099420DD208680A189A4203D11368C3180B6053684B60216024E08A4203D8131C5A68002AF9D11D685C198C420BD10968691858181960904214D110685268091818
:402C000019605A600EE08C4202D90C23036009E008680C18944203D114685268001908604A60596030BDC04680210020032370B5CC1C9C430834051C0C2C01D20C2405E0B4
:402C4000002C03DA0C2300202B6042E08C42F9D3204A1368101C191C002913D00A68121B0DD40B2A02D90A608B181FE08B4202D15A6802601BE04A685A600B1C17E00B1C57
:402C80004968E9E7144E3368002B03D1281C00F04BF83060281C211C00F046F8031C421CD0D00322C61C964386420AD11C60181C07210B301A1D8843821A0AD0514299503A
:402CC00007E0311A281C00F02FF8431CBAD0331CECE770BD802100207C210020F8B5061C0C1C151C002904D1111CFFF79FFF041C18E0002A03D1FFF753FF2C1C12E000F022
:402D000025F8A8420ED2301C291CFFF78FFF071E07D0211C2A1CFFF714FC301C211CFFF73FFF3C1C201CF8BD38B50023064C051C081C2360FDF78AFC431C03D12368002B7F
:402D400000D02B6038BDC046E82100200B1F1A68101F002A04DA891804390B68D018043870470000134A1088810703D08107890F401A001D11791030484381B250888207F5
:402D800003D08207920F801A001D800040180A494030098980B2CA0701D0503080B2890706D504495422091F09785143081880B270470000C60C00208C10002010B501F0D4
:402DC000ABFE10BD10B500F04FFA10BD10B50749044609780220002907D1204601F0ECFE002802D1204609F0ADFF10BD300E002070B504460120002C12D02368002B0FD0EA
:402E0000616800290CD0074D06222889208118462968FFF796FB6968606809780170002070BD00008C100020FFB585B0002768460E9D07734C481C460078002802D0082079
:402E400009B0F0BD10990F9801900095029105A807C800F0FBF80028F2D16946264603AB84460873002C19D0002115E08A00B75A082F09D990198078002805D0083FB752BE
:402E80001878401C187005E0002915D00027B75290198770491CC9B2A942E7D360460028CED10F9800280AD0109901F0E9F90006000E04D00120C3E701208446EEE701F060
:402EC0002BFE2948002101610C300599016021888180022D03D3A1798171A17AC17100211EE0481C19E082008B00A75AE65ABE46BE4211D26F463E80B4461E190296B67857
:402F0000BE7001967646E6521719029EBB78B3706646A652019EBE70401CA842E3D3491CA942DED3114800906846037B22460799069800F013F9002882D168460A4C007B93
:402F400060700A4801F018FE0028B4D1204607490C3006F021FF0028ADD106F03BFF0028A9D1012121706BE7C00C00208C100020F8B5054633480E460078002802D00224EF
:402F80002046F8BD002E5BD000242F49002D16D02A89D0070DD02868002808D003881B3BE12B04D24088FB2801D81B2801D2012409E0900707D56868002804D1F7E700200E
:402FC000088108604860002CDAD11F482F8907811C481B21801D018041800421017119490020891C0870F80705D016480622801D2968FFF7A6FA1449B80703D56A681148C8
:40300000127882700F480D46801D0860001F486001F0F8FD0B48801D01F0E6FD28890CF087FE28890CF0EEFF03461033FFF79AFE1F21C018890140180249308088809FE78B
:4030400001249DE7C00C00208C100020FFB58446384F1C460020BB883F78054602460646002F11D100290ED0029999420BD36146002908D0002C06D00A99002906D02E4B6E
:403080000B99994202D2012004B0F0BD002144E0AB001F19BF78002F3BD0E35A002B38D07B43591889B22B0000F04AF8050410161C253100A7782388BC46FF27233BEB3758
:4030C000BB4222D26346032B1FD322E0A388002B1FD0302B19D31CE02389002B19D0282B13D316E0A289002A13D01346134F233BBB420AD20DE0268A002A0AD033460F4FFB
:40310000233BBB4201D2964203D901200EE0002001E000280AD16D1CEDB2099B9D42B7D31C2463435B1802998B42ACD89642AAD8AAE70000C00C002079020000BAFF000015
:4031400030B47446641E2578641CAB4200D21D46635D5B00E31830BC18470000FFB583B0002469460C801F4606468C80002806D00598002803D004983043800701D001246A
:4031800067E0002FFBD03449049809888842F6D3FEF73AFCFEF728FC00F010FC002856D100F06CFD002852D12C49084601F09CF805042D0C4BD12A48049906608180002121
:4031C000C18007810C98007AC00704D0684601F0BCFC040007D10C98007A800703D501A801F0BCFC0446BF1DFEB2002C21D13146059800F05DF804001BD10CF011FF0406F8
:40320000240E16D16A461088928808368518144AF1B29088D288AEB29319984207D3401B801A80B201F050FB050007D000E0FF25012400F05BFA002D04D008E0F8B200F0D5
:403240001BF9F6E700F07EFA06490120087000F0C7FB204607B0F0BDC40C00209D33000098100020D40C002010B503480078012801D101F0CBF910BDD40C002070B5084B8C
:403280000446DA889E8800205518B54206D81D68AA182260DA885118D98070BD032070BD98100020014800897047000098100020F0B587B007460D4600208900009006910B
:4032C0006846FFF7DBFF844600285DD1304800990160002117E02E4B88001A680629115406D22C4C0419667882185670628805E0C419203CA67A8218567022891B68C01856
:40330000491C4280C9B2A942E5D300242DE0601CC2B2059025E01E4FA30039689600581840887118039604904E88B04217D938466F46FE80B6464F786E4677710297049F54
:403340004F800168039F5E18767879184E700168764659184E800068029F18184770521CD2B2AA42D7D30598C4B2AC42CFD36046002809D168460699FFF780FF84460028E5
:4033800002D1054900980860604607B0F0BD0000D80C0020383D0100DC0C00207047000010B5002809D005494A68002A05D0011F08788000105801F035FA10BDD80C00206B
:4033C00010B50446FFF76EFFC0B2801DA0420CD307484068002808D0A100405801F094F9002801D00470001D10BD002010BD0000D80C0020F8B516460D460446FFF752FFA8
:40340000C0B2801DA04203D20020C0430090F8BDB2B2E9B2684601F09DF90099481C03D0024AA000526811500098F8BDD80C0020F8B50746FFF736FF801DC6B20A49002055
:4034400005460C680DE06178002907D06188B94202D32078FFF7B4FF002804D1241D6D1CEDB2B542EFD3F8BDD80C002010B5002801D0FFF795FF10BD70B5064609480025F9
:4034800004680BE06178002905D062882078121D0023FFF7AFFF241D6D1CEDB2B542F1D370BD0000D80C0020FFB581B00A9C16002BD000F0F1F80546042826D0214F002C93
:4034C0000BD02046FFF7B4FF2901C919486000281BD022460499FFF734F81A4928010E5046187481019805707D20029CC000444300F0C0F8009004280AD000F055FAA042C8
:403500000ED800F051FA201A06E0FF2005B0F0BD204600F0ADFA0020B08135720020F5E700F042FA074600F0B9FA381B87B23846012100F0EFF800980101024808188781AD
:40354000E6E70000A4100020F8B5060117483418217A042903D0A089002802D018E00020F8BD00F021FA054600F098FA00F0A2F804280DD001010D480F18B88941198DB2FD
:40358000002100F0C7F80020B881284600F070FA6068064D002801D0FFF768FF042020720020A8516081A081D9E70000A4100020FEB500266A46304601232549050169182C
:4035C0000D7A042D02D0898900291BD000211154401CC0B20428F0D300246846005D002830D01B482101081841894768056802910021016041600422418102728181002EB4
:4036000002D015E01354E3E700F054F804280ED001010F480818019086890021304600F079F8019800218181304600F021FA0126002D07D038460299A847002F02D038464C
:40364000FFF714FF641CE4B2042CC6D3FEBD0000A41000200EB5002005216A460090118150810348694600680DF04FFB0EBD0000E00C0020074A0020010189180B7A042BDF
:4036800002D08989002903D0401CC0B20428F3D370470000A41000200549002002015218127A042A03D0401CC0B20428F6D37047A410002030B50A4B04200A4C00210A0149
:4036C0001219157A042D06D09289002A03D09A4201D808461346491CC9B20429EFD330BDFFFF0000A41000207047000030B50020074C05460423020111190B72A5504D603A
:40370000401C4D81C0B28D810428F4D330BD0000A410002030B5094C00231A011219157A042D04D09589002906D02D1895815B1CDBB2042BF1D330BD2D1AF7E7A41000209F
:40374000002070471CB5002469460C70142001902346054A05480DF0DDFA04480068401C00D1FF2420461CBDC1370000E00C00203EB5124A0146FF200023012412680029CD
:403780000DD0012914D0042908D104206946009308814B8110460DF0B8FA80B23EBD6846009304814381694610460DF0A9FAF4E768460093048143816946EBE7E00C00200A
:4037C00070B545890468416800890300FFF7B8FC08280509091E22282628002005F0EEF91EE0022908D0C8B22A4621460BF050FC2046FFF73BFE13E002202A4621460BF07D
:4038000047FC2946204600F00DF809E000200CF06BFF05E02046FFF7CBFE01E0FEF716F9002070BD014B0022DB681847E40C002070B5448905680089022803D0032809D0C7
:40384000FF2070BD2246094C0023A46829460120A04708E0FFF7B2FA241DA2B200232946022006F04AF9002070BD0000E40C00207047000002480021416001804180704774
:40388000E40C002070B50C46002186B016460391012802D0022859D116E003A9012006F08CF901281BD1039D324621462846FEF748FE0095287801900220694608814E8181
:4038C0006846FFF7B5FF41E0214D002B686809D0049004A9022006F070F901281DD0022006B070BD002812D0298840182146FEF728FE28880024801980B228806988091D3D
:40390000884206D12C801348FFF792FF03E00320E6E788421AD96C6018E004986860E278A378110219430B4A698000231060E3565360032313815181A1788170E178C170DF
:403940006178417021780170042028800020C7E7E40C0020E41000203EB515460C46022803D004280CD000203EBD0091019002206946088107484A8100680DF0C6F907E094
:403980000BF086FB044B0022DB6829462046984701203EBDE00C0020E40C0020014AD16090607047E40C0020034801688068081A0A21484300097047F010002010B5FEF7AA
:4039C00017F8482204490548FEF7BBFD03490120C870002010BD0000543D0100F414002010B5FDF7FDFF10BD70B5134C2368002B08D0207B1149C20705D040084000207379
:403A00008868A08070BD88680B4AA18880B29268814203D90A4D691A091802E0814202D2411A5118A160A080A0689842EAD30DF089F900F013F870BDF0100020C0102E4013
:403A4000FFFF000010B508461946FFF7A7FF10BD704710B5FFF780FF10BD000003480021016041608160C16070470000F0100020024610B5FF20002A0CD0FFF7EFFF064C00
:403A80000321207B0843207310010A21FEF79EF82060002010BD0000F010002000B504480A21806848430209FFF7D8FF104600BDF01000200248007B8007C00F7047000099
:403AC000F010002010B544490868002802DA434B01221A70022290430860414800693E49C00B4031096A08425ED0012000F086FA3B483C497C30FDF7D3FE37480E216C3052
:403B0000FDF7CEFE364820218430FDF7C9FE344814219C30FDF7C4FE3148FF21C131A430FDF7BEFE2E48FF212F31B030FDF7B8FE2B482D49BC30FDF7B3FE29482B49AC309A
:403B4000FDF7AEFE29492648491CB430FDF7A8FE23482749B830FDF7A3FE21482549CC30FDF79EFE1E4824490830FDF799FE1C482249A830FDF794FE194821498830FDF7ED
:403B80008FFE17481F498C30FDF78AFE14481921C9029030FDF784FEFDF784FEFDF73CFFC0B2022802D00FE0FF2010BD16491748FDF776FE15481649001DFDF771FE134837
:403BC00000210830FDF76CFE54200449C043891C0870002010BD000000F02E40F40C002000002E4055650000320300002F3F00003102000010520000EC160000FA12000054
:403C000031D000003AE300009956000080012E40F80F000070B50646581C80B245086D00002408E0304600F0C1F81055000A1119A41C4870A4B2AC42F4D3D80705D0D018CD
:403C40002038D15CC47FD454C17770BD30B50A4C002100195B1E07E0541864782502545C2C430480891C89B29942F5DB994201D1515C018030BD000000102E4010B5FF2053
:403C800000F0BCF90F49FF2048700E481021801D41800121417001700A490020C91C4870FFF710FF04000AD100F008F907210648FDF7F4FD044807211830FDF7EFFD2046C5
:403CC00010BD0000F40C0020CC112E4070B5002405465B1E0AE0284600F068F8010A161971702D1D1055A41CADB2A4B29C42F2DB9C4203D1284600F059F8105570BD0000FA
:403D000070B500210A4D5B1E0AE0541864782602545C344346193480001D891C80B289B29942F2DB994202D1515C4019018070BD00102E40F0B50599091FCFB200217E1E79
:403D40000BE0541864782502545C2C43164D45192C80001D891C80B289B2B142F1DBFC0712D01C78515C24020F4A0C4381180C809C785D78001D210280B229438418218052
:403D8000001D80B2D9780CE059781A7809021143054A84182180001DD9789B78090280B2194380180180F0BD00102E40014940180088704700102E4010B50B49002048707B
:403DC00000F07CF8002000F03FF9002000F02CF907210648FDF762FD044807211830FDF75DFD002010BD0000F70C0020CC112E4010B50B46062812D006DC01280CD003287C
:403E000001D1FFF7D9FF10BD0A28FCD00B28FAD105480078107010BDFFF730FF10BD1146184600F02DF910BDFA0C0020F8B5204DAC6A0127A0071F4E002816DA30780628FD
:403E40000ED1286A384328621B480069F903084381B219481030FDF723FD042000F0CEF8134802212830FDF719FDE00711D0062000F0C4F80F49FF20C91E48707078002857
:403E800002D1686B38436863094801212830FDF705FDE0050BD53078042802D1052000F0ADF80348FF2101312830FDF7F7FCF8BD40F02E40F70C002000002E4010B5032186
:403EC0002348FDF7EDFC0120FDF786FD20483038406A204C80076178800F890001431C480C38FDF7DDFC6078002808D0401E022181401820FDF75AFFC000083800E0B82074
:403F000081B21548FDF7CCFC1348032109021438FDF7C6FC10481149B830FDF7C1FC612189010F48FDF7BCFC0D480321001FFDF7B7FC0C490C48FDF7B3FC0B480B49603885
:403F4000FDF7AEFC084801218838FDF7A9FC10BD70F02E40FA0C0020D8102E4090890000041E2E40FF0F000058122E40209000000849087806280BD148780749002803D19B
:403F8000486B400840004863C86A01221043C86270470000F70C002040F02E400148007870470000F70C002000B50300FFF7C8F8080D050D0B070507090D012000BD03206C
:403FC00000BD042000BD022000BDFF2000BD0000074A9168D26889B2064B92B2994204D105498A4201D1012100E000210170704780002E4033D000003FE3000010B504460B
:40400000FDF7F2FC072C01D9FF2C01D102480470FDF7E6FC10BD0000F70C00200149487070470000F40C002010B5064A012805D01921C9021046FDF733FC10BD1D21C902D0
:40404000F8E7000090002E4010B50A4A141D012808D009491046FDF723FC08492046FDF71FFC10BD04491046891CFDF719FC0349491DF3E788002E4031D000003AE30000D9
:4040800070B50C460546FDF7C7FCC0B202280E49287804D0FF2810D04C280CD810E0FF2809D10A4AD0680004800F032801D0087807E09069000A553803E00878207070BD9E
:4040C0004F382070087070BDF60C002000002E40F0B50122002830D000292ED00424420600D00524792342065B06D21800D0641C034600221EE00C2516466E43104D00274A
:404100007519AF720E4F002ABB51696007D0661EB24209D10B4E86197606760E05E05E06760E8027BE1B00E080269B198919521C2E81D2B2A242DED300221046F0BD0000CF
:404140007C13002079020000074900200C2242435218927A012A05D0401CC0B20628F5D300207047012070477C130020F8B50F000446164609D0184D18496868A04202D9CC
:404180004018A04201D38E4201D90120F8BD39462046FEF7C7F900281BD0324639462046FEF7CFF9F0B200210C224A43521913895668F718A74208D90127A41B1B1B977268
:4041C000834206DAC01A1469C0B2491CC9B20629EAD30020F8BD00007C1300207902000010B500F05DF80748054AC16806480C46FEF7A7F904492046FFF76AFF10BD0000A1
:4042000079020000000D002000110020002070470020054A002902D0012902D002E0506000E0906000207047000D002070B5084C154608460549A26889182A46FEF781F908
:40424000A0684019A06028B270BD000000110020000D00203EB50A226946FFF7E7FF044606480A2200686946FEF75CF9002802D00020C0433EBD20463EBD0000000D002003
:40428000002802D0044A914201D2FF20704703490A61C8600020704779020000000D0020024800214160816070470000000D002070B5074C15460548626880182A46FFF723
:4042C00055FF60684019606028B270BD00110020000D002010B503490A220968FFF7E8FF10BD0000000D002010B50F4A002313600E4A13600E4B18600E4801600E49012020
:4043000008600E490860000290600E490C4808600D4914300860FF381538506000F0BCF800F0CAF9002010BD2C0D0020140D0020400D0020440D0020300D0020200D0020B5
:40434000C4140020240D0020380D0020014610B50020002910D0094B1A689C685118A14209D25868196080188A0704D08A07920F891A091D196010BD002010BD140D0020B4
:40438000F8B50024164E671E321F3D463168136806E01422624310328A58521C1BD0641C9C42F6D36A1C14D02C461422544322460C3288500C214843FFF7C8FF3168002899
:4043C00008510AD031680020103408517068401C70602846F8BD2546E4E73846F8BD0000240D0020F3B50026F64381B000281BDB1E490968884217D80299002914D01B4F5A
:40440000142204463F1D54432546396810354859401C09D0FDF7E8FA38682F1F4159C359994203DBFDF7DCFA3046FEBD214608310091465801590C20704308180C220299C3
:40444000FEF77FF80948761C001D0068C159B14200D100260549009A091D865008684159491C4151FDF7BCFA0020FEBD200D0020002803DB07490968884202D90020C0431E
:40448000704704491422091D096850431030085870470000200D0020F0B500200D4A451E0346171F50600FE014260146714314680E1DA3510C46166808343351166808343D
:4044C00035511468401C635039688842ECD30020F0BD0000240D0020F3B50026F64381B0002841DB2349096888423DD8029900293AD0204F142204463F1D5443254639686F
:4045000010354859401C2FD0FDF76EFA3868415900292BD0211D009146580C21005971430F46C1190C220298FEF70BF811480021001D0068761C00590C34C01901604160E5
:4045400081600C48001D00680159B14200D100260849009A091D865008684159491E4151FDF73EFA0020FEBD3046FEBDFDF738FAFAE70000200D0020FEB504460D46002057
:404580001E49089E0860471E009001900290002C11D0486885420ED2002A0CD0002E0AD0642E08D808460C3001681C2068430C18207A002801D03846FEBD0120226020728B
:4045C0001846FFF7DDFE6060401C13D06681A6810A4827610C3067610179A94200D205710021684601810A462846029B00F040F82846FEBD00202072DDE700002C0D002028
:4046000038B50124009400F039F838BDFEB50027164EFF433D4600240EE01C20316860430818017A002906D04068FFF721FF002801D0254603E0641C3079A042EDDA681C3C
:4046400012D01C2130684D434419FDF7CDF969466068FFF741FF0546FDF7C2F9002DD9D1216868468847D5E7FEBD0000380D002038B50024009400F001F838BD1FB5002203
:404680000C49541E0A60002811DB496888420ED808491C220C31096850430818406801A9FFF7A0FE401C02D0002004B010BD2046FBE700002C0D0020F0B50021114A4D1E82
:4046C000174611710C3F0B46BD6016E008461C2460431668041D355114680646235014680836A3551468361DA353044616680A34335318301468491C255078688142E5D39F
:404700000020F0BD380D002038B500210091002811DB0F49097888420DDA0D4D04010C3529680859002807D0201D0818694600F06FF9002801D0002038BDFDF755F9286835
:404740000F34015D491E0155FDF74AF9009838BD480D0020F7B582B0002502986E1E06602E48D21C024017462D4A2C4610460C380178106805E02301C358002B0FD0641CEE
:40478000E4B28C42F7D3711C28D03401211D40180191039900F02AF900281FD101E02646F1E71F48016820460C300F521C480399026820460E3011541948039902682046EA
:4047C0000F3011540398784300F0A0F8144900280968085102D00024009011E001251AE00F48016801980818009900F02CF9002801D0012502E00098C0190090641CE4B212
:4048000003988442ECD3002D05D10298066004480179491C0171284605B0F0BDFCFF0000540D0020F8B50D4600216A468C461180002839DB23490978884235DA214B0401C5
:404840000C3319680A59002A2ED020460C300B5A801C0E5C184670438018954224D3854222D2002006E007465F43BF18AF4206D0401CC0B2B042F6D36046002814D0114E81
:40488000271DC8190C366A46294600F006F900280AD168460088012808D030682946C01900F0D1F8002803D00120F8BD0020F8BDFDF79AF830680F34015D491C0155FDF79C
:4048C0008FF8F3E7480D0020F8B50F46002400F031F8002817D10C4900220B460C334A600EE021011D680E466A501D680C36AA53B61C1D680F31AA551D68641C6A54E4B28C
:40490000BC42EED31A71F8BD480D002000280BD0C01C074A81085068890053884118994203D89368516018187047002070470000480D0020F8B5064600200F4D00902970A2
:404940000C0121466846FEF799FC00280CD129460C3100980860301B001F84B221466846FEF78CFC002801D0FF20F8BD6C800098A8600020F8BD0000480D0020F8B5002830
:4049800027DB19490978884223DA174C05010C342168485900281CD028460C30085A009028460E300E5C401C0E5420682F1DC01900F064F800280CD12068002445590EE0BE
:4049C000094829460C300068C01900F03CF8002801D00120F8BD00982D18641CE4B2B442EED30020F8BD0000480D002030B50D4604000BD0A800FFF789FF6060002805D099
:404A000000202570C0436080002030BD012030BD70B50D46040005D0002D03D00220205E002801DA012070BDFCF7DEFF0221615E60688900405828606088401E6080FCF745
:404A4000CFFF002070BD70B50D46040007D0002D05D002212078615E401E814201DB012070BDFCF7C1FF6088401C00B26080616880000D50FCF7B4FF002070BD10B5040016
:404A800009D0227800216068FDF764FD0020C0436080002010BD012010BDF0B500231D46002802D00224045F0AE00120F0BD46689F00F6598E4201D1012503E05B1CDBB2B6
:404AC0009C42F4DA15700020F0BD000001480078704700005C0D00207CB505460024FEF76DF9A8796946087000A8062229460130FDF727FD0021684604F026FB0C2804D000
:404B0000072804D01F2804D004E0022402E0042400E0272420467CBD10B500F031F9FFF73DFAFFF741FA10BD70B504460025FEF745F9002C06D0A079012803D8214602F030
:404B40006DFB00E00125284670BD01460120002902D05020088000207047000001460120002905D0034854220078504308800020704700005E0D002010B502460D49FE205D
:404B80004870032410460CF0E3FB002810D10CF087FB00280CD105F06DF8002808D100F0DFFA002804D104F053FD002800D10024204610BD5C0D002070B500250446002860
:404BC0000ED0A07901280BD8FEF7F8F8A0790028204602D002F0B0FE03E002F085FE00E00125284670BD0000014610B50120002904D006220248FDF7A4FC002010BD00009E
:404C0000600D002001460120002903D00878024908700020704700005E0D002038B504460120002C20D0617801291DD800290BD0FF25E535FEF7C2F80C4828180088C0B2F3
:404C40002070072803D00EE0FF25CD35F2E70020694608706846FFF7BBF969460878012801D108202070002038BD000000102E40F8B504460120002C26D06178012902D989
:404C80002278092A20D8002905D0FF25E5352078092803D004E0FF25CD35F8E708202070FEF78CF82078114F114E08280DD00020FFF7CAF970780128207810D00D496918A0
:404CC0000880FE2070700020F8BD0120FFF7BCF90720B8810549203188800120F2E7B8810248217820308180EBE70000C0112E405C0D002000102E4070B50E46050001D0B8
:404D0000002400E00C4C002C11D0E28A500609D5D107C90F022002F0A3FEE08A40218843E08204E0D107C90F012002F099FE3146284602F081FB70BD5C150020F8B50546C6
:404D4000002004460D4E009013E022466946284600F01EFF0098002801D00CF0DBFAA878214602F0CBF9A878214602F0B9F9641CE4B2308AA042E8D8F8BD0000141600201E
:404D800038B51E4CFFF70AF9042813D0052811D0062812D003282AD007280AD100206946087002460120FFF723F8FFF7F7F80128FBD138BD00F048FB38BD02F0EDF900F0C7
:404DC00043FB02F04DFA8007800F0228F4D10C4841880029F0D05B21095D0029ECD101210170A07D0140022002F03AFE38BD02F0D7F90120FFF702F938BD00005C150020DD
:404E00006C0D0020F8B50646002402F097FE0546304602F0ADFE03460A480021068A0DE001228A401046174628401F40002803D0002F01D1224394B2491CC9B28E42EFD819
:404E40002046F8BD141600201CB50020694648706846FFF7E3FE01AA69460A20FEF7C8FF6946042008561CBD10B50C4601F062FA002809D00179002906D0C178807822462F
:404E800002F060FB002010BD022010BD0148007870470000341500204030C07E002800D00120704700B500F001F800BD8C2148430749084A40186030417F491CC9B24177F5
:404EC000D289914201D300214177C8B2704700003C1500201416002013B501F02BFA04000BD001F0C8FD002807D0214601AA0A310620FEF77DFF00201CBD02201CBD0000A1
:404F000010B50C4601F016FA00280AD001F0B3FD002806D0224604490A20FEF769FF002010BD022010BD00001D150020F3B581B0074601460026029802F0F8FD0446002FC1
:404F400001D0002500E0154D002D21D0284601F027FA032C04D13946029802F043FE06463846029902F0BCF8032C06D0002C10D00121384601F01AFB03E03146384603F07E
:404F80002DF8284601F0A0FF0221284601F0B6FFFEBD3846029902F0A3F8FEBD5C15002010B5044603F064FC002801D00C2010BD2078611C02F0C8FBFF2801D01F2010BDC8
:404FC00002F00EFCFF280AD02178621C02F016F8044821780068026B601C904710BD072010BD0000840D002010B503F041FC002801D00C2010BD02F089FB03480068C06AE4
:405000008047002010BD0000840D002070B50D46044610210CF0BEF81021601806460CF0B9F8334610221946204603F04FFC102130460CF0AFF802202870204604F060FA5E
:4050400070BD0000F8B504464078217802028006870FE0781143A67809050002090D0643084601F067F900210546F2B2002812D0002C10D0022F0ED0032F0CD0002A0AD07C
:405080000279092A07D0002A05D0134A5A23527E1B5C9A4207D82889002104F066F920460CF038F9FF21002914D10C48224600682946436930469847C0B2FF280AD1284634
:4050C0004030817EF2B2491C8176FF232146284600F0DDF8F8BD0000F41400209C0D00200020704710B5044603F0C2FB002801D00C2010BD2078611C02F026FBFF2808D030
:4051000002F05EFA044821780068426B601C904710BD1F2010BD0000840D002010B504F097FA00F057F9002010BD10B5044600786178E2780843A178114308432179084335
:405140006179084305D003F085FB002803D00C2010BD122010BD204602F0EEFB002010BD10B5FCF759FC02F00BFD044803F0ECFB02F030FA012000F003F810BD0415002046
:40518000F1B586B003A8009005A8019025489F22817A114081726846FDF72AFE00283FD169460989C90705D01F4806990068C2686846904769460989890706D500282FD154
:4051C0001A480068816A06988847002828D1184E0025757075737571F575357675767575B570F570B5713746F5730120BC3738731F20F880FF2130467972A03001754575B8
:4052000000F056FA00242046069901F0DFFB002803D1641C2406240EF5D0FD72BD72B57307B0F0BDF41400209C0D0020840D00203C15002070B505460E46084602F07EFCE2
:405240000446304602F094FC0121A9400A46224001400A4301D0012070BD002070BD10B50446084602F084FC0121A140014201D0012010BD002010BD10B5FEF78FFE032802
:4052800004D101F08DFF0120FEF7B8FE10BDFEB51C4616460F46054601F016FEA878FFF701FE02460190334639460094284600F00DF8002808D1A8780199FFF71DFDFF2C1A
:4052C00002D138460CF026F8FEBD0000FFB585B005460E980C46FF2810D02B49C00009680A5840180179C0795278814201D9012601E09006860F6846038108E06078A1789E
:405300008006860FE0780002014368460181284601F0BCFB070007D021462846079A00F0CBFB384609B0F0BD304600F079FC04AE0346039002AA29460096204600F005FB10
:405340003C20405D002818D0284601F09FFB012813D0684600890096C0B20190A878231DFF22079902F01CF868460089039BC2B2A878079902F05CFBD3E7684600890021C4
:40538000C0B20091E9E70000980D0020F8B5104F002500242846FFF735FD060012D00EE03046E040C007C00F07D02146284601F08FFE21462846FFF7B9FD641CE4B2388AE5
:4053C000A042EDD86D1C2D062D0EE2D0F8BD00001416002010B502F0FDF80020FFF7D0FE0CF02EF8002010BDF8B5002400F094F80123012800D10124104F00203E462036D6
:405400000425082203E0002801D0002100E031460979002907D001290BD002290BD0114681402143CCB2401C0006000EEBD07C70F8BD1C43F7E72C43F5E700003C15002079
:4054400010B5FFF7D1FF10BD10B5FBF786F90446FEF7A4FD012809D0FEF7A0FD022805D0FCF70EFA2046FBF77CF9EEE72046FBF778F910BD10B50B4681791943817103D0C7
:405480008078114602F0A2FA10BD10B582798A43827102D1807802F0ADFA10BD30B50C4C0220A28A0B4B9978002901D0022906D11D785B78EB18282B01D9032002E00329DA
:4054C00000D101205105490DC0020143A18230BDC0112E40670D002000B500F023F8002807D0012805D0032801D0042801D0002000BD012000BD014600B50020C90701D0F7
:4055000000F00AF800BD014600B50020C90701D000F002F800BD000001480088000A704720102E400448008B410501D5042070474007800F7047000000102E4038B5044618
:40554000000610D5FFF7EEFF01280CD1684601F02DFE6846007800F0B3FA012001F01CFD0220FFF76DFF0348006801692046884738BD0000840D002010B5034A0178117017
:4055800002F046F9002010BD670D002070B50446FFF7C2FF002801D00C2070BDA27B01211F48002A827801D00A4301E05208520082706279012A14D0C17849084900C1706C
:4055C000184D2868016820468847207901280CD06188208802F07CFF2080207904280FD015E0C2780A43C270EAE72868C168E01D8847E01D02F08CF90B48808C208006E0DB
:405600002868C168E01D8847E01D02F081F9074920798870204602F009F9002070BD00003C150020840D0020F4140020670D002008B50178FFF770FF814201D10C2008BDF5
:40564000002914D0072069460870FFF745FF012807D10121684600F08BF8012801D0092008BDFFF71BFF02F015F9012011E0FFF733FF012806D1684601F098FD68460078C5
:4056800000F052FA02F0FCF8FFF746FF0028FBD10220FFF7D5FE002008BD000010B5034A0178517002F072F9002010BD670D002038B568460BF0C4FD002801D01F2038BD1B
:4056C00001210098C90201804180002505714571857107214173857302F0A8F8009C202200212046FCF736FF25702A460021601CFCF730FF204602F08BF8204602F046F973
:4057000000980BF007FE042200210248FCF722FF002038BD670D00200346084800B5834209D8184600F006FE002804D00089984201D1012000BD002000BD0000FF0E000044
:40574000074A9179491C8906890E917138220A4092014907090E114308430249084070473C150020FF0E0000C006C00E70470000F8B507460E4600240D4803E0002C01D04A
:40578000002500E005462979002905D0641C2406240EF3D00020F8BD0021204601F016F92E712046FFF7CCFF28813C700120F8BD5C15002010B503F0BDF80222002100F0DA
:4057C00003F801F0B3FE10BD10B5094B40074907000F090F185A595A40185043C0086421FCF7F4F9002800D1012080B210BD00009C3D0100F7B53D20405C88B015460C46AE
:40580000002802D02878042802D200200BB0F0BD6946087200262046FFF73EFB012800D00126204603A938300191009023460327A17E34333246206A03F0A0F802A80899B5
:4058400000900B46019120463A4603A9243003F01DF802466846007A2870204601F0A2F81046D3E7FFB587B00C4605461078694608723D20005D1746002826D000262046C4
:40588000FFF70AFB012800D00126204603A93830019100902346A17E34333246206A03F06DF802A80090291D019120462B1D03A924300A9A02F0EAFF02006846007A3880C7
:4058C00002D1204601F06EF810460BB0F0BDF0B505463C20405C89B016460C4600280CD0307869460873002806D000272046FFF7D3FA012803D003E01F2009B0F0BD0127BB
:4059000003200890204604A93830019100902346E17E34333A46E06903F030F86846007B03A928180290009120462B46019504A92430089A02F0DEFF02466846007B3070D4
:40594000204601F039F81046D7E7FFB505463C20405C89B016460C46002810D0084601F095F801280BD0308869468883002809D000272046FFF790FA012805D005E0002052
:405980000DB0F0BD0220FBE70127204603A93830019100902346E17E34333A46E06902F0EDFF291D2B1D07A8129A6D4607C5204603A924300C9A02F09DFF02466846808BDC
:4059C0003080204600F0F8FF1046D9E770B50D460446FFF761FA01280AD0E87AA97A00020143A07801F09EFC012808D0002070BD00222421204602F0BDFC242070BD282190
:405A00004C200155204600F0A3FB282070BD0000002801D0002000E003484030C07F012800D00020704700005C1500200146002049070ED50021084B03E0002901D00022DA
:405A400000E01A461279022A04D0491C0906090EF3D07047012070475C1500200146002049070ED50021084B03E0002901D0002200E01A461279022A04D0491C0906090E8A
:405A8000F3D07047012070475C15002010B5044680346068002803D00BF050FC0020606010BD4030417070474030817070474030017070470171704792001018C166704740
:405AC00070B53C2501F080F9040004D020460021433001F0DBFBFF222946204600F0D4FB002C02D0A07801F0F1F870BD10B5002801D0002000E00348002802D0008903F0CC
:405B00007BFC10BD5C15002010B5002801D0002000E00448002804D00179072901D100F047F810BD5C15002010B501F04DF9002802D0807801F0CAF810BD0020704700003C
:405B400070B50546008A00281ED01049F122897A1140C90618D5294640314A8A098A521C4A4392B2D10800D10121540801E0621A94B2A042FBD9FEF7A9FF012804D1298A44
:405B8000A878224601F094FC70BD0000F414002010B50023054C0B60248A944204D992001018C26E0A60C36610BD00001416002038B5044600200090A079002814D1402081
:405BC000015D052901D00E290ED168460BF048FB002809D12046009902F0AAFB03481021C28A2046FFF746FC38BD0000F414002010B50B4604460146184602F027F80028ED
:405C000002D020460BF090FB10BD13B5044601AA11460620FEF7ECF86846818861811CBD002800D10220704770470000F8B504462346401D543300909A1EA078911E01F087
:405C4000D1FA25464035A88A298A8000FBF7BEFF401E81B2688A884203D96982A07801F039FF20460021433001F010FB27480088E88102F05FFEE989891C8AB26179FFF748
:405C8000A3FD01F053FC02F055FE2A8A6179FFF79BFD074601F03EFC688A002806D01C49088A032212021043088202E0002001F005FF1748803801886E8A002E0CD030461F
:405CC00048431449FCF772F80004000C01D0401C80B21149488002E00F4800214180288A704381B2A07801F05FFEFF2228374932B9B21346204602F0EFFBE98AA07801F038
:405D0000D3FDA07801F00CFAF8BD000080102E40E0112E40710200006C0D00207FB504468034616805460E46183108226846FCF708FC31462031082202A8FCF702FC1021F6
:405D400068460BF027FA6068102108300BF022FA60682B46083024331022694602F0B6FD7FBD10B504460821FFF78FFB10212046FFF78BFB207905281FD006281DD00828BC
:405D80001AD12189002003F0AFFA072020712046FFF782F8014620464030012913D00E21017000210176204600F0A2FF2046FFF76DFE2046FFF7C4FE10BD2089012200210C
:405DC00003F076FAE1E70521EAE70000FFB581B01F4604460821FFF758FB10212046FFF754FB2079082803D0092804D0042203E00422012501E009220025204600F032FEF2
:405E0000264600204036307022712046FFF73EFE0398002D02D0012808D00BE001280AD120890022029903F043FA04E02189029803F05AFA012700203076012F04D02046AE
:405E400000F056FF05B0F0BD02983073204602F0BDFA054605480121C28A2046FFF70AFB002DEFD109202071ECE70000F414002070B50C460546FFF70FF8012809D108213B
:405E80002846FFF702FB0023012221462846FFF79DFF70BD10B5044600F0E4FD2046FFF7F5FD00214034217010BD70B505461A24FEF7F2FF012809D108212846FFF7E5FA83
:405EC0000023012221462846FFF780FF70BD0000F8B50446002000900E4668460BF0C0F9002801D00D20F8BD8420005908212030009D00F01AFA20460421383000F015FAA4
:405F0000002E02D1204600F0E9FD2946204602F09EF90E480821C28A2046FFF7ABFA204600F057FF25464035002808D0204600F023F8002801D0092028700020F8BD082046
:405F40002870204600F0C0FFF7E70000F4140020014610B540310A460978082906D0092907D00A2901D100F091F810BD0B20107010BD00F001F810BD70B504460079254644
:405F80004035052805D0062803D008280FD00C2070BD03220621204602F0ECF90D480821C28A2046FFF766FA1120287010E006202873204602F00AFA0646AA8A0A204243ED
:405FC00001212046FFF756FA002E01D109202071002070BDF414002038B504460020009068460BF03DF9002801D00D2038BD2046009D00F0B1F908202071204600F06EFDAC
:406000002946204602F056F900213D2001550F2040210855204600F057FF002038BD00B5024600F01FFD10214032117000BD10B50446FEF731FF012809D04020005D1128B2
:4060400005D100231A4606212046FFF7BFFE10BD10B5FFF786FE10BD38B504460021684600910BF0FDF800280CD12046009902F0A2F905480821C28A2046FFF7FBF90D2057
:406080004034207038BD0000F414002038B504460021684600910BF0E3F8002801D00D2038BD2046009902F07BF905480821C28A2046FFF7DFF90C2040342070002038BD97
:4060C000F414002000787047F8B50025002801D0002400E01A4C002C28D0204600F0CBFC002823D0207903281CD005281CD026464036B18AA07801F061FCB078012815D135
:406100000021204601F0BFFD274680373868002802D00BF013F93D600020B0702079072805D007E0042000E006202071F8BD2046FFF706FD0221204600F0E0FEF8BD00002A
:406140005C15002010B54C22115400F04CF810BD10B50446FF21FFF798F909202071A07801F052FC10BD000038B5FF216A461180002801D0002400E0084C002C0DD0114662
:406180000620FDF735FE684601882046FFF73DFD03480068C1692046884738BD5C1500209C0D002010B504468079002809D022214C200155FF212046FFF767F9204600F024
:4061C00012F810BD10B5037902464032002B03D01173092B02D003E0002100E02221117300F001F810BDFEB504460089002700902781207926464036002817D0012815D067
:4062000002280AD112E002AA01A9204601F00CFD002807D101980BF087F8204601F02CFD0028F0D02046FEF789FDB776254680352868002802D00BF081F82F606868002883
:4062400002D00BF07BF86F60317B002919D0009800F064F8A078002100F076FF2046FFF7A9FAA07801F048F8A07800F02FFDFF212046FFF70AF90B20FFF7E2F800F068FC85
:40628000FEBD1F213173E2E7F8B517460E46054602F04CFB04003CD020460C3000F0E6FF2046062200211830FCF754F92046062200211230FCF74EF91648224600683946FE
:4062C000436A28469847074626702846FEF7E4FD012148406070002D10D02889608028464030C1782171002E0FD169796171018AE180418A2181808A608106E00648008BF7
:40630000C005C00F2071002060803946204602F06EFFF8BD840D002000102E400A4610B50146002003F080F810BD10B50AF00EFD10BD000000B50146FFF716FA002801D0CA
:40634000002000E00348002802D002898A4200D0002000BD5C15002038B5044680346068002806D168460AF08BFF002801D100986060606838BD000010B5014600F086FBD3
:406380000128887802D0FEF791FD10BD8C214843024940186030007F10BD00003C15002070B5054604464035A87F012811D1A1788C20084A484380186030067F3046FEF74F
:4063C00039FF002805D10220A877A078314601F03DF870BD3C15002010B50C4CA07A002813D0FEF7D3FF0A48027F417F408B00F0B7FB012809D10020A07200F0EDFE05496C
:406400008989090B01D000F03BFA10BDF81500203C150020A0102E4070477047490510B5490F0B00FCF78CFE060704080C0C0F073E21FFF787FE10BD0821FFF7C3FE10BDBB
:40644000FFF7D1FE10BDFFF7ADFE10BDF8B507460025002D01D0002600E0204E00F08AFE3046403044890021418100F08DFE304600F001FB01282BD1A00702D52846FFF799
:4064800023FEE00602D52846FFF76EFEA00601D5FEF77CFF600601D500F014FB200602D5284600F01DF8600702D5284600F02CFA380402D52846FFF727FB780402D528467B
:4064C000FFF714FBE00703D021463046FFF7A6FF6D1C2D062D0EBCD0F8BD00005C150020F8B5002801D0002400E0284C002C4BD025464035A878012846D1FF2788204937A9
:4065000000593E46002805D02149897A890601D5878AC68A2046FEF7BFFC012834D002F009FA2A8A6179FFF74FF9009000F0F2FF00983346283081B23A46204601F0CCFF9B
:40654000E98AA07801F0B0F912480188688A124E002810D048431149FBF728FC0004000C01D0401C80B27080A07DC107C90F002001F076FA01E000207080288A698A484300
:4065800081B2A07801F010FAF8BD00005C150020F414002060112E406C0D00207102000001490968096808479C0D002070B50D460026194A0146002801D0002401E0144658
:4065C0002034002C26D0204600F060FA01280AD18C20484380186030007FFEF72BFE002801D101F073FE0D48006881692046884700280CD020464030817EA94202D3491B40
:40660000817600E086762089294602F0AEFE204600F05AFC70BD00003C1500209C0D002070B503460088FFF785FE040013D000F022FA00280FD02079092819D02546997826
:4066400040352973204601F0C1FE0646A878012803D0AA8A02E0022070BDEA880A20424301212046FEF706FF002E01D109202071002070BD0EB5002217216B460292198180
:4066800000905A810120029B00990AF0F7FE0EBDF8B518480024807A002822D1164E0025B089000B22E0204600F000FE1249A039401807882A462146384600F051FA012821
:4066C00010D00E480122478305770A4944778A72002D01D0002000E02030002801D000F0F3FBF8BDB089000B641CE4B20028DAD1F8BD0000F8150020A0102E403C15002079
:4067000010B50088FFF716FE002809D0014640310C460978082905D00B2903D00C2010BD022010BDFFF728FC002801D009202070002010BD70B503460088FFF7FBFD0400E0
:4067400008D0254640352878082805D00B2803D00C2070BD022070BD8420005910220830991CFBF7EEFE2046FFF7D8FA2878082804D02046FFF78AFC002801D00A202870A5
:40678000204600F0A1FB002070BD000010B50C46002121700088FFF7CDFD03000BD000F06AF9002807D00948F121807A0840C00603D4112010BD022010BD022020701A8AD4
:4067C0001889002102F04CFE002010BDF4140020F8B50F46002100910088FFF7ABFD040012D000F048F900280ED0E079410641D4617E02264A07002A08DB89074025002957
:406800001ADA2843E07135E00220F8BD02F08EF80021017021894180A1898180217E4170E189C1803E7005460178134802F0F2FA284602F0B9FD1DE0204600F02DF90128BE
:4068400006D068460AF00CFD002803D00720F8BD2A20F8BDE07900992843E071204601F0DFFD607E0421304360760448C28A2046FEF700FE0020F8BD1D040000F41400207F
:406880003EB500220F236C460292238100910190628169460EC900200AF0F0FD3EBD0000F8B50F46054600F08FFA040025D003202071254600264035EE76E6702046FFF78B
:4068C000B5F900F0DDFF0920FEF7BAFDA07800F001FD0121204600F011FB2E706E70AE703A4600212046FFF7CFFC0649887B401C8873A078FFF754FEF8BD284601F084F8C4
:40690000F8BD00003C15002010B5002801D0002000E0094800280DD0014640310A464978022901D100215170807DC107C90F002001F096F810BD00005C15002070B503466D
:406940000D460088FFF7F6FC04000BD000F093F8002807D01248F121807A0840C00603D4112070BD022070BD20464030418A008A491C41430804C10C5888884201D2122067
:4069800070BD20822079072802D12046FFF7D8F8022028702089002102F08AFD002070BDF4140020016A491C016204D1817E491C4906490E81767047C169491CC16104D189
:4069C000C17E491C4906490EC1767047F0B5074687B003A8009005A800260D460190002F01D0002400E01B4C002C05D06846FCF7FFF9002803D00BE0022007B0F0BD684625
:406A00000089C00704D18C2200212046FBF7A2FD114829460068826820469047050016D1A77066762746267140373E70204600F019F8204601F01CF9084820820848BE77C2
:406A4000807AF121084000D001202075E682E8B2D3E700005C1500209C0D0020B80B0000F4140020002101628176C161C17620300177417770470079002805D0012803D0BE
:406A8000022801D001207047002070474030807F002800D00120704740300078002807D0012805D0052803D00E2801D0012070470020704710B5807801F05AF8002800D05A
:406AC000012010BD10B500F087FB03498989090B01D0FFF7D5FE10BDA0102E4070B5054604464035A87F002825D1FF206075A0788C21154A484380186030417F8C23491C67
:406B0000C9B24177A0785843104B8018DB896030994201D300214177A0788C21484380186030467F0677A1783046FEF783FB002802D00120A87770BD0220A877A07831460D
:406B400000F084FC70BD00003C150020141600200020401C0006000EFBD0002070470000F0B515468207920F85B0000A02926A469080002D01D0002400E0524C002C28D00A
:406B8000084600F093FB07466846808800280BD00298012843D0022841D003280BD03D20005D012870D087E04748381801882046FFF72BF880E00020029002A80AF030FB9A
:406BC000002807D03D20005D012878D12046FFF7E9FE74E06846029E8388324600213846FDF718F83848381801882046FFF70DF8284600F0A1FA01AA21463046FEF7FAFD38
:406C0000002806D030460AF07BFB3D204C21085528E0F5773146204601F090F94FE0002000902089039068460AF0EAFA002802D0002005B0F0BD6846009E8388321D002194
:406C40003846FCF7E7FF2048381801882046FEF7DCFF284600F070FA25464035287E00280CD103E02046FFF773FA28E001AA21463046029BFEF7F6FD002806D030460AF0C4
:406C800035FB3D202873EDE713E00298FEF7CCFF01460398307003980901000A0843707068468088B070000AF0703046FFF7E2FC05E02046FFF776FE284600F03DFA01203A
:406CC000B7E700005C15002000102E4010B5074A917B002901D0491E91730021FFF776FE002801D0002010BD012010BD3C150020F8B5074606464037B87F00282DD0B0784F
:406D00008C2100904843234945186035287F0099FEF7A5FA01281ED0287F401CC4B21E48C089A04200D800240020B877FF276F772F77A87702460146009800F0F3FC717D28
:406D4000FF2903D0304600F054FF777501F0BEFA0025114F19E00320B877F8BD00200090224669463046FEF713FF0099002904D0FF231A463046FEF78AFA641CF889E4B263
:406D8000A04200D800246D1CEDB2F889A842E5D8F8BD00003C1500201416002010B502460021084B03E0002901D0002000E018460479944204D0491C0906090EF3D00020E4
:406DC00010BD00005C15002000B50120FFF7E6FF00BD10B5044601F0A9FD2189018080346168416061682831816002F097FA10BDF7B50646087982B00C46092807D0A07868
:406E0000F0770846FFF742FE012806D010E030460AF08AFA022005B0F0BDA1788C20294A484380186030007FFEF704FA012810D0A078FEF7EDFD01280BD037780121304658
:406E400001F0F0F925462035062F38D00B2F0FD107E06846027C21463046FEF7C9FE0D20D9E72046FEF718F8012801D1002028772046FFF781FA054604AA21463046FEF7C1
:406E800026FD01205F2108556946097C002001910090A07833463A46294600F081FA69460A7CA0780323294600F0C2FDA0782946FDF722FF30460AF037FA0020ABE70120AF
:406EC000D5E700003C15002010B502464032937F0021002B03D1927E002A00D00121064A927A002A00D000210279092A00D10121807800F0D5FD10BDF815002070B50C4645
:406F00000546FDF7C9FF00280BD1012C06D92879092806D02846FFF7CDFD0446002C02D004E0012402E0A87DC007FAD1A87DC107C90F204600F094FD70BD0000012807D0A1
:406F4000082804D104480282034808300180704701488038FAE70000A0102E40014908817047000000102E4010B50446FF20F130012C01D1FF20D530002200F0C3FD044AE7
:406F8000108A044980B2A0430880108210BD000000102E40700D0020034B198A034A89B2814311801982704700102E40700D002010B50446012802D0082C07D102E0FF2081
:406FC000D53001E0FF20F13000F094FD0348018A034A89B221431180018210BD00102E40700D0020034B198A034A89B2014311801982704700102E40700D0020F8B5054679
:407000000120A84086B214460F46012231467C2000F078FD3A463146782000F073FD6078267800020643E078A2780002024360792379000203430C2045430D2080010549EF
:40704000281844182680001D44182280001D40180380F8BD00102E40CB065B0E0343480901021943D00108430121C902084301490881704780142E404278037812021343D9
:40708000084A1382C37880781B021843908248780B78000203431383C8788978000201439183704700142E40024A1080000C90801181704700142E40044A002180180288E3
:4070C000491C89B21029FAD37047000000102E40024A10820148803081817047A0102E4010B5054A1082084600F030FD024A0021A03A8018018010BDA0102E4010B50B4695
:40710000044600F005F819462046FFF7E1FF10BD024A10820148803001817047A0102E4010B504490882FF20002220211D3000F0E9FC10BDA0102E40000202494D30088005
:407140007047000000102E4010B5084B074C0202A03B0029208202D075321A8010BD04490020088088807632F7E70000A0102E40201A2E4000B5034908884880FFF70CFF42
:4071800000BD0000700D002000B502484088FFF729FF00BD700D002010B5FCF7E9FE10BD014952200880704700102E4000210170704700000748808806492039098B8842AB
:4071C00001D8081A03E00022D243101A401880B27047000020112E400148008AC0B27047A0102E4070B5084C049D2082074804890548603006880E8001891180808818800A
:407200006007400F287070BDA0102E40E0112E400148008970470000C0102E4000280FD00D4A108B0870000A4870908B8870000AC8700948203000880871000A48717047EB
