:400000000040002011000000A1030000A103000008B500F0C7F9C04638B51222294B1A6001F022FB284801F03FFA012001F03CFB302001F049FA254A254B1A60254C8025A1
:40004000ED052560244A116802230B431360234A234B1A60234A136808218B431360FA20C00001F0CDFA204801F0C0FAFE2212021E4B1A601E4B1F4919601F490A601F4A54
:400080001A60D02149021E4A11601E4A1A60802212061D4B1A608022D2021C4B1A6040221B4B1A6001321B4B1A6001321A4B1A6008201A4901F062FA082001F03FFA2560C6
:4000C00038BDC04630001040001BB7000600008004010B400C020B4078002E402D3E00007C002E406CF02E40DC050000000301400000014040FF00800403014041FF008052
:400100000803014042FF008008010B4000010B40140101401001014004010140C117000010B572B60022284B1A60002410E0274863001A195200821891881B195B001A5A2F
:40014000C31858880004104300F094F90134E4B2012CECD91D49081C0C30183100F070F98022D2021A4B1A601A4A1B4B1A6099231B041A4A13601A4A13601A4B197802228F
:400180000A431A70184802783C218A4328390A430270197816220A431A702023134A13601349144A1160144A13601E33134A1360134A13603D3B134A1360134A1360FFF796
:4001C0002BFF00F07DF910BD6CF02E40B82D010014000B40000099EE0000024000500F4020500F4000700F4001700F40000004400010DB00080004401800044000020440D0
:4002000018020440000404401804044010B5064C2378002B07D1054B002B02D0044800E000BF0123237010BD980F002000000000542D010008B5084B002B03D00748084950
:4002400000E000BF07480368002B00D108BD064B002BFBD09847F9E700000000542D01009C0F0020A80B00200000000010B50C1C282818D004D8012807D0272805D033E006
:4002800041280CD04C2815D02EE0002000F0A2F9164801F081FB0122154B1A6024E0154801F07AFB20E00022114B1A60124801F073FB19E0114801F06FFBA389112B0CD1B5
:4002C0000F4801F069FB201D00210E4A00230DF0CDFE63681A780C4B1A600A4A13785078000218430DF08AF910BDC046582D0100B40F0020642D0100782D01008C2D0100D1
:400300009C2D0100542100203821002010B584B062B600F09BFD00F0F3FD00F0F5FC01F0B5FA1B4800F0FEF801F098FF00F0B8FB0028F9D1174B1B68002BF5D000F020FFA1
:400340006B46DC1CD87000F009FF00F0DDFC2378FF2BE9D001AC102323810F3BA3806B46D81C019001F0A2FA201C00210A4A00230DF07CFE094B1B68002BD5D0064A1378CC
:4003800050780002184301A90DF0E2F8CCE7C0466D020000B40F00205421002038210020FEE7C04670B50F4E0F4D13E029686B68AC68002202E001C901C30432A242FAD1D3
:4003C000E868002202E0002102C304328242FAD11035013E002EE9D101F0CAFEFFF796FFFEE7C04601000000A430010008B50F4A136801218B43136000230AE0032B03D883
:400400009A000B49505800E00A4899000A4A885001332F2BF2D9FFF783FE0022074B1A60024A116801230B43136008BD0000104000000000A103000000000020C00000200E
:40044000F0B50025002711E0BB00C658F3B2FF22964308E06A008A181478A419527822700135013BDBB2002BF4D10137022FEBD9F0BDC04608B50A1C002101F0B7FE08BD4B
:400480000C4B1B68002803D080221206134301E05B005B08074A1360074B1B68002803D080229204134301E0044A1340024A13607047C04680033A4008010B40FFFFFFFD4D
:4004C00008B50323054A1360054A13600022054B1A600120FFF7D4FF08BDC0463000304030003140000E3F4008B500F077FA08BD10B50024064B1C70064B1C70064B1C70C3
:40050000FFF7F2FF054B1C70054B1C7010BDC0465721002050210020562100203C2100204421002010B590B0041C0BA82049142201F053FE20231F4AD35C002B05D1FFF7FC
:40054000D7FF012120231B4AD154002C2DD01A4B1C6008A805AA426006AB0893002101811B311980598017391971002313701231694401F049FF002818D1052300930F4B2F
:4005800001930F4B02930F480F49AE2212010BAB01F096FE002809D101220C4B1A700C48112108320DF04AFD00E0012010B010BDEC2D0100B80F0020402100200039010097
:4005C000790200002D070000C80000204C210020002E010008B502282ED81B4B1B78042B2CD11A4B1B785B072BD4002809D1184B1E221A860232596A0A805B6A10325A8096
:400600000CE001280AD1124B96221A86C822D200596A0A805B6A8022D2015A800D4B18700B4820300BF034FE00280CD1074A117804230B43137006E0012004E00420FF3033
:4006400001E00420FF3008BD4C21002057210020AC0B0020562100207047C04603784078000218437047C04638B583890D2B20D1041C04300021221C33330DF0F7FC051E96
:4006800011D16068FFF7EAFF830706D50A4B1B6882204000211C984705E0074B1B680620FF30211C9847054A137801218B43137000E00025281C38BD4021002057210020A7
:4006C000024B00225A701A707047C0465421002010B582B0041CFFF7C7FF0A4B1B78DB070ED4002809D001A912238B70A3890B80C87020680CF0EEFE02E020680CF07EFF49
:4007000002B010BD572100208379002B07D000200BE0C25C002A07D10133DBB200E00023052BF6D9002000E001207047F0B583B0041C0D1C964A117801230B431370272810
:4007400000D1B0E012D8062800D17EE004D8012821D0052875D00AE1242800D19FE0262800D1A8E0212800D001E182E0422800D1E9E006D8282800D199E0412800D1CEE07A
:40078000F5E04C2800D1E9E0FA2800D1EAE0432800D0ECE0DAE001AE0727377000237370301C03F0B1FC377001237370301C03F0ABFC784B1E68301CFFF7A6FF00280CD09A
:4007C000301C01F04FFD734E30680021FFF744FF30680121FFF740FF25E06F4B1B786F4A12783F210A4092010B4013436C4A127820390A40120313436A4A127860310A40F4
:4008000052041343684E33701A0A72701B0CB370301C01F027FD301C0021FFF71DFF301C0121FFF719FF00200BF0E2FB01A83F230370002343700BF0F9FB04225B4B1A7076
:4008400095E02A785A4B1A7091E02B78002B00D08DE06B78002B06D1564B0022DA809A80554A1A606B604A4A137801218B4313707DE0474B1B789B0679D4504B1B78102B4B
:4008800002D105224D4BDA704D4B18784B490BF0BFFC3F4A117801230B43137067E06A78484B1A7063E00222404B1A705FE004223E4B1A705BE03D4B1B78022B57D0344A81
:4008C0001278D20753D5324A1278520708D50322364B1A702E4A137804218B43137046E02B4A1278120708D50422304B1A70284A137808218B43137039E0032B37D1042256
:400900002A4B1A70304B1B78002B30D10120FFF761FE00282BD10322244B1A7027E0284E301C291C022201F058FC0022204B1A7031789E318900254B591801312448043282
:4009400001F04BFC13E0FFF7BBFE10E06988162900D9172128880CF0C7FD08E0281CFFF7B7FE04E01B4A117801230B431370084B1A7811231A4209D0054A137801218B4346
:400980001370154B1B68201C291C984703B0F0BD57210020E00B00207CF1FF0F7DF1FF0F7BF1FF0F78F1FF0FE40B00204C21002050210020DC0F0020A80B0020580C0020F7
:4009C00054210020442100205621002000390100482100203C210020402100207047C04638B5164C2368DBB2154A13700F208343191C144D2A780F2313400B43F022934397
:400A00001A1C2B788343134323600F4A0F4B1A600F4A104B1A6010490B688343062213430B60013000F094FD10200C4900F0A6FD1020032100F0B4FD38BDC04600FF284047
:400A40005821002062F1FF0F00020001080028400008A0010400284000040240F911000008B500F003FD00F0D7FC0020002100F0DFFC0020002100F005FDFF2000F0BEFC2C
:400A8000402000F0E5FC044A136804490B431360102000F053FD08BD0400284000100880024B1878012318407047C046E40F00204000024B181880887047C046E40F002037
:400AC000F8B5104F3C5C3818027A55005519EDB29200D6B200F0F1FCA4003B191C6922680F21B1408A43111C0422B2400A43DE6A33680721A9408B433360226000F0E1FC02
:400B0000F8BDC0465C2F0100F8B519490C5C0B181E7AB200D2B275007519EDB2154B185CA300CB181F693B680F2191408B433B60022800D10020012801D1002700E006272B
:400B400000F0BBFCA4000A4B1C19E16A0B680722AA4093431A1C3B1CAB4013430B6000F0B0FCA16C0B680122B24093430B60F8BD5C2F01007C21002010B5002403E0201C48
:400B8000FFF7C2FF0134042CF9D910BD03231840024B1A68400210431860704704002840CA0807231940063B8B40191C835C194201D0012000E000207047C04610B5041C99
:400BC0000134E4B2052C06D004480430211CFFF7E7FF0028F4D0201C10BDC046600C0020F8B5041C324B64331B5C9B00314A9E583148211CFFF7D4FF304B9E4203D8864024
:400C0000FF200004064300F031FC00F005FC2C4B185D013880B2002100F00AFC294B185D013880B2002100F02DFCFF2000F0E6FB402000F00DFC102000F08AFC8022520259
:400C4000214B1A60204B1B681B0CFBD101221F4B1A60102000F086FC102000F06FFC102000F076FC1A490A681A4B1A401A4B185D1A4B1B5D1B04034313430B60184F3D686A
:400C8000184B1D40184B1D43102000F057FC201CFFF716FF00F011FC041C3D60002000F003FC094B1E60201C00F00BFCF8BDC0465C2F0100600C00205C210020FFFFFEFFBE
:400CC00084210020642100200C002840140028400800284000FF80FF6C2100207421002004002840FF1FDFFF2000200008B5054B00221A70C2B29A7381221A70FFF770FFD6
:400D000008BDC046E40F002010B50B4C00232370FF33A373A07BC0B2FFF750FFA073A37BDBB2042B07D8217801220A432270A07BC0B2FFF755FF10BDE40F002038B5051CBD
:400D4000174B1C68A4B24300164AD3189C80164B64331B5C9B00154A9A58154B9A4208D81448291CFFF71CFF6B000E4AD31804419C80281CFFF7C8FE102000F0E9FB0E4AF9
:400D800011680E4B0B40A02109020B4313600C4A11680C4B0B401360102000F0CFFB38BD0C002840E40F00205C2F0100600C0020FFFFFEFF5C21002004002840FF1FDFFF27
:400DC0000800284000FF80FF10B5CC0807231940063B8B40D9B2002A04D0041923781943217003E0041923788B43237010BDC04670B5061C002400250BE0301CFFF776FFAE
:400E0000FFF74EFE0128FBD0301CFFF751FE24180135002DF1D0A0B270BDC046014B19547047C0467C21002010B5002404E0201C0021FFF7F3FF0134042CF8D9FFF7D0FDC8
:400E40000020FFF7A3FEFFF797FE10BD08B50B4BDB7B002B04D1FFF7E7FF0122074BDA73FFF7FEFD00F06CFA0122044B1A74044A13688021C9030B43136008BDE40F002046
:400E800004002840F0B5002714E00C4BDE5D0C4BDB5D9E191A1C002404E08D5CA54200D92C1C0132B242F8D301E0CC540133B342FBD301378742E8D3F0BDC046DC2F01009A
:400EC000E02F01004300054A9A5A05495A52081800210173017503495A527047E80F0020F80F00209C21002010B5041CFFF7FEFEFFF7D6FD0028FBD1201CFFF7E3FF10BDF8
:400F000010B5002403E0201CFFF7EEFF0134042CF9D910BD70B5094D14352D180026FF20002308E0EC5C944203D9A64201D2261C181C0133DBB28B42F4D370BDF80F002095
:400F4000F0B583B0041C0192009308AB1878344B14335918002C02D0661EF6B200E00026631CDDB20B5D9C462D4B243362465A70002C07D12A4B002624229E544A5D24333B
:400F80009A7012E0019A013A944207D1895D244B24229954243300229A7006E08E5D204B24229E544A5D24339A7024231C4AD35C834204D91B1A242219498B5403E00021EC
:400FC0002423174AD154164A243253781B1ADBB253709278824204D9101A114A2432907003E000210E4A243291700D490A1C243292782420095C501AC9188918000200F082
:40100000C5FF240204196B460020185E6043FE23DB019C466044000CC0B203B0F0BDC046F80F002043184900C818800880B27047F0B5474680B482B0041C3B4B1E5C3B4BFE
:401040009B5D019342003A4BD75A3A4B5B7B002B08D0394D9046515B381CFFF7E3FF071C43465853E1B23548314A00F061FD6300334A9A5ABA4207D80021324B1955BD1A98
:40108000ADB20123984603E0D51BADB2002398464346002B15D12C4B9B5DAB4211D2294B1B5D244A1219127A934206D3201CFFF709FF0022234B1A551CE00133214A1355C8
:4010C00018E06B469B88AB4206D21F4B9B5DAB4210D94346002B0DD11302194801190E7B3343FF18BF1A3A0A6300C2520F730022144B1A556B469E88AE420DD24346002B8F
:401100000AD0FF2D04D90E4B1C19FF23237507E00B4B1C19257503E0094B1C190023237502B004BC9046F0BDC02F01008C210020E80F00207C0C00209C210020E8210020DA
:40114000F80F0020902100209821002010B5041C00F0A0F8201CFFF76BFF10BD10B5002409E00648211CFFF71BFD002802D0201CFFF7ECFF0134042CF3D910BD640C0020B8
:4011800030B583B0041C194B1A18157C1A5C00200521FFF7BFFEFF2820D0154B1B5D009300210522C8235B01FFF7CAFE011C80B26B1CDBB20D4A5219127C002A06D10B4A89
:4011C000D3181974551901232B740CE0074CE418217CFFF727FF031C237404E0034B5D1900232B74034803B030BDC0467C0C00208C210020FFFF000010B5102000F0A8F948
:4012000001221E4B1A601E4B1878C0B2FFF796FD1C4B1B785BB2002B05DA1A4A137801218B43137026E0164C2078C0B2FFF7C6FC20702378DBB2042B05D8114B1878C0B2F5
:40124000FFF7CEFC16E00F4B1A7801218A431A701B785B060ED500220B4B1A7006E00B4AD15C0B4AD1540133074A1370064B1B78002BF4D0102000F061F910BD14002840FA
:40128000F20F0020E40F00202010002060210020640C0020064B1B5C064AD25C51080648C1540648C154D2080549CA547047C046C02F01007C0C00208C21002098210020D3
:4012C000A8210020024A136840218B431360704704002840044A1168044B0B40802189000B4313607047C04608002840FFFCFFFC38B5002208E00D498B5C5D080C4CA55420
:4013000001335B088B54013203789342F3D8102000F01EF9074A1168074B0B4007490B431360102000F00AF938BDC0466C2100207421002008002840FFFCFFFC0002000151
:4013400070B5254B05221A70012159709A702B32DA80224A9A80224A9A60FFF7B3FF002304E099001F48204A885001331A4A52789A42F6D8002306E010211C4AD1540C3988
:401380001B4AD1540133042BF6D9FFF7A3FF124C184E201C311C00F02BFB174D0120291CFFF770FD201C00F034FB201C311C00F01FFB0120291CFFF765FD201C00F04AFB2C
:4013C000201CFFF795FF002403E0201CFFF762FF0134042CF9D970BDE821002098090000E42F01000000FF0F600C002064210020842100209A0D00006C210020044B1B6821
:40140000002BFBDB0002034B1843014B186070470000014040000080034B1B68002BFBDB024A014B1A607047000001404000004010B5064A13680724234000021843CB00E2
:40144000FF2119400143116010BDC04600030140044B1B68002BFBDB0002034B1843014B186070470000014041000080034B1B68002BFBDB024A014B1A6070470000014050
:401480004100004010B5064A13680724234000021843CB00FF2119400143116010BDC04604030140000000000230800803D00138FDD1C046C046C0467047EFF3108072B625
:4014C000704780F31088704710B586B0041CFFF7F4FF0E4B1B6800930D4B1B680193033C0C4B1B5D02930C4B1B68039304AA0B4B04936B4605930A4B1A600A490A4A1160B3
:401500001B68FFF7DEFF06B010BDC04608010B4000010B405030010030001040B6EA0000080010401700008004001040024B1B68012018407047C0460C002E401F2318402E
:401540001E3B8340181C014B1860704700E100E01F2318401E3B8340181C014B1860704780E100E01F2318401E3B8340181C014B1860704780E200E001BE704738B5041C0F
:401580000D1C1F2802D90020FFF7F6FFA400034B9C4664442068256038BDC0464000002070B5041C0E1E032E02D90020FFF7E4FF1F2C02D90020FFF7DFFF03252540ED00E7
:4015C0000635FFF77AFFA408A400074B9C46644423680322AA409343AE40351C1D432560FFF76FFF70BDC04600E400E008B5034B1B7A5843FFF758FF08BDC046980C00200F
:4016000010B5041C0F4A116801230B4313600E4A0E4B1A600E4A1368802109020B431360002809D100200CE00120FFF7DFFFFFF77DFF002804D1013C002CF5D1102000E0F2
:40164000002010BD60F02E400220000078002E4010002E40034B1868C0231B02184000D00120704700010B4010B50D4B1A6801218A431A601A68022082431A60094A106869
:401680003024A043203C204310601068093CA043014311601A68802109060A431A6010BD00F02E4000FF2E4038B51D4B1B6801241C40002802D0012816D02BE0184B19688D
:4016C0000122914319601968022081431960154B19682E3081432038014319601968093881430A431A6018E00D4B1A6802218A431A600C4A10680725A843014311601168E6
:4017000030208143103801431160196801220A431A6002E00020FFF72FFF201C38BDC04600F02E4000FF2E4008B5FFF7C6FE044A1368C02109020B431360FFF7C2FE08BD9D
:4017400000010B4010B5FFF7B8FE08490A68084B1A408024E40122430A600A6813408022120213430B60FFF7ACFE10BD00010B40FF3FFFFF70B5061CFFF79FFE041CFFF7C3
:4017800069FF002803D0FFF7DDFF012500E000250848331C0340084A106808490840184310601368012D01D1FFF7BEFF201CFFF788FE70BD0404040010020B40FBFBFBFF4D
:4017C00010B5244B1B685B0715D5234B1B685B070ED5224B9969042001401F4C22688A4322609A6982439A61DB68002B00D098470420FFF7BFFF174B1B685B0518D5164B4D
:401800001B685B0510D5154B99698022D2001140114802688A4302609969114A0A409A611B69002B00D098478020C000FFF7A2FF084B1B685B030CD5074B1B685B0304D5AF
:40184000064B5B69002B00D098478020C002FFF791FF10BD10020B40A80C002024100020FFFBFFFF08B500F081F808BD08B500F02BF808BD08B5044A1368802109060B4343
:401880001360FFF7EFFF08BD0000244008B5064B1B78002B04D1FFF7E9FF0122024B1A70FFF7E8FF08BDC04640100020044B1B681F221340082BF9D0024B18607047C04633
:4018C000080224404002244010B5154A154B1A600023154A13600121144A1160144A15480260072414480460144803601448016014490A60144A13600421144A1160144A82
:401900001360144A1360144A1360144A1360144A1360144A13601268134B1A8010BDC0460B0000020000244040002440480024400700008000032440040324401003244049
:4019400044002440000224400402244050002440880E2440C80E2440480F2440080F2440C80F2440880F244042100020064A1168064B0B40902109040B431360044B1A8854
:40198000044B1A607047C04600000240FFFF0FFF42100020880F244038B5051C002402E0FFF784FF0134285D0028F9D138BDC046F7B59C180023071C082680250191009215
:4019C0002370237800982B432370BB689B6C9847019B984202D22378AB432370013E6D08002EEED12378F82B01D9F8232370F7BD70B5051C0E1C00242B789C4208D2AB6814
:401A0000221C281C311C1B68FFF7D2FF0134F3E770BD38B5051C00242B789C4219D2AA6813681B5DDB080F2B00D90F23D16BD268C95C1155AA68042B04D9936D906B211C2F
:401A4000012203E0936D906B211C002298470134E2E738BDF0B5041C002687B063789E4262D2A3685A6C925D0392002A01D1013203921A6C925D019201992278914251D2D8
:401A80009A689B69515C0F221140B2000492002205910499019D5A50019B5B000293039B019A9B189D423DD2A768E388A0885843FB68595D00F06AFA3B68595D00F0D6F9E4
:401AC000059B5843194B40005A2802D95B084008FAE7BA6904991B0C1B045350A36882085B6B01215855A368C008DB69029F5A550F22A36849421B6A5855A3685B6A5A556C
:401B0000A368986AC1530021D86AC153186B9B68C1535B19197801350A401A703B1C02330293BCE7013699E707B0F0BD0000FFFFF0B585684E002B6B925B9B191C8887B095
:401B4000141B0094AC6A1A80A45B6B6A0294EC6A5F5CA45B2B6A03946C6B7F00645C5B180494AC680193645C1B780594009CE40FA4460F24251C6744009C3D40AC46E517F8
:401B800064196C409C4203D2012B05D0013B00E00133FF273F2B00D89F00019D2B7065460F2D29D0002D24D0BC4225D8059C029F24090094974200D9171C039D954200D28B
:401BC000151C009A092A01D8141C01343A1C0A2C14D1EA1B934206D9049A92089A42924152429B1A00E001338268D26953543A1C04E0151C644601E0151C0024674683688C
:401C000024015B6A5F5483689F6ABA53DA6A9B6895530F225B181D782A401A7083689B6859180B781C430C7007B0F0BD0160704701607047324B1A781202324B1B781A43C9
:401C4000314B1B781B02314909780B4330498B4201D1072A06D0D42109018B4206D1042A04D102E02B4B042200E02A4B2A490B602A4B1A602A4B1B781B022A4A1278134311
:401C800080229201934202D0002B02D002E0264B00E0254B254A1360254B1B781B02254A12781343244A934205D0244A934204D0052B05D103E0224B02E0214B00E0204B39
:401CC000204A1360204B1B681B09204A1268AA2A15D1012B13D9164B1B780E2B0FD11C4B1B781B021B4A127813431B4A13601B4B1B781B021A4A127813431A4A1360704716
:401D0000D9F0FF0FD8F0FF0FDFF0FF0FDEF0FF0F580B0000580D00006C002E4074002E40DBF0FF0FDAF0FF0F0220000078002E40DDF0FF0FDCF0FF0F0F0F00000505000023
:401D4000050F000080002E40EC0F00F0E00F00F06DF2FF0F6CF2FF0F84002E406FF2FF0F6EF2FF0F94002E4008B5FFF73FFC08BD08B500F04BF808BD08B500F04FF808BDCC
:401D800008B500F04BF8034800F02AF8032000F02DF808BD651E000008B5024800F046F808BDC046651E00000220FF307047C0462B2070472B2070472B2070472B207047BD
:401DC0002B2070472B2070472B2070472B2070472B2070472B2070472B2070477047C046014B18677047C0460000002010B5041CFFF763FB044A1368C0218B43A4011C43BB
:401E00001460FFF75EFB10BD0CE400E080225201014B1A607047C04600E100E080225201014B1A607047C04680E100E010B5041CFFF7F4FF201CFFF7D3FF0320FFF7D6FF90
:401E4000FFF7E4FF10BDC04608B5FFF736FB044A136804218B43136030BFFFF732FB08BD10ED00E008B510F061FF08BD002243088B4274D303098B425FD3030A8B4244D390
:401E8000030B8B4228D3030C8B420DD3FF22090212BA030C8B4202D31212090265D0030B8B4219D300E0090AC30B8B4201D3CB03C01A5241830B8B4201D38B03C01A5241F5
:401EC000430B8B4201D34B03C01A5241030B8B4201D30B03C01A5241C30A8B4201D3CB02C01A5241830A8B4201D38B02C01A5241430A8B4201D34B02C01A5241030A8B42BC
:401F000001D30B02C01A5241CDD2C3098B4201D3CB01C01A524183098B4201D38B01C01A524143098B4201D34B01C01A524103098B4201D30B01C01A5241C3088B4201D3B0
:401F4000CB00C01A524183088B4201D38B00C01A524143088B4201D34B00C01A5241411A00D20146524110467047FFE701B5002000F0FCF802BDC0460029F7D003B5FFF74A
:401F800075FF0EBC4243891A1847C04603460B437FD4002243088B4274D303098B425FD3030A8B4244D3030B8B4228D3030C8B420DD3FF22090212BA030C8B4202D3121290
:401FC000090265D0030B8B4219D300E0090AC30B8B4201D3CB03C01A5241830B8B4201D38B03C01A5241430B8B4201D34B03C01A5241030B8B4201D30B03C01A5241C30A72
:402000008B4201D3CB02C01A5241830A8B4201D38B02C01A5241430A8B4201D34B02C01A5241030A8B4201D30B02C01A5241CDD2C3098B4201D3CB01C01A524183098B422F
:4020400001D38B01C01A524143098B4201D34B01C01A524103098B4201D30B01C01A5241C3088B4201D3CB00C01A524183088B4201D38B00C01A524143088B4201D34B00C8
:40208000C01A5241411A00D201465241104670475DE0CA0F00D04942031000D34042534000229C4603098B422DD3030A8B4212D3FC22890112BA030A8B420CD3890192113D
:4020C0008B4208D3890192118B4204D389013AD0921100E08909C3098B4201D3CB01C01A524183098B4201D38B01C01A524143098B4201D34B01C01A524103098B4201D39F
:402100000B01C01A5241C3088B4201D3CB00C01A524183088B4201D38B00C01A5241D9D243088B4201D34B00C01A5241411A00D20146634652415B10104601D34042002B1D
:4021400000D54942704763465B1000D3404201B5002000F00BF802BD0029F8D003B5FFF715FF0EBC4243891A1847C0467047C0460E4B70B500251E1C0D4CE41AA410A542C1
:4021800004D0AB00F35898470135F8E710F078FF084B00251E1C084CE41AA410A54204D0AB00F35898470135F8E770BD8C3001008C3001008C3001009430010030B500245B
:4021C000944208D0035D651C0C5DA34201D0181B02E02C1CF4E7002030BD002310B5934203D0CC5CC4540133F9E710BD031C8218934202D019700133FAE77047134A108891
:40220000810703D08107890F401A001D11791030484381B25088820703D08207920F801A001D800040180A494030098980B2CA0701D0503080B2890706D504495422091F06
:4022400009785143081880B270470000B20C00204410002010B501F0ABFE10BD10B500F04FFA10BD10B50749044609780220002907D1204601F0ECFE002802D1204609F059
:40228000ADFF10BD1C0E002070B504460120002C12D02368002B0FD0616800290CD0074D06222889208118462968FFF796FF6968606809780170002070BD000044100020C6
:4022C000FFB585B0002768460E9D07734C481C460078002802D0082009B0F0BD10990F9801900095029105A807C800F0FBF80028F2D16946264603AB84460873002C19D08F
:40230000002115E08A00B75A082F09D990198078002805D0083FB7521878401C187005E0002915D00027B75290198770491CC9B2A942E7D360460028CED10F9800280AD013
:40234000109901F0E9F90006000E04D00120C3E701208446EEE701F02BFE2948002101610C300599016021888180022D03D3A1798171A17AC17100211EE0481C19E082001F
:402380008B00A75AE65ABE46BE4211D26F463E80B4461E190296B678BE7001967646E6521719029EBB78B3706646A652019EBE70401CA842E3D3491CA942DED311480090CA
:4023C0006846037B22460799069800F013F9002882D168460A4C007B60700A4801F018FE0028B4D1204607490C3006F021FF0028ADD106F03BFF0028A9D1012121706BE7BA
:40240000AC0C002044100020F8B5054633480E460078002802D002242046F8BD002E5BD000242F49002D16D02A89D0070DD02868002808D003881B3BE12B04D24088FB2829
:4024400001D81B2801D2012409E0900707D56868002804D1F7E70020088108604860002CDAD11F482F8907811C481B21801D018041800421017119490020891C0870F80756
:4024800005D016480622801D2968FFF7A6FE1449B80703D56A681148127882700F480D46801D0860001F486001F0F8FD0B48801D01F0E6FD28890CF087FE28890CF0EEFF72
:4024C00003461033FFF79AFE1F21C018890140180249308088809FE701249DE7AC0C002044100020FFB58446384F1C460020BB883F78054602460646002F11D100290ED0D2
:40250000029999420BD36146002908D0002C06D00A99002906D02E4B0B99994202D2012004B0F0BD002144E0AB001F19BF78002F3BD0E35A002B38D07B43591889B22B000F
:4025400000F04AF8050410161C253100A7782388BC46FF27233BEB37BB4222D26346032B1FD322E0A388002B1FD0302B19D31CE02389002B19D0282B13D316E0A289002A8E
:4025800013D01346134F233BBB420AD20DE0268A002A0AD033460F4F233BBB4201D2964203D901200EE0002001E000280AD16D1CEDB2099B9D42B7D31C2463435B180299B0
:4025C0008B42ACD89642AAD8AAE70000AC0C002079020000BAFF000030B47446641E2578641CAB4200D21D46635D5B00E31830BC18470000FFB583B0002469460C801F4628
:4026000006468C80002806D00598002803D004983043800701D0012467E0002FFBD03449049809888842F6D3FFF7B6FBFFF7A4FB00F010FC002856D100F06CFD002852D177
:402640002C49084601F09CF805042D0C4BD12A480499066081800021C18007810C98007AC00704D0684601F0BCFC040007D10C98007A800703D501A801F0BCFC0446BF1D73
:40268000FEB2002C21D13146059800F05DF804001BD10CF011FF0406240E16D16A461088928808368518144AF1B29088D288AEB29319984207D3401B801A80B201F050FB01
:4026C000050007D000E0FF25012400F05BFA002D04D008E0F8B200F01BF9F6E700F07EFA06490120087000F0C7FB204607B0F0BDB00C00203528000050100020C00C0020AB
:4027000010B503480078012801D101F0CBF910BDC00C002070B5084B0446DA889E8800205518B54206D81D68AA182260DA885118D98070BD032070BD501000200148008940
:402740007047000050100020F0B587B007460D4600208900009006916846FFF7DBFF844600285DD1304800990160002117E02E4B88001A680629115406D22C4C041966784C
:4027800082185670628805E0C419203CA67A8218567022891B68C018491C4280C9B2A942E5D300242DE0601CC2B2059025E01E4FA3003968960058184088711803960490F6
:4027C0004E88B04217D938466F46FE80B6464F786E4677710297049F4F800168039F5E18767879184E700168764659184E800068029F18184770521CD2B2AA42D7D30598CF
:40280000C4B2AC42CFD36046002809D168460699FFF780FF8446002802D1054900980860604607B0F0BD0000C40C0020B8300100C80C00207047000010B5002809D0054973
:402840004A68002A05D0011F08788000105801F035FA10BDC40C002010B50446FFF76EFFC0B2801DA0420CD307484068002808D0A100405801F094F9002801D00470001DC8
:4028800010BD002010BD0000C40C0020F8B516460D460446FFF752FFC0B2801DA04203D20020C0430090F8BDB2B2E9B2684601F09DF90099481C03D0024AA0005268115048
:4028C0000098F8BDC40C0020F8B50746FFF736FF801DC6B20A49002005460C680DE06178002907D06188B94202D32078FFF7B4FF002804D1241D6D1CEDB2B542EFD3F8BD9B
:40290000C40C002010B5002801D0FFF795FF10BD70B506460948002504680BE06178002905D062882078121D0023FFF7AFFF241D6D1CEDB2B542F1D370BD0000C40C0020C4
:40294000FFB581B00A9C16002BD000F0F1F80546042826D0214F002C0BD02046FFF7B4FF2901C919486000281BD022460499FFF734FC1A4928010E504618748101980570B2
:402980007D20029CC000444300F0C0F8009004280AD000F055FAA0420ED800F051FA201A06E0FF2005B0F0BD204600F0ADFA0020B08135720020F5E700F042FA074600F01A
:4029C000B9FA381B87B23846012100F0EFF800980101024808188781E6E700005C100020F8B5060117483418217A042903D0A089002802D018E00020F8BD00F021FA05467C
:402A000000F098FA00F0A2F804280DD001010D480F18B88941198DB2002100F0C7F80020B881284600F070FA6068064D002801D0FFF768FF042020720020A8516081A081F6
:402A4000D9E700005C100020FEB500266A46304601232549050169180D7A042D02D0898900291BD000211154401CC0B20428F0D300246846005D002830D01B482101081803
:402A800041894768056802910021016041600422418102728181002E02D015E01354E3E700F054F804280ED001010F480818019086890021304600F079F8019800218181E3
:402AC000304600F021FA0126002D07D038460299A847002F02D03846FFF714FF641CE4B2042CC6D3FEBD00005C1000200EB5002005216A4600901181508103486946006866
:402B00000DF04FFB0EBD0000CC0C0020074A0020010189180B7A042B02D08989002903D0401CC0B20428F3D3704700005C1000200549002002015218127A042A03D0401C1C
:402B4000C0B20428F6D370475C10002030B50A4B04200A4C00210A011219157A042D06D09289002A03D09A4201D808461346491CC9B20429EFD330BDFFFF00005C10002050
:402B80007047000030B50020074C05460423020111190B72A5504D60401C4D81C0B28D810428F4D330BD00005C10002030B5094C00231A011219157A042D04D095890029B4
:402BC00006D02D1895815B1CDBB2042BF1D330BD2D1AF7E75C100020002070471CB5002469460C70142001902346054A05480DF0DDFA04480068401C00D1FF2420461CBD37
:402C0000592C0000CC0C00203EB5124A0146FF2000230124126800290DD0012914D0042908D104206946009308814B8110460DF0B8FA80B23EBD6846009304814381694660
:402C400010460DF0A9FAF4E768460093048143816946EBE7CC0C002070B545890468416800890300FFF7B8FC08280509091E22282628002005F0EEF91EE0022908D0C8B2CE
:402C80002A4621460BF050FC2046FFF73BFE13E002202A4621460BF047FC2946204600F00DF809E000200CF06BFF05E02046FFF7CBFE01E0FFF792F8002070BD014B0022D8
:402CC000DB681847D00C002070B5448905680089022803D0032809D0FF2070BD2246094C0023A46829460120A04708E0FFF7B2FA241DA2B200232946022006F04AF9002072
:402D000070BD0000D00C002070470000024800214160018041807047D00C002070B50C46002186B016460391012802D0022859D116E003A9012006F08CF901281BD1039DB2
:402D4000324621462846FFF748FA0095287801900220694608814E816846FFF7B5FF41E0214D002B686809D0049004A9022006F070F901281DD0022006B070BD002812D03D
:402D8000298840182146FFF728FA28880024801980B228806988091D884206D12C801348FFF792FF03E00320E6E788421AD96C6018E004986860E278A378110219430B4A0D
:402DC000698000231060E3565360032313815181A1788170E178C1706178417021780170042028800020C7E7D00C00209C1000203EB515460C46022803D004280CD0002090
:402E00003EBD0091019002206946088107484A8100680DF0C6F907E00BF086FB044B0022DB6829462046984701203EBDCC0C0020D00C0020014AD16090607047D00C0020E3
:402E4000034801688068081A0A21484300097047A810002010B5FEF793FF482204490548FFF7BBF903490120C870002010BD0000D4300100AC14002010B5FEF779FF10BDD6
:402E800070B5134C2368002B08D0207B1149C20705D04008400020738868A08070BD88680B4AA18880B29268814203D90A4D691A091802E0814202D2411A5118A160A08083
:402EC000A0689842EAD30DF089F900F013F870BDA8100020C0102E40FFFF000010B508461946FFF7A7FF10BD704710B5FFF780FF10BD000003480021016041608160C1606F
:402F000070470000A8100020024610B5FF20002A0CD0FFF7EFFF064C0321207B0843207310010A21FFF728F82060002010BD0000A810002000B504480A21806848430209BC
:402F4000FFF7D8FF104600BDA81000200248007B8007C00F70470000A810002010B544490868002802DA434B01221A70022290430860414800693E49C00B4031096A08421D
:402F80005ED0012000F086FA3B483C497C30FEF74FFE37480E216C30FEF74AFE364820218430FEF745FE344814219C30FEF740FE3148FF21C131A430FEF73AFE2E48FF2158
:402FC0002F31B030FEF734FE2B482D49BC30FEF72FFE29482B49AC30FEF72AFE29492648491CB430FEF724FE23482749B830FEF71FFE21482549CC30FEF71AFE1E482449CD
:403000000830FEF715FE1C482249A830FEF710FE194821498830FEF70BFE17481F498C30FEF706FE14481921C9029030FEF700FEFEF700FEFEF7B8FEC0B2022802D00FE09A
:40304000FF2010BD16491748FEF7F2FD15481649001DFEF7EDFD134800210830FEF7E8FD54200449C043891C0870002010BD000000F02E40E00C002000002E40556500001C
:40308000320300002F3F00003102000010520000EC160000FA12000031D000003AE300009956000080012E40F80F000070B50646581C80B245086D00002408E0304600F084
:4030C000C1F81055000A1119A41C4870A4B2AC42F4D3D80705D0D0182038D15CC47FD454C17770BD30B50A4C002100195B1E07E0541864782502545C2C430480891C89B243
:403100009942F5DB994201D1515C018030BD000000102E4010B5FF2000F0BCF90F49FF2048700E481021801D41800121417001700A490020C91C4870FFF710FF04000AD1C9
:4031400000F008F907210648FEF770FD044807211830FEF76BFD204610BD0000E00C0020CC112E4070B5002405465B1E0AE0284600F068F8010A161971702D1D1055A41CA4
:40318000ADB2A4B29C42F2DB9C4203D1284600F059F8105570BD000070B500210A4D5B1E0AE0541864782602545C344346193480001D891C80B289B29942F2DB994202D18D
:4031C000515C4019018070BD00102E40F0B50599091FCFB200217E1E0BE0541864782502545C2C43164D45192C80001D891C80B289B2B142F1DBFC0712D01C78515C2402D4
:403200000F4A0C4381180C809C785D78001D210280B2294384182180001D80B2D9780CE059781A7809021143054A84182180001DD9789B78090280B2194380180180F0BD03
:4032400000102E40014940180088704700102E4010B50B490020487000F07CF8002000F03FF9002000F02CF907210648FEF7DEFC044807211830FEF7D9FC002010BD0000E7
:40328000E30C0020CC112E4010B50B46062812D006DC01280CD0032801D1FFF7D9FF10BD0A28FCD00B28FAD105480078107010BDFFF730FF10BD1146184600F02DF910BD77
:4032C000E60C0020F8B5204DAC6A0127A0071F4E002816DA307806280ED1286A384328621B480069F903084381B219481030FEF79FFC042000F0CEF8134802212830FEF7D0
:4033000095FCE00711D0062000F0C4F80F49FF20C91E48707078002802D1686B38436863094801212830FEF781FCE0050BD53078042802D1052000F0ADF80348FF21013150
:403340002830FEF773FCF8BD40F02E40E30C002000002E4010B503212348FEF769FC0120FEF702FD20483038406A204C80076178800F890001431C480C38FEF759FC607892
:40338000002808D0401E022181401820FEF7E4FEC000083800E0B82081B21548FEF748FC1348032109021438FEF742FC10481149B830FEF73DFC612189010F48FEF738FCDE
:4033C0000D480321001FFEF733FC0C490C48FEF72FFC0B480B496038FEF72AFC084801218838FEF725FC10BD70F02E40E60C0020D8102E4090890000041E2E40FF0F0000EC
:4034000058122E40209000000849087806280BD148780749002803D1486B400840004863C86A01221043C86270470000E30C002040F02E400148007870470000E30C00207A
:4034400000B50300FFF7C8F8080D050D0B070507090D012000BD032000BD042000BD022000BDFF2000BD0000074A9168D26889B2064B92B2994204D105498A4201D1012117
:4034800000E000210170704780002E4033D000003FE3000010B50446FEF76EFC072C01D9FF2C01D102480470FEF762FC10BD0000E30C00200149487070470000E00C0020A6
:4034C00010B5064A012805D01921C9021046FEF7AFFB10BD1D21C902F8E7000090002E4010B50A4A141D012808D009491046FEF79FFB08492046FEF79BFB10BD04491046D8
:40350000891CFEF795FB0349491DF3E788002E4031D000003AE3000070B50C460546FEF743FCC0B202280E49287804D0FF2810D04C280CD810E0FF2809D10A4AD068000484
:40354000800F032801D0087807E09069000A553803E00878207070BD4F382070087070BDE20C002000002E40F0B50122002830D000292ED00424420600D00524792342060D
:403580005B06D21800D0641C034600221EE00C2516466E43104D00277519AF720E4F002ABB51696007D0661EB24209D10B4E86197606760E05E05E06760E8027BE1B00E0EC
:4035C00080269B198919521C2E81D2B2A242DED300221046F0BD00003413002079020000074900200C2242435218927A012A05D0401CC0B20628F5D3002070470120704786
:4036000034130020F8B50F000446164609D0184D18496868A04202D94018A04201D38E4201D90120F8BD39462046FEF7C7FD00281BD0324639462046FEF7CFFDF0B2002175
:403640000C224A43521913895668F718A74208D90127A41B1B1B9772834206DAC01A1469C0B2491CC9B20629EAD30020F8BD0000341300207902000010B500F05DF8074881
:40368000054AC16806480C46FEF7A7FD04492046FFF76AFF10BD000079020000EC0C0020B8100020002070470020054A002902D0012902D002E0506000E090600020704789
:4036C000EC0C002070B5084C154608460549A26889182A46FEF781FDA0684019A06028B270BD0000B8100020EC0C00203EB50A226946FFF7E7FF044606480A2200686946C7
:40370000FEF75CFD002802D00020C0433EBD20463EBD0000EC0C0020002802D0044A914201D2FF20704703490A61C8600020704779020000EC0C00200248002141608160B0
:4037400070470000EC0C002070B5074C15460548626880182A46FFF755FF60684019606028B270BDB8100020EC0C002010B503490A220968FFF7E8FF10BD0000EC0C0020E6
:4037800010B50F4A002313600E4A13600E4B18600E4801600E49012008600E490860000290600E490C4808600D4914300860FF381538506000F0BCF800F0CAF9002010BDE4
:4037C000180D0020000D00202C0D0020300D00201C0D00200C0D00207C140020100D0020240D0020014610B50020002910D0094B1A689C685118A14209D2586819608018DA
:403800008A0704D08A07920F891A091D196010BD002010BD000D0020F8B50024164E671E321F3D463168136806E01422624310328A58521C1BD0641C9C42F6D36A1C14D057
:403840002C461422544322460C3288500C214843FFF7C8FF3168002808510AD031680020103408517068401C70602846F8BD2546E4E73846F8BD0000100D0020F3B5002631
:40388000F64381B000281BDB1E490968884217D80299002914D01B4F142204463F1D54432546396810354859401C09D0FEF764FA38682F1F4159C359994203DBFEF758FA4C
:4038C0003046FEBD214608310091465801590C20704308180C220299FEF77FFC0948761C001D0068C159B14200D100260549009A091D865008684159491C4151FEF738FABE
:403900000020FEBD0C0D0020002803DB07490968884202D90020C043704704491422091D0968504310300858704700000C0D0020F0B500200D4A451E0346171F50600FE053
:4039400014260146714314680E1DA3510C461668083433511668083435511468401C635039688842ECD30020F0BD0000100D0020F3B50026F64381B0002841DB234909688F
:4039800088423DD8029900293AD0204F142204463F1D54432546396810354859401C2FD0FEF7EAF93868415900292BD0211D009146580C21005971430F46C1190C22029857
:4039C000FEF70BFC11480021001D0068761C00590C34C0190160416081600C48001D00680159B14200D100260849009A091D865008684159491E4151FEF7BAF90020FEBD5B
:403A00003046FEBDFEF7B4F9FAE700000C0D0020FEB504460D4600201E49089E0860471E009001900290002C11D0486885420ED2002A0CD0002E0AD0642E08D808460C302E
:403A400001681C2068430C18207A002801D03846FEBD0120226020721846FFF7DDFE6060401C13D06681A6810A4827610C3067610179A94200D205710021684601810A4669
:403A80002846029B00F040F82846FEBD00202072DDE70000180D002038B50124009400F039F838BDFEB50027164EFF433D4600240EE01C20316860430818017A002906D00C
:403AC0004068FFF721FF002801D0254603E0641C3079A042EDDA681C12D01C2130684D434419FEF749F969466068FFF741FF0546FEF73EF9002DD9D1216868468847D5E7D3
:403B0000FEBD0000240D002038B50024009400F001F838BD1FB500220C49541E0A60002811DB496888420ED808491C220C31096850430818406801A9FFF7A0FE401C02D056
:403B4000002004B010BD2046FBE70000180D0020F0B50021114A4D1E174611710C3F0B46BD6016E008461C2460431668041D355114680646235014680836A3551468361DEB
:403B8000A353044616680A34335318301468491C255078688142E5D30020F0BD240D002038B500210091002811DB0F49097888420DDA0D4D04010C3529680859002807D09E
:403BC000201D0818694600F06FF9002801D0002038BDFEF7D1F828680F34015D491E0155FEF7C6F8009838BD340D0020F7B582B0002502986E1E06602E48D21C0240174674
:403C00002D4A2C4610460C380178106805E02301C358002B0FD0641CE4B28C42F7D3711C28D03401211D40180191039900F02AF900281FD101E02646F1E71F480168204630
:403C40000C300F521C480399026820460E30115419480399026820460F3011540398784300F0A0F8144900280968085102D00024009011E001251AE00F4801680198081886
:403C8000009900F02CF9002801D0012502E00098C0190090641CE4B203988442ECD3002D05D10298066004480179491C0171284605B0F0BDFCFF0000400D0020F8B50D4646
:403CC00000216A468C461180002839DB23490978884235DA214B04010C3319680A59002A2ED020460C300B5A801C0E5C184670438018954224D3854222D2002006E0074640
:403D00005F43BF18AF4206D0401CC0B2B042F6D36046002814D0114E271DC8190C366A46294600F006F900280AD168460088012808D030682946C01900F0D1F8002803D066
:403D40000120F8BD0020F8BDFEF716F830680F34015D491C0155FEF70BF8F3E7340D0020F8B50F46002400F031F8002817D10C4900220B460C334A600EE021011D680E4685
:403D80006A501D680C36AA53B61C1D680F31AA551D68641C6A54E4B2BC42EED31A71F8BD340D002000280BD0C01C074A81085068890053884118994203D893685160181876
:403DC0007047002070470000340D0020F8B5064600200F4D009029700C0121466846FEF799FC00280CD129460C3100980860301B001F84B221466846FEF78CFC002801D0AE
:403E0000FF20F8BD6C800098A8600020F8BD0000340D0020F8B5002827DB19490978884223DA174C05010C342168485900281CD028460C30085A009028460E300E5C401C76
:403E40000E5420682F1DC01900F064F800280CD12068002445590EE0094829460C300068C01900F03CF8002801D00120F8BD00982D18641CE4B2B442EED30020F8BD0000FB
:403E8000340D002030B50D4604000BD0A800FFF789FF6060002805D000202570C0436080002030BD012030BD70B50D46040005D0002D03D00220205E002801DA012070BDB2
:403EC000FDF75AFF0221615E60688900405828606088401E6080FDF74BFF002070BD70B50D46040007D0002D05D002212078615E401E814201DB012070BDFDF73DFF60883F
:403F0000401C00B26080616880000D50FDF730FF002070BD10B5040009D0227800216068FEF764F90020C0436080002010BD012010BDF0B500231D46002802D00224045F7A
:403F40000AE00120F0BD46689F00F6598E4201D1012503E05B1CDBB29C42F4DA15700020F0BD00000148007870470000480D00207CB505460024FEF76DF9A8796946087010
:403F800000A8062229460130FEF727F90021684604F026FB0C2804D0072804D01F2804D004E0022402E0042400E0272420467CBD10B500F031F9FFF73DFAFFF741FA10BD8A
:403FC00070B504460025FEF745F9002C06D0A079012803D8214602F06DFB00E00125284670BD01460120002902D05020088000207047000001460120002905D00348542220
:404000000078504308800020704700004A0D002010B502460D49FE204870032410460CF0E3FB002810D10CF087FB00280CD105F06DF8002808D100F0DFFA002804D104F06E
:4040400053FD002800D10024204610BD480D002070B50025044600280ED0A07901280BD8FEF7F8F8A0790028204602D002F0B0FE03E002F085FE00E00125284670BD000075
:40408000014610B50120002904D006220248FEF7A4F8002010BD00004C0D002001460120002903D00878024908700020704700004A0D002038B504460120002C20D061782B
:4040C00001291DD800290BD0FF25E535FEF7C2F80C4828180088C0B22070072803D00EE0FF25CD35F2E70020694608706846FFF7BBF969460878012801D108202070002002
:4041000038BD000000102E40F8B504460120002C26D06178012902D92278092A20D8002905D0FF25E5352078092803D004E0FF25CD35F8E708202070FEF78CF82078114F45
:40414000114E08280DD00020FFF7CAF970780128207810D00D4969180880FE2070700020F8BD0120FFF7BCF90720B8810549203188800120F2E7B881024821782030818005
:40418000EBE70000C0112E40480D002000102E4070B50E46050001D0002400E00C4C002C11D0E28A500609D5D107C90F022002F0A3FEE08A40218843E08204E0D107C90FB2
:4041C000012002F099FE3146284602F081FB70BD14150020F8B50546002004460D4E009013E022466946284600F01EFF0098002801D00CF0DBFAA878214602F0CBF9A878BB
:40420000214602F0B9F9641CE4B2308AA042E8D8F8BD0000CC15002038B51E4CFFF70AF9042813D0052811D0062812D003282AD007280AD100206946087002460120FFF7F9
:4042400023F8FFF7F7F80128FBD138BD00F048FB38BD02F0EDF900F043FB02F04DFA8007800F0228F4D10C4841880029F0D05B21095D0029ECD101210170A07D0140022007
:4042800002F03AFE38BD02F0D7F90120FFF702F938BD000014150020580D0020F8B50646002402F097FE0546304602F0ADFE03460A480021068A0DE001228A40104617466D
:4042C00028401F40002803D0002F01D1224394B2491CC9B28E42EFD82046F8BDCC1500201CB50020694648706846FFF7E3FE01AA69460A20FEF7C8FF6946042008561CBD96
:4043000010B50C4601F062FA002809D00179002906D0C1788078224602F060FB002010BD022010BD0148007870470000EC1400204030C07E002800D00120704700B500F022
:4043400001F800BD8C2148430749084A40186030417F491CC9B24177D289914201D300214177C8B270470000F4140020CC15002013B501F02BFA04000BD001F0C8FD00289D
:4043800007D0214601AA0A310620FEF77DFF00201CBD02201CBD000010B50C4601F016FA00280AD001F0B3FD002806D0224604490A20FEF769FF002010BD022010BD00007D
:4043C000D5140020F3B581B0074601460026029802F0F8FD0446002F01D0002500E0154D002D21D0284601F027FA032C04D13946029802F043FE06463846029902F0BCF8F6
:40440000032C06D0002C10D00121384601F01AFB03E03146384603F02DF8284601F0A0FF0221284601F0B6FFFEBD3846029902F0A3F8FEBD1415002010B5044603F064FCD9
:40444000002801D00C2010BD2078611C02F0C8FBFF2801D01F2010BD02F00EFCFF280AD02178621C02F016F8044821780068026B601C904710BD072010BD0000700D0020FD
:4044800010B503F041FC002801D00C2010BD02F089FB03480068C06A8047002010BD0000700D002070B50D46044610210CF0BEF81021601806460CF0B9F833461022194620
:4044C000204603F04FFC102130460CF0AFF802202870204604F060FA70BD0000F8B504464078217802028006870FE0781143A67809050002090D0643084601F067F90021D2
:404500000546F2B2002812D0002C10D0022F0ED0032F0CD0002A0AD00279092A07D0002A05D0134A5A23527E1B5C9A4207D82889002104F066F920460CF038F9FF210029F4
:4045400014D10C48224600682946436930469847C0B2FF280AD128464030817EF2B2491C8176FF232146284600F0DDF8F8BD0000AC140020880D00200020704710B5044685
:4045800003F0C2FB002801D00C2010BD2078611C02F026FBFF2808D002F05EFA044821780068426B601C904710BD1F2010BD0000700D002010B504F097FA00F057F900207B
:4045C00010BD10B5044600786178E2780843A17811430843217908436179084305D003F085FB002803D00C2010BD122010BD204602F0EEFB002010BD10B5FDF7D5FB02F043
:404600000BFD044803F0ECFB02F030FA012000F003F810BDBC140020F1B586B003A8009005A8019025489F22817A114081726846FDF72AFE00283FD169460989C90705D0BD
:404640001F4806990068C2686846904769460989890706D500282FD11A480068816A06988847002828D1184E0025757075737571F575357675767575B570F570B5713746B1
:40468000F5730120BC3738731F20F880FF2130467972A0300175457500F056FA00242046069901F0DFFB002803D1641C2406240EF5D0FD72BD72B57307B0F0BDAC140020C0
:4046C000880D0020700D0020F414002070B505460E46084602F07EFC0446304602F094FC0121A9400A46224001400A4301D0012070BD002070BD10B50446084602F084FCFA
:404700000121A140014201D0012010BD002010BD10B5FEF78FFE032804D101F08DFF0120FEF7B8FE10BDFEB51C4616460F46054601F016FEA878FFF701FE024601903346AD
:4047400039460094284600F00DF8002808D1A8780199FFF71DFDFF2C02D138460CF026F8FEBD0000FFB585B005460E980C46FF2810D02B49C00009680A5840180179C07962
:404780005278814201D9012601E09006860F6846038108E06078A1788006860FE0780002014368460181284601F0BCFB070007D021462846079A00F0CBFB384609B0F0BD67
:4047C000304600F079FC04AE0346039002AA29460096204600F005FB3C20405D002818D0284601F09FFB012813D0684600890096C0B20190A878231DFF22079902F01CF844
:4048000068460089039BC2B2A878079902F05CFBD3E7684600890021C0B20091E9E70000840D0020F8B5104F002500242846FFF735FD060012D00EE03046E040C007C00FA3
:4048400007D02146284601F08FFE21462846FFF7B9FD641CE4B2388AA042EDD86D1C2D062D0EE2D0F8BD0000CC15002010B502F0FDF80020FFF7D0FE0CF02EF8002010BD10
:40488000F8B5002400F094F80123012800D10124104F00203E4620360425082203E0002801D0002100E031460979002907D001290BD002290BD0114681402143CCB2401C85
:4048C0000006000EEBD07C70F8BD1C43F7E72C43F5E70000F414002010B5FFF7D1FF10BD10B5FCF7EAFD0446FEF7A4FD012809D0FEF7A0FD022805D0FDF7A6FA2046FCF741
:40490000E0FDEEE72046FCF7DCFD10BD10B50B4681791943817103D08078114602F0A2FA10BD10B582798A43827102D1807802F0ADFA10BD30B50C4C0220A28A0B4B997848
:40494000002901D0022906D11D785B78EB18282B01D9032002E0032900D101205105490DC0020143A18230BDC0112E40530D002000B500F023F8002807D0012805D0032817
:4049800001D0042801D0002000BD012000BD014600B50020C90701D000F00AF800BD014600B50020C90701D000F002F800BD000001480088000A704720102E400448008B97
:4049C000410501D5042070474007800F7047000000102E4038B50446000610D5FFF7EEFF01280CD1684601F02DFE6846007800F0B3FA012001F01CFD0220FFF76DFF034823
:404A0000006801692046884738BD0000700D002010B5034A0178117002F046F9002010BD530D002070B50446FFF7C2FF002801D00C2070BDA27B01211F48002A827801D020
:404A40000A4301E05208520082706279012A14D0C17849084900C170184D2868016820468847207901280CD06188208802F07CFF2080207904280FD015E0C2780A43C2705B
:404A8000EAE72868C168E01D8847E01D02F08CF90B48808C208006E02868C168E01D8847E01D02F081F9074920798870204602F009F9002070BD0000F4140020700D00200C
:404AC000AC140020530D002008B50178FFF770FF814201D10C2008BD002914D0072069460870FFF745FF012807D10121684600F08BF8012801D0092008BDFFF71BFF02F072
:404B000015F9012011E0FFF733FF012806D1684601F098FD6846007800F052FA02F0FCF8FFF746FF0028FBD10220FFF7D5FE002008BD000010B5034A0178517002F072F909
:404B4000002010BD530D002038B568460BF0C4FD002801D01F2038BD01210098C90201804180002505714571857107214173857302F0A8F8009C202200212046FDF736FB46
:404B800025702A460021601CFDF730FB204602F08BF8204602F046F900980BF007FE042200210248FDF722FB002038BD530D00200346084800B5834209D8184600F006FEAD
:404BC000002804D00089984201D1012000BD002000BD0000FF0E0000074A9179491C8906890E917138220A4092014907090E11430843024908407047F4140020FF0E000018
:404C0000C006C00E70470000F8B507460E4600240D4803E0002C01D0002500E005462979002905D0641C2406240EF3D00020F8BD0021204601F016F92E712046FFF7CCFFD1
:404C400028813C700120F8BD1415002010B503F0BDF80222002100F003F801F0B3FE10BD10B5094B40074907000F090F185A595A40185043C0086421FDF77EF9002800D11C
:404C8000012080B210BD00001C310100F7B53D20405C88B015460C46002802D02878042802D200200BB0F0BD6946087200262046FFF73EFB012800D00126204603A938305C
:404CC0000191009023460327A17E34333246206A03F0A0F802A8089900900B46019120463A4603A9243003F01DF802466846007A2870204601F0A2F81046D3E7FFB587B04C
:404D00000C4605461078694608723D20005D1746002826D000262046FFF70AFB012800D00126204603A93830019100902346A17E34333246206A03F06DF802A80090291DE4
:404D4000019120462B1D03A924300A9A02F0EAFF02006846007A388002D1204601F06EF810460BB0F0BDF0B505463C20405C89B016460C4600280CD0307869460873002877
:404D800006D000272046FFF7D3FA012803D003E01F2009B0F0BD012703200890204604A93830019100902346E17E34333A46E06903F030F86846007B03A92818029000917E
:404DC00020462B46019504A92430089A02F0DEFF02466846007B3070204601F039F81046D7E7FFB505463C20405C89B016460C46002810D0084601F095F801280BD03088B9
:404E000069468883002809D000272046FFF790FA012805D005E000200DB0F0BD0220FBE70127204603A93830019100902346E17E34333A46E06902F0EDFF291D2B1D07A862
:404E4000129A6D4607C5204603A924300C9A02F09DFF02466846808B3080204600F0F8FF1046D9E770B50D460446FFF761FA01280AD0E87AA97A00020143A07801F09EFCD5
:404E8000012808D0002070BD00222421204602F0BDFC242070BD28214C200155204600F0A3FB282070BD0000002801D0002000E003484030C07F012800D000207047000084
:404EC000141500200146002049070ED50021084B03E0002901D0002200E01A461279022A04D0491C0906090EF3D0704701207047141500200146002049070ED50021084B5D
:404F000003E0002901D0002200E01A461279022A04D0491C0906090EF3D07047012070471415002010B5044680346068002803D00BF050FC0020606010BD4030417070472F
:404F40004030817070474030017070470171704792001018C166704770B53C2501F080F9040004D020460021433001F0DBFBFF222946204600F0D4FB002C02D0A07801F07B
:404F8000F1F870BD10B5002801D0002000E00348002802D0008903F07BFC10BD1415002010B5002801D0002000E00448002804D00179072901D100F047F810BD1415002008
:404FC00010B501F04DF9002802D0807801F0CAF810BD00207047000070B50546008A00281ED01049F122897A1140C90618D5294640314A8A098A521C4A4392B2D10800D1B0
:405000000121540801E0621A94B2A042FBD9FEF7A9FF012804D1298AA878224601F094FC70BD0000AC14002010B50023054C0B60248A944204D992001018C26E0A60C366B3
:4050400010BD0000CC15002038B5044600200090A079002814D14020015D052901D00E290ED168460BF048FB002809D12046009902F0AAFB03481021C28A2046FFF746FC98
:4050800038BD0000AC14002010B50B4604460146184602F027F8002802D020460BF090FB10BD13B5044601AA11460620FEF7ECF86846818861811CBD002800D102207047FB
:4050C00070470000F8B504462346401D543300909A1EA078911E01F0D1FA25464035A88A298A8000FCF748FF401E81B2688A884203D96982A07801F039FF2046002143301C
:4051000001F010FB27480088E88102F05FFEE989891C8AB26179FFF7A3FD01F053FC02F055FE2A8A6179FFF79BFD074601F03EFC688A002806D01C49088A03221202104375
:40514000088202E0002001F005FF1748803801886E8A002E0CD0304648431449FCF7FCFF0004000C01D0401C80B21149488002E00F4800214180288A704381B2A07801F073
:405180005FFEFF2228374932B9B21346204602F0EFFBE98AA07801F0D3FDA07801F00CFAF8BD000080102E40E0112E4071020000580D00207FB504468034616805460E4692
:4051C000183108226846FDF708F831462031082202A8FDF702F8102168460BF027FA6068102108300BF022FA60682B46083024331022694602F0B6FD7FBD10B5044608210B
:40520000FFF78FFB10212046FFF78BFB207905281FD006281DD008281AD12189002003F0AFFA072020712046FFF782F8014620464030012913D00E21017000210176204634
:4052400000F0A2FF2046FFF76DFE2046FFF7C4FE10BD20890122002103F076FAE1E70521EAE70000FFB581B01F4604460821FFF758FB10212046FFF754FB2079082803D05E
:40528000092804D0042203E00422012501E009220025204600F032FE264600204036307022712046FFF73EFE0398002D02D0012808D00BE001280AD120890022029903F02D
:4052C00043FA04E02189029803F05AFA012700203076012F04D0204600F056FF05B0F0BD02983073204602F0BDFA054605480121C28A2046FFF70AFB002DEFD109202071A9
:40530000ECE70000AC14002070B50C460546FFF70FF8012809D108212846FFF702FB0023012221462846FFF79DFF70BD10B5044600F0E4FD2046FFF7F5FD00214034217040
:4053400010BD70B505461A24FEF7F2FF012809D108212846FFF7E5FA0023012221462846FFF780FF70BD0000F8B50446002000900E4668460BF0C0F9002801D00D20F8BD68
:405380008420005908212030009D00F01AFA20460421383000F015FA002E02D1204600F0E9FD2946204602F09EF90E480821C28A2046FFF7ABFA204600F057FF25464035F1
:4053C000002808D0204600F023F8002801D0092028700020F8BD08202870204600F0C0FFF7E70000AC140020014610B540310A460978082906D0092907D00A2901D100F0C7
:4054000091F810BD0B20107010BD00F001F810BD70B50446007925464035052805D0062803D008280FD00C2070BD03220621204602F0ECF90D480821C28A2046FFF766FAA6
:405440001120287010E006202873204602F00AFA0646AA8A0A20424301212046FFF756FA002E01D109202071002070BDAC14002038B504460020009068460BF03DF9002884
:4054800001D00D2038BD2046009D00F0B1F908202071204600F06EFD2946204602F056F900213D2001550F2040210855204600F057FF002038BD00B5024600F01FFD102110
:4054C0004032117000BD10B50446FEF731FF012809D04020005D112805D100231A4606212046FFF7BFFE10BD10B5FFF786FE10BD38B504460021684600910BF0FDF80028AF
:405500000CD12046009902F0A2F905480821C28A2046FFF7FBF90D204034207038BD0000AC14002038B504460021684600910BF0E3F8002801D00D2038BD2046009902F071
:405540007BF905480821C28A2046FFF7DFF90C2040342070002038BDAC14002000787047F8B50025002801D0002400E01A4C002C28D0204600F0CBFC002823D02079032818
:405580001CD005281CD026464036B18AA07801F061FCB078012815D10021204601F0BFFD274680373868002802D00BF013F93D600020B0702079072805D007E0042000E0CE
:4055C00006202071F8BD2046FFF706FD0221204600F0E0FEF8BD00001415002010B54C22115400F04CF810BD10B50446FF21FFF798F909202071A07801F052FC10BD00005E
:4056000038B5FF216A461180002801D0002400E0084C002C0DD011460620FDF735FE684601882046FFF73DFD03480068C1692046884738BD14150020880D002010B504463D
:405640008079002809D022214C200155FF212046FFF767F9204600F012F810BD10B5037902464032002B03D01173092B02D003E0002100E02221117300F001F810BDFEB58B
:4056800004460089002700902781207926464036002817D0012815D002280AD112E002AA01A9204601F00CFD002807D101980BF087F8204601F02CFD0028F0D02046FEF79D
:4056C00089FDB776254680352868002802D00BF081F82F606868002802D00BF07BF86F60317B002919D0009800F064F8A078002100F076FF2046FFF7A9FAA07801F048F8BB
:40570000A07800F02FFDFF212046FFF70AF90B20FFF7E2F800F068FCFEBD1F213173E2E7F8B517460E46054602F04CFB04003CD020460C3000F0E6FF20460622002118309F
:40574000FCF754FD2046062200211230FCF74EFD1648224600683946436A28469847074626702846FEF7E4FD012148406070002D10D02889608028464030C1782171002EF9
:405780000FD169796171018AE180418A2181808A608106E00648008BC005C00F2071002060803946204602F06EFFF8BD700D002000102E400A4610B50146002003F080F832
:4057C00010BD10B50AF00EFD10BD000000B50146FFF716FA002801D0002000E00348002802D002898A4200D0002000BD1415002038B5044680346068002806D168460AF05E
:405800008BFF002801D100986060606838BD000010B5014600F086FB0128887802D0FEF791FD10BD8C214843024940186030007F10BD0000F414002070B5054604464035F9
:40584000A87F012811D1A1788C20084A484380186030067F3046FEF739FF002805D10220A877A078314601F03DF870BDF414002010B50C4CA07A002813D0FEF7D3FF0A4860
:40588000027F417F408B00F0B7FB012809D10020A07200F0EDFE05498989090B01D000F03BFA10BDB0150020F4140020A0102E4070477047490510B5490F0B00FCF78CFE67
:4058C000060704080C0C0F073E21FFF787FE10BD0821FFF7C3FE10BDFFF7D1FE10BDFFF7ADFE10BDF8B507460025002D01D0002600E0204E00F08AFE304640304489002130
:40590000418100F08DFE304600F001FB01282BD1A00702D52846FFF723FEE00602D52846FFF76EFEA00601D5FEF77CFF600601D500F014FB200602D5284600F01DF8600715
:4059400002D5284600F02CFA380402D52846FFF727FB780402D52846FFF714FBE00703D021463046FFF7A6FF6D1C2D062D0EBCD0F8BD000014150020F8B5002801D00024F0
:4059800000E0284C002C4BD025464035A878012846D1FF278820493700593E46002805D02149897A890601D5878AC68A2046FEF7BFFC012834D002F009FA2A8A6179FFF7F5
:4059C0004FF9009000F0F2FF00983346283081B23A46204601F0CCFFE98AA07801F0B0F912480188688A124E002810D048431149FCF7B2FB0004000C01D0401C80B270806A
:405A0000A07DC107C90F002001F076FA01E000207080288A698A484381B2A07801F010FAF8BD000014150020AC14002060112E40580D002071020000014909680968084791
:405A4000880D002070B50D460026194A0146002801D0002401E014462034002C26D0204600F060FA01280AD18C20484380186030007FFEF72BFE002801D101F073FE0D48FA
:405A8000006881692046884700280CD020464030817EA94202D3491B817600E086762089294602F0AEFE204600F05AFC70BD0000F4140020880D002070B503460088FFF737
:405AC00085FE040013D000F022FA00280FD02079092819D02546997840352973204601F0C1FE0646A878012803D0AA8A02E0022070BDEA880A20424301212046FEF706FF63
:405B0000002E01D109202071002070BD0EB5002217216B460292198100905A810120029B00990AF0F7FE0EBDF8B518480024807A002822D1164E0025B089000B22E020466B
:405B400000F000FE1249A039401807882A462146384600F051FA012810D00E480122478305770A4944778A72002D01D0002000E02030002801D000F0F3FBF8BDB089000B9C
:405B8000641CE4B20028DAD1F8BD0000B0150020A0102E40F414002010B50088FFF716FE002809D0014640310C460978082905D00B2903D00C2010BD022010BDFFF728FC2A
:405BC000002801D009202070002010BD70B503460088FFF7FBFD040008D0254640352878082805D00B2803D00C2070BD022070BD8420005910220830991CFCF7EEFA2046B6
:405C0000FFF7D8FA2878082804D02046FFF78AFC002801D00A202870204600F0A1FB002070BD000010B50C46002121700088FFF7CDFD03000BD000F06AF9002807D009488A
:405C4000F121807A0840C00603D4112010BD022010BD022020701A8A1889002102F04CFE002010BDAC140020F8B50F46002100910088FFF7ABFD040012D000F048F900280C
:405C80000ED0E079410641D4617E02264A07002A08DB8907402500291ADA2843E07135E00220F8BD02F08EF80021017021894180A1898180217E4170E189C1803E7005469E
:405CC0000178134802F0F2FA284602F0B9FD1DE0204600F02DF9012806D068460AF00CFD002803D00720F8BD2A20F8BDE07900992843E071204601F0DFFD607E0421304386
:405D000060760448C28A2046FEF700FE0020F8BD1D040000AC1400203EB500220F236C460292238100910190628169460EC900200AF0F0FD3EBD0000F8B50F46054600F0CB
:405D40008FFA040025D003202071254600264035EE76E6702046FFF7B5F900F0DDFF0920FEF7BAFDA07800F001FD0121204600F011FB2E706E70AE703A4600212046FFF761
:405D8000CFFC0649887B401C8873A078FFF754FEF8BD284601F084F8F8BD0000F414002010B5002801D0002000E0094800280DD0014640310A464978022901D100215170E6
:405DC000807DC107C90F002001F096F810BD00001415002070B503460D460088FFF7F6FC04000BD000F093F8002807D01248F121807A0840C00603D4112070BD022070BDCF
:405E000020464030418A008A491C41430804C10C5888884201D2122070BD20822079072802D12046FFF7D8F8022028702089002102F08AFD002070BDAC140020016A491C36
:405E4000016204D1817E491C4906490E81767047C169491CC16104D1C17E491C4906490EC1767047F0B5074687B003A8009005A800260D460190002F01D0002400E01B4CEE
:405E8000002C05D06846FCF7FFF9002803D00BE0022007B0F0BD68460089C00704D18C2200212046FCF7A2F9114829460068826820469047050016D1A7706676274626710C
:405EC00040373E70204600F019F8204601F01CF9084820820848BE77807AF121084000D001202075E682E8B2D3E7000014150020880D0020B80B0000AC1400200021016278
:405F00008176C161C17620300177417770470079002805D0012803D0022801D001207047002070474030807F002800D00120704740300078002807D0012805D0052803D09A
:405F40000E2801D0012070470020704710B5807801F05AF8002800D0012010BD10B500F087FB03498989090B01D0FFF7D5FE10BDA0102E4070B5054604464035A87F0028D9
:405F800025D1FF206075A0788C21154A484380186030417F8C23491CC9B24177A0785843104B8018DB896030994201D300214177A0788C21484380186030467F0677A17824
:405FC0003046FEF783FB002802D00120A87770BD0220A877A078314600F084FC70BD0000F4140020CC1500200020401C0006000EFBD0002070470000F0B515468207920F5F
:4060000085B0000A02926A469080002D01D0002400E0524C002C28D0084600F093FB07466846808800280BD00298012843D0022841D003280BD03D20005D012870D087E096
:406040004748381801882046FFF72BF880E00020029002A80AF030FB002807D03D20005D012878D12046FFF7E9FE74E06846029E8388324600213846FDF718F83848381852
:4060800001882046FFF70DF8284600F0A1FA01AA21463046FEF7FAFD002806D030460AF07BFB3D204C21085528E0F5773146204601F090F94FE000200090208903906846EA
:4060C0000AF0EAFA002802D0002005B0F0BD6846009E8388321D00213846FCF7E7FF2048381801882046FEF7DCFF284600F070FA25464035287E00280CD103E02046FFF71F
:4061000073FA28E001AA21463046029BFEF7F6FD002806D030460AF035FB3D202873EDE713E00298FEF7CCFF01460398307003980901000A0843707068468088B070000AEA
:40614000F0703046FFF7E2FC05E02046FFF776FE284600F03DFA0120B7E700001415002000102E4010B5074A917B002901D0491E91730021FFF776FE002801D0002010BDAD
:40618000012010BDF4140020F8B5074606464037B87F00282DD0B0788C2100904843234945186035287F0099FEF7A5FA01281ED0287F401CC4B21E48C089A04200D8002471
:4061C0000020B877FF276F772F77A87702460146009800F0F3FC717DFF2903D0304600F054FF777501F0BEFA0025114F19E00320B877F8BD00200090224669463046FEF78B
:4062000013FF0099002904D0FF231A463046FEF78AFA641CF889E4B2A04200D800246D1CEDB2F889A842E5D8F8BD0000F4140020CC15002010B502460021084B03E0002915
:4062400001D0002000E018460479944204D0491C0906090EF3D0002010BD00001415002000B50120FFF7E6FF00BD10B5044601F0A9FD2189018080346168416061682831C5
:40628000816002F097FA10BDF7B50646087982B00C46092807D0A078F0770846FFF742FE012806D010E030460AF08AFA022005B0F0BDA1788C20294A484380186030007FD4
:4062C000FEF704FA012810D0A078FEF7EDFD01280BD037780121304601F0F0F925462035062F38D00B2F0FD107E06846027C21463046FEF7C9FE0D20D9E72046FEF718F86B
:40630000012801D1002028772046FFF781FA054604AA21463046FEF726FD01205F2108556946097C002001910090A07833463A46294600F081FA69460A7CA078032329469D
:4063400000F0C2FDA0782946FDF722FF30460AF037FA0020ABE70120D5E70000F414002010B502464032937F0021002B03D1927E002A00D00121064A927A002A00D0002126
:406380000279092A00D10121807800F0D5FD10BDB015002070B50C460546FDF7C9FF00280BD1012C06D92879092806D02846FFF7CDFD0446002C02D004E0012402E0A87D14
:4063C000C007FAD1A87DC107C90F204600F094FD70BD0000012807D0082804D104480282034808300180704701488038FAE70000A0102E40014908817047000000102E409A
:4064000010B50446FF20F130012C01D1FF20D530002200F0C3FD044A108A044980B2A0430880108210BD000000102E405C0D0020034B198A034A89B28143118019827047C0
:4064400000102E405C0D002010B50446012802D0082C07D102E0FF20D53001E0FF20F13000F094FD0348018A034A89B221431180018210BD00102E405C0D0020034B198ABC
:40648000034A89B2014311801982704700102E405C0D0020F8B505460120A84086B214460F46012231467C2000F078FD3A463146782000F073FD6078267800020643E0789B
:4064C000A2780002024360792379000203430C2045430D2080010549281844182680001D44182280001D40180380F8BD00102E40CB065B0E0343480901021943D0010843FA
:406500000121C902084301490881704780142E404278037812021343084A1382C37880781B021843908248780B78000203431383C8788978000201439183704700142E405F
:40654000024A1080000C90801181704700142E40044A002180180288491C89B21029FAD37047000000102E40024A10820148803081817047A0102E4010B5054A108208464A
:4065800000F030FD024A0021A03A8018018010BDA0102E4010B50B46044600F005F819462046FFF7E1FF10BD024A10820148803001817047A0102E4010B504490882FF20D5
:4065C000002220211D3000F0E9FC10BDA0102E40000202494D3008807047000000102E4010B5084B074C0202A03B0029208202D075321A8010BD044900200880888076320A
:40660000F7E70000A0102E40201A2E4000B5034908884880FFF70CFF00BD00005C0D002000B502484088FFF729FF00BD5C0D002010B5FCF7E9FE10BD014952200880704784
:4066400000102E4000210170704700000748808806492039098B884201D8081A03E00022D243101A401880B27047000020112E400148008AC0B27047A0102E4070B5084C44
:40668000049D2082074804890548603006880E8001891180808818806007400F287070BDA0102E40E0112E400148008970470000C0102E4000280FD00D4A108B0870000ACD
:4066C0004870908B8870000AC8700948203000880871000A48717047064A10880870000A487090888870000AC8701089F0E7000040102E40C0112E400148008A7047000006
:40670000001A2E40064B1A8999891B8A0270120A42708170090AC1700371190A4171704760102E40012904D00549098BC90B017070470349403109898907C90FF7E7000052
:4067400000102E400148408970470000CC150020044A10820448028980894843101880B270470000A0102E40CC1500208C21074B414300B5C918FF2260314A770A77002227
:406780008A77114600F01AFA00BD0000F41400208C225043074A10B58018FF21603041770177002181770448418EFF201D3000F0EDFB10BDF4140020AC14002000B5044A79
:4067C0001082034880308088022200F003F800BDA0102E4010B50023884201D8081A03E00024E443201A4018044980B2884201D8824200D90123184610BD0000FF7F000021
:4068000070B55478157824022543D47888232602947834435679127936023243002900D09823044908820348A038181805808480028170BDA0102E40FFB581B014460D46DC
:4068400007460A9E0B9BFFF783FF002E0AD0009333460021049AFCF7B9FC05484019C45505B0F0BD0021049AFCF796FCF5E70000600D002070B502460448054D808808247D
:406880002C800B460021FCF787FC70BDCC150020A0142E4010B5212402466401044953200880102300212046FCF776FC10BD000000102E40417802780902044B0A431A8314
:4068C000C1788078090208439883704760142E40034A1082802001430148803001817047A0102E40054A1082044A6032908B0009000108439115084390837047A0102E4040
:4069000030B500210F4B0A46012809D0032802D005280AD107E04021198102210A2204E004210C2201E004210D221882054C20342088C0B205460D42FAD0228000211982E8
:4069400030BD000080142E4010B5044607480482074801808280032189030820FFF774FD200202497530A039088010BDA0102E40201A2E40054A1082044A603211830002D6
:4069800002494B30A039088070470000A0102E40054A491E1082044A60321183000202494C30A03908807047A0102E400349884200D908460249088070470000FF0F00004B
:4069C00060112E400349884200D908460249888070470000FF0F000060112E408823002900D09823084908820748A038191808881070000A507088889070000AD07008892D
:406A00001071000A50717047A0102E4010B51446024606480B46C0880021FCF7A3FB012C02D103495420088010BD0000CC15002000102E40064A11880170090A417091886A
:406A40008170090AC1700349542008807047000080142E4000102E400121814010B589B200227C2000F09AFA10BD0000FEB5FF210120FFF7C5FCFF210820FFF7C1FC30207A
:406A8000FFF7D6FC3F48802101803F483F4D00784007400F02286FD001286BD100202880002211460320FCF7EFFB394E3949B08D8882384F002420373248A0300482308F54
:406AC00038822046FFF764FE641C2406240EF3D0B08F38832E48103000F052F9716930690191009069464879C021084369464871684600F06DF900F055F82548214C403070
:406B00004188A03421838188A1831E49C088C0318880708E38802048002606823920FFF7ADFC184F532038801C490720088354203880E020FFF70CFDE820FFF709FDF02093
:406B4000FFF706FD0020FEF781F813488682282101838015A0810F48403086815B203880094800784007400F022807D0012801D10B482880FEBDFFE7032090E70848C01CEA
:406B8000F7E7000000102E40CC150020001F2E40AC140020C0112E40001A2E4080142E40E0230000044800218183018302497420603908807047000060102E40074B1882C9
:406BC000064B6033988B00090001084399158843002A01D11021484098837047A0102E40F3B50D2284B0920100924A780B78120213430393CA788B78120213434A790979B2
:406C0000FF20120211431A4A8C46918B9E460291118B01911649742260390A80154900220F7821E00121124B9140009C603BE3181D8889B21C881B88039E6E40754665405E
:406C400064462E435C4026430CD1029B194209D00199D140CB070499DB0F8B4202D1104606B0F0BD521CD2B29742DBD8F8E7000060102E40EC14002030B50949FF208C8B21
:406C8000084A00210125137805E02A468A40224204D0491CC9B28B42F7D830BD084630BD60102E40EC14002010B50446E020FFF74FFC20782246401CC3B20021E020FCF782
:406CC00011FA10BD42790021012A02D901214171090342790A430179042914D049001143827B032A01D8D2001143427B52010A43817909021143012252031143054A11833C
:406D000000889083704711460122920211430222E5E7000000102E4000B50120FFF788FB01494120088000BD00102E4000B50120FFF7A4FB01494020088000BD00102E409C
:406D4000024A10820148603081817047A0102E4010B5044C208204488180028183815143018210BDA0102E40A0132E40034B1882024820388180028070470000A0102E40F5
:406D80004178027809020A4306490A80C2788378120213438B804279007912021043088170470000C0112E404178027809020A4306490A81C2788378120213438B814279E0
:406DC00000791202104308827047000060102E40417802780902084B0A431A83C178827809020A439A8341790079090208430249203108807047000040102E40417802781C
:406E000009020A4306498A80C2788378120213430B814279007912021043888170470000001F2E4010B50446E820FFF791FB20782246401CC3B20021E820FCF753F910BDEF
:406E4000024A10820248818370470000A0102E40001A2E40024A10820148603081807047A0102E4010B5044688000521FBF784F804490C8204498880200202497230A039B9
:406E8000088010BDA0102E40001A2E4003490882000202497330A03908807047A0102E4003490882000202497030A03908807047A0102E4003490882000202497130A03945
:406EC00008807047A0102E40F8B505461C4617460E46084600F086F8054AB90021431582034AA03A80180180024880194455F8BDA0102E40650D002030B50E4C238A012538
:406F00001A46012804D0022804D000290BD00CE02A430AE0002908D12A4322825008400020821A4601E05A0852009A4200D0228230BD0000001A2E40054A1082044A6032E7
:406F4000908B4023984389010143918370470000A0102E40044A118A0223002801D0194300E0994311827047001A2E4000B5064A1082054860300181002901D0012000E01F
:406F80000020FFF7E7FF00BDA0102E40024A801802880A430280704700102E4070B5084BC5182C880023080003D104E040085B1C9BB2C607FAD08C439A4022432A8070BD14
:406FC00000102E40024A1018405C8007800F7047650D0020024908820148803080897047A0102E408000FF3041307047044B02461B8AFF208B4202D902484018805C7047E9
:40700000CC150020600D0020024908820148803000897047A0102E40174902460B680020002B08D10A605207520F012A04D0022A10D0086012207047112292018A80CA80BD
:40704000032252020A810122D2024A8140228A8105220DE0092252028A80CA80012252030A810322D2024A81012252028A810422CA810A8270470000CC1500200A4600B5F3
:4070800001461046FFF7B2FF00BD38B50C46054600216846009109F02FFB002804D1009928464C7000F0FAFB38BD10B5044680780021FFF745FE01212046FFF76BF910BD18
:4070C000436E002B0CD00B60014660318B781370826E4266CA788A700021816608467047FF20704710B50346446E6033002C04D0846E002C04D0FF2010BD41669A7001E095
:407100008166DA70002010BD0021416681667047406E002801D000207047FF20704770B50446C0790D46810610D5DF210840E07100F048FE0570218941804034218A818041
:40714000618AC180A18A018101F070FA70BD000010B50446FEF7E6FE01280AD1A1788C20054A484380186030007FFDF7AFFA012801D000F0F7FA10BDF4140020F8B50E460E
:407180000446FDF7D5F801282BD02079042801D0072825D1F079B77900020743A0783946FFF70CFB25464035012820D03A46711C204600F084FA02212046FDF7BEFEA07D3C
:4071C000C107C90F0220FFF797FE688A002807D0E87E002804D1032109020820FFF734F9F8BD01222421204600F010FBF8BD282028732046FEF7F8F9F8BD70B50D46064699
:40720000FDF730FE002852D120213046FDF789FB3446687840346073E87820220002E081A9780843E0816879010228790843218A814203D0F1791143F1712082E879010208
