:400000000040002011000000450A0000450A000080B500AF00F044FD80B500AF274B12221A6002F059F9264B181C01F0C5FE012002F062F9302001F0F1FE224B224A1A600A
:40004000224B8022D2051A60214B214A126802210A431A601F4B204A1A60204B1F4A126808218A431A60FA23DB00181C01F022FF1B4B181C02F010F81A4BE82252011A60CB
:40008000194B1A4A1A601A4B9C2252021A60164B184A1A60184B822212061A60174B802212031A60164B40221A60164B41221A60064B8022D2051A60BD4680BD3000104025
:4000C000001BB70004010B40060000800C020B4078002E407C002E406A2D00006CF02E40DC050000000301400000014040FF00800403014041FF008008010B4000010B4001
:40010000180101400401014080B582B000AF72B6454B00221A60FB1D00221A7023E0FB1D1A78131C5B009B185B00404A9B183B603B681A78597809020A43997809040A430B
:40014000DB781B061343191C3B681A795B791B0213439BB2081C191C00F026FDFB1D1A78FB1D01321A70FB1D1B78012BD7D9304BEE2212061A602F4B992212041A602E4BE9
:40018000992212041A602D4B992212041A602C4B992212041A602B4B992212041A602A4A294B1B78DBB202210B43DBB21370274A264B1B78DBB23C218B43DBB214210B43E8
:4001C000DBB21370204A204B1B78DBB216210B43DBB213701E4BD82212041A601D4B20221A601D4BC42292021A601C4B20221A601B4BC0221A601B4BB022D2031A601A4B21
:40020000802212021A60194BC1221A60184BD82212041A60174B01221A60FFF7FDFE00F0D3FCBD4602B080BD6CF02E406C390100000002400001024000500F4010500F40FC
:4002400020500F4030500F4000700F4001700F400800044000010440080104401801044000020440080204400C02044000030440080304401803044010B5064C2378002B7E
:4002800007D1054B002B02D0044800E000BF0123237010BDB8040020000000000436010008B5084B002B03D00748084900E000BF07480368002B00D108BD064B002BFBD084
:4002C0009847F9E70000000004360100BC040020C80000200000000090B587B000AF786039607B68272B00D1ACE00ED8032B00D163E005D8012B1AD0022B00D1F3E0EAE058
:40030000042B61D0262B6AD0E5E0422B00D1CFE006D8282B00D1A1E0412B00D1BDE0DAE0572B00D1C9E0FA2B00D1CFE0D3E01423FC18002000F0AEFE031C23801423FB18A2
:400340001B88002B09D01423FB181B88684A101C191C02F0F5FA00F065FB664B181C02F0EFFA0C23FB1800229A710C23FB18181C03F082FA1723FB1806221A7013E0172365
:40038000FB181B78013B0C22BA18D35C1A1C5A4B181C111C02F0D4FA1723FB181A781723FB18013A1A701723FB181B78002BE6D1524B181C02F040FB96E0514B181C02F047
:4003C0003BFB00F02FFB8FE03B681B781A1C4D4B181C111C02F0B4FA00F024FB84E04A4B1B781A1C494B181C111C02F0A9FA464B1B78042B25D1464B181C02F01DFB0120A5
:4004000001F04CFC002001F023FB012001F022FCC04601F08DFB011C3E4B1A6880231B02134001D0012300E00023CB18002BF0D101F0F8FB01F0B6FC01F056FC01F0CCFE1E
:4004400052E051E03B681B781A1C334B181C111C02F076FA012001F021FC45E02F4B181C02F0EAFA012001F0F5FB1423FC18002000F010FE031C23801423FB181B88002B4F
:400480000AD01423FB181B88194A101C191C02F057FA00F0C7FA27E026E03B685B78191C3B681B781A1C1E4B181C02F049FA1BE01C4B181C02F0C0FA16E03B685B881A1CD3
:4004C000194B181C111C02F03BFA0DE0174B181C02F0B2FA08E0164A7B68101C191C02F02FFAC04600E0C046BD4607B090BDC04680360100A4360100D4360100DC3601009F
:40050000E0360100F4360100721E0020103701004837010008022440543701007C370100A0370100C8370100E8370100203801004038010080B500AF0E4B1B78032B17D1A3
:400540000D4B1B685A1E0C4B1A600B4B1B68002B0ED1094B03221A60084B1B7801225340DAB2064B1A70054B1B78181C01F096FBBD4680BD721E0020CC000020D000002019
:4005800090B583B000AF234B1B78032B03D0214B1B78022B3BD1FC1D032003F065F9031C2370BC1D01F011FC031C2370FB1D1B78032B20D104F009FE031E042B04D004F035
:4005C00004FE031E062B13D101F0B2FA011C124B1A6880231B02134001D0012300E00023CB18002B02D101F0C1FD01E001F0A4FDFFF7A0FF06E004F0E8FD031E022B01D0A9
:4006000001F09AFDBB1D1B78181C01F0E2FBBD4603B090BD721E00200802244080B500AF62B601F053FA134B181C02F005FA012001F00EFA012001F031FB012001F00AFB78
:400640000D4B181C00F0BCFC0C4B181C00F002FB01F086F803F014F9FFF792FF084B1B78022B05D100F052F903F00AF900F070F8F0E7C04654380100D90200008506000096
:40068000721E002080B584B000AF786039600F23FB183A6892781A70264A7B68101C191C02F04EF97B68243BFF3B052B38D89A00214BD3181B689F460F23FB181B781F4A43
:4006C000101C191C02F03CF90F23FB181B78012B02D11B4B01221A800F23FB181B78002B03D1184B01221A8021E020E00F23FB181B78154A101C191C02F022F90F23FB1896
:400700001B78012B02D10E4B00221A800F23FB181B78002B03D10B4B00221A8007E006E00A4B181C02F088F9C04600E0C046BD4604B080BD78380100FC3801008C380100D5
:40074000D4040020D6040020B8380100E438010090B589B002AF614B1B685A1E5F4B1A605E4B1B68002B00D0B5E05C4B5C4A1A605C4B1B68F02293433B615A4B3A69C02125
:400780000A431A60192001F063FC564B1B68F02293433B61534B3A6970210A431A60012001F056FC01F0F6F8022001F0FDF80E23FC18002001F01CF9031C23800E23FB18EC
:4007C00000229A5E80239803111C01F07BFF031CBB60BB68444A934203DCFB1D00221A702FE0BB68414A934211DCBB68404A9A18131CDB009B1A9B009B18181CC823990003
:4008000001F060FF031CDAB2FB1D1A7019E0BB68384A934212DCBB68374A9A18131CDB009B18DB009B1A181CC82101F04BFF031CDBB21D33DAB2FB1D1A7002E0FB1D642215
:400840001A70FB1D1B78092B03D8002001F002FA02E0012001F0FEF9284B1B88012B17D11623FC18264BFA1D00921A785B781B021A4300231204120C1B0C1B041343181CA5
:4008800000210022012300F0F3FA031C238009E01623FC18FB1D00200021012200F0E6F9031C23801623FB181B88002B0BD01623FB181B88134A101C191C02F041F80F4BC8
:4008C00000221A8007E0FB1D1B781A1C0E4B181C111C02F035F8BD4607B090BDD4000020B80B000000003A40CF070000EF0A000030F8FFFFB70B000010F5FFFFD6040020AF
:40090000781E0020143901002839010090B585B002AF2E4B1B78DBB2002B53D12C4B1B685A1E2B4B1A602A4B1B68002B4AD1284B284A1A60284B1B780133DAB2264B1A707E
:40094000254B1B78142B02D9234B02221A70234B1B88012B16D1BC1D214B1F4A00921A785B781B021A4300231204120C1B0C1B041343181C01210022012300F079FA031CEA
:40098000238008E0BC1D144B01200021012200F06DF9031C2380BB1D1B88002B0AD0BB1D1B88104A101C191C01F0CAFF0B4B00221A8007E0084B1B781A1C0B4B181C111CBB
:4009C00001F0BEFFBD4603B090BDC046741E0020D8000020B80B0000DC000020D4040020781E0020143901004C39010080B586B000AFF860B9607A6000237B6109E0BB68E5
:400A00005A1CBA601B78181C01F07CF87B6901337B617A697B689A42F1DB7B68181CBD4606B080BD80B500AF002001F011F8002001F034F9002001F00DF9002001F0FEFA2F
:400A4000BD4680BD80B500AFFEE7C04680B584B000AF7860104B1A687B68D3181A1C0F4BD21A8023DB009A4209DC0B4B1B68FB60094B1A687B68D218074B1A6007E001F096
:400A800013FF031C0C221A6001235B42FB60FB68181CBD4604B080BDE0000020881E002080B586B000AF224B7B61224B3B61204B7B6135E03B691B68FB603B695B68BB6024
:400AC0003B699B683B6000237B600CE0FB681A68BB681A60BB680433BB60FB680433FB607B6804337B607A683B689A42EED13B69DB683B6000237B6008E0BB6800221A60A2
:400B0000BB680433BB607B6804337B607A683B689A42F2D13B6910333B617B69013B7B617B69002BC6D101F0C5FEFFF777FDFEE701000000283F010080B582B000AF154B20
:400B4000144A126801218A431A6000237B600FE07B68032B04D8104B7A689200D35800E00E4B0F4A796889008B507B6801337B607B682F2BECD9FFF7C7FA0A4B00221A60ED
:400B8000044B044A126801210A431A60BD4602B080BDC0460000104000000000450A000000000020C000002080B582B000AF786039607A683B68101C00211A1C01F0B8FE68
:400BC000BD4602B080BDC04680B500AF0A4B03221A600A4B03221A60094B802212061A60084B01221A60084B00221A60012000F00DF8BD4680BDC04630003040300031402D
:400C000000003A4000033A40000E3F4080B584B000AF021CFB1D1A700B4B1B68FB60FB1D1B78002B05D0FB68802212061343FB6003E0FB685B005B08FB60034BFA681A6022
:400C4000BD4604B080BDC04680033A4080B500AFBD4680BD80B582B000AF7860024B7A681A60BD4602B080BDD804002090B587B000AF041C081C111C3B60FB1D221C1A70BD
:400C8000BB1D021C1A707B1D0A1C1A701623FB1800221A80FB1D1B78012B0BD8BB1D1B78002B07D17B1D1B78012B03D13B681B78642B04D91623FB1801221A8020E0FB1D4E
:400CC0001B78134ADB00D3185A880823FB181A817B1D1B789AB20823FB189A800823FB183A681A600823FB18181C0021002200230EF094F8031E03D01623FB1801221A80FB
:400D00001623FB181B88181CBD4607B090BDC0467839010090B587B000AF78601723FB1800221A701623FB1800221A704A4B1B68002B00D188E07B689A891723FB181B787B
:400D40004649DB00CB18DB889A4270D11723FB181B78424ADB00D3185B885A1E4049131C9B009B189B00CB185A6880235B01134050D07B681A1D7B6816217C18101C00214C
:400D80001A1C40230EF04AF8031C23701623FB181B78002B42D10C23FB187A6812881A800C23FB181722BA1812789A700C23FB180022DA700C23FB1800225A607B685B68E0
:400DC000181C00F001FA031C1A1C012313409BB2002B0AD0204B1B682422FF32111C0C22BA18081C111C984708E01B4B1B68922251000C22BA18081C111C9847194B1B78F7
:400E0000012B0BD1184B1B7802221343DAB2164B1A7003E01623FB1806221A70134B1B78DBB201229343DAB2104B1A700CE01723FB181A781723FB1801321A701723FB18D8
:400E40001B78012B00D876E71623FB181B78181CBD4607B090BDC046D804002078390100083C0100681E0020901300207B1E002090B587B000AF3C1D20800C1C101C191C9C
:400E8000FB1C221C1A70BB1C021C1A707B1C0A1C1A701623FC18FB1C1878BB1C19787B1C1A78BB6AFFF7E2FE031C23801623FB181B88002B4FD12B4B1B78022B05D01623CD
:400EC000FB180422FF321A8045E0FB1C1B78264ADB00D318DB88002B19D0FB1C1B78224ADB00D318DB885A1E2049131C9B009B189B00CB1808339B685B68181C00F064F9D5
:400F0000031C1A1C012313409BB2002B05D11623FB18802252001A801DE0FB1C1B78124ADB00D3185A880823FB181A810823FB18BA6A1A607B1C1B789AB20823FB189A808F
:400F40001623FC183B1D0822BA181868111C0DF0D5F9031C23801623FB181B88181CBD4607B090BD721E002078390100083C010080B500AF094B00221A70094B00221A70E1
:400F8000084B00221A7000F013F8074B00221A70064B00221A70BD4680BDC0467B1E0020741E00207A1E002090130020681E002080B500AFFFF74AFE00F0CEFBBD4680BD4F
:400FC000B0B58EB004AF78602623FB1800221A800C23FA18274B111C1A1C1823081C111C1A1C01F09CFC244B1B78002B04D1FFF7BFFF214B01221A707B68002B2ED0262326
:40100000FB181B88002B2DD11C4B7A681A602623FC181B481B49AD231A010C23FD1806230093194B01936E23FF3302932B1C02F03DFC031C23802623FB181B88002B11D16F
:40104000124B01221A702623FC18114B181C1C2115220DF0CBFE031C238003E02623FB1801221A802623FB181B88181CBD460AB0B0BDC046703B0100DC04002094130020AB
:40108000ED1300009813002000460100721E0020083C010090B585B000AF021CFB1D1A70FB1D1B78022B04D90E23FB1801221A804BE0294B1B78042B42D1284B1B78DBB283
:4010C0001A1C042313403BD1FB1D1B78002B0BD1234B1E221A82224B5B6820221A80204B5B6830225A8010E0FB1D1B78012B0CD11B4B96221A821A4B5B68C822D2001A80F6
:40110000174B5B68FA2212015A80164BFA1D12781A700E23FC18124B181C0BF0ADFF031C23800E23FB181B88002B08D10B4B1B78DBB204221343DAB2084B1A7005E004E0A7
:401140000E23FB180422FF321A800E23FB181B88181CBD4605B090BD721E00207B1E0020340100207A1E002080B584B000AF78600A1CFB1C1A700023BB60BB68002B20D071
:401180007B689A79BB681A700F23FB1800221A7012E00F23FB181B780133BA68D3180F22BA18127879688A5C1A700F23FB181A780F23FB1801321A700F23FB181B78052BD1
:4011C000E7D9BD4604B080BD80B582B000AF78607B681B789AB27B6801331B789BB21B029BB213439BB2181CBD4602B080BDC04690B585B000AF78600F23FB1800221A7069
:401200007B689B890B22934237D17B681A1D7B680F217C18101C00211A1C40230DF0FEFD031C23700F23FB181B78002B1DD17B685B68181CFFF7C8FF031C1A1C02231340F7
:401240009BB2002B08D0104B1B68822251007A68081C111C984708E00B4B1B680622FF32111C7A68081C111C9847084B1B78DBB201229343DAB2054B1A700F23FB181B7836
:40128000181CBD4605B090BD941300207B1E002090B585B000AF78600F23FC187B68181CFFF7A6FF031C23701E4B1B78DBB21A1C012313400CD00F23FB181B78002B07D1DD
:4012C0000F23FC187B68181CFFF724FD031C2370144B1B78DBB21A1C012313401FD10F23FB181B78002B16D00823FB1812229A707B689A890823FB181A800823FB180F22FA
:40130000BA181278DA707B680822BA181868111C0CF0D8FF03E07B6818680DF04DF8BD4605B090BD7B1E002080B582B000AF7860BD4602B080BDC04680B500AF034B002228
:401340005A70024B00221A70BD4680BD781E002080B582B000AF7860BD4602B080BDC04680B500AFBD4680BD80B584B000AF78600E23FB1800221A707B689B79002B1CD1BB
:401380000F23FB1800221A7012E00F23FB181B787A68D35C002B04D00E23FB1801221A700BE00F23FB181A780F23FB1801321A700F23FB181B78052BE7D90E23FB181B780E
:4013C000181CBD4604B080BD80B582B000AF021CBB1D1A80BD4602B080BDC04680B582B000AF7860BD4602B080BDC04680B584B000AF021C3960FB1D1A70BB4B1B78DBB2AA
:4014000001221343DAB2B84B1A70FB1D1B78412B00D10EE120DC242B00D1A8E00DDC022B00D183E002DC012B38D076E1052B00D181E0212B00D183E06FE1272B00D1A0E017
:4014400003DC262B00D1A8E067E1282B00D1A0E02A2B00D190E060E14F2B00D13EE10BDC432B00D10BE100DA06E14C2B00D123E14E2B00D134E150E1572B00D132E106DCBF
:40148000502B00D148E1542B00D11AE145E1712B00D1C8E0FA2B00D118E13EE10C23FB1807221A700C23FB1800225A700C23FB18181C03F0B9FE0C23FB1807221A700C23BC
:4014C000FB1801225A700C23FB18181C03F0ACFE864B1B68181CFFF747FF031E11D0834B1B68181C02F0D0F9804B1B68181C0021FFF73AFE7D4B1B68181C0121FFF734FE39
:401500000DE07B4B181C02F0BFF9794B181C0021FFF72AFE764B181C0121FFF725FE03200BF06CFC734B04221A70F6E03B68181CFFF70EFFF1E03B681A786F4B1A70ECE0F9
:40154000694B1B78DBB21A1C202313400ED16B4B1B78102B02D1694B0522DA70684B1A78664B101C191C0BF051FDD6E0D5E03B685A78644B1A70D0E03B68181CFFF72EFF0D
:40158000CBE03B68181CFFF729FF5A4B02221A70C3E0584B04221A70BFE0564B1B78022B40D0514B1B78DBB21A1C0123134039D04D4B1B78DBB21A1C042313400BD04D4BE5
:4015C00003221A70484B1B78DBB204229343DAB2454B1A7026E0444B1B78DBB21A1C082313400BD0434B04221A703F4B1B78DBB208229343DAB23C4B1A7013E03D4B1B7810
:40160000032B0FD13B4B04221A703F4B1B78002B08D10120FFF73EFD031E03D1354B03221A707AE079E03B681B88181CFFF7CCFE73E0334A3B68111C1A1C0223081C111C96
:401640001A1C01F06CF92E4B1B781A1C131C5B009B185B006933FF331A1C2C4BD31805332B4A111C1A1C0623081C111C1A1C01F056F9FFF775FE50E0FFF75EFE4DE03B68E3
:401680005B88162B05D80E23FB183A6852881A8003E00E23FB1817221A803B680E22BA1811881A8800231204120C1B0C1B041343181C0CF013FE30E03B68181CFFF7E8FDFF
:4016C0002BE03B68181CFFF72FFE26E0114B1B7801221343DAB20F4B1A701EE0C0461CE0C0461AE0C04618E07B1E00205001002048010020721E0020741E00201C020020D6
:40170000781E0020681E00207A1E0020004601006C1E002090130020C0460D4B1B78DBB21A1C112313400FD0094B1B78DBB201229343DAB2064B1A70064B1B68FA1D11787F
:401740003A68081C111C9847BD4604B080BDC0467B1E00209413002080B500AFBD4680BD80B500AF064B1B78002B04D100F00AF8034B01221A7000F0F1F8BD4680BDC04625
:40178000DD04002080B584B000AF0F20032100F001FC584B0F20191C00F0D6FB564B01221A60564B1B68002B01DA554900E05549554B554A12680A431A60544B544A1A604D
:4017C000544B554A1A60554B00221A60544B554A1A60554B534A1A60544B544A1268802149020A431A60524B00221A60514B00221A60514B01221A60504B1B687B607B6896
:401800004F4A13407B607B688022920513437B607B68012293437B60484B7A681A600023FB6061E08023DA00DC239B0113407B60FB689B00434A944663447A681A608023DE
:40184000DB000122134009D0394B394A1268F96801208840011C89B20A431A608023DB000222134009D0334B324A1268F96801208840011C89B20A431A608023DA00802389
:401880009B00134003D080235B00BB6002E080235B01BB608023DA0080235B00134005D1294BFA6852000021D15209E0BB68002B00DA01335B1099B2234BFA685200D15202
:4018C000BB68224A5343224A94466344181C214900F0F8FE031C9BB219B21F4BFA689200D150FB680133FB60FB68002B9AD0BD4604B080BD351A000020003A4080033A40D8
:40190000700210537002005300003A4004003A40C4000A8018003A400000FF071C003A4010003A400400040014003A4000033A4028023A4038023A4018023A4030003A4066
:40194000FFFFFFDF80003A40801E002010270000E40C0000C81900007C1E002080B500AF0A4B1B68002B0EDBC046094B1B68002BFBDB064B054A1268802109060A431A60D2
:401980000A2000F089FBBD4680BDC04600003A4008023A4080B500AF024B01221A60BD4680BDC04624003A4080B584B000AF78600023FB607B680322134011D00B4B1B6810
:4019C00001221340FB60FB68002B03D17B6802221340F3D1FB68002B02D0044B01221A60FB68181CBD4604B080BDC04610023A4080B584B000AF78607B68002B02D000203D
:401A000000F01CFB7B68002B09D17B689B00084A944663441B681B041B0CFB6001E00023FB60FB689BB21BB2181CBD4604B080BD80013A4080B582B000AF044B1B687B6080
:401A4000024B7A681A60BD4602B080BD10023A4080B584B000AF021CFB1D1A700E4B1B68DAB20F23FB1840218A431A70FB1D1B789B01DBB240221340D9B20F23FB180F2278
:401A8000BA1812780A431A70034B0F22BA1812781A60BD4604B080BD0002044080B500AF00F056F8BD4680BD80B500AF064B064A1268802109060A431A6000F019F800F09B
:401AC0001BF8BD4680BDC0460000244080B500AF064B1B78002B04D1FFF7E0FF034B01221A70FFF7E1FFBD4680BDC046DE04002080B500AFBD4680BD80B500AF00F080F803
:401B0000BD4680BD80B582B000AF7860C046064B1B681F221340082BF9D0044B7A681A60BD4602B080BDC046080224404002244080B582B000AF054B1B681F2213407B60FE
:401B40007B68181CBD4602B080BDC0460802244080B500AF184B194A1A60194B00221A60184B01221A60184B184A1A60184B07221A60184B00221A60174B01221A60174B1F
:401B8000124A1A60164B00221A60164B04221A60154B00221A60154B00221A60144B00221A60144B00221A60134B00221A60134B00221A60BD4680BD000024400F000002BA
:401BC00040002440480024400003244007000080040324401003244044002440000224400402244050002440880E2440C80E2440480F2440080F2440C80F2440880F2440F9
:401C000080B500AF054B054A126805490A40902109040A431A60BD4680BDC04600010240FFFF0FFF80B582B000AF094B1B68DAB2FB1D7F218A431A70054BFA1D12781A6002
:401C4000FB1D1B78DB09DBB2181CBD4602B080BD1002044080B584B000AF021CFB1D1A700D4B1B68DAB20F23FB187F210A401A70FB1D1B78DB01D9B20F23FB180F22BA187A
:401C800012780A431A70044B0F22BA1812781A60BD4604B080BDC0460003044080B584B000AF021CFB1D1A700E4B1B68DAB20F23FB1840218A431A70FB1D1B789B01DBB21B
:401CC00040221340D9B20F23FB180F22BA1812780A431A70034B0F22BA1812781A60BD4604B080BD0003044080B500AF00F050F8054B181C00F00EF8032000F017F800F0C3
:401D00003DF8BD4680BDC0460D1D000080B500AFBD4680BD80B582B000AF7860024B7A689A64BD4602B080BD0000002090B585B000AF021CFB1D1A701623FB600B23FC18EE
:401D400000F043F8031C23700A4B0A4A12680A491140FA1D1078FA689040021C0A431A600B23FB181B78181C00F033F8BD4605B090BDC04600E400E0FFFF3FFF80B500AFF7
:401D8000024B04221A60BD4680BDC04600E100E080B500AF024B04221A60BD4680BDC04680E100E080B500AF024B04221A60BD4680BDC04680E200E00230800803D00138B8
:401DC000FDD1C046C046C0467047EFF3108072B6704780F31088704790B585B000AF78600F23FC18FFF7F1FF031C2370094B7A6807210A40D104074A1268074802400A4334
:401E00001A600F23FB181B78181CFFF7E2FFBD4605B090BD00010B40FFFFC7FF90B58BB000AF78602723FC18FFF7CFFF031C2370184B1A680C23FB181A60174B1A680C23A1
:401E4000FB185A607B68033B144AD35C1A1C0C23FB189A60124B1A680C23FB18DA601C23FB18104A1A600C23FA181C23FB185A600D4B1C22BA181A600C4B0D4A1A600A4B48
:401E80001B682723FB181B78181CFFF7A2FFBD460BB090BD08010B4000010B40383E010030001040B6EA000008001040040010401700008080B584B000AF78600023FB60F1
:401EC000154B154A126801210A431A60134B144A1A60144B134A1268802109020A431A607B68002B12D01023FB600CE0012000F0D3F800F019F8031E02D00023FB6005E044
:401F00007B68013B7B607B68002BEFD1FB68181CBD4604B080BDC04660F02E4078002E400220000010002E4080B582B000AF054B1B68012213407B607B68181CBD4602B0FE
:401F400080BDC0460C002E4080B584B000AF021C3960FB1D1A7080239B05FB60FB1D1B781F2B02D9002000F069F8FB1D1B7810339B00FA68D3181B68BB60FB1D1B781033F2
:401F80009B00FA68D3183A681A60BB68181CBD4604B080BD90B587B000AF021CFB1D1A70BB1D0A1C1A70BB1D1B78032B02D9002000F044F8FB1D1B781F2B02D9002000F0BF
:401FC0003DF8FB1D1B7803221340DB0006337B611323FC18FFF7F9FE031C2370FB1D1B789B08DBB29B00144A944663441B68FB607B6903229A40131CDA43FB681340FB603D
:40200000BB1D1A787B699A40131CFA681343FB60FB1D1B789B08DBB29B00074A94466344FA681A601323FB181B78181CFFF7D1FEBD4607B090BDC04600E400E080B582B005
:4020400000AF021CFB1D1A7001BEBD4602B080BD80B582B000AF786009E00C4B1B68181CFFF7AAFE7B680A4A944663447B607A6880231B029A42F0D8064B1B687A68534398
:40208000181CFFF799FEBD4602B080BD2C0200200080FFFF2402002080B582B000AF021CBB1D1A80BB1D1B88044A12785343181CFFF782FEBD4602B080BDC04628020020E0
:4020C00080B500AF154B154A1268920092081A60134B134A1268920092081A60114B114A1268920092081A600F4B0F4A1268920092081A600D4B0D4A1268920092081A60C9
:402100000B4B0B4A1268920092081A60094B094A1268920092081A60BD4680BD0800044008010440080204400803044008040440080504400806044090B583B000AFFC1D64
:40214000FFF743FE031C2370074B074A126804218A431A6030BFFB1D1B78181CFFF739FEBD4603B090BDC04610ED00E090B583B000AFFC1DFFF729FE031C2370114B114A46
:402180001268520052081A600F4B104A128892B21A600F4B0E4A126804210A431A600D4B1B683B600220FFF717FE30BF094B3A681A60FB1D1B78181CFFF70BFEBD4603B0C5
:4021C00090BDC04600000B400C000B4052F1FF0F10ED00E000010B4090B583B000AFFC1DFFF7F3FD031C2370FFF76AFF114B114A1268802109060A431A600F4B0F4A128844
:4022000092B21A600E4B0E4A126804210A431A600C4B0C4A1268FF218A43F1210A431A6030BFFB1D1B78181CFFF7D3FDBD4603B090BDC04600000B400C000B4050F1FF0F4E
:4022400010ED00E02C000B4080B500AF0E4B0E4A126801218A431A600B4B0B4A126802218A431A60094B094A126830218A4310210A431A60054B054A126807218A4301219C
:402280000A431A60BD4680BD00F02E4000FF2E4080B500AF0E4B0E4A126802218A431A600C4B0C4A126807218A4302210A431A60084B084A126830218A4320210A431A6088
:4022C000034B034A126801210A431A60BD4680BD00F02E4000FF2E4080B500AFFFF7B4FF044B044A1268802109060A431A60BD4680BDC04600F02E4080B584B000AF786026
:402300000C4B1B6801221340FB607B68002B02D0012B03D005E0FFF797FF06E0FFF7B8FF03E00020FFF78AFEC046FB68181CBD4604B080BD00F02E4080B582B000AF7860B1
:402340000A1CBB1C1A80BB1C1A887B681A60BD4602B080BD80B582B000AF78600A1CBB1C1A80BB1C1A887B681A60BD4602B080BD80B582B000AF304B1B78DBB21B022F4A6A
:402380001278D2B213437B602D4B1B78DBB21B022C4A1278D2B213433B603B682A4A934207D17B68072B04D1284B3B6004237B6009E03A68D4231B019A4204D17B68042B95
:4023C00001D1224B3B60224B3A681A60214B7A681A60214B1B78DBB21B02204A1278D2B213437B607A6880239B019A4202D07B68002B01D11A4B7B601A4B7A681A601A4B4B
:402400001B78DBB21B02194A1278D2B213437B607B68174A934206D07B68164A934202D07B68052B01D1144B7B60144B7A681A60BD4602B080BDC046D9F0FF0FD8F0FF0F65
:40244000DFF0FF0FDEF0FF0F580B0000580D00006C002E4074002E40DBF0FF0FDAF0FF0F0220000078002E40DDF0FF0FDCF0FF0F0F0F000005050000050F000080002E4087
:4024800080B582B000AF021CBB1D1A80BB1D1B88181CFFF701FEBD4602B080BD80B500AF00F066F8BD4680BD80B500AF00F06AF8BD4680BD80B500AF00F064F8044B181C45
:4024C00000F024F8032000F02DF8BD4680BDC0469925000080B500AF024B181C00F004F8BD4680BD9925000080B582B000AF786000F048F87B68181C00F008F8032000F00D
:4025000011F800F035F8BD4602B080BD80B582B000AF7860024B7A681A67BD4602B080BD0000002090B585B000AF021CFB1D1A700623FB600B23FC18FFF747FC031C237039
:402540000A4B0A4A1268C0218A43111CFA1D1078FA689040021C0A431A600B23FB181B78181CFFF736FCBD4605B090BD0CE400E080B500AF024B802252011A60BD4680BDC2
:4025800000E100E080B500AF024B802252011A60BD4680BD80E100E080B500AF11F01EF8BD4680BD002243088B4274D303098B425FD3030A8B4244D3030B8B4228D3030C9C
:4025C0008B420DD3FF22090212BA030C8B4202D31212090265D0030B8B4219D300E0090AC30B8B4201D3CB03C01A5241830B8B4201D38B03C01A5241430B8B4201D34B0356
:40260000C01A5241030B8B4201D30B03C01A5241C30A8B4201D3CB02C01A5241830A8B4201D38B02C01A5241430A8B4201D34B02C01A5241030A8B4201D30B02C01A524163
:40264000CDD2C3098B4201D3CB01C01A524183098B4201D38B01C01A524143098B4201D34B01C01A524103098B4201D30B01C01A5241C3088B4201D3CB00C01A52418308F4
:402680008B4201D38B00C01A524143088B4201D34B00C01A5241411A00D20146524110467047FFE701B5002000F0FCF802BDC0460029F7D003B5FFF775FF0EBC4243891A60
:4026C0001847C04603460B437FD4002243088B4274D303098B425FD3030A8B4244D3030B8B4228D3030C8B420DD3FF22090212BA030C8B4202D31212090265D0030B8B4294
:4027000019D300E0090AC30B8B4201D3CB03C01A5241830B8B4201D38B03C01A5241430B8B4201D34B03C01A5241030B8B4201D30B03C01A5241C30A8B4201D3CB02C01AFD
:402740005241830A8B4201D38B02C01A5241430A8B4201D34B02C01A5241030A8B4201D30B02C01A5241CDD2C3098B4201D3CB01C01A524183098B4201D38B01C01A524163
:4027800043098B4201D34B01C01A524103098B4201D30B01C01A5241C3088B4201D3CB00C01A524183088B4201D38B00C01A524143088B4201D34B00C01A5241411A00D2B4
:4027C00001465241104670475DE0CA0F00D04942031000D34042534000229C4603098B422DD3030A8B4212D3FC22890112BA030A8B420CD3890192118B4208D389019211BB
:402800008B4204D389013AD0921100E08909C3098B4201D3CB01C01A524183098B4201D38B01C01A524143098B4201D34B01C01A524103098B4201D30B01C01A5241C308E8
:402840008B4201D3CB00C01A524183088B4201D38B00C01A5241D9D243088B4201D34B00C01A5241411A00D20146634652415B10104601D34042002B00D54942704763465A
:402880005B1000D3404201B5002000F00BF802BD0029F8D003B5FFF715FF0EBC4243891A1847C0467047C046014B18687047C046B40400200E4B70B500251E1C0D4CE41A74
:4028C000A410A54204D0AB00F35898470135F8E711F018FB084B00251E1C084CE41AA410A54204D0AB00F35898470135F8E770BD103F0100103F0100103F0100183F010099
:4029000030B50024944208D0035D651C0C5DA34201D0181B02E02C1CF4E7002030BD002310B5934203D0CC5CC4540133F9E710BD031C8218934202D019700133FAE7704735
:402940000FB40B4B13B51C68002C05D0A369002B02D1201C00F03EFA05AB201CA168049A019300F0E7FB16BC08BC04B01847C046B404002070B5051C0E1C002804D08369AB
:40298000002B01D100F026FAAC68A3891B0702D52369002B19D1281C211C00F0AFF8002813D00120404245E03178002B1BDAA269934211DA221C281C00F048F8013042424A
:4029C0004241D0B20028ECD10136A3683278013BA360002AE8D10CE023681970236819780A2903D1E6E723681970236801332360EAE7002B17DAA269934208DB0A23226832
:402A00001370236819780A2911D1281C01E0281C0A21221C00F01AF8013042424241D0B2002806D0BDE70A23226813702368013323600A2070BD000008B5034B011C186837
:402A4000FFF798FF08BDC046B404002070B5051C0E1C141C002804D08369002B01D100F0B9F9234B9C4201D16C6808E0214B9C4201D1AC6803E0204B9C4200D1EC68A36998
:402A8000A360A3891B070AD52369002B07D023682269F6B2981A636998420FDB08E0281C211C00F02BF80028F1D0012040421DE0281C211C00F020F90028F6D1A36801309E
:402AC000013BA36023685A1C22601E706369984205D0A389301CDB0708D50A2E06D1281C211C00F009F90028DFD1301C70BDC046703E0100903E0100B03E0100354B70B5E9
:402B00001D68061C0C1C002D05D0AB69002B02D1281C00F05FF9304B9C4201D16C6808E02E4B9C4201D1AC6803E02D4B9C4200D1EC68A3899AB2110723D4D10607D4092240
:402B40000120326037321343A381404240E0530713D5616B002908D0231C4433994202D0301C00F021FA002363632422A3899343A38100236360236923600822A38913435E
:402B8000A3812369002B0BD1A023A2899B00134080229200934203D0301C211C00F0ACF90123A289134005D00023A36063695B42A36103E0910700D46369A36000202369B4
:402BC000834205D1130603D540231A43A281013870BDC046B4040020703E0100903E0100B03E0100F7B58A89051C0C1C13075ED44B68002B02DC0B6C002B1ADDE76A002F8C
:402C000017D000232E682B6080235B011A4001D0626D15E0281C216A0123B847021C431C0ED12B68002B0BD01D2B01D0162B02D12E6000205EE04021A3890B43A38159E043
:402C4000A3895B0706D56368D21A636B002B01D0236CD21A0023281C216AE76AB847A389421C06D12A68002A03D01D2A01D0162A19D10022626022692260DB0405D5431C72
:402C800002D12B68002B00D16065616B2E600029CFD0231C4433994202D0281C00F084F90020606326E040221343A38122E00F69002FBED00B680F60DB1B01930023920793
:402CC00000D14B69A360019B002BB2DD281C216A3A1C019BA66AB047002806DC40220120A38940421343A38104E0019B3F181B1A0193E8E7FEBD000038B50B69051C0C1CA5
:402D0000002B01D100201CE0002804D08369002B01D100F05FF80B4B9C4201D16C6808E0094B9C4201D1AC6803E0084B9C4200D1EC680C22A35E002BE4D0281C211CFFF7B6
:402D400051FF38BD703E0100903E0100B03E010008B5024900F0AEF808BDC046F92C0000002310B5041C03604360836081814366C281036143618361191C08225C30FFF767
:402D8000D7FD054B24626362044BA362044BE362044B236310BDC04685360000AD360000E53600001137000070B568254B1E5D430E1C291C743100F03DF9041E08D0002103
:402DC0002A1C016046600C30A0606832FFF7B0FD201C70BD836913B5002B28D18364C3640365134B134A1B6882620193984201D101238361041C00F01FF86060201C00F0D9
:402E00001BF8A060201C00F017F80421E06000226068FFF7A5FFA06809210122FFF7A0FFE06812210222FFF79BFF0123A36113BD6C3E0100512D0000F8B51D4B061C1D6865
:402E4000AB69002B02D1281CFFF7C4FF4835AC686B68013B05D40C22A75E002F10D06834F7E72B68002B06D1301C0421FFF79CFF2860002801D02D68E9E70C23336016E0D9
:402E80000123201C5B42E3810233A38167662760A760676027616761A7615C30391C0822FFF746FD201C6763A763A764E764F8BD6C3E0100F7B5041C071C002601914834B1
:402EC000002C16D06368A5680093009B013B00930DD4AB89012B08D90E22AB5E013304D0381C291C019B984706436835EDE72468E6E7301CFEBD0000F0B58B8991B09B07BE
:402F000006D50B1C47330B600B6101234B6145E00C1C0E23C95E061C002904DA8023A5891D4010D10CE001AA00F01EFC0028F5DBF023029D1B021D40194BED186B425D4118
:402F40008027FF0001E000254027301C391C00F071F800280CD1A3899A051FD402221343A381231C4733236023610123636115E080220C4BB362A38920601343A381206191
:402F80006761002D0AD00E23E15E301C00F0FEFB002803D00122A3891343A38111B0F0BD00E0FFFF512D000030B500293ED004390B68002B00DAC9181D4A1368141C002B20
:402FC00002D14B60116031E099420DD208680A189A4203D11368C3180B6053684B60216024E08A4203D8131C5A68002AF9D11D685C198C420BD1096869185818196090424C
:4030000014D110685268091819605A600EE08C4202D90C23036009E008680C18944203D114685268001908604A60596030BDC04688130020032370B5CC1C9C430834051C9E
:403040000C2C01D20C2405E0002C03DA0C2300202B6042E08C42F9D3204A1368101C191C002913D00A68121B0DD40B2A02D90A608B181FE08B4202D15A6802601BE04A6832
:403080005A600B1C17E00B1C4968E9E7144E3368002B03D1281C00F0E3FA3060281C211C00F0DEFA031C421CD0D00322C61C964386420AD11C60181C07210B301A1D8843F5
:4030C000821A0AD05142995007E0311A281C00F0C7FA431CBAD0331CECE770BD8813002084130020936810B5013B9360002B05DA9469A34208DBCBB20A2B05D01368581CD9
:4031000010601970C8B201E0FFF7A0FC10BDF8B5061C0F1C141CD518AC4208D02178301C3A1CFFF7DFFF0134431CF5D100E00020F8BD0000F0B59FB0061C0F1C0292059374
:40314000002804D08369002B01D1FFF743FE794B9F4201D1776808E0774B9F4201D1B76803E0764B9F4200D1F768BB891B070AD53B69002B07D0002306AD6B6120336B76EB
:403180001033AB763DE0301C391CFFF7B7FC0028F1D001204042CAE0059A111D12680591002A7EDB0992013423782E2B00D189E021786348032200F00FFB002808D0604BA2
:4031C0000134C01A40238340181C2B68184328602178631C5B4806220293297600F0FCFA002800D191E0584B002B00D084E00722059B07339343083305936B69039A9B18B7
:403200006B61029C2378002B04D1029BE31A049311D003E0252BF8D00134F3E7049B301C391C029AFFF773FF431C7BD06A69049B944663446B612378002B73D00122002371
:4032400052426A6002A95432521801342B60EB60AB601370AB6521783C48052200F0BCFA002809D0394B0134C01A01238340181C2B6818432860EEE72B68DA0604D5532207
:40328000202102A8121811701A0704D553222B2102A81218117022782A2A00D17CE7099B05E05242EA60022213432B607BE72278303A092A04D80A214B4301349B18F6E7E7
:4032C000099371E763782A2B09D1059B02341A1D1B680592002B0DDA01235B420AE0002301342278303A092A04D80A214B4301349B18F6E707935BE705AB0093301C291C53
:403300003A1C134B00E000BF07E005AB0093301C291C3A1C0E4B00F08BF80390039B013300D06AE7BB895B0600D532E70B981FB0F0BDC046703E0100903E0100B03E0100B2
:40334000D63E0100DA3E010000000000D03E01000F310000F7B5171C01930A698B6800900C1C934200DA131C221C3B6043321278002A01D001333B6023689B0602D53B6819
:4033800002333B60062523681D401ED0231C43331B785A1E9341226892061CD53020E1184031C870211C5A1C45310978A21840320233D1700FE0221C012300980199193289
:4033C000089EB047431C0ED00135E3683A689B1A9D42F0DBDAE7221C009801994332089DA847431C02D10120404220E006232068E1683A6803400025042B03D18D1AEB4386
:40340000DB171D40A3682269934201DD9B1AED180027AF420ADA221C0123009801991A32089EB047431CDED00137F2E70020FEBDF0B58BB006920A1C4332079305900492F0
:403440000A7E0C1C109B6E2A00D1A8E011D8632A22D009D8002A00D1B2E0582A00D0C2E045310A707C4A4FE0642A1DD0692A1BD0B9E0732A00D1A7E009D86F2A29D0702ABD
:4034800000D0B0E0202209680A43226037E0752A1FD0782A33D0A6E00E1C1A684236111D196013683370A1E021681A68080606D4490604D5111D19600023D55E02E0111DC8
:4034C00019601568002D3BDA2D23049A6D42137036E021681A68080606D4490604D51568111D1960ADB202E0111D196015685A4B227E03930A276F2A1DD108271BE0221CBF
:40350000782145321170554A19680392081D226818600D68100602D4500600D5ADB2D30702D520231A4322601027002D03D1202322689A432260231C002243331A7002E0B9
:403540000A27454B03936368A360002B03DB0422216891432160002D02D1049E002B0ED0049E281C391CFFF7A3F8039B013E5B5C281C3370391CFFF715F8051EF1D1082FB3
:4035800009D12368DB0706D563682269934202DC3023013E3370049B9B1B23612BE009681A68080607D4490605D5111D19601368A28A1A8004E0111D1960136862691A608F
:4035C0000023049E236116E01A68111D196016680021301C626800F0FFF8002801D0801B6060636803E0261C42363270012323610023049A1370079B05980093211C069BCD
:4036000009AAFFF7A7FE431C02D10120404221E0236905980699321C079DA847431CF4D023689B0705D4099BE068984212DA181C10E00025E368099A9B1A9D42F3DA221C0C
:403640000123059806991932079EB047431CDCD00135EFE70BB0F0BDE13E0100F23E010038B50023064C051C081C2360FDF7EEF9431C03D12368002B00D02B6038BDC046EF
:40368000841E002038B50C1C0E25495F00F0B0F8002803DB636D1B18636503E0A289024B1340A38138BDC046FFEFFFFFF8B51E1C8B89051C0C1C171CDB0505D50E23C95EAD
:4036C0000022022300F074F8A289054B281C1340A3813A1C0E23E15E331C00F01FF8F8BDFFEFFFFF38B50C1C0E25495F00F060F8A389421C03D1054A1340A38104E0802252
:4037000052011343A381606538BDC046FFEFFFFF08B50E23C95E00F015F808BD38B5051C0020074C2060081C111C1A1CFDF75EF9431C03D12368002B00D02B6038BDC04627
:40374000841E002038B50023064C051C081C236000F062F8431C03D12368002B00D02B6038BDC046841E002038B50023064C051C081C111C236000F057F8431C03D12368BE
:40378000002B00D02B6038BD841E002038B50023064C051C081C236000F04EF8431C03D12368002B00D02B6038BDC046841E002038B5051C0020074C2060081C111C1A1CE3
:4037C00000F042F8431C03D12368002B00D02B6038BDC046841E0020C9B28218904204D003788B4202D00130F8E700207047000038B5051C0020074C2060081C111C1A1C5A
:4038000000F02AF8431C03D12368002B00D02B6038BDC046841E002058220120014B40421A607047841E002058220120014B40421A607047841E00205822024B00201A605C
:403840007047C046841E002058220120014B40421A607047841E002058220120014B40421A607047841E002010B501F04FFC10BD10B501F061FC10BD10B501F065FC10BD7F
:4038800010B500F067F910BD10B50749044609780220002907D1204601F080FC002802D1204609F095FB10BD3A030020FFB585B0002568460E9F057339481C4600780028D8
:4038C00002D0082009B0F0BD10990F9801900097029105A807C800F067F80028F2D10120694603AA0D73002C1BD0002113E08B00E55A082D09D91E19B678002E05D0083DF1
:40390000E55213785B1C137003E0042901D2012003E0491CC9B2B942E9D31178042900D300200028CED110990F9800F0A1FF002801D00120C6E701F0FFFB1A4805990160EA
:4039400021888180A188C180A27A0272A17B4172A089012540084843A0810220A073208950432081A5726846037B22460799069800F0A2F80028A5D16846094C007B607020
:4039800001F0F3FB00289DD1064806F0F7FC002898D106F013FD002894D1257092E7000030020020E0040020FFB53A4F1C4603463F780020364A0A9E0B9D002F12D1002909
:4039C0000FD0029991420CD3002B0AD0002C08D00999042905D3002E03D0FF216E318D4202D2012004B0F0BD00210A460D463FE08B001E19B678002E36D0E35A002B33D094
:403A000073435B199DB20B0000F048F806040E15191D253F2388FF27A678233BEB37BB42DFD2032EDDD31FE0A3880C2BD9D91A4EB342D6D818E02389302BD2D114E0A3892D
:403A4000482BCED110E0228A134E1346233B223EB342C6D208E0A38A0F4F1E46233E223FBE42BED29342BCD80028BBD1491CC9B2099B9942BCD319461C2251434A1904497E
:403A8000521802998A42ACD8ACE70020EEE70000D808000030020020DCFF000030B47446641E2578641CAB4200D21D46635D5B00E31830BC18470000FFB50F4606460024E3
:403AC000384381B01D46800701D0012438E0FEF701FDFEF7E9FC00F097FA00282ED100F0D3FB00282AD11849084600F0F5FE0004000C23D13000154E04D03060B7800020E8
:403B0000F0803581AD1DEFB23946039800F046F804000ED1B088F2880837801AF9B280B201F0CAF9002801D0012407E0E8B200F019F900F031F906490120087000F076FAAA
:403B4000204605B0F0BD0000893C0000EC0400203202002010B503480078012801D101F04DF810BD3202002070B5084B0446DA889E8800205518B54206D81D68AA18226005
:403B8000DA885118D98070BD032070BDEC0400200148008970470000EC040020F0B587B007460D4600208900009006916846FFF7DBFF844600285DD130480099016000213E
:403BC00017E02E4B88001A680629115406D22C4C0419667882185670628805E0C419203CA67A8218567022891B68C018491C4280C9B2A942E5D300242DE0601CC2B2059083
:403C000025E01E4FA30039689600581840887118039604904E88B04217D938466F46FE80B6464F786E4677710297049F4F800168039F5E18767879184E7001687646591823
:403C40004E800068029F18184770521CD2B2AA42D7D30598C4B2AC42CFD36046002809D168460699FFF780FF8446002802D1054900980860604607B0F0BD0000340200207E
:403C8000383F0100380200207047000010B5002809D005494A68002A05D0011F08788000105801F0B7F810BD3402002010B50446FFF76EFFC0B2801DA0420CD30748406832
:403CC000002808D0A100405801F016F8002801D00470001D10BD002010BD000034020020F8B516460D460446FFF752FFC0B2801DA04203D20020C0430090F8BDB2B2E9B2D8
:403D0000684601F01FF80099481C03D0024AA000526811500098F8BD34020020F8B50746FFF736FF801DC6B20A49002005460C680DE06178002907D06188B94202D32078D0
:403D4000FFF7B4FF002804D1241D6D1CEDB2B542EFD3F8BD3402002010B5002801D0FFF795FF10BD70B506460948002504680BE06178002905D062882078121D0023FFF77C
:403D8000AFFF241D6D1CEDB2B542F1D370BD000034020020002070471CB5002469460C70142001902346054A05480CF0EBFF04480068401C00D1FF2420461CBD153E000071
:403DC0003C0200203EB5124A0146FF2000230124126800290DD0012914D0042908D104206946009308814B8110460CF0C6FF80B23EBD6846009304814381694610460CF04A
:403E0000B7FFF4E768460093048143816946EBE73C02002070B545890468416800890300FFF73CFE06240408081D2124002005F07BFA1BE0022908D0C8B22A4621460BF050
:403E40004BFA2046FFF788FF10E002202A4621460BF042FA2946204600F00AF806E000200CF084FC02E020460DF02CF8002070BD014B0022DB6818474002002070B5448997
:403E800005680089022803D0032809D0FF2070BD2246094C0023A46829460120A04708E0FFF7E6FC241DA2B200232946022006F048F9002070BD00004002002070470000B6
:403EC0000248002141600180418070474002002070B50C46002186B016460391012802D0022859D116E003A9012006F082F901281BD1039D324621462846FEF710FD009581
:403F0000287801900220694608814E816846FFF7B5FF41E0214D002B686809D0049004A9022006F066F901281DD0022006B070BD002812D0298840182146FEF7F0FC28888E
:403F40000024801980B228806988091D884206D12C801348FFF792FF03E00320E6E788421AD96C6018E004986860E278A378110219430B4A698000231060E35653600323E5
:403F800013815181A1788170E178C1706178417021780170042028800020C7E740020020F80400203EB515460C46022803D004280CD000203EBD009101900220694608811F
:403FC00007484A8100680CF0D8FE07E00BF084F9044B0022DB6829462046984701203EBD3C02002040020020014AD1609060704740020020034801688068081A0A214843D1
:40400000000970470405002010B5FEF753FA542204490548FEF783FC03490120C870002010BD0000543F0100E407002010B5FEF735FA10BD70B5134C2368002B08D0207B78
:404040001149C20705D04008400020738868A08070BD88680B4AA18880B29268814203D90A4D691A091802E0814202D2411A5118A160A080A0689842EAD300F015F80CF0C6
:4040800099FE70BD04050020C0102E40FFFF000010B508461946FFF7A7FF10BD704710B5FFF780FF10BD000003480021016041608160C160704700000405002010B5020027
:4040C0000DD0FFF7F1FF074C0321207B0843207310010A21FEF7ECFA2060002010BDFF2010BD00000405002000B504480A21806848430209FFF7D8FF104600BD04050020C1
:404100000248007B8007C00F704700000405002010B537490868002802DA364B01221A70022290430860344800693149C00B4031096A08425AD0012000F074FA2E482F494F
:404140007C30FEF707F92A480E216C30FEF702F9294820218430FEF7FDF8274814219C30FEF7F8F82448FF21C131A430FEF7F2F82148FF212F31B030FEF7ECF81E4820492A
:40418000BC30FEF7E7F81C481E49AC30FEF7E2F81C491948491CB430FEF7DCF816481A49B830FEF7D7F814481849CC30FEF7D2F8114817490830FEF7CDF80F481549A830D4
:4041C000FEF7C8F80C4814498830FEF7C3F80A4812498C30FEF7BEF807481921C9029030FEF7B8F8FEF7C4F8002010BDFF2010BD00F02E405002002000002E4055650000A2
:40420000320300002F3F00003102000010520000EC160000FA12000031D000003AE3000070B50646581C80B245086D00002408E0304600F07FF81055000A1119A41C48704F
:40424000A4B2AC42F4D3D80705D0D0182038D15CC47FD454C17770BD30B50A4C002100195B1E07E0541864782502545C2C430480891C89B29942F5DB994201D1515C0180F5
:4042800030BD000000102E4010B5FF2000F0CAF90F49FF2048700E481021801D41800121417001700A490020C91C4870FFF730FF04000AD100F0DEF807210648FEF73CF82B
:4042C000044807211830FEF737F8204610BD000050020020CC112E4030B504465B1C1804450C002308E0204600F024F8241D59005B1CA4B250529BB2AB42F4D330BD000067
:4043000070B500210A4D5B1E0AE0541864782602545C344346193480001D891C80B289B29942F2DB994202D1515C4019018070BD00102E40014940180088704700102E40BD
:40434000014A80180180704700102E4010B50B490020487000F08EF8002000F089F9002000F076F907210648FDF7E6FF044807211830FDF7E1FF002010BD000053020020EB
:40438000CC112E4010B506480078012803D102210448FDF7DFFF02490020C91E087010BD5302002070F02E4010B50B46062812D006DC01280CD0032801D1FFF7C7FF10BD7C
:4043C0000A28FCD00B28FAD105480078107010BDFFF75AFF10BD1146184600F065F910BD56020020F8B5204DAC6A0127A0071F4E002816DA307806280ED1286A384328627B
:404400001B480069F903084381B219481030FDF7A1FF042000F006F9134802212830FDF78BFFE00711D0062000F0FCF80F49FF20C91E48707078002802D1686B38436863B6
:40444000094801212830FDF777FFE0050BD53078042802D1052000F0E5F80348FF2101312830FDF769FFF8BD40F02E405302002000002E4010B503212348FDF76BFF01204F
:40448000FDF7FEFF20483038406A204C80076178800F890001431C480C38FDF75BFF6078002808D0401E022181401820FEF7F0F9C000083800E0B82081B21548FDF74AFFBE
:4044C0001348032109021438FDF744FF10481149B830FDF73FFF612189010F48FDF73AFF0D480321001FFDF735FF0C490C48FDF731FF0B480B496038FDF72CFF08480121F6
:404500008838FDF727FF10BD70F02E4056020020D8102E4090890000041E2E40FF0F000058122E4020900000044800684007400F022801D0002070470120704700010B40B9
:4045400000B5FFF7F1FF002805D009480168C908C900016000BD0748016A490849000162054801690122D2039143016100BD000000010B4040F02E4000002E4008490878AF
:4045800006280BD148780749002803D1486B400840004863C86A01221043C862704700005302002040F02E4001480078704700005302002002484078022800D001207047A2
:4045C0005002002000B50300FFF768FA080D050D0B070507090D012000BD032000BD042000BD022000BDFF2000BD0000074A9168D26889B2064B92B2994204D105498A4266
:4046000001D1012100E000210170704780002E4033D000003FE3000001494870704700005302002010B50446FDF73EFF072C01D9FF2C01D102480470FDF730FF10BD000024
:404640005302002001494870704700005002002010B5064A012805D01921C9021046FDF779FE10BD1D21C902F8E7000090002E4010B50A4A141D012808D009491046FDF727
:4046800069FE08492046FDF765FE10BD04491046891CFDF75FFE0349491DF3E788002E4031D000003AE300000078074AFF2803D04C2804D9553803E01078087070474F38BD
:4046C000087010707047000052020020F0B50122002830D000292ED00224420600D003246D2342065B06D21800D0641C034600221EE00C2516466E43104D00277519AF72CE
:404700000E4F002ABB51696007D0661EB24209D106466D367606760E05E05E06760E8027BE1B00E080269B198919521C2E81D2B2A242DED300221046F0BD000084060020D7
:40474000074900200C2242435218927A012A05D0401CC0B20428F5D3002070470120704784060020F8B5044616460F000BD0184D6868A04203D9FF306E30A04203D3FF20B1
:404780006E30864201D90120F8BD2046FEF7B8F800281BD0324639462046FEF7C0F8F0B200210C224A43521913895668F718A74208D90127A41B1B1B9772834206DAC01AFA
:4047C0001469C0B2491CC9B20429EAD30020F8BD8406002010B500F05BF80648FF22C1686E320C460448FEF79AF803492046FFF76DFF10BD5C0200201405002000207047AD
:404800000020054A002902D0012902D002E0506000E09060002070475C02002070B5084C154608460549A26889182A46FEF777F8A0684019A06028B270BD000014050020CB
:404840005C0200203EB50A226946FFF7E7FF044606480A2200686946FEF752F8002802D00020C0433EBD20463EBD00005C020020002803D0FF226E32914201D2FF207047C7
:4048800002490A61C8600020704700005C0200200248002141608160704700005C02002070B5074C15460548626880182A46FFF759FF60684019606028B270BD1405002042
:4048C0005C02002010B503490A220968FFF7E8FF10BD00005C02002010B50F4A002313600E4A13600E4B18600E4801600E49012008600E490860000290600E490C480860B9
:404900000D4914300860FF381538506000F0BCF800F0CAF9002010BD88020020700200209C020020A00200208C0200207C020020B40700208002002094020020014610B5B6
:404940000020002910D0094B1A689C685118A14209D25868196080188A0704D08A07920F891A091D196010BD002010BD70020020F8B50024164E671E321F3D463168136875
:4049800006E01422624310328A58521C1BD0641C9C42F6D36A1C14D02C461422544322460C3288500C214843FFF7C8FF3168002808510AD031680020103408517068401C78
:4049C00070602846F8BD2546E4E73846F8BD000080020020F3B50026F64381B000281BDB1E490968884217D80299002914D01B4F142204463F1D544325463968103548595B
:404A0000401C09D0FDF750FD38682F1F4159C359994203DBFDF742FD3046FEBD214608310091465801590C20704308180C220299FDF775FF0948761C001D0068C159B14271
:404A400000D100260549009A091D865008684159491C4151FDF722FD0020FEBD7C020020002803DB07490968884202D90020C043704704491422091D09685043103008583B
:404A8000704700007C020020F0B500200D4A451E0346171F50600FE014260146714314680E1DA3510C461668083433511668083435511468401C635039688842ECD300208F
:404AC000F0BD000080020020F3B50026F64381B0002841DB2349096888423DD8029900293AD0204F142204463F1D54432546396810354859401C2FD0FDF7D6FC3868415932
:404B000000292BD0211D009146580C21005971430F46C1190C220298FDF701FF11480021001D0068761C00590C34C0190160416081600C48001D00680159B14200D10026BC
:404B40000849009A091D865008684159491E4151FDF7A4FC0020FEBD3046FEBDFDF79EFCFAE700007C020020FEB504460D4600201E49089E0860471E009001900290002C75
:404B800011D0486885420ED2002A0CD0002E0AD0642E08D808460C3001681C2068430C18207A002801D03846FEBD0120226020721846FFF7DDFE6060401C13D06681A68102
:404BC0000A4827610C3067610179A94200D205710021684601810A462846029B00F040F82846FEBD00202072DDE700008802002038B50124009400F039F838BDFEB5002777
:404C0000164EFF433D4600240EE01C20316860430818017A002906D04068FFF721FF002801D0254603E0641C3079A042EDDA681C12D01C2130684D434419FDF735FC694654
:404C40006068FFF741FF0546FDF728FC002DD9D1216868468847D5E7FEBD00009402002038B50024009400F001F838BD1FB500220C49541E0A60002811DB496888420ED8AA
:404C800008491C220C31096850430818406801A9FFF7A0FE401C02D0002004B010BD2046FBE7000088020020F0B50021114A4D1E174611710C3F0B46BD6016E008461C24B5
:404CC00060431668041D355114680646235014680836A3551468361DA353044616680A34335318301468491C255078688142E5D30020F0BD9402002038B50021009100286B
:404D000011DB0F49097888420DDA0D4D04010C3529680859002807D0201D0818694600F071F9002801D0002038BDFDF7BDFB28680F34015D491E0155FDF7B0FB009838BD32
:404D4000A4020020F7B582B0002502986E1E06602E48D21C024017462D4A2C4610460C380178106805E02301C358002B0FD0641CE4B28C42F7D3711C28D03401211D40183B
:404D80000191039900F02CF900281FD101E02646F1E71F48016820460C300F521C480399026820460E30115419480399026820460F3011540398784300F0A0F81449002859
:404DC0000968085102D00024009011E001251AE00F48016801980818009900F02EF9002801D0012502E00098C0190090641CE4B203988442ECD3002D05D1029806600448A2
:404E00000179491C0171284605B0F0BDFCFF0000B0020020F8B50D4600216A468C461180002839DB23490978884235DA214B04010C3319680A59002A2ED020460C300B5A8B
:404E4000801C0E5C184670438018954224D3854222D2002006E007465F43BF18AF4206D0401CC0B2B042F6D36046002814D0114E271DC8190C366A46294600F008F900282E
:404E80000AD168460088012808D030682946C01900F0D3F8002803D00120F8BD0020F8BDFDF702FB30680F34015D491C0155FDF7F5FAF3E7A4020020F8B50F46002400F021
:404EC00033F8002817D10C4900220B460C334A600EE021011D680E466A501D680C36AA53B61C1D680F31AA551D68641C6A54E4B2BC42EED31A71F8BDA4020020014610B59F
:404F0000002000290CD0C91C064B8A08596892005C888A18A24202D898685A60401810BD002010BDA4020020F8B5064600200F4D009029700C0121466846FEF715FE00286B
:404F40000CD129460C3100980860301B001F84B221466846FEF708FE002801D0FF20F8BD6C800098A8600020F8BD0000A4020020F8B5002827DB19490978884223DA174C20
:404F800005010C342168485900281CD028460C30085A009028460E300E5C401C0E5420682F1DC01900F064F800280CD12068002445590EE0094829460C300068C01900F09A
:404FC0003CF8002801D00120F8BD00982D18641CE4B2B442EED30020F8BD0000A402002030B50D4604000BD0A800FFF787FF6060002805D000202570C0436080002030BDCC
:40500000012030BD70B50D46040005D0002D03D00220205E002801DA012070BDFDF744FA0221615E60688900405828606088401E6080FDF733FA002070BD70B50D4604008B
:4050400007D0002D05D002212078615E401E814201DB012070BDFDF727FA6088401C00B26080616880000D50FDF718FA002070BD10B5040009D0227800216068FDF758FC41
:405080000020C0436080002010BD012010BDF0B500231D46002802D00224045F0AE00120F0BD46689F00F6598E4201D1012503E05B1CDBB29C42F4DA15700020F0BD000063
:4050C0000148007870470000B80200207CB505460024FEF7CDFBA8796946087000A8062229460130FDF71BFC0021684604F07AFB0C2804D0072804D01F2804D004E00224D6
:4051000002E0042400E0272420467CBD10B502280BD0032802D0042809D102E000F0E0F805E000F0AFF9FF2801D100F0BFF9FFF73BFAFFF747FA10BD10B500F0E7F9FFF74C
:4051400033FAFFF73FFA10BD70B504460025FEF78FFB002C06D0A079012803D8214602F06EFB00E00125284670BD10B503240CF073FA002810D10CF017FA00280CD105F00C
:4051800087F8002808D100F09DFB002804D104F083FD002800D10024204610BD70B50025044600280ED0A07901280BD8FEF760FBA0790028204602D002F09AFF03E002F03E
:4051C0004FFF00E00125284670BD10B5FFF7ECF9012801D1FFF7EEF910BD38B504460120002C20D0617801291DD800290BD0FF25E535FEF73DFB2846FFF79CF8C0B22070A6
:40520000072803D00EE0FF25CD35F2E70020694608706846FFF7EAF969460878012801D108202070002038BD70B504460120002C1FD06178012902D92278092A19D800294A
:4052400005D0FF25E5352078092803D004E0FF25CD35F8E708202070FEF70AFB2078082808D00020FFF704FA21782846FFF768F8002070BD0120FFF7FBF90721F5E7000077
:4052800070B50D46040001D0002000E00548002802D0012102F0DCF82946204602F03EFC70BD00005808002038B5054600200446009022466946284600F0A0FF00980028BE
:4052C00001D00CF0ABF9A878214602F0E6F9A878214602F0D5F9641CE4B2052CE9D338BDF8B5624CFFF760F9012846D160480078002842D002F096FB0028FAD003F07CFF7F
:405300000028F6D05B4E7078C00703D000F047FC0128EED0B07E0028E7D170780025002878D0000707D5AC20FFF704F8070B00F061F9384321D14F484178684603F034FE22
:405340004D4F06462079B9784018C1B2B14271D802F068FB002810D0464C203402F08FF96846008802F0BBF902F064FA43490988884203D10120FFF755F974E0404901206D
:4053800008703C48807B00282BD04034608A002827D0E07E002824D1A1200001FEF7CAFF208A4000B04218D97878002815D1A12424012046FEF7BEFF0221884301462046F3
:4053C000FEF7BEFFFF24F1342046FEF7B3FF0321090201432046FEF7B3FF3878002800D03D7002F0BFF90120FFF716F9244C08E0FCF7A2FEFFF7D8F806282CD02078002866
:4054000029D0FFF7D1F8062825D020780128EFD021E0FFE702F006FB002824D0142002F05EF9174C0120207002F09CF90020FFF7F3F809E015E0FCF77FFEFFF7B5F80628E3
:4054400009D02078002806D0FFF7AEF8062802D020780128EFD0207801288BD1FFF770F825700020F8BDFF20F8BD0000240800205002002038080020BE020020D0020020F8
:40548000B902002010B50848FF244078002809D102F0C8FA012805D1FEF774FF0720FFF7C1F80024204610BD3808002038B5FFF77BF8012801D0002038BD02F0B3FA00284B
:4054C0000AD0114C6078C00703D000F068FB012802D0A07E002801D0FF2038BD617800290FD0684603F060FD022806D96846008802F0F5F8012002F03BF90320FFF792F8A3
:40550000D9E70020F7E700003808002038B5FFF74BF8042819D0052817D006281AD0032842D007280AD100206946087002460120FEF73AFFFFF738F80128FBD138BDFCF7BE
:40554000FBFDFFF731F80128F8D0FFF72DF80128F5D138BD02F02AF905E0FCF7EDFDFFF723F8012803D0FFF71FF80128F5D1A12424012046FEF7DEFE01220E4983079B0F75
:405580000A70022BE5D149880029E2D0104301462046FEF7D5FE2046FEF7CCFE410849002046FEF7CDFE38BD02F004F90120FFF739F838BDBE020020F8B50646002402F02D
:4055C000A9FE0546304602F0BDFE00210346012632468A40174610462F401840002F03D0002801D1224394B2491CC9B20529EFD32046F8BD70B500252C460A4E03E0002C94
:4056000001D0002000E030460079002803D02046FFF7D2FF0543641C2406240EEFD0284670BD0000580800201CB50020694648706846FFF7D2FD01AA69460A20FEF7B4FE8E
:405640006946042008561CBD10B50C4601F07CF9002809D00179002906D0C1788078224602F00AFB002010BD022010BD0148007870470000240800204030C07E002800D053
:405680000120704700B500F001F800BD88214843064940186030417F491CC9B24177052901D300214177C8B2704700003808002013B501F049F904000BD001F09CFC0028FD
:4056C00007D0214601AA0A310620FEF76DFE00201CBD02201CBD000010B50C4601F034F900280AD001F087FC002806D0224604490A20FEF759FE002010BD022010BD00005C
:405700000D080020F3B581B0074601460026029802F0F8FD0446002F01D0002500E0154D002D21D0284601F045F9032C04D13946029802F011FE06463846029901F0A0FFA1
:40574000032C06D0002C10D00121384601F020FA03E03146384602F0B3FF284601F05EFE0221284601F074FEFEBD3846029901F087FFFEBD5808002070B50446002503F035
:40578000A9FB002801D00C2070BD2078611C02F06DFBFF2802D01F25284670BD02F0BAFBFF2804D02178621C01F0DCFEF4E70725F2E710B503F08EFB002801D00C2010BD15
:4057C00002F02CFB002010BD70B50D46044610210BF064FE1021601806460BF05FFE334610221946204603F0A1FB102130460BF055FE02202870204604F0A6F970BD70B50D
:4058000004464078217802028006850FE0781143A67809050002090D0643084601F094F8002812D0022D10D0032D0ED0002E08D00179092909D0002907D0214600F0A1F809
:4058400070BD0089002104F0B4F820460BF0E6FE70BD0020704770B50446002503F03AFB002801D00C2070BD2078611C02F0FEFAFF2802D002F040FA00E01F25284670BD77
:4058800010B504F009FA00F0F6F8002010BD10B5044600786178E2780843A17811430843217908436179084305D003F005FB002803D00C2010BD122010BD204602F018FC73
:4058C000002010BD10B5044803F026FC02F01EFA00F004F8002010BDF4070020F8B5114D00266E706E736E716E76AE76EE766E75AE70EE70AE712F46EE730120B037787216
:405900003F207871FF20B87100F00EFA0024204601F038FB641C2406240EF8D03E72FE71AE73F8BD3808002070B505460E46084602F0F0FC0446304602F004FD0121A9408A
:405940000A46224001400A4301D0012070BD002070BD10B50446084602F0F4FC0121A140014201D0012010BD002010BD10B5FEF71BFE032804D101F01DFF0120FEF752FE04
:4059800010BD70B5044600790D4609281CD000281AD020464030817E491C8176204601F03DFDA078FFF76EFE064602462946204600F00CF8002806D1A0783146FFF760FC37
:4059C00028460BF02BFE70BD0846FAE7F7B5054648780C468006870FC8788978000282B0014368468180284601F010FB060007D021462846049A00F095FB304605B0F0BD1A
:405A0000384600F03DFC0746034601AA2946204600F0CEFA68468088231DC0B20090A878FF22049902F034F8684680883B46C2B2A878049902F0D8FBDFE770B5002500249C
:405A40002846FFF7B9FD060010D03046E040C007C00F07D02146284601F005FE21462846FFF750FE641CE4B2052CEED36D1C2D062D0EE4D070BD10B502F048F9FFF72EFF46
:405A80000BF034FE002010BDF8B5002400F081F80123012800D10124104F00203E4620360425082203E0002801D0002100E031460979002907D001290BD002290BD011466B
:405AC00081402143CCB2401C0006000EEBD07C70F8BD1C43F7E72C43F5E700003808002010B5FFF7D1FF10BD10B50B4681791943817103D08078114602F03AFB10BD10B5BE
:405B000082798A43827102D1807802F049FB10BD70B5FF25D53502242846FEF70BFC0C4A9178002901D0022906D1137852789A18282A01D9032402E0032900D101244105FA
:405B4000490DE00201432846FEF7FAFB70BD0000BA02002010B500F022F8002807D0012805D0032801D0042801D0002010BD012010BD014610B50020C90701D000F009F8EA
:405B800010BD014610B50020C90701D000F001F810BD10B52020FEF7CDFB000A10BD10B51820FEF7C7FB410501D5042010BD4007800F10BD38B5044640060CD5684601F09B
:405BC00009FE0220FFF78CFF072002F0BBF96846007801F045F9200613D5FFF7E0FF01280FD1684601F0F6FD6846007800F09EFA072002F0A7F9012001F078FC0220FFF756
:405C00006FFF38BD10B5034A0178117002F0A9F9002010BDBA02002010B50446FFF7B9FF002801D00C2010BDA27B01211848002A827801D00A4301E05208520082706279AE
:405C4000012A0FD0C17849084900C170207901280CD06188208802F0A1FF2080207904280BD00DE0C2780A43C270EFE7E01D02F027FA0848808C208002E0E01D02F020FAA2
:405C8000054920798870204602F07AF9002010BD38080020E4070020BA02002038B50478FFF777FF844201D10C2038BD002C18D0072069460870FFF74DFF012807D10121B1
:405CC000684600F091F8012801D0092038BD6846007802F037F9FFF71BFF02F07EF9012014E0FFF737FF012806D1684601F072FD6846007800F04EFA072002F023F902F0D0
:405D000063F9FFF746FF0028FBD10220FFF7E8FE002038BD10B5034A0178517002F000FA002010BDBA02002038B568460BF00CFC002801D01F2038BD01210098C9020180F3
:405D40004180002505714571857107214173857302F016F9009C202200212046FCF7E8FD25702A460021601CFCF7E2FD204602F0F8F8204602F0D4F900980BF04FFC042224
:405D800000210248FCF7D4FD002038BDBA0200200346084800B5834209D8184600F0D4FD002804D00089984201D1012000BD002000BD0000FF0E0000074A9179491C890668
:405DC000890E917138220A4092014907090E1143084302490840704738080020FF0E0000C006C00E70470000F8B507460E4600240D4803E0002C01D0002500E00546297932
:405E0000002905D0641C2406240EF3D00020F8BD204601F0B7F82E712046FFF7CDFF28813C700120F8BD00005808002010B503F0B1F80222002100F003F801F00FFF10BD1B
:405E400010B5094B40074907000F090F185A595A40185043C0086421FCF72AFC002800D1012080B210BD0000A83F0100F7B53D20405C88B016460C46002829D030786946D1
:405E8000087200252046FFF7F7FB012800D00125204603A938300191009023460327A17E34332A46206A03F051F902A8089900900B46019120463A4603A9243003F018F843
:405EC00002466846007A3070204601F047F810460BB0F0BDFFB587B00C4605461078694608723D20005D1746002826D000262046FFF7C2FB012800D00126204603A93830F7
:405F0000019100902346A17E34333246206A03F01DF902A80090291D019120462B1D03A924300A9A02F0E4FF02006846007A388002D1204601F012F810460BB0F0BDF7B58C
:405F40003C20405C88B015460C4600280CD0287869460872002806D000262046FFF78CFB012803D003E01F200BB0F0BD0126204603A938300191009023460327E17E3433CE
:405F80003246E06903F0E2F802A8089900900B46019120463A4603A9243002F0DBFF02466846007A2870204600F0E2FF1046DBE7FFB505463C20405C87B016460C46002888
:405FC00010D0084601F022F801280BD0308869460883002809D000272046FFF74DFB012805D005E000200BB0F0BD0220FBE70127204602A93830019100902346E17E343345
:406000003A46E06903F0A2F806A80090291D019120462B1D02A924300A9A02F09BFF02466846008B30806846008BA870000AE870204600F09DFF1046D5E770B50D4604466D
:40604000FFF71AFB01280AD0E87AA97A00020143A07801F0C1FC012808D0002070BD00222421204602F0E4FC242070BD28214C200155204600F09AFB282070BD002801D0BF
:40608000002000E003484030C07F012800D0002070470000580800200146002049070ED50021084B03E0002901D0002200E01A461279022A04D0491C0906090EF3D07047B9
:4060C00001207047580800200146002049070ED50021084B03E0002901D0002200E01A461279022A04D0491C0906090EF3D07047012070475808002010B504468034606888
:40610000002803D00BF09EFA0020606010BD4030417070474030817070474030017070470171704792001018C166704770B53C2501F0F6F8040004D020460021433001F0B3
:40614000EBFB2946204600F0C3FB002C02D0A07801F078F870BD000010B5002801D0002000E00348002802D0008903F069FC10BD5808002010B5002801D0002000E00448D7
:40618000002804D00179072901D100F041F810BD5808002010B501F0C3F8002802D0807801F050F810BD00207047000070B50546008A00281ED010491122897A1140C906F2
:4061C00018D5294640314A8A098A521C4A4392B2D10800D10121540801E0621A94B2A042FBD9FEF76DFF012804D1298AA878224601F0E2FC70BD0000E407002000230B607C
:40620000052A04D292001018C26E0A60C366704738B5044600200090A079002814D14020015D052901D00E290ED168460BF09CF9002809D12046009902F0E2FB03481021BB
:40624000C28A2046FFF750FC38BD0000E407002010B50B4604460146184602F0B1F8002802D020460BF0E4F910BD13B5044601AA11460620FEF798F86846818861811CBD54
:40628000002800D10220704770470000F8B504462346401D543300909A1EA078911E01F0A8FA25464035A88A298A8000FCF700FA401E81B2688A884203D96982A07801F020
:4062C000E2FF20460021433001F026FB8020FEF731F8E88102F05EFEE989891C8AB26179FFF7AEFD01F0BAFC02F054FE2A8A6179FFF7A6FD074601F0A3FC688A00280BD08A
:40630000FF26F1363046FEF715F80321090201433046FEF715F802E0002001F0A2FFFF206130FEF707F86E8A002E0BD070431049FCF7AEFA0004000C01D0401C80B20D4909
:40634000488002E00B4800214180288A704381B2A07801F0F3FE2837B9B2204602F022FCE98AA07801F042FEA07801F0ACF9F8BD71020000BE0200207FB5044680346168FF
:4063800005460E46183108226846FCF7C8FA31462031082202A8FCF7C2FA102168460BF07DF86068102108300BF078F860682B46083024331022694602F0B8FD7FBD10B5E1
:4063C00004460821FFF79BFB10212046FFF797FB207905281FD006281DD008281AD12189002003F0A5FA072020712046FFF744F9014620464030012913D00E2101700021FC
:406400000176204600F02AFF2046FFF775FE2046FFF7CCFE10BD20890122002103F06CFAE1E70521EAE70000FFB581B01F4604460821FFF764FB10212046FFF760FB20790C
:40644000082803D0092804D0042203E00422012501E009220025204600F0C4FD264600204036307022712046FFF746FE0398002D02D0012808D00BE001280AD1208900224D
:40648000029903F039FA04E02189029803F050FA012700203076012F04D0204600F0DEFE05B0F0BD02983073204602F0EDFA054605480121C28A2046FFF716FB002DEFD154
:4064C00009202071ECE70000E407002070B50C460546FFF7D1F8012809D108212846FFF70EFB0023012221462846FFF79DFF70BD10B5044600F076FD2046FFF7FDFD002127
:406500004034217010BD70B505461A24FFF7B4F8012809D108212846FFF7F1FA0023012221462846FFF780FF70BD0000F8B50446002000900E4668460BF016F8002801D056
:406540000D20F8BD8420005908212030009D00F0F7F920460421383000F0F2F9002E02D1204600F07DFD2946204602F0D9F90E480821C28A2046FFF7B7FA204600F0D5FE0D
:4065800025464035002808D0204600F023F8002801D0092028700020F8BD08202870204600F03CFFF7E70000E4070020014610B540310A460978082906D0092907D00A2930
:4065C00001D100F091F810BD0B20107010BD00F001F810BD70B50446007925464035052805D0062803D008280FD00C2070BD03220621204602F01CFA0D480821C28A204638
:40660000FFF772FA1120287010E006202873204602F03AFA0646AA8A0A20424301212046FFF762FA002E01D109202071002070BDE407002038B504460020009068460AF048
:4066400093FF002801D00D2038BD2046009D00F08DF908202071204600F002FD2946204602F090F900213D2001550F2040210855204600F0D3FE002038BD00B5024600F0AC
:40668000B1FC10214032117000BD10B50446FEF7F3FF012809D04020005D112805D100231A4606212046FFF7BFFE10BD10B5FFF786FE10BD38B504460021684600910AF05B
:4066C00053FF00280CD12046009902F0D2F905480821C28A2046FFF707FA0D204034207038BD0000E407002038B504460021684600910AF039FF002801D00D2038BD2046ED
:40670000009902F0ABF905480821C28A2046FFF7EBF90C2040342070002038BDE407002000787047F8B50025002801D0002400E01A4C002C28D0204600F05DFC002823D086
:40674000207903281CD005281CD026464036B18AA07801F001FDB078012815D10021204601F04BFE274680373868002802D00AF069FF3D600020B0702079072805D007E0B3
:40678000042000E006202071F8BD2046FFF70EFD0221204600F05CFEF8BD00005808002010B54C22115400F046F810BD10B50446FF21FFF7A4F909202071A07801F0FCFCEA
:4067C00010BD000038B5FF216A461180002801D0002400E0064C002C08D011460620FDF7E3FD684601882046FFF73FFD38BD00005808002010B504468079002809D022214A
:406800004C200155FF212046FFF779F9204600F012F810BD10B5037902464032002B03D01173092B02D003E0002100E02221117300F001F810BDFEB504460089002700905A
:406840002781207926464036002817D0012815D002280AD112E002AA01A9204601F09EFD002807D101980AF0E3FE204601F0BEFD0028F0D02046FEF717FDB776254680356F
:406880002868002802D00AF0DDFE2F606868002802D00AF0D7FE6F60317B002915D0009800F047F8A078002100F026FF2046FFF7BDFAA07801F07AF8A07800F0C3FC0B2033
:4068C000FFF70EF900F002FCFEBD1F213173E6E770B50E46054602F059FB044606702846FEF7CAFE014601204140204661700C3000F0FBFF002D10D028896080284640308A
:40690000C1782171002E10D169796171018AE180418A2181808A608107E01820FDF70AFDC005C00F207100206080204602F0A9FF70BD0A4610B50146002003F099F810BD4C
:4069400010B50AF087FB10BD00B50146FFF748FA002801D0002000E00348002802D002898A4200D0002000BD5808002038B5044680346068002806D168460AF005FE00288E
:4069800001D100986060606838BD000010B5014600F03CFB0128887802D0FEF777FE10BD88214843024940186030007F10BD00003808002070B5054604464035A87F0128F9
:4069C00011D1A1788820084A484380186030067F3046FEF7A9FF002805D10220A877A078314601F0A9F870BD3808002010B50E4CE079002816D0FFF720F80C48827FC17F41
:406A0000808B00F06BFB01280CD10020E07100F0EAFE0446AC20FDF78DFC010B02D0204600F00EFA10BD0000E80800203808002070477047490510B5490F0B00FDF72EF89C
:406A4000060704080C0C0F073E21FFF7A9FE10BD0821FFF7DFFE10BDFFF7EDFE10BDFFF7C9FE10BDF8B507460025002D01D0002600E0204E00F06CFE304640304489002146
:406A8000418100F08BFE304600F0B5FA01282BD1A00702D52846FFF745FEE00602D52846FFF790FEA00601D5FEF7C7FF600601D500F0C8FA200602D5284600F01DF8600791
:406AC00002D5284600F0FAF9380402D52846FFF751FB780402D52846FFF73EFBE00703D021463046FFF7A6FF6D1C2D062D0EBCD0F8BD000058080020F8B5002801D0002407
:406B000000E0204C002C39D025464035A878012834D1E98AA07801F069FA2046FEF7ACFD01282BD002F036FA2A8A6179FFF788F9064601F085F82836B1B2204602F032F87B
:406B4000E98AA07801F052FAFF206130FDF7F2FB6E8A0D4F0146002E11D0304648430B49FBF796FE0004000C01D0401C80B27880288A704381B2A07801F0E0FAF8BD002080
:406B8000F5E7000058080020BE0200207102000070B50D46124A010001D0002401E014462034002C1BD0204600F030FA01280AD18820484380186030007FFEF7B5FE002888
:406BC00001D101F0EBFE20464030817E491B8176204600F023FC2089294602F0EAFE70BD3808002070B503460088FFF7ADFE040013D000F000FA00280FD02079092819D0A3
:406C00002546997840352973204601F03DFF0646A878012803D0AA8A02E0022070BDEA880A20424301212046FEF75EFF002E01D109202071002070BD0EB5002217216B4697
:406C40000292198100905A810120029B00990AF06BFD0EBDF8B5184E0024F079002820D10025AC20FDF766FB000B21E0204600F06FFEFDF75FFB07462A46214600F02EFA9F
:406C800001280FD00D48012187838577C477F171002D01D0002000E02030002801D000F0BDFBF8BDAC20FDF745FB000B641CE4B20028DBD1F8BD0000E808002038080020F4
:406CC00010B50088FFF740FE002809D0014640310C460978082905D00B2903D00C2010BD022010BDFFF776FC002801D009202070002010BD70B503460088FFF725FE040078
:406D000008D0254640352878082805D00B2803D00C2070BD022070BD8420005910220830991CFBF7FCFD2046FFF726FB2878082804D02046FFF7D8FC002801D00A20287035
:406D4000204600F06BFB002070BD000010B50C46002121700088FFF7F7FD03000BD000F04AF9002807D009481121807A0840C00603D4112010BD022010BD022020701A8A1A
:406D80001889002102F090FE002010BDE4070020F8B50F46002100910088FFF7D5FD040012D000F028F900280ED0E079410641D4617E02264A07002A08DB89074025002960
:406DC0001ADA2843E07135E00220F8BD02F0DEF80021017021894180A1898180217E4170E189C1803E7005460178134802F0C2FB284602F0FDFD1DE0204600F00DF90128B4
:406E000006D068460AF0B0FB002803D00720F8BD2A20F8BDE07900992843E071204601F05DFE607E0421304360760448C28A2046FEF75AFE0020F8BD1D040000E40700205B
:406E40003EB500220F236C460292238100910190628169460EC900200AF066FC3EBD000070B5054600F05CFA040021D003202071254600264035EE76E6702046FFF706FA64
:406E800001F0A2F80920FEF72BFEA07800F07CFD0121204600F0DCFA2E706E70AE7000212046FFF715FD0449887B401C887370BD284601F081F970BD3808002010B50028E1
:406EC00001D0002400E00A4C002C0FD020464030417802290AD1002141702046FEF7CCFB002803D10221204600F0B2FA10BD00005808002070B503460D460088FFF724FD05
:406F000004000BD000F077F8002807D012481121807A0840C00603D4112070BD022070BD20464030418A008A491C41430804C10C5888884201D2122070BD208220790728C9
:406F400002D12046FFF732F9022028702089002102F0D2FD002070BDE4070020016A491C016204D1817E491C4906490E81767047C169491CC16104D1C17E491C4906490E8A
:406F8000C176704770B500250646002801D0002400E0114C002C1CD0882200212046FBF7C7FCA67000202646207140363070204600F018F8204601F015FA0848208208489E
:406FC000B577807A1121084000D001202075012070BD002070BD000058080020B80B0000E4070020002101628176C161C17620300177417770470079002805D0012803D005
:40700000022801D001207047002070474030807F002800D00120704740300078002807D0012805D0052803D00E2801D0012070470020704710B5807801F084F9002800D0A9
:40704000012010BD10B500F0CEFB0446AC20FDF771F9010B02D02046FFF7F2FE10BD000070B5054604464035A87F002823D1FF206075A0788821144A484380186030417F41
:407080008823491CC9B24177A078584380186030052901D300214177A0788821484380186030467F0677A1783046FEF73DFC002802D00120A87770BD0220A877A07831462D
:4070C00000F03AFD70BD0000380800200020401C0006000EFBD0002070470000F0B515468207920F85B0C004C00E02926A469080002D01D0002400E0514C002C29D0084653
:4071000000F026FC03906846808800280BD00298012845D0022843D003280CD03D20005D012872D086E00398FDF704F901462046FFF79BF87EE00020029002A80AF0F4F9E7
:40714000002807D03D20005D012876D12046FFF705FF72E06846029E8388324600210398FDF75EF80398FDF7E5F801462046FFF77CF8284600F0B9FA01AA21463046FEF74C
:4071800075FE002806D030460AF03EFA3D204C21085528E0F5773146204601F071FA4CE000200090278968460AF0AEF9002802D0002005B0F0BD6846009E8388321D0021C4
:4071C0000398FDF72DF80398FDF7B4F801462046FFF74BF8284600F088FA25464035287E00280CD103E02046FFF7E0FA25E001AA21463046029BFEF76DFE002806D0304638
:407200000AF0F8F93D202873EDE710E00298FFF73BF8390A000101433770717068468088B070000AF0703046FFF706FD05E02046FFF794FE284600F058FA0120B9E70000E1
